:100000000C9448030C948F030C948F030C948F036F
:100010000C948F030C948F030C948F030C948F0318
:100020000C948F030C948F030C94A6270C947A28BD
:100030000C9437200C948F030C948F030C948F0333
:100040000C948F030C948F030C948F030C948F03E8
:100050000C948F030C949D200C948F030C948F03AD
:100060000C948F030C948F030C948F030C948F03C8
:100070000C948F030C948F030C948F030C948F03B8
:100080000C948F030C948F030C948F030C948F03A8
:100090000C948F030C948F030C948F030C948F0398
:1000A0000C948F030C948F030C948F03165C1E002A
:1000B0001F0020002100220023002400250026002C
:1000C00027002D002E0000002A002B000000140045
:1000D0001A000800150017001C0018000C00120080
:1000E00013002F0030003100015100000400160001
:1000F000070009000A000B000D000E000F0033007E
:10010000340028000000E10000001D001B00060074
:1001100019000500110010003600370038000000FB
:10012000E5000000E000E3000000E2002C00000019
:100130002C0000002C000000E600015100000251DC
:10014000E40035003A003B003C003D003E003F002B
:1001500040004100420043004400450001004C00C3
:1001600001000000AC00AE00AB00005C0100B2007A
:100170004B0052004E0046004700480001000100BD
:1001800000000100AA00A900A80001004A005000D8
:1001900051004F0049004C00640000000100650060
:1001A00001000100390001004D00010001000100C3
:1001B0000100010000000100010001000100000039
:1001C00003510100000001000000010000000100D7
:1001D0000100010001000100C25CCD5CCE5CCF5C7F
:1001E000D05CD15CD25CD35CD45CD55C0100C45CD7
:1001F000C35C0100010001000000C55CC75CC95C74
:1002000001000100010001000100010001000100E6
:100210000100010001000000C65CC85CCA5C01006E
:1002200001000100010001000100010001000100C6
:1002300000000100010001000100010001000100B7
:1002400001000100010001000100000001000100A7
:100250000100010000000100010000000100000099
:100260000100000001000100010001000100010087
:1002700001000100010001000100010027126402D9
:100280000100010001000100010001000100000067
:1002900001000100010001000100241425122612B2
:1002A000271401000100010001000100000001000D
:1002B00001000100010001006400251426146402FD
:1002C0000100010001000000010001000100010027
:1002D0000100010001000100010001000100010016
:1002E0000000010001000100010000000100010008
:1002F00000000100000001000000010001000100F9
:100300000100010000047F3F1F643214643214783E
:100310003C1E1E140A052223252628292A2C2D2FAF
:100320003032333536383A3B3D3E4042434547490B
:100330004A4C4E5051535557595A5C5E6062646640
:1003400068696B6D6F71737577797B7D7F8183854C
:1003500087898A8C8E90929496989A9C9E9FA1A34E
:10036000A5A7A8AAACAEAFB1B3B4B6B8B9BBBCBE72
:10037000BFC1C2C3C5C6C7C9CACBCCCDCED0D1D2EE
:10038000D2D3D4D5D6D7D7D8D9D9DADADBDBDBDCF0
:10039000DCDCDCDCDDDDDDDDDCDCDCDCDCDBDBDB9C
:1003A000DADAD9D9D8D7D7D6D5D4D3D2D2D1D0CEFC
:1003B000CDCCCBCAC9C7C6C5C3C2C1BFBEBCBBB901
:1003C000B8B6B4B3B1AFAEACAAA8A7A5A3A19F9E7F
:1003D0009C9A98969492908E8C8A89878583817F47
:1003E0007D7B79777573716F6D6B69686664626028
:1003F0005E5C5A5957555351504E4C4A49474543F4
:1004000042403E3D3B3A3836353332302F2D2C2A90
:10041000292826252322FFAA7F554000010101013A
:1004200001010101010202020202020202020303AF
:10043000030303030303040404040404040505057F
:100440000505060606060607070707070808080841
:10045000090909090A0A0A0B0B0B0C0C0C0D0D0DEE
:100460000E0E0E0F0F0F1010111111121213131484
:1004700014151516161717181819191A1A1B1B1CFC
:100480001D1D1E1E1F202021222223242425262656
:10049000272829292A2B2C2D2D2E2F30313232338B
:1004A0003435363738393A3B3C3D3E3F4041424394
:1004B0004445464748494A4C4D4E4F505153545578
:1004C0005658595A5B5D5E5F616264656668696B28
:1004D0006C6D6F7072737577787A7B7D7E808283A6
:1004E0008587888A8C8E8F91939596989A9C9EA0EA
:1004F000A2A3A5A7A9ABADAFB1B3B5B7BABCBEC0F7
:10050000C2C4C6C9CBCDCFD1D4D6D8DBDDDFE2E4BF
:10051000E7E9EBEEF0F3F5F8FAFDFF040330000035
:10052000000A0344005A0036003000000010034B5C
:100530000042004400460061006E007300000004A9
:1005400003090409023B00020100A0FA09040000AB
:1005500001030101000921110100012240000705EA
:10056000810308000A0904010001030000000921B9
:100570001101000122C0000705820320000A1201B8
:10058000100100000008EDFE6022010001020301DD
:1005900005010902A10185020901A100050919014E
:1005A0002905150025019505750181029501750341
:1005B00081010501093009311581257F95027508F2
:1005C000810609381581257F950175088106050C7E
:1005D0000A38021581257F950175088106C0C0057E
:1005E000010980A10185031A81002A8300160100F8
:1005F000260300950175108100C0050C0901A101B9
:1006000085041A01002A9C02160100269C0295010D
:1006100075108100C005010906A1018505050719AE
:10062000E029E715002501950875018102050719E4
:100630000029EF1500250195F075018102050819C3
:10064000012905950575019102950175039101C078
:1006500005010906A101050719E029E71500250193
:10066000950875018102950175088101050719003A
:1006700029FF150026FF0095067508810005081959
:10068000012905950575019102950175039101C038
:1006900011241FBECFEFDAE0DEBFCDBF04B603FEEC
:1006A00027C08091A8029091A902A091AA02B091BE
:1006B000AB028730904BA740B04BD1F41092A80208
:1006C0001092A9021092AA021092AB0214BE84B733
:1006D000877F84BF0FB6F894A895809160008861E9
:1006E00080936000109260000FBEE0E0F8E309958F
:1006F00011E0A0E0B1E0EAE4F6E502C005900D9259
:10070000AC35B107D9F722E0ACE5B1E001C01D92EC
:10071000A83AB207E1F70E94D0240C94FB2A0C946B
:1007200000000C949309229A2A9A08950E94920933
:100730000C94930381FF03C02A980C94EE032A9A29
:10074000FCCF81E0089581E008950C94A3031F93EA
:10075000CF93DF9300D000D00F92CDB7DEB749839F
:100760005A836B832091960189819A8121111BC044
:100770006623A9F00E94601D182F682F89819A8135
:100780000E940C1D69817A81812F0F900F900F902C
:100790000F900F90DF91CF911F910C94B6060E949D
:1007A000381D182FEFCF0E94601D69817A81EDCF2F
:1007B000FC01408151816281738184810C94A70383
:1007C0000E94A41E811102C00E944A1F0E94B21101
:1007D0000C9496030E94B1110C949103089581E04A
:1007E00008950C94EF03CF93C82F0E949A038C2F87
:1007F000CF910C94F10308950E944C180E94FB03C2
:100800002FEF84E39CE0215080409040E1F700C04E
:1008100000000C94C1200F931F93CF93DF938C01A2
:100820000E94D803EC01B8010E94A503882309F4B3
:10083000FCC0B801CE010E946712882309F4F5C0FC
:10084000CB3C8CE5D80709F433C108F051C0C33C58
:10085000ECE5DE0709F403C148F5C6318CE5D8079D
:10086000A8F4C2309CE5D90708F09FC0C115ECE59B
:10087000DE0709F4D5C0C130DC4509F4DCC0C8018D
:10088000DF91CF911F910F910C94A103C6318CE59C
:10089000D80709F447C2C23CDC4589F7F8018281D8
:1008A000882309F4C2C00E94A20FBFC0F801828150
:1008B000C73CFCE5DF0709F4EBC068F4C53CECE598
:1008C000DE0709F4E0C008F4D5C0882309F4ADC000
:1008D0000E94370DAAC0C93C9CE5D90709F4E2C0C3
:1008E00008F4DBC0882309F4A0C00E94730D9DC0EA
:1008F000C33DFCE5DF0709F419C190F5F8018281D9
:10090000CF3CFCE5DF0709F4E8C0A8F4CD3CECE5FA
:10091000DE0709F4DBC008F4D3C0882309F485C0DE
:100920000E94AB0B823028F00E94AB0B853008F49C
:10093000A7C082E0CFC0C13D9CE5D90709F4E8C05B
:1009400008F4D8C0882309F470C00E94AB0B85312D
:1009500028F00E94AB0B873108F492C085E1BAC041
:10096000CD3DFCE5DF0709F4FFC0A0F4C53D9CE5E3
:10097000D90709F4F2C008F4E0C0CC3DDC4509F029
:100980007ECFF8018281882309F44FC080E00E9465
:100990006E254BC0CE3D8CE5D80709F459C0CE0179
:1009A0008A5F9C45099708F06ACFF8018281882305
:1009B00009F465CF0E94A41E811102C00E944A1F43
:1009C0000E94B71E90939A0280939902C031FCE571
:1009D000DF0709F476C108F006C1C8309CE5D907E5
:1009E00009F465C108F0D5C0C430FCE5DF0709F49F
:1009F00052C108F0C0C0C2309CE5D90709F445C116
:100A0000809199028260C330DC4509F441C1809134
:100A1000990290919A020E94C51E0E944C1805C02E
:100A2000F801828181110E94FC0380E0DF91CF9167
:100A30001F910F910895F80182818823B1F390915D
:100A40002E02892F8E7F90FF816080932E02EDCF42
:100A5000F8018281882349F30E944A1FE6CFF801FA
:100A60008281882311F30E94F51D827249F00E9451
:100A7000940FDBCF8823C9F20E94F51D8272B9F36F
:100A80000E94870FD2CF882381F20E942A0DCDCFFA
:100A9000882359F20E94460DC8CF882331F20E9464
:100AA000550DC3CF882309F4C0CF0E94640DBDCF7C
:100AB000F8018281882309F4B8CF0E94B30BB5CF27
:100AC000882309F4B2CF0E94C40BAFCF882309F466
:100AD000ACCF81E00E94970FA8CF882309F4A5CF5F
:100AE0000E94AB0B863020F00E94AB0B883040F2A6
:100AF00086E0F0CF882309F498CF0E94AB0B8930B1
:100B000028F00E94AB0B8E3008F4BACF89E0E2CF18
:100B1000882309F48ACF0E94AB0B8F3028F00E9403
:100B2000AB0B843108F4ACCF8FE0D4CFF8018281D5
:100B3000882309F47ACF88E1CDCFF8018281882318
:100B400009F473CF0E94AB0B893128F00E94AB0BE4
:100B5000823208F495CF89E1BDCFF80182818823E4
:100B600009F463CF83E2B6CFF8018281882309F4C8
:100B70005CCF82E00CCF809199028061C630FCE5A9
:100B8000DF0709F485C008F48AC080919902806269
:100B90007FC0809199028D7FCC309CE5D90709F404
:100BA00077C070F4809199028C60CA30FCE5DF0751
:100BB00009F46EC008F47FC0809199028E7F68C0EE
:100BC00080919902877FCE309CE5D90709F460C0F7
:100BD000809199028B7FCF30DC4508F459C0809119
:100BE00099028F7E55C0CB3FFCE5DF0709F45BC05F
:100BF00030F5C3319CE5D90709F46BC078F4C131F5
:100C0000FCE5DF0709F461C0C231DC4509F0FFCE25
:100C10000E944C18809199028F773AC0C5319CE5AB
:100C2000D90709F45EC008F472C080919A0281600D
:100C3000CA3FDC4509F0EBCE80939A02E8CECF3F65
:100C40008CE5D80709F449C088F480919A028D7F19
:100C5000CD3FECE5DE0781F380919A028E7FCE3F97
:100C6000DC4550F380919A028360E6CFC1308DE578
:100C7000D80709F455C008F440C080E0C230DD4513
:100C800009F0C5CE0E944C1FC2CE809199028160AE
:100C900080939902BCCE809199028460F9CF8091B3
:100CA00099028860F5CF80919A028260C5CF8091C9
:100CB00099028064EDCF0E944C188091990280685F
:100CC000E7CF809199028F7DE3CF809199028F7B4E
:100CD000DFCF80919902837FDBCF80919A028C7F56
:100CE000ABCF8091990282FB992790F921E092275E
:100CF00090FB82F990FB83F9CBCF80919A02982FD9
:100D0000909591708E7F892B90FB81F995CF0E94F1
:100D10004C1890919902892F97FB87F98058B8CF8A
:100D200081E0B0CF0E94F51DF8019281992381F0F6
:100D30008A7A91E009F490E090935C01811106C0F9
:100D400089E20E94D01D0E94411E6FCE85E3F9CF3B
:100D500080915C01811104C089E20E94D71DF3CF0C
:100D600085E3FBCF90E080E008950895972F70E031
:100D70002FE0929F600D711D1124FB019BE4899F60
:100D8000E00DF11D1124EE0FFF1FE455FF4F85917B
:100D900094910895FC01EE0FFF1FEC5FFC4F8591CD
:100DA00094910895CF93DF930E94B6060E94B808ED
:100DB000EC01811521E5920708F049C0811530E565
:100DC000930708F030C1883E910508F5803E9105F3
:100DD00070F5883A910570F4853A910508F0AEC037
:100DE0008130910521F1009711F1049700F5D0E0D1
:100DF000C0E01DC08F3B910508F4ABC0805C910939
:100E0000C03CD105A0F30E94CA06EC0110C08115B8
:100E1000904388F4C11580E2D80708F0FBC0C03FBA
:100E2000D10528F3CF3FD10509F008F4F1C0CE0178
:100E3000DF91CF910895C11590E4D90708F0F0C073
:100E4000CE019927D3FFE9C0EC01D86CF0CF811512
:100E500029E5920760F5811538E5930708F029C167
:100E6000811544E5940778F4C11583E5D80708F0A7
:100E700007C1C11592E5D90708F0F1C0DC2FCC27D6
:100E8000C16FD06AD4CF811525E5920708F40CC153
:100E9000811536E5930708F0AACF0E944F09C82FA5
:100EA000D0E0DC2FCC27CC27DF71D062C0CF8D3BC8
:100EB0009C4509F403C1CE3B8CE5D807D0F4CB3B6D
:100EC0009CE5D90709F4FDC008F0FEC0C1153AE55C
:100ED000D30708F08CCF8C2F8F700E944F0934E01D
:100EE000D695C7953A95E1F7CF709C2FEC01D06964
:100EF0009ECFC03C4CE5D40709F4E9C060F4CE3B7A
:100F00009CE5D90709F4E6C0CF3BDC4509F06FCF7B
:100F1000C0E0D2ED8CCFCE0190568115904208F002
:100F200066CF8D2F8F710E944F0990E0982F8827F0
:100F300088279F719C012C2BE901B7CF853A910539
:100F400009F4CBC0863A910509F0CAC0C2E8D0E4E2
:100F50006ECF883A910509F4C6C0893A910509F423
:100F6000C5C08A3A910509F4C4C08B3A910509F4C9
:100F7000C3C08C3A910509F4C2C08B3B910509F4BA
:100F8000C1C08C3B910509F4C0C08D3A910509F4AC
:100F9000BFC0803B910509F4BEC08E3A910509F4AB
:100FA000BDC08F3A910509F4BCC0813B910509F49D
:100FB000BBC0823B910509F4BAC0833B910509F49B
:100FC000B9C0843B910509F4B8C0853B910509F48B
:100FD000B7C0863B910509F4B6C0873B910509F47B
:100FE000B5C0883B910509F4B4C0893B910509F46B
:100FF000B3C08D3B910509F4B2C08E3B910509F455
:10100000B1C08A3B910509F4B0C0C0E0D4E40FCF71
:10101000D0650DCFCE019F70F6CEEC01D06C07CF1E
:10102000DF70D06A04CFE4E096958795EA95E1F702
:1010300083702C2F26952695237040E2249F9001E3
:101040001124382B8C2F8370C1E0D0E002C0CC0F6C
:10105000DD1F8A95E2F7C22BD32BDC68E8CECE01E8
:101060008370992721E030E002C0220F331F8A9558
:10107000E2F7C695C69580E2C89FE0011124EBCF48
:10108000CE018370992721E030E002C0220F331F88
:101090008A95E2F7C695C69590E2C99FE0011124B2
:1010A000C22BD32BDA68C3CED82FCC27C46FD06A1B
:1010B000BECED82FCC27C06FD06AB9CEC0E0D1ED5C
:1010C000B6CEC0E0D4EDB3CEC0E0D5EDB0CEC0E03A
:1010D000D3EDADCEC0E0D0EDAACEC1E8D0E4A7CE2E
:1010E000C3E8D0E4A4CEC2EED4E4A1CEC9EED4E4E9
:1010F0009ECECAEED4E49BCEC5EBD4E498CEC6EB2C
:10110000D4E495CEC3EBD4E492CEC4EBD4E48FCE3A
:10111000C7EBD4E48CCECCECD4E489CECDECD4E4D3
:1011200086CEC3E8D5E483CECAE8D5E480CEC2E952
:10113000D5E47DCEC4E9D5E47ACEC1E2D6E477CE5B
:10114000C3E2D6E474CEC4E2D6E471CEC5E2D6E4FE
:101150006ECEC6E2D6E46BCEC7E2D6E468CECFE66A
:10116000D4E465CEC0E7D4E462CECAE2D6E45FCE72
:1011700082389105B1F1B0F48133910509F475C05D
:1011800048F48932910509F469C08A32910509F45D
:1011900073C008958533910509F459C089339105C9
:1011A00001F10895833E9105A9F138F4803E91053F
:1011B000F9F0823E910549F10895863E9105A9F125
:1011C000873E9105C9F1843E910519F520919A0257
:1011D00021FF1FC08091990284FD14C087EE90E02A
:1011E0000895209199022370A1F080EE90E0089577
:1011F0002091990220FD47C030919A0230FF09C02A
:1012000024FF44C090E080E004C02091990222FDB8
:10121000F7CF08952091990222FD3BC030919A02A8
:1012200030FDE3CF24FFF5CFEDCF2091990223FFCE
:10123000F0CF24FDE7CFD2CF2091990223FD2CC01F
:1012400030919A0231FFEECF84EE90E00895209124
:10125000990225FFDECF89E290E00895209199025E
:1012600025FFD7CF85E390E008952091990226FFCE
:10127000D0CF8AE290E008952091990226FFC9CF4D
:1012800081E390E0089589E390E0089583EE90E093
:10129000089582EE90E0089586EE90E00895909192
:1012A000990292FF06C0282F28712830F9F4877F11
:1012B000846093FF06C0282F28712831F1F4877EBF
:1012C000846120919A0220FF06C0382F387138308F
:1012D000D9F4877F816021FF06C0282F287128312B
:1012E000D1F4877E816194FD877E0895282F247133
:1012F0002430F9F68B7F8860DCCF282F24712431CD
:1013000001F78B7E8861DDCF382F3171313019F7CD
:101310008E7F8860E0CF282F2171213121F78E7ECA
:101320008861E1CF08950895E82FF0E0EE0FFF1FE8
:10133000E35AFE4F8081918108950895CF93DF9302
:10134000A2E3B1E047E351E0C1E0D0E08D91E82FA6
:10135000E295EF70F0E061A18F709E0101C0220F55
:101360008A95EAF7922F9095962391A382A1822BDA
:1013700082A34A175B0751F7A3E2B1E061E070E096
:101380008D91E82FE295EF70F0E041A18F709B0105
:1013900001C0220F8A95EAF7922F9095942391A38A
:1013A00082A1822B82A381E0A233B80749F7109271
:1013B00068011092670110925E0110925D01109217
:1013C0006A01109269011092600110925F011092FF
:1013D0006C0110926B0110926201109261011092E7
:1013E0006E0110926D0110926401109263011092CF
:1013F000700110926F01109266011092650185E0F4
:101400000E949C0ADF91CF910C94E0035F926F924F
:101410007F928F929F92AF92BF92CF92DF92EF9284
:10142000FF920F931F93CF93DF9327E631E002E300
:1014300011E0512CEE24E394F12CE901899099906C
:101440009E01DE011E921E92F80181918F01E82F0C
:10145000E295EF70F0E091A18F70B70101C0660FC7
:101460008A95EAF7892F862B81A382A1662E609444
:10147000862182A380EA8A95F1F783E2C82E81E073
:10148000D82E50E040E0E60179906E01872D8295DC
:101490008F7090E0EC0188A1AD90BC90119790E026
:1014A000D72DDF7002C095958795DA95E2F780FD1C
:1014B00040C0C701042E02C0880F991F0A94E2F7AA
:1014C0008A299B2911969C938E934F5F5F4F4F30D3
:1014D0005105C9F681A1D62DD823D1A382A1682BAD
:1014E00062A381E04D915C914815590509F480E0B3
:1014F000582AE1E021373E0709F09FCF252D45E02E
:101500006DE571E087E691E00E949D0A0E94EA0382
:10151000852DDF91CF911F910F91FF90EF90DF907C
:10152000CF90BF90AF909F908F907F906F905F9083
:10153000089590E080E0C4CF0895FF920F931F9329
:10154000CF93DF93F82E092F162FD72FC42F2223E6
:1015500049F081E0809373010E94672090937201AB
:1015600080937101809173018823A1F080917101B2
:10157000909172010E947320069760F0EF2DF02F7A
:10158000A12FBD2F90E080E0D0E08C179D0744F0A4
:1015900010927301DF91CF911F910F91FF900895E9
:1015A000219131912D933D930196EFCFAF92BF9250
:1015B000CF92DF92FF920F931F93CF93DF93362F3B
:1015C000472FE82FF0E0E55EFB4F71110DC06491ED
:1015D000762F862FDF91CF911F910F91FF90DF9093
:1015E000CF90BF90AF900895C72FD0E02491F22EF6
:1015F000022F10E056E0659FC0011124EFEFF0E0EC
:10160000BF010E943C2A832F90E0880F991F35E587
:10161000369FD001379FB00D11248A1B9B0B982F4A
:10162000990F980F6F01CC1ADD0AC09ED001C19EA0
:10163000B00DD09EB00D11248B2F949FA0011124CA
:10164000452F55276F01C41AD50AC09EA001C19E1F
:10165000500DD09E500D11245F01A91AB108AC9E07
:101660006001AD9ED00CBC9ED00C1124CD2CDD248D
:10167000EC19FD09E09FE001E19FD00DF09FD00D36
:101680001124ED2F62307105A1F048F46115710548
:1016900069F06130710589F0EB2F852F07C0643048
:1016A000710571F088F066307105B1F76E2F722FF9
:1016B00091CFE22F2B2F8D2FF9CFE22F252FF6CFB1
:1016C000EB2F822F2D2FF2CF2B2F8F2DE52FEECF4B
:1016D0000895CF93DF93762FE901682F842F0E941E
:1016E000D60A798368838A83DF91CF9108958091A8
:1016F0005D02982F9E7F29F48170826080935D0245
:1017000008958A34E8F381708864F8CF88E090E027
:101710000C94BB2ACF92DF92EF92FF926B017C0177
:101720000E94770BB701A60188E090E0FF90EF9050
:10173000DF90CF900C94D92AEDE5F2E083E080832E
:1017400011828FEF82838383148260817181828111
:1017500093810C948A0B80915D0280FF02C0869574
:10176000089580E0089580916102833018F48F5FBE
:101770008093610260915D0270915E0280915F02D0
:10178000909160020C948A0B80916102882319F079
:1017900081508093610260915D0270915E02809140
:1017A0005F02909160020C948A0B6091040170E0DA
:1017B00080915D0280FF0AC08091780123E0829FC2
:1017C000C00111248E599D4F0C94F711809177011F
:1017D0009091030123E0829FF0011124EE59FD4F07
:1017E000891750F71182108212828F5F3396F8CFDB
:1017F00090915D0290FF14C09091770120910301B8
:1018000033E0939FF0011124EE59FD4F921710F031
:101810000C94D50B8183608342839F5F3396F6CF10
:101820000895CF93DF9300D00F92CDB7DEB790919C
:101830005D0290FF0AC09E012F5F3F4F0E94690B1F
:101840004B8169818A810E94F80B0F900F900F9055
:10185000DF91CF910895CF93DF93EC01EC81F0E01D
:10186000EA5EFC4F4491EDE5F2E0628181810E94E5
:10187000110C8C818F5F8C83DF91CF910895CF9372
:10188000DF93EC01EDE5F2E0438162818C810E94FF
:10189000110C8C818F5F8C83DF91CF9108950F9312
:1018A0001F93CF93DF9300D00F92CDB7DEB78C019B
:1018B0008091740181110AC09E012F5F3F4F4FEF4D
:1018C0006FEF0E94690B8A8180937401F801648133
:1018D000613069F08091740140E0662361F040E07E
:1018E000623011F44091740180E060E004C06091C6
:1018F000740140E080E00E94F80BF801848190E0E0
:10190000019663E070E00E94502A84830F900F904C
:101910000F90DF91CF911F910F910895AF92BF92D9
:10192000CF92DF92EF92FF920F931F93CF93DF93AB
:1019300000D00F92CDB7DEB7182FF62E042FE22E6F
:1019400090915D0290FF29C0E92FE695AE2FB0E09F
:10195000A95CBE4F8C91809380019E7F923059F597
:101960009E012F5F3F4F812F0E94690B4B81698140
:101970008A810E94F80B10935E02F0925F0200933E
:101980006002EE2051F060915D0270915E028091E4
:101990005F02909160020E948A0B0F900F900F904F
:1019A000DF91CF911F910F91FF90EF90DF90CF903B
:1019B000BF90AF900895823019F400916002DBCFA0
:1019C000863019F410915E02D6CF8930D9F389316F
:1019D00091F6E9518E2F8170D82EE695F0E0EA5EFF
:1019E000FB4FA590B490C12CBB2460910201C61698
:1019F00018F00E94D50BBFCF2C2D30E0A29EC00165
:101A0000A39E900DB29E900D112470E00E943C2A7E
:101A1000812FD11013C0860F40917701420F532FB1
:101A2000511D9A01220F331F240F351F2E593D4F90
:101A3000402F6F2D0E94690BC394D7CF861BECCF2C
:101A4000EDE5F2E09181282F4381628188E0890FE2
:101A50000C948E0C81E00C94200DEDE5F2E0918168
:101A6000282F4381628188EF890F0C948E0C81E0CE
:101A70000C942D0DEDE5F2E0628128E0620F08F490
:101A80006FEF282F438181810C948E0C81E00C94A0
:101A90003A0DEDE5F2E0628128E0621B08F460E0B7
:101AA000282F438181810C948E0C81E00C94490D88
:101AB000EDE5F2E0438128E0420F08F44FEF282FD4
:101AC000628181810C948E0C81E00C94580DEDE5BF
:101AD000F2E0438128E0421B08F440E0282F6281B5
:101AE00081810C948E0C81E00C94670D20E00C94A5
:101AF0008E0CEF92FF921F93CF93DF93EC0110E0D7
:101B0000EE24EA94F12C60910201161770F00E9405
:101B1000D50B9A818C8190FF27C08F5F8C83DF91DA
:101B2000CF911F91FF90EF90089520917701422F60
:101B3000410F5527551FCA019A01220F331F280F45
:101B4000391F2E593D4F70E0C7010E94502A962F31
:101B50008C814091600260915F02199F800D112479
:101B60000E94690B1F5FCFCF8150D8CFBF92CF9219
:101B7000DF92EF92FF920F931F93CF93DF93FC01BD
:101B800082810FEF80FF01E010E0809102011817C1
:101B9000C0F00E94D50B80917601013009F051C050
:101BA000811102C080910201815080937601DF9102
:101BB000CF911F910F91FF90EF90DF90CF90BF904A
:101BC0000895C0917701C12ED12CCC0DDD2DD11DF2
:101BD000CE01880F991FC80FD91FCE59DD4F19822A
:101BE00018821A8234E0E32EF12CB12C8091760118
:101BF0008B0D813104F18F70082E000C990BC816E3
:101C0000D90691F4809160028E9DA0018F9D500DA8
:101C1000112455954795559547959E0160915F0212
:101C200080915E020E94690BB00EF1E0EF1AF1089C
:101C3000E9F61F5FAACF87FFDFCF90910201890FDE
:101C4000DBCF90E001966091020170E00E94502A83
:101C5000ACCF0F931F93CF93DF9380917701909137
:101C6000030123E0829FF0011124EE59FD4F8917F3
:101C700040F1C0E0D3E060910201C61740F10E943C
:101C8000D50B2091000180917501820F8093750121
:101C900090910101920F90930101191654F4082EAE
:101CA000000C990B409102014150550B8417950788
:101CB0001CF0219520930001DF91CF911F910F918E
:101CC00008951182108212828F5F3396D0CF0C2F2D
:101CD00010E070E0C8010E94502A20917701820F25
:101CE000482F50E020917501022E000C330B021793
:101CF0001307BCF020910101022E000C330B2017BA
:101D000031077CF08D9F900111242E593D4F409159
:101D1000600260915F0280915E020E94690BCF5F5A
:101D2000AACFFA01EE0FFF1FE40FF51FEE59FD4F8A
:101D3000118210821282F3CF0F931F93CF93DF9300
:101D40008C01FC018481958101968170992795838E
:101D50008483C0E0D5E580910201C81730F0DF919F
:101D6000CF911F910F910C94D50B20917701422FA9
:101D70004C0F5527551FCA019A01220F331F280FF8
:101D8000391F2E593D4F8C2F8695F801448155817E
:101D9000840F952F911D81704091600260915F02C8
:101DA0008D9F802D11240E94690BCF5FD4CF0F939C
:101DB0001F93CF93DF93EC0110E000E090910201BC
:101DC0009017110609F06CF40E94D50B8C8190E0FD
:101DD0000196817099278C83DF91CF911F910F918C
:101DE000089520917701A801420F511D9A01220FF9
:101DF000331F240F351F2E593D4F4C8160915F02D8
:101E000080915E0296959017110651F04CF0442394
:101E100049F0409160020E94690B0F5F1F4FCECFC7
:101E20004423B9F340E0F7CFEDE5F2E080818E7F07
:101E3000808360817181828193810E948A0B1092DC
:101E400081012FEF80E792E0215080409040E1F740
:101E500000C000000C94D50B60915D02669570E0A7
:101E60004BE050E085E091E00E94A62A892B19F40E
:101E700081E0809381010E94672090937A01809392
:101E80007901089590915D0290FF35C091708111A4
:101E900028C0926090935D02662351F060915D02CC
:101EA00070915E0280915F02909160020E948A0BA5
:101EB00060915D02669570E04BE050E085E091E056
:101EC0000E94A62A892BA1F01092810181E08093C3
:101ED0007C014091600260915F0280915E020C94EF
:101EE000760D853210F09864D5CF880F982BD2CF1D
:101EF0000E942C0FEBCF0895682F90915D0296956C
:101F000081E0890F853208F081E00C94420F81E076
:101F10000C947C0F682F90915D0296958FEF890F3E
:101F200009F484E20C94420F81E00C948A0F61E082
:101F30000C94420FEDE5F2E080818160808386950C
:101F40000C94970F80915D0280FD0C94140F0C94FB
:101F50009A0F60E00C94420F80917F01811133C091
:101F600080912E02816080932E020E94A41E811116
:101F700004C00E944A1F0E949C0B0E94860B609323
:101F80005D0270935E0280935F02909360026E7FA9
:101F900061F40E949C0B0E94860B60935D0270931B
:101FA0005E0280935F02909360020E94770B109212
:101FB000810180915D0280FF03C086950E94A90F78
:101FC00081E080937F0108950F931F93CF93DF9358
:101FD00080918101882309F48DC080918001E09176
:101FE0005D02E695E81BE0937B018230C9F5F0E0E5
:101FF000EE5EFC4FE491CE2FD0E00BE21CE080912E
:102000007C01882389F010927C010E9467209E0148
:1020100020953095820F931F90937A0180937901D8
:1020200010927E0110927D018091790190917A0148
:102030000E9473208C179D0708F45CC0E091790121
:10204000F0917A01CE0FDF1FD0937A01C09379010E
:1020500089E791E0F801DF91CF911F910F910994E9
:10206000863049F4F0E0E15FFC4FE491CE2FD0E000
:102070000FE31CE0C4CF893051F4E695F0E0E45F53
:10208000FC4FE491CE2FD0E009E71DE0B8CF8F30B0
:1020900051F4E695F0E0E75FFC4FE491CE2FD0E0FD
:1020A00006EB1DE0ACCF853149F4F0E0EA5FFC4F70
:1020B000E491CE2FD0E009E21EE0A1CFC8EED3E03C
:1020C0000CE91EE0883109F49ACF833239F4E4E058
:1020D000F3E0C591D4910FE41CE091CFC4EFD1E0BF
:1020E00007ED1EE0843209F48ACFC0EDD7E008E6A0
:1020F0001BE085CFDF91CF911F910F9108950E9432
:10210000A41E811102C00E944A1F0E94D21E809309
:102110009202803320F087708862809392029091BF
:102120009202892F817090FF04C0892F8695869531
:1021300086950C945A1180919202982F96959695B7
:102140009695953040F49F5F990F990F990F87707E
:10215000892B8093920280919202816080939202F7
:102160000E94D61E809192028695869586950C9443
:102170005A1180919202982F987F79F0885080931D
:102180009202887F91E009F490E08091920290FBA6
:1021900080F9809392020E94D61E809192028695C9
:1021A000869586950C945A118091920280FD13C0F9
:1021B000816080939202813019F489E080939202C9
:1021C000809192020E94D61E8091920286958695F9
:1021D00086950C945A1108958091920280FF08C050
:1021E0008E7F809392020E94D61E80E00C945A113A
:1021F00008958091920280FD0C94EC100C94D41000
:1022000090919202892F8695869586958F5F8F7122
:1022100097708630D8F4880F880F880F892B8093A9
:10222000920280919202887F91E009F490E080917F
:10223000920290FB80F9809392020E94D61E8091B8
:1022400092028695869586950C945A1190939202E7
:10225000E8CF863008F085E0982F990F990F990FF5
:10226000809192028770892B80939202887F91E0FF
:1022700009F490E08091920290FB80F980939202A1
:102280000E94D61E809192028695869586950C9422
:102290005A11E82FE295EF70F0E032A1282F2F704D
:1022A00081E090E001C0880F2A95EAF780958323AA
:1022B00082A30895CF92DF92EF92FF92863028F5A5
:1022C000811124C0909180009F7D90938000282FE1
:1022D00030E0AFEFBFEF0E948C2A25E030E040E015
:1022E00050E00E94642AC9012C3764E1360790F45B
:1022F00069E070E00E943C2A70938B0060938A0032
:10230000FF90EF90DF90CF90089585E0909180004E
:102310009062DBCF2A50374D4F4F5F4F942F832F62
:10232000722F662725EF38E241E050E00E94642AD0
:1023300069017A01CA01B9010E942C2A9B01AC01F2
:10234000C701B6010E942C2A672F782F892F992761
:102350006115710521E08207910571F66FEF7FEF3E
:10236000CBCF0895269A86E30E94491182E280939A
:10237000800089E1809381008FEF9FEF9093870029
:10238000809386000C947F103EB1242F2095232348
:102390003EB1432B3FB7F894680F791F8617970714
:1023A00011F43FBF0895FC015191CF01E8E04EB90F
:1023B000000000C057FF2EB9550F000000C000C03C
:1023C00000C02EB900C0EA9591F7E8CF2DB1242BBB
:1023D0002DB99B01220F331F620F731F0E94C4117E
:1023E00087EC90E00197F1F700C00000089544E009
:1023F0000C94E6110F931F93CF93DF93C62FD42F26
:10240000022FFC0182818823C9F0609384010E941D
:102410006720909383018093820180E28C0F883043
:1024200008F050C0C77081E001C0880FCA95EAF774
:10243000DF91CF911F910F910C948F151091840112
:10244000161335C080918201909183010E94732000
:10245000883C910560F5C0E2CD0F1D17B9F080E210
:10246000810F883040F4177081E001C0880F1A9501
:10247000EAF70E949615C83048F481E09D2F9770C6
:1024800001C0880F9A95EAF70E948F15802F0E944D
:102490007C15C830B8F4D77081E001C0880FDA9598
:1024A000EAF7DF91CF911F910F910C94961580E27E
:1024B0008C0F883038F4C77081E001C0880FCA954E
:1024C000EAF7EFCFDF91CF911F910F9108959C0113
:1024D000CB01233F4CE5340731F190F4283DFCE576
:1024E0003F07E9F0293D4CE5340769F1273D3C45BC
:1024F00079F426E241EE61EE0E94FA1180E008953F
:10250000253FFCE53F07B9F090F0263F3C45B9F088
:10251000FC0182818823D1F010928401089527E282
:1025200045EE65EEE9CF26E241EE60EEE5CF27E22B
:1025300045EE64EEE1CF26E241EE62EEDDCF27E22A
:1025400045EE66EED9CF28E241E0EBCF81E0089579
:1025500090938A01809389010895E0918901F09117
:102560008A01309721F00190F081E02D099480E0FC
:102570000895E0918901F0918A01309799F02091B6
:102580002201222359F02091990227FF07C0DC0184
:102590002C9111962C93119725E02C930280F381B6
:1025A000E02D09940895E0918901F0918A01309716
:1025B00039F022E0DC012C930480F581E02D0994B0
:1025C000089520918701309188012817390771F00B
:1025D0009093880180938701E0918901F0918A01AD
:1025E000309721F00680F781E02D0994089520911D
:1025F0008501309186012817390771F09093860183
:1026000080938501E0918901F0918A01309721F052
:102610000084F185E02D0994089585B7806885BF11
:1026200085B7806885BF0895089508950C941413A4
:1026300008950C9418130E940D130E9415130C9406
:10264000161381E008950E945E200E949E090E9458
:10265000E5200E947F100E94AC0F0C9419135F922A
:102660006F927F928F929F92AF92BF92CF92DF92A2
:10267000EF92FF920F931F93CF93DF93CDB7DEB707
:102680002A970FB6F894DEBF0FBECDBF0E94060A90
:102690000E942113882309F47AC09CE8A92E91E0B6
:1026A000B92E10E000E088248394912C502E802FC6
:1026B0000E9494097C01F501C190D1905F01C81678
:1026C000D90609F45EC080912E0281FD0E949D0909
:1026D00090E080E0CE24DF243401082E02C0660C96
:1026E000771C0A94E2F7960126213721232B09F45F
:1026F00043C08E835F82E620F72081E0EF2809F453
:1027000080E088870E9467208160782F9A87898778
:102710004E815F8168858A850E94EE13000F111F2C
:10272000F801E457FE4F80819181682679267182F5
:1027300060820E9472220E94AD1290918B018917D3
:10274000B9F10E94AD1280938B012A960FB6F894CE
:10275000DEBF0FBECDBFDF91CF911F910F91FF90D4
:10276000EF90DF90CF90BF90AF909F908F907F9031
:102770006F905F900C94F30301968F30910509F0F0
:10278000ABCF0F5F1F4F0530110509F08FCF8FEFD3
:1027900089838A831B820E9467208160782F9D83B2
:1027A0008C8349815A816B818D810E94EE13C1CF48
:1027B0002A960FB6F894DEBF0FBECDBFDF91CF9142
:1027C0001F910F91FF90EF90DF90CF90BF90AF904F
:1027D0009F908F907F906F905F900895CF93DF933D
:1027E000CDB7DEB72B970FB6F894DEBF0FBECDBFC7
:1027F0004F83588769877A878B871E821D8285E081
:10280000FE013796DE01119601900D928A95E1F74F
:1028100049815A816B817C818D819E812B960FB677
:10282000F894DEBF0FBECDBFDF91CF910C94EC1AB0
:10283000FC01808191810C94A21D882309F405C1BB
:102840008238B9F40E94AD1281FDFFC089E30E9475
:10285000D01D0E94411E2FEF81EE94E02150804058
:102860009040E1F700C0000089E30E94D71D0C945E
:10287000411E8338A1F40E94AD1280FDE6C083E5BD
:102880000E94D01D0E94411E2FEF81EE94E0215046
:1028900080409040E1F700C0000083E5E6CF843837
:1028A000A1F40E94AD1282FDD0C087E40E94D01D29
:1028B0000E94411E2FEF81EE94E021508040904015
:1028C000E1F700C0000087E4D0CF9CEF980F913A69
:1028D00018F40E94D01DCBCF90E2980F983050F49E
:1028E000877091E001C0990F8A95EAF7892F0E94BD
:1028F000F81DBDCF9BE5980F933070F4853A31F009
:10290000863A39F083E890E00C94E11281E890E097
:10291000FBCF82E890E0F8CF98E5980F973108F068
:102920008EC0883A09F446C0893A09F446C08A3A0A
:1029300009F446C08B3A09F446C08C3A09F446C003
:102940008B3B09F446C08C3B09F446C08D3A09F430
:1029500046C0803B09F446C08E3A09F446C08F3A1F
:1029600009F446C0813B09F446C0823B09F446C0E5
:10297000833B09F446C0843B09F446C0853B09F417
:1029800046C0863B09F446C0873B09F446C0883BF5
:1029900009F446C0893B09F446C08D3B09F446C0A2
:1029A0008E3B09F446C08A3B09F446C090E080E0C3
:1029B0000C94F71282EE90E0FBCF89EE90E0F8CF16
:1029C0008AEE90E0F5CF85EB90E0F2CF86EB90E0D9
:1029D000EFCF83EB90E0ECCF84EB90E0E9CF87EB97
:1029E00090E0E6CF8CEC90E0E3CF8DEC90E0E0CF90
:1029F00083E891E0DDCF8AE891E0DACF82E991E0E7
:102A0000D7CF84E991E0D4CF81E292E0D1CF83E2C5
:102A100092E0CECF84E292E0CBCF85E292E0C8CFC5
:102A200086E292E0C5CF87E292E0C2CF8FE690E0E7
:102A3000BFCF80E790E0BCCF8AE292E0B9CF803F81
:102A400020F00E9480210C9467220895882309F4C5
:102A500052C0823871F40E94AD1281FF4CC089E3EC
:102A60000E94D01D0E94411E89E30E94D71D0C9434
:102A7000411E833859F40E94AD1280FF3CC083E5AB
:102A80000E94D01D0E94411E83E5EFCF843859F487
:102A90000E94AD1282FF2FC087E40E94D01D0E94C9
:102AA000411E87E4E2CF9CEF980F913AF0F290E25A
:102AB000980F983050F4877091E001C0990F8A9573
:102AC000EAF7892F0E94FE1DD2CF9BE5980F933025
:102AD00020F490E080E00C94E11298E5980F973193
:102AE00020F490E080E00C94F712803F20F00E94E8
:102AF000E8210C9467220895CF93C82F0E941D14DB
:102B0000C93349F42FEF87EE93E021508040904085
:102B1000E1F700C000008C2FCF910C94261588237C
:102B200021F00E94F81D0C94411E0895882321F085
:102B30000E94FE1D0C94411E0895BF92CF92DF9219
:102B4000EF92FF920F931F93CF93DF936C01D62FD9
:102B5000C72FFC01058102950F70128111110E948F
:102B6000151E0E94EE1DE82E882371F01123B1F08E
:102B700080E28D0F883090F082E00E948C1E0E94CF
:102B8000EE1D91E0E82EE926BC2EB2949FE0B9221A
:102B9000EB2DF0E0E350F54D0C94862AE12CF4CFB8
:102BA0000C2F0F70C07F11F00295007F1123A9F048
:102BB000002359F080E28D0F883010F0D11109C048
:102BC000802F0E94F81D0E94411E8D2F0E941D140F
:102BD00014C0802F0E94081EF6CF8D2F0E9426154C
:102BE000002359F080E28D0F883010F0D1112CC0F5
:102BF000802F0E94FE1D0E94411E2B2D2850330B5A
:102C00002430310520F40E94AD120E94F303EE201F
:102C100009F4F8C10E94EA1D80FDF4C1F601128298
:102C20000E94E41D0E94701CC6010E940C180E94A4
:102C3000E41DDF91CF911F910F91FF90EF90DF90F6
:102C4000CF90BF900C94911C802F0E940E1ED3CF6A
:102C5000FC2FFF70FF2EC07FC03219F0F29480EF7E
:102C6000F822DD2369F0D13049F1112391F10023DD
:102C700051F1F601858180FFA8CF8F70858323C035
:102C8000112381F0011106C00E94281E8F290E9485
:102C90008F15B3CF0130C1F70E94281E8F290E94E3
:102CA0002E1EABCF011106C00E94371E8F2D0E9431
:102CB0009615A3CF013009F4A0CFF6CF112329F048
:102CC000063008F09ACF8F2DE2CF053008F095CF6F
:102CD000EDCF002359F3D93349F4FFEF27EE33E06A
:102CE000F15020403040E1F700C000008D2F0E94DD
:102CF000261583CF8C2F86958695837069F0813059
:102D000009F07BCF8D2F9C2F9370111102C090E0A2
:102D100080E00E94F71271CF8D2F9C2F93701111BC
:102D200002C090E080E00E94E11267CF112309F118
:102D3000D53F99F0D63FB9F0D43F49F48091930242
:102D400090919402816090939402809393028D2FCE
:102D50000E9480210E94672250CF8091930290911F
:102D600094028260F0CF80919302909194028460EB
:102D7000EACFD53F89F0D63FA9F0D43F49F48091FE
:102D80009302909194028E7F909394028093930289
:102D90008D2F0E94E821DECF8091930290919402C2
:102DA0008D7FF2CF80919302909194028B7FECCF34
:102DB0008C2F837009F041C011111FCF4D2F429508
:102DC00046954770440F440F0D2F0F7010E030E010
:102DD00020E0042E04C0000F111F221F331F0A948D
:102DE000D2F760E070E0CB01D4FF0FC06FE070E07D
:102DF00080E090E004C0660F771F881F991F4A95F6
:102E0000D2F76095709580959095C695C695C370DC
:102E1000602B712B822B932BC23049F058F4C130B8
:102E200019F00E94221CE9CE0E94101CE6CE0E94DE
:102E3000341CE3CE0E940E1CE0CE8695112311F0C7
:102E40008C2F8170882309F4D8CE4D2F429546955A
:102E50004770440F440F0D2F0F7010E030E020E05A
:102E6000042E04C0000F111F221F331F0A94D2F733
:102E700060E070E0CB01D4FF0FC06FE070E080E055
:102E800090E004C0660F771F881F991F4A95D2F7FC
:102E90006095709580959095C695C695C370602B8A
:102EA000712B822B932BC23049F058F4C13019F0AA
:102EB0000E94E71CA2CE0E94D51C9FCE0E94F91C46
:102EC0009CCE0E944A1C99CECF70112329F08C2FE2
:102ED0000E94701C8D2FDBCE8D2F0E9496158C2F9B
:102EE0000E94911C8ACED23F89F160F4D03FC9F094
:102EF000D13F29F1112309F442C0011166CE8C2F74
:102F00008F7121C0D33F39F1D43FA1F7112369F16B
:102F1000CF718C2F0E94701C63E08C2F0E94771E53
:102F20006CCE112341F0053008F067CE8C2F8F71E5
:102F30000E94B41C62CE063008F05FCEF7CF8C2F13
:102F40008F71112369F20E94701C57CE8C2F8F71E4
:102F50001123C9F3C5CF112329F08C2F8F710E9443
:102F60005B1C4BCE0E94561C48CE81E00E948C1EFA
:102F7000023008F442CE82E00E948C1E3ECE002336
:102F800059F0D93309F0B2CE8FEF97EEE3E08150DC
:102F90009040E040E1F7A8CE8C2F8F71A1CF4C2F4D
:102FA0004F706D2FC6010E94B2060E94861B25CE6F
:102FB000111123CECF70C230B1F040F4CC2381F098
:102FC000C13009F01ACE0E94B91017CEC43089F072
:102FD00068F080E0C53009F010CE0E9429110DCEB6
:102FE0000E949B100ACE0E94F91007CE0E94001189
:102FF00004CE85E0F2CF4C2F4F706D2FC6010E949A
:10300000B506FBCDDF91CF911F910F91FF90EF900F
:10301000DF90CF90BF9008950F931F93CF93DF93CE
:10302000EC018B819C81892B29F0888199818923EE
:103030008F3F29F4DF91CF911F910F910895CE0119
:103040000E940B048823B1F3688179818A810E94F0
:10305000AC1D8C010E940B1D0E940D1CB801CE01FD
:10306000DF91CF911F910F910C949D150E94151E19
:103070000E94251E0E94411E0E9409230E94672271
:1030800090E080E00E94E11290E080E00C94F71262
:103090000E94DE1D0C9436180E94051E0C944818E0
:1030A000E92FE295EF70E250EE3070F4F0E0E35F6C
:1030B000F44D0C94862A803F19F020F4883E20F4C9
:1030C00081E00895843FE1F380E00895883EC0F3F5
:1030D000813FD1F7F5CF93FB882780F908950E94AF
:1030E000A21D0C945018CF93DF9300D000D00F9204
:1030F000CDB7DEB70F900F900F900F900F90DF912C
:10310000CF910895CF93DF9300D000D000D0CDB7FA
:10311000DEB726960FB6F894DEBF0FBECDBFDF91A7
:10312000CF9108951F93CF93DF93C091970116E03D
:10313000809198018C1304C0DF91CF911F91089565
:10314000D0E01C9FF0011D9FF00D1124E756FE4FAB
:103150004081518162817381848195810E948218AE
:103160002196C770E5CF4091C9015091CA01609185
:10317000CB017091CC018091CD019091CE010C9446
:1031800082181F93CF93DF938091CE01807FC1F48B
:103190008091CB018823A1F080919701C091980183
:1031A0006091C9017091CA014091CC015091CD014B
:1031B000D62FD723DA01A095B09516E0C81304C026
:1031C000DF91CF911F91089590E04115510511F0C5
:1031D000DF3F31F401968770F1CF2A0F3B1F17C0F4
:1031E000189FF001199FF00D1124E756FE4F218121
:1031F0002713F0CF20812613EDCF22812111EACFB2
:10320000238134812417350740F3241B350B283CD8
:10321000310500F72091CE012F7020612093CE015F
:1032200026E0289FF001299FF00D1124E256FE4F61
:1032300080818F708061808389EC91E00E940C18FE
:10324000DF91CF911F910C949218BF92CF92DF9291
:10325000EF92FF920F931F93CF93DF93CDB7DEB71B
:1032600061970FB6F894DEBF0FBECDBF8C0185E02D
:10327000F801DE011D9601900D928A95E1F7D801C3
:103280004C9111965C9111971296EC901297809147
:10329000CC019091CD01009709F47FC12091C90123
:1032A0003091CA01622F63236F3F09F476C11396F0
:1032B000CD90DC90B090CB01BB2009F411C1C816B1
:1032C000D906D0F1F601E81BF90BCF01FF24F394E6
:1032D000883C910508F0F12C8091CE01982F907FC9
:1032E000FF2009F4B8C091117FC0FE2C351329C00E
:1032F000241327C0E11025C08F7080618093CE0118
:103300000E94B31889EC91E00E940C188091CE01C4
:10331000D80115968C938F2D61960FB6F894DEBF69
:103320000FBECDBFDF91CF911F910F91FF90EF9016
:10333000DF90CF90BF900895809590958C0D9D1D46
:10334000C5CFCD2829F0852F84238F3F09F041C1B7
:1033500080E0B82FB170DB2E80FF3CC080919701D8
:103360002091980136E0821315C04D875E878D85C8
:103370009E850E94A21D292F22952F702230F0F0E9
:10338000243018F59F70F1F0F8019581907FD1F409
:10339000D12C1EC090E0389FF001399FF00D112410
:1033A000E756FE4F6181651306C06081641303C058
:1033B0006281E6120FC001968770D5CF9F7011F021
:1033C000882331F3805E883018F3C8010E940C18FE
:1033D000FD2CA1CFEE2009F49ECF8091CE0181601B
:1033E0008093CE01F12C97CF351306C0241304C06F
:1033F000D801EE2009F49AC04D875E878D859E85A1
:103400000E946F18882319F1EE2009F18091CE01F6
:10341000803270F02091C9013091CA0138872F8322
:103420001986DB86CA868C87CE0107960E940C1807
:1034300086E0F801A9ECB1E001900D928A95E1F7E0
:103440000E94C1180E94B318FF24F39464CFC801EE
:103450000E940C18F9CF911113C07C2DD98AC88A0B
:103460006E2D89890E94731889EC91E00E940C18D6
:1034700086E0E9ECF1E0DF011D928A95E9F763C08F
:10348000351312C0241310C0E1100EC0F80185835B
:10349000C8010E940C18E9ECF1E086E0DF011D9202
:1034A0008A95E9F7FB2C37CF4D875E878D859E8502
:1034B0000E946F18882359F2EE2049F28091CE01C4
:1034C000803208F4B5CF2091C9013091CA013A8306
:1034D00029831B82DD82CC828E83CE010196A6CF0A
:1034E000C816D90698F1F601E81BF90BCF01F12CAB
:1034F000883C910508F049C0FE2CEE2009F4A7CFC6
:10350000351332C0241330C08091CE0180FD23C01A
:10351000982F907F01F1D80115968C931597903FC5
:1035200039F0982F907F905F8F70892B15968C9330
:10353000C8010E940C1886E0F801A9ECB1E00190E6
:103540000D928A95E1F70E94B318E5CE809590958B
:103550008C0D9D1DCCCF86E0F801A9ECB1E0019067
:103560000D928A95E1F7D7CE4D875E878D859E8532
:103570000E946F1881115CCF8091CE018160809391
:10358000CE01C8010E940C18C6CE7C2DD98AC88AEB
:103590006E2D89890E9473186BCFEE2009F457CFE6
:1035A0004D875E878D859E850E946F18F82E882333
:1035B00009F44DCF86E0F801A9ECB1E001900D923D
:1035C0008A95E1F789EC91E00E9418140E94C118D5
:1035D000BACF81E08E25BDCE1F93CF93DF93CDB7B9
:1035E000DEB72C970FB6F894DEBF0FBECDBF4F836A
:1035F000588769877A878B879C87CE0107960E94B8
:103600002519882369F08A859B85892B39F04F819C
:103610005885842F85238F3F09F071C016E05FC065
:1036200086E0FE013796DE01119601900D928A9593
:10363000E1F78A859B85892B89F388859F8189237A
:103640008F3F61F32091980130E0C90101968770A6
:103650009927409197014817190671F40E944C1858
:10366000109298011092970186E0E9ECF1E0DF01F9
:103670001D928A95E9F7D2CF96E0929FD001939F51
:10368000B00D1124A756BE4FFE01319601900D9248
:103690009A95E1F7809398010E949218BFCF819F7D
:1036A000C001112487569E4F0E9425198823E9F0F6
:1036B000E09197011E9FF0011124E756FE4F4081D3
:1036C000518162817381848195810E9482188091E9
:1036D000970190E0019687709927809397018091D8
:1036E0009701909198018913DACF2C960FB6F89430
:1036F000DEBF0FBECDBFDF91CF911F9108956985C9
:103700007A858B859C850E94821888CFEF92FF92E4
:103710000F931F93CF93DF938C01892B81F0F12CB2
:10372000EE24E394E8012196F8018491843770F443
:10373000843008F05FC08130B1F08230A1F1DF91B8
:10374000CF911F910F91FF90EF900895853709F465
:103750004CC008F43DC09CE7980F903780F78F77F6
:103760000E94261549C00E5F1F4FFE01849190E212
:10377000980F983060F48770FE2D01C0FF0F8A9576
:10378000EAF78F2F0E94181E0E94411E02C00E945D
:103790001D148F2D815030F2EFE9FFE03197F1F7E2
:1037A00000C00000F7CF0E5F1F4FFE01849190E232
:1037B000980F983050F48770FE2D01C0FF0F8A9546
:1037C000EAF78F2F0E941E1EDFCF0E942615E1CF41
:1037D0000E5F1F4FFE01C491C150D8F28FE99FE0E8
:1037E0000197F1F700C00000F7CF0E5F1F4FFE01F9
:1037F000F490CFCF0E941D148E01CBCF08950C946E
:10380000FE1B0E94FF1B60930502709306028093CB
:103810000702909308020C94361808950C94011C2A
:103820000F931F9300910502109106022091070249
:1038300030910802602B712B822B932B1F910F91DB
:103840000C94011C0F931F93009105021091060226
:103850002091070230910802602371238223932371
:103860001F910F910C94011C0F931F93009105025F
:1038700010910602209107023091080260277127FB
:10388000822793271F910F910C94011C0C94FE1B0F
:103890000C94461C0E94481C609301027093020223
:1038A00080930302909304020C94361860E070E059
:1038B000CB010C944A1C0F931F9341E050E060E051
:1038C00070E08A019B0104C0000F111F221F331FEB
:1038D0008A95D2F7C901B8011F910F910C944A1C27
:1038E0000F931F9341E050E060E070E004C0440F8C
:1038F000551F661F771F8A95D2F78091010290911C
:103900000202A0910302B09104028A019B01082BDC
:10391000192B2A2B3B2BC901B8011F910F910C9435
:103920004A1C0F931F9341E050E060E070E004C038
:10393000440F551F661F771F8A95D2F7CB01BA0136
:10394000609570958095909500910102109102020A
:103950002091030230910402602371238223932378
:103960001F910F910C944A1C0F931F9341E050E05C
:1039700060E070E004C0440F551F661F771F8A95F2
:10398000D2F78091010290910202A0910302B091BE
:1039900004028A019B01082719272A273B27C9010E
:1039A000B8011F910F910C944A1C0F931F93009123
:1039B0000102109102022091030230910402602B57
:1039C000712B822B932B1F910F910C944A1C0F93F8
:1039D0001F93009101021091020220910302309185
:1039E000040260237123822393231F910F910C946F
:1039F0004A1C0F931F930091010210910202209123
:103A000003023091040260277127822793271F91B8
:103A10000F910C944A1C08952FE0929F800D112461
:103A2000982F977041E001C0440F9A95EAF7869568
:103A30008695869595E0899FF0011124E153FE4F0C
:103A400090E080E070E05191DF0111979B01082E1A
:103A500002C0369527950A94E2F721702195252713
:103A6000242325272C9301968530910561F708952D
:103A70002FE0929F800D1124982F97708695869540
:103A8000869525E0829FF0011124E153FE4F50E01E
:103A900040E080E0219130E0092E02C03695279564
:103AA0000A94E2F721703327042E01C0220F0A94F2
:103AB000EAF7822B4F5F5F4F4530510559F7089564
:103AC000BF92CF92DF92EF92FF920F931F93CF930B
:103AD000DF938C01C0900102D0900202E0900302BB
:103AE000F09004028091050290910602A0910702D5
:103AF000B0910802C82AD92AEA2AFB2ACFE1D0E0ED
:103B0000BC2ED701C6010C2E04C0B695A79597957B
:103B100087950A94D2F780FD0EC0219788F7B12CC3
:103B20008B2DDF91CF911F910F91FF90EF90DF9040
:103B3000CF90BF900895B8018C2F0E94D2060197B4
:103B400061F3EECFCF93DF93EC010E94601DBE01C5
:103B5000DF91CF910C94D2061F93CF93DF93EB01AB
:103B600090919601992331F0CB01DF91CF911F9174
:103B70000C94A21D882379F0CB010E94601D182FA0
:103B8000682FCE010E940C1DBE01812FDF91CF91C5
:103B90001F910C94D206CB010E94381D182FF4CF30
:103BA000682F80911001909111010C94B51F682F1E
:103BB00080911001909111010C94C01F809110010F
:103BC000909111010C94CB1F8091090285958595E8
:103BD0008595089580910902877008959091090252
:103BE000977081E009F480E0089580912D02089596
:103BF00090912D02892B80932D02089580959091AC
:103C00002D02982390932D02089510922D0208956D
:103C100090912C02892B80932C020895809590918D
:103C20002C02982390932C02089510922C02089550
:103C300090912B02892B80932B020895809590916F
:103C40002B02982390932B02089510922B02089533
:103C500080910A02089508950C942B1E90910A02F7
:103C6000981721F080930A020C942C1E08958091DD
:103C70000A02882329F010920A0280E00C942C1E7C
:103C80000895E0911001F091110180912D0280833F
:103C9000E0911001F0911101808190912C02892B0B
:103CA0008083E0911001F0911101808190912B02AD
:103CB000892B808390910A02992381F0E091100171
:103CC000F09111018081892B808380911001909166
:103CD00011010E94511F81110E94371E8091100115
:103CE000909111010C94B91208950C94741E98E0EF
:103CF000899F90011124622B609309020E94701C1D
:103D0000809109028595859585950C94751E109274
:103D1000090280E00C94751E909109028095892318
:103D200080930902282F277071F4282F082E000C89
:103D3000330B9217130639F08595859585950E946A
:103D4000911C0C94871E089590E080E00E94C12A87
:103D500021E08C3E9E4F09F020E0822F089582E002
:103D600090E00C94B32A83E090E00C94B32ACF93B4
:103D700084E090E00E94B32AC82F81E290E00E9484
:103D8000B32A982F8C2FCF910895CF93C92F682FE6
:103D900084E090E00E94C72A6C2F81E290E0CF91EE
:103DA0000C94C72A86E090E00C94B32A682F86E032
:103DB00090E00C94C72AAB01BC018FE090E00C941A
:103DC000D92AAB01BC0183E190E00C94D92A60E0D0
:103DD00070E0CB010C94E11E60E070E0CB010E942A
:103DE000DB1E0C94E71E6CEE7EEF90E080E00E94FC
:103DF000E52A60E082E090E00E94C72A60E083E06C
:103E000090E00E94C72A10920502109206021092BA
:103E100007021092080260E084E090E00E94C72A46
:103E200060E081E290E00E94C72A60E085E090E0D7
:103E30000E94C72A60E086E090E00E94C72A6FEFE8
:103E400087E090E00E94C72A40E050E0BA0188E095
:103E500090E00E94D92A60E08DE090E00E94C72A9D
:103E600040E050E0BA0188E190E00E94D92A60E089
:103E700087E190E00E94C72A40E050E0BA018CE15F
:103E800090E00E94D92A60E080E290E00E94C72A78
:103E90000C94EC1E0C94F31E682F8EE090E00C94B2
:103EA000C72AFC01329680912201882321F080915B
:103EB00099029EE187FF96E080E0915008F4089512
:103EC00021912223D1F38F5FF8CF9C01FC01329620
:103ED0009FEF80E04191461751F09F3F19F4411147
:103EE00001C0982F8F5F8630A9F79F3F09F408958E
:103EF000290F311D97FD3A95F90162830895FC0160
:103F0000329608962191261303C0DF0111971C9267
:103F1000E817F907B9F70895E62FE695E695E695CF
:103F2000EE3168F4E80FF92FF11D677021E030E001
:103F300001C0220F6A95EAF78281822B828308955D
:103F4000E62FE695E695E695EE3170F4E80FF92F49
:103F5000F11D677021E030E001C0220F6A95EAF799
:103F600020958281282322830895209122012223F3
:103F700029F02091990227FD0C948C1F0C94651F49
:103F800020912201222329F02091990227FD0C94EF
:103F9000A01F0C947F1FFC01329680912201882380
:103FA00051F08091990287FF06C08EE1DF011D92DA
:103FB0008A95E9F7089586E0F9CF089508950C945D
:103FC000DE1F0E94DF1F80919F02843061F11092FA
:103FD0002F0288E190E020E40FB6F894A895809332
:103FE00060000FBE2093600080E00E945A1180E0C4
:103FF0000E94F3030E94DF1F83B7817F846083BF29
:1040000083B7816083BF7894889583B78E7F83BFA1
:104010000FB6F894A8958091600088618093600045
:10402000109260000FBE08950895CF930E94DD1F87
:104030000E94060A0E941420C0E08C2F0E9494095E
:10404000892B31F4CF5FC530C1F780E0CF9108955F
:1040500081E0FCCF08950C942A200E944C180E9405
:104060007F100E94AD120E94F3030C942B201F922C
:104070001FB61F9211248F939F93AF93BF9380918C
:104080002F02811113C08091950290919602A09108
:104090009702B09198024196A11DB11D809395029F
:1040A00090939602A0939702B0939802BF91AF911C
:1040B0009F918F911F901FBE1F90189582E084BD25
:1040C00093E095BD9AEF97BD80936E0008952FB74A
:1040D000F8948091950290919602A0919702B091E8
:1040E00098022FBF0895CF92DF92EF92FF920F9325
:1040F0001F932FB7F89440919502509196026091CA
:104100009702709198022FBF6A017B01EE24FF2471
:104110008C0130E020E0C016D106E206F30650F034
:10412000481B590BCA011F910F91FF90EF90DF9030
:10413000CF90089541505109F3CF78941F921FB644
:104140001F9211248F939F93AF93BF9380919502F9
:1041500090919602A0919702B09198020196A11DAC
:10416000B11D8093950290939602A0939702B0930D
:104170009802BF91AF919F918F911F901FBE1F908A
:10418000189581E08093E00080E28093D80010923F
:10419000C9008FE19EE40197F1F700C0000087E0BD
:1041A00090EBDC018093A8029093A902A093AA024D
:1041B000B093AB0288E19CE00FB6F894A895809389
:1041C00060000FBE90936000FFCF0E94A41E81117B
:1041D00002C00E944A1F0E94AF1E80932E020E94BE
:1041E000B71E90939A02809399020E94B31E682F83
:1041F00070E090E080E00C940E1C8091330280FF10
:1042000012C06091150185E0689FB0011124759579
:1042100067957595679560387105A8F56115710505
:10422000A1F1862F089581FF09C06091150185E0F5
:10423000689FB001112475956795EDCF60911501C8
:1042400082FD0AC0809132028823D1F0909114013E
:1042500060911501891728F085E0689FB00111244D
:10426000DACF869FB001112485E0869F9001879F59
:10427000300D1124692F70E0C9010E94502ACBCF64
:1042800065E070E0CECF8FE7089581E008958091DA
:10429000330280FF0CC06091130170E07595679543
:1042A000759567956115710549F1862F089581FF10
:1042B00006C06091130170E075956795F3CF60912A
:1042C000130182FD0BC0909132029923A1F06091FD
:1042D000120180911301961738F0682F70E0603852
:1042E000710500F38FE70895899FC001112470E0E4
:1042F0000E94502AF4CF61E070E0D7CF81E00895AA
:10430000803F31F40E94FD2081958093370208950B
:10431000813F19F40E94FD20F8CF823F31F40E94C2
:10432000FD208195809336020895833F19F40E9401
:10433000FD20F8CF893F29F40E944721809338025D
:1043400008958A3F21F40E9447218195F7CF8B3F42
:1043500031F40E94472181958093390208958C3F62
:1043600019F40E944721F8CF843F31F4809135023F
:104370008160809335020895853F21F48091350254
:104380008260F7CF863F21F4809135028460F1CFBF
:10439000873F21F4809135028860EBCF883F21F47C
:1043A000809135028061E5CF8D3F31F480913302F9
:1043B00081608093330208958E3F21F4809133020F
:1043C0008260F7CF8F3FB9F7809133028460F1CFDD
:1043D00090913602803F41F48091370287FD109220
:1043E0003702992371F00895813F29F480913702B3
:1043F0001816ACF3F6CF823F81F497FFF2CF1092FC
:1044000036028091370290913802892B90913902BF
:10441000892B49F7109232020895833F19F4191637
:1044200074F3DFCF893F39F4809138021816CCF647
:1044300010923802D6CF8A3F29F48091380287FF44
:10444000D0CFF6CF8B3F39F48091390287FFC9CFA7
:1044500010923902C6CF8C3F29F480913902181688
:10446000BCF3BFCF843F31F4809135028E7F8093BF
:104470003502B7CF853F21F4809135028D7FF7CF8C
:10448000863F21F4809135028B7FF1CF873F21F465
:1044900080913502877FEBCF883F21F480913502F0
:1044A0008F7EE5CF8D3F31F4809133028E7F8093F4
:1044B000330297CF8E3F21F4809133028D7FF7CF67
:1044C0008F3F09F08ECF809133028B7FF0CF84E352
:1044D00092E00E94D3120E94672090933102809351
:1044E000300208951F93CF93DF9380913002909113
:1044F00031020E947320AC0190913202209116018A
:1045000030E0911106C0209117018AE0289F9001A8
:1045100011244217530778F020913602C0913702D8
:10452000D091380210913902211109C08C2F8D2BA6
:10453000812B09F06AC0DF91CF911F9108959F3FB1
:1045400019F09F5F90933202121624F40E94FD200E
:10455000809336028091360287FF05C00E94FD20BD
:104560008195809336021C1624F40E94FD208093CE
:1045700037028091370287FF05C00E94FD20819598
:1045800080933702309136023323A1F02091370215
:10459000222381F045EB3403C0011124992369F1F2
:1045A0009093360245EB240390011124332349F103
:1045B000309337021D1624F40E944721809338025D
:1045C0008091380287FF05C00E9447218195809322
:1045D0003802111624F40E944721809339028091F9
:1045E000390287FF05C00E944721819580933902D7
:1045F000DF91CF911F910C94672281E08093360266
:10460000D1CF81E080933702D5CF9F3F09F099CF7A
:10461000AACF86E0E4E3F2E0DF011D928A95E9F794
:104620001092320210923302089580915A02089536
:104630000F931F93CF93DF9300D00F92CDB7DEB7C8
:104640008C010E947E25823011F0843021F584E0B7
:1046500089831B830A8382E08093E9008FEF909126
:10466000E800815095FD06C095ED9A95F1F70000A0
:104670008111F5CF8091E80085FF0DC050E040E04A
:1046800063E070E0CE0101960E949B258091E800D6
:104690008E778093E8000F900F900F90DF91CF916D
:1046A0001F910F910895CF93DF9300D00F92CDB754
:1046B000DEB720919F02243031F523E02983805812
:1046C00091099B838A8382E08093E9008FEF909128
:1046D000E800815095FD06C095ED9A95F1F7000030
:1046E0008111F5CF8091E80085FF0DC050E040E0DA
:1046F00063E070E0CE0101960E949B258091E80066
:104700008E778093E8000F900F900F90DF91CF91FC
:104710000895CF93DF93EC010E947E25823011F043
:104720008430F9F482E08093E9008FEF9091E80003
:10473000815095FD06C095ED9A95F1F70000811125
:10474000F5CF8091E80085FF0CC050E040E066E0C6
:1047500070E0CE010E949B258091E8008E778093C7
:10476000E800DF91CF910895CF93DF93EC010E9491
:104770007E25823011F08430B9F5809122018823A2
:10478000B1F18091990287FF32C060E282E08093AC
:10479000E9008FEF9091E800815095FD06C095EDFE
:1047A0009A95F1F700008111F5CF8091E80085FF1F
:1047B0001BC08091220170E050E040E0811104C0F4
:1047C00050E040E068E070E0CE010E949B258091BF
:1047D000E8008E778093E80080E2FE01AAE3B2E071
:1047E00001900D928A95E1F7DF91CF91089568E0ED
:1047F00081E0CDCF80919E02811109C00E942B27BC
:104800000E9488278091E20084608093E2000895EE
:1048100010929E020895089508950C942D2042E070
:1048200061EC81E00E94A72642E261EC82E00C94F8
:10483000A7268091A102833009F45FC030F4813053
:10484000C1F1823009F49BC008958A3009F487C011
:104850008B3009F46DC0893009F04EC08091A00200
:10486000813209F049C08091A4029091A50202977B
:1048700008F042C08091E800877F8093E800809133
:10488000E80082FF35C09091F3008091F20002971A
:1048900029F48091F1008B7F813021F48091F10027
:1048A00080935A028091E8008B778093E8000C9403
:1048B000DB268091A002813AF9F48091E800877F9D
:1048C0008093E8008091A4029091A502892B61F465
:1048D00060E28AE392E070E00E94EA258091E800BD
:1048E0008B778093E800089560E090E080E0F3CF5C
:1048F00080919F028111C3CF08958091A002813AD7
:10490000D9F78091A4029091A502892BA9F78091F3
:10491000E800877F8093E8008091E80080FFFCCF6B
:10492000809122018093F1008091E8008E77BDCFC5
:104930008091A002813201F78091A4029091A5029A
:10494000892BD1F68091E800877F8093E8000E9450
:10495000DB268091A202809322010C944C18809156
:10496000A002813249F68091E800877F8093E800B9
:104970000E94DB268091A30280935B0208958091C0
:10498000A002813A09F0B8CF8091E800877F809338
:10499000E8008091E80080FFFCCF80915B02C2CFED
:1049A00084B7877F84BF0FB6F894A8958091600084
:1049B000886180936000109260000FBE80E8809351
:1049C0006100109261000E941B130E942B270E941D
:1049D00088278091E20084608093E20078940E94AE
:1049E000112A0E94231388E191E00E94A81280916D
:1049F0009F02853029F00E942F130E94E40FF7CF09
:104A00000E94E11F80919D02882389F30E94152056
:104A1000882369F30E948525EACF0C940F25292F5E
:104A200033272330310519F168F42130310509F4B9
:104A30004AC02230310509F44BC090E080E030E0FC
:104A400020E028C02132310579F122323105A9F761
:104A500080E490E020E536E061157105D9F080EC46
:104A600090E020E935E061307105A1F0E6CF9927AB
:104A70008130910599F0009741F08230910589F0DD
:104A80000397D9F6EBE1F5E002C0EFE3F5E084919E
:104A900090E09F01FA01318320830895EDE2F5E073
:104AA000F6CFE1E2F5E0F3CF89E090E025E535E0EF
:104AB0006115710579F389E090E02EE635E061300B
:104AC000710541F3BACF82E190E02EE735E0E2CF05
:104AD0008BE390E023E435E0DDCF0895CF93C82F3A
:104AE0000E946D25C0935C02CF91089580919F0232
:104AF000843011F482E0089581E0089580915C0291
:104B0000811102C00C947625089580E189BD82E16F
:104B100089BD09B400FEFDCF8091D8008F7D8093C0
:104B2000D8008091E00082608093E0008091E000F6
:104B300081FDFCCF0895AF92BF92CF92DF92FF929A
:104B40000F931F93CF93DF936C01EB018A010E94B7
:104B5000FA26F82E811123C00115110539F0F8014C
:104B600080819181C81BD90BC80ED91EB12CA12CF4
:104B70002097A9F08091E80085FD22C08091E8008F
:104B80008E778093E80001151105A1F0F80180816E
:104B90009181A80EB91EB182A08285E0F82E8F2DDA
:104BA000DF91CF911F910F91FF90DF90CF90BF9039
:104BB000AF9008950E94FA268823D1F2F82EEFCF05
:104BC000F60181916F018093F1002197FFEFAF1AF9
:104BD000BF0ACECFFC018091A6029091A702861752
:104BE0009707A0F06115710529F49091E8009E7770
:104BF0009093E80090E06115710551F4911108C09F
:104C00008091E80082FF34C080E00895BC01F2CFBB
:104C100080919F028823C1F18530C1F18091E80025
:104C200083FD30C08091E80082FDEACF8091E800EA
:104C300080FFE1CF8091F3002091F200382F6115C1
:104C4000710519F02830310558F091E02830310510
:104C500009F090E02091E8002E772093E800CBCF78
:104C600081918093F100615071092F5F3F4FE7CF31
:104C700080919F02882341F0853041F08091E800C7
:104C800083FFBECF81E0089582E0089583E0089518
:104C9000FC018091A6029091A70286179707A0F0C9
:104CA0006115710529F48091E8008E778093E80002
:104CB00090E06115710551F4911108C08091E800F0
:104CC00082FF35C080E00895BC01F2CF80919F0241
:104CD0008823C9F18530C9F18091E80083FD31C096
:104CE0008091E80082FDEACF8091E80080FFE1CF6B
:104CF0008091F3002091F200382F6115710519F0B1
:104D00002830310558F091E02830310509F090E065
:104D10008091E8008E778093E800CBCF84918093D8
:104D2000F1003196615071092F5F3F4FE6CF8091BE
:104D30009F02882341F0853041F08091E80083FF95
:104D4000BDCF81E0089582E0089583E00895982F13
:104D5000973028F08F708093E90081E00895909358
:104D6000E900242F762F50E0981731F07091EC0075
:104D70002091ED005091F00021FD02C09F5FE8CF2F
:104D80003091EB003E7F3093EB003091ED003D7FA2
:104D90003093ED003091EB0031603093EB00709375
:104DA000EC002093ED005093F0002091EE0027FDE1
:104DB000E5CF80E008958091A00287FF13C0809125
:104DC000E80082FF06C08091E8008B778093E800BE
:104DD00004C080919F028111F2CF089580919F02BB
:104DE0008823D9F38091E80080FFF8CF8091E80014
:104DF0008E77ECCF2091E4003091E50095E6A90193
:104E00002091EC00822F817020FF06C08091E80085
:104E100080FF06C080E008952091E80022FD1AC0BE
:104E200080919F02882389F0853089F08091EB0082
:104E300085FD0FC02091E4003091E5004217530733
:104E4000F9F29150E1F684E0089582E0089583E05C
:104E5000089581E008950E9499270E94A127E0EE1D
:104E6000F0E0808181608083E8EDF0E080818F77E1
:104E7000808319BCA7EDB0E08C918E7F8C938081EC
:104E80008F7E808310929E0208950F931F93CF937D
:104E9000DF930E9499270E94A127C8EDD0E0888166
:104EA0008F77888388818068888388818F7D8883D5
:104EB00019BC10929F0210929B0210929D021092B8
:104EC0009C0200EE10E0F80180818B7F8083888156
:104ED0008160888342E060E080E00E94A726E1EEE6
:104EE000F0E080818E7F8083E2EEF0E0808181605F
:104EF0008083808188608083F80180818E7F8083B9
:104F0000888180618883DF91CF911F910F910895EF
:104F1000E8EDF0E080818F7E8083E7EDF0E0808136
:104F20008160808384E082BF81E080939E020C9444
:104F30004527E8EDF0E080818E7F80831092E200CB
:104F400008951092DA001092E10008951F920F92D6
:104F50000FB60F9211242F933F934F935F936F934C
:104F60007F938F939F93AF93BF93EF93FF93809122
:104F7000E10082FF0BC08091E20082FF07C08091B8
:104F8000E1008B7F8093E1000E94102A8091DA007B
:104F900080FF19C08091D80080FF15C08091DA0091
:104FA0008E7F8093DA008091D90080FF96C080E1E7
:104FB00089BD82E189BD09B400FEFDCF81E0809307
:104FC0009F020E94FA238091E10080FF19C0809126
:104FD000E20080FF15C08091E2008E7F8093E200A6
:104FE0008091E20080618093E2008091D80080622D
:104FF0008093D80019BC85E080939F020E940C2406
:105000008091E10084FF2BC08091E20084FF27C0E3
:1050100080E189BD82E189BD89B5982F917080FFBB
:10502000FBCF8091D8008F7D8093D8008091E100E4
:105030008F7E8093E1008091E2008F7E8093E2007A
:105040008091E20081608093E20080919B0288233E
:1050500009F449C084E080939F020E940D2480914E
:10506000E10083FF29C08091E20083FF25C0809189
:10507000E100877F8093E10082E080939F0210929D
:105080009B028091E1008E7F8093E1008091E2009D
:105090008E7F8093E2008091E20080618093E20045
:1050A00042E060E080E00E94A7268091F0008860E6
:1050B0008093F0000E940B24FF91EF91BF91AF917C
:1050C0009F918F917F916F915F914F913F912F9120
:1050D0000F900FBE0F901F90189519BC10929F0251
:1050E0000E94082470CF8091E30087FD93E09093A5
:1050F0009F02B3CF1F920F920FB60F9211242F93DE
:105100003F934F935F936F937F938F939F93AF934F
:10511000BF93CF93DF93EF93FF93D091E900DF70BC
:105120008091EC00C82FC17080FDC0E81092E900AA
:105130008091F000877F8093F00078940E94BE28D1
:105140001092E9008091F00088608093F000CD2BF0
:10515000CF70C093E900FF91EF91DF91CF91BF91A4
:10516000AF919F918F917F916F915F914F913F91FF
:105170002F910F900FBE0F901F9018951F93CF93F4
:10518000DF93CDB7DEB7AA970FB6F894DEBF0FBE98
:10519000CDBF80EA92E02091F100FC012193CF0184
:1051A000F2E0883A9F07B9F70E9419248091E8003D
:1051B00083FF1EC18091A0029091A1029A3008F055
:1051C00017C1E92FF0E0E55EF44D0C94862A803893
:1051D00099F0823809F00CC18091A4028F70873059
:1051E00008F006C18093E9008091EB0085FB8827D9
:1051F00080F91092E90006C080919C0290919D0276
:10520000911182609091E800977F9093E8008093DD
:10521000F1001092F1008091E8008E77E5C08823BC
:1052200009F4D3C0823009F0E3C08091A202811159
:10523000D6C08091A4028F702FEF280F263008F07F
:10524000D7C08093E9002091EB0020FFC8C09330C5
:1052500031F48091EB0080628093EB00C0C09091AC
:10526000EB0090619093EB0021E030E001C0220F51
:105270008A95EAF72093EA001092EA008091EB0009
:105280008860EACF8111B4C01091A2021F7780918B
:10529000E3008078812B8093E3008091E800877F92
:1052A0008093E8000E94DB268091E80080FFFCCF1D
:1052B0008091E30080688093E30082E0111183E035
:1052C00080939F0295C08058823008F091C08091F1
:1052D000A2029091A3028C3D23E09207A1F583E006
:1052E0008A838AE289834FB7F894DE01139620E01F
:1052F0003EE051E2E32FF0E050935700E49120FFAD
:1053000003C0E295EF703F5FEF708E2F90E0EA30C0
:10531000C0F0C7968D939D932F5F243159F74FBFEF
:105320008091E800877F8093E8006AE270E0CE0118
:1053300001960E94EA258091E8008B778093E8002F
:1053400057C0C096E7CF6091A4027091A502AE014C
:105350004F5F5F4F0E940D25BC01892B09F448C0A7
:105360009091E800977F9093E80089819A810E944C
:105370004826E1CF8038E1F58091E800877F80936F
:10538000E80080919B028093F10045CF811130C0ED
:105390009091A202923060F58091E800877F80931F
:1053A000E80090939B020E94DB2680919B02882359
:1053B00011F084E005C08091E30087FDFACF81E021
:1053C00080939F020E940F2413C08091A20281301B
:1053D00079F481E0933009F080E080939D0210928F
:1053E000E9008091E800877F8093E8000E94DB2637
:1053F0008091E80083FF0AC08091E800877F809356
:10540000E8008091EB0080628093EB00AA960FB6D3
:10541000F894DEBF0FBECDBFDF91CF911F910895ED
:105420000895CF9380919F028823A1F0C091E90055
:10543000CF709091EC00892F817090FD80E8C82B8F
:105440001092E9008091E80083FD0E94BE28CF7091
:10545000C093E900CF910895DB018F939F930E9441
:105460009B2ABF91AF91A29F800D911DA39F900D8C
:10547000B29F900D11240895AA1BBB1B51E107C0D8
:10548000AA1FBB1FA617B70710F0A61BB70B881FD4
:10549000991F5A95A9F780959095BC01CD01089563
:1054A00097FB072E16F4009407D077FD09D00E94D1
:1054B0003C2A07FC05D03EF4909581959F4F0895B6
:1054C000709561957F4F0895A1E21A2EAA1BBB1B10
:1054D000FD010DC0AA1FBB1FEE1FFF1FA217B307C0
:1054E000E407F50720F0A21BB30BE40BF50B661FD6
:1054F000771F881F991F1A9469F76095709580959A
:1055000090959B01AC01BD01CF010895EE0FFF1FE7
:105510000590F491E02D0994A29FB001B39FC001C2
:10552000A39F700D811D1124911DB29F700D811DCF
:105530001124911D08950E948C2AA59F900DB49F5F
:10554000900DA49F800D911D11240895FC014150E0
:10555000504030F001900616D1F73197CF010895F1
:10556000882799270895F999FECF92BD81BDF89AB1
:10557000992780B50895A6E1B0E044E050E00C948E
:10558000ED2AA8E1B0E042E050E00C94ED2A262F8D
:10559000F999FECF92BD81BDF89A019700B4021629
:1055A00039F01FBA20BD0FB6F894FA9AF99A0FBED7
:1055B00008950396272F0E94C82A0E94C72A252FE4
:1055C0000E94C82A242F0C94C82A0196272F0E94D3
:1055D000C82A0C94C72ADC01CB01FC01F999FECF43
:1055E00006C0F2BDE1BDF89A319600B40D9241506B
:1055F0005040B8F70895F894FFCFD015D01528166D
:1056000028167A169616FD15FD15D8166417731709
:105610007317CF17D817FD15FB175B185B186418A5
:10562000641866186418641864185B185B186B18A3
:10563000641864186B18E7280F29F8290F29F8292E
:0A56400042296329F829BA29C62976
:10564A00010210101001191A1B1C1D1E1F202122F5
:10565A000B022808140A321E1523B4238923532364
:10566A00182301F0F1C667663794313035349796BE
:10567A0033F4909192939500010202020206060603
:10568A000909090909090F0F0F0F0F0F1515151829
:0C569A00191919191919191919192324C3
:00000001FF
