:100000000C948A040C94410D0C94D1040C94D104EA
:100010000C94D1040C94D1040C94D1040C94D1040C
:100020000C94D1040C94D1040C94771F0C944B20A5
:100030000C94721A0C94D1040C94D1040C94D10435
:100040000C94D1040C94D1040C94D1040C94D104DC
:100050000C94D1040C94D81A0C94D1040C94D104AF
:100060000C94D1040C94D1040C94D1040C94D104BC
:100070000C94D1040C94D1040C94D1040C94D104AC
:100080000C94D1040C94D1040C94D1040C94D1049C
:100090000C94D1040C94D1040C94D1040C94D1048C
:1000A0000C94D1040C94D1040C94D10429001400B4
:1000B0001A000800150017002D002B000400160080
:1000C000070009000A002F00E1001D001B000600C8
:1000D000190005002C00E000E300E2003504095D92
:1000E0002C004C003100130012000C0018001C0002
:1000F0002E00340033000F000E000D000B00300006
:10010000E5003800370036001000110028004F00CD
:100110005200510050000A5D28002A0035001E02DE
:100120001F022002210222022D0235021E001F00A2
:100130002000210022002F02E100230024002500DE
:10014000260027002C00E000E300E2003504095DF2
:100150002C004C0031022702260225022402230231
:100160002E02340233024F00520051005000300280
:10017000E5003802370236021000110028004D0059
:100180004B004E004A000A5D28002A0035001E027E
:100190001F022002210222022D0235023A003B00FA
:1001A0003C003D003E002F02E1003F0040004100C6
:1001B000420043002C00E000440045003504095D86
:1001C0002C004C00310227022602250224022302C1
:1001D0002E02340233024F00520051005000300210
:1001E000E5003802370236021000110028004D00E9
:1001F0004B004E004A000A5D28002A000000000063
:1002000000000000000000000000000000000000EE
:1002100000000000000000000000000000000000DE
:1002200000000000000000000000000000000000CE
:1002300000000000000000000000000000000000BE
:1007A0000000000000000000000000000100005CEC
:1007B000C25CC35CC65CC55C010001000100BF5C9B
:1007C000C15CBE5CBD5C01000100010001000100D4
:1007D0000100010001000100010001000100010011
:1007E0000100010001000100C95CCA5CC75CC85C73
:1007F00001000100010001000100010001000100F1
:1008000001000100010001000100010001000100E0
:10081000010001000100010001000100040330009B
:1008200000001A034500720067006F004400610079
:10083000730068006D0069006E00690000000C0321
:100840004F006D006B0062006400000004030904A7
:1008500009023B00020100A0FA09040000010301A3
:100860000100092111010001224000070581030850
:10087000000A090401000103000000092111010020
:10088000012236000705820320000A120110010030
:10089000000008EDFE60600001010203010501098E
:1008A00080A10185031A81002A8300160100260316
:1008B00000950175108100C0050C0901A101850496
:1008C0001A01002A9C02160100269C02950175104F
:1008D0008100C005010906A101050719E029E715F6
:1008E00000250195087501810295017508810105B2
:1008F00007190029FF150026FF00950675088100DD
:1009000005081901290595057501910295017503E1
:100910009101C00011241FBECFEFDAE0DEBFCDBFD2
:1009200004B603FE27C08091E4019091E501A091F7
:10093000E601B091E7018730904BA740B04BD1F46E
:100940001092E4011092E5011092E6011092E70185
:1009500014BE84B7877F84BF0FB6F894A8958091A2
:100960006000886180936000109260000FBEE0E03C
:10097000F8E3099511E0A0E0B1E0EEEDF4E402C087
:1009800005900D92A632B107D9F721E0A6E2B1E0B9
:1009900001C01D92A43EB207E1F70E94A31C0C9473
:1009A00045220C940000CF93FB018A302DE592077D
:1009B000A9F08B302DE59207F1F0C1E089309D451B
:1009C000B9F4C28181E0CC2361F00E94F81640E1C5
:1009D00062E081E00E949605C0E00AC0C28182E028
:1009E000F2CF0E94191740E162E081E00E94960573
:1009F0008C2FCF910895C28180E1CC2319F00E9401
:100A0000F816EACF0E941917F3CF81E008950C94ED
:100A1000D3041F93CF93DF9300D000D00F92CDB7B4
:100A2000DEB749835A836B832091510189819A8172
:100A300021111BC06623A9F00E94E817182F682F08
:100A400089819A810E94941769817A81812F0F9000
:100A50000F900F900F900F90DF91CF911F910C94FA
:100A60007A070E94C017182FEFCF0E94E8176981FC
:100A70007A81EDCFFC014081518162817381848153
:100A80000C9409058F929F92AF92BF92CF92DF9202
:100A9000EF92FF920F931F936B017C0181E090E036
:100AA000A0E0B0E04C015D0104C0880C991CAA1CB8
:100AB000BB1C4A95D2F7B501A4014C015D0104C0ED
:100AC000880C991CAA1CBB1C2A95D2F748295929C5
:100AD0006A297B2904C0880F991FAA1FBB1F0A958A
:100AE000D2F78A019B010C211D212E213F210417E1
:100AF00015072607370789F48C299D29AE29BF29B8
:100B0000BC01CD011F910F91FF90EF90DF90CF902E
:100B1000BF90AF909F908F90089580959095A095ED
:100B2000B0958C219D21AE21BF21EACF0F93382FA4
:100B3000262F6091AD017091AE018091AF0190912F
:100B4000B001042F432F0E9442050F910C94D2163E
:100B50000E942C19811102C00E94C9190C94280A04
:100B60000C942B0A08950C94B20581E008950C941E
:100B7000B505CF93C82F0E94B3058C2FCF910C944D
:100B8000B70508950E94D4120E94C1052FEF84E397
:100B90009CE0215080409040E1F700C0000087E7D2
:100BA00097E790930108809300080C94FC1A0F9328
:100BB0001F93CF93DF938C010E943A05EC01B8019B
:100BC0000E940705882309F473C0B801CE010E9472
:100BD000520C882309F46CC0C6318CE5D80709F49F
:100BE00065C188F4C130FCE5DF0709F467C028F56A
:100BF000C115DC4509F457C0C801DF91CF911F91A1
:100C00000F910C940505CE3DFCE5DF0709F463C0A8
:100C100078F4CC3DECE5DE0709F464C0CD3DDC455D
:100C200059F7F8018281882309F442C082E05FC04D
:100C3000CE018A5F9C450997F8F6F80182818823E6
:100C4000D9F20E942C19811102C00E94C9190E9478
:100C50003F199093D6018093D501C031FCE5DF07A1
:100C600009F4F1C008F080C0C830ECE5DE0709F4F3
:100C7000D8C008F052C0C4308CE5D80709F4C9C008
:100C8000C8F5C230FCE5DF0709F4B9C0C330DC4564
:100C900009F4BBC08091D5019091D6010E944D19F5
:100CA0000E94D41205C0F801828181110E94C20500
:100CB00080E0DF91CF911F910F910895F80182811B
:100CC0008823B1F39091C201892F8E7F90FF8160BC
:100CD0008093C201EDCFF8018281882349F30E94FD
:100CE000C919E6CFF8018281882311F380E00E94C0
:100CF0003F1DDECF8091D5018061C630ECE5DE0777
:100D000009F480C08091D5018860C730DC4508F4C3
:100D100079C08091D501806275C0CC308CE5D80750
:100D200009F489C070F48091D5018C60CA30FCE56B
:100D3000DF0709F467C008F478C08091D5018E7F81
:100D400061C08091D501877FCE30ECE5DE0709F4E4
:100D500059C08091D5018B7FCF30DC4508F452C05B
:100D60008091D5018F7E4EC0CB3F8CE5D80709F42A
:100D700054C030F5C331FCE5DF0709F46CC078F4EA
:100D8000C131ECE5DE0709F462C0C231DC4509F08F
:100D900081CF0E94D4128091D5018F7733C0C531A5
:100DA0008CE5D80709F45FC008F473C08091D601C0
:100DB0008160CA3FDC4509F06DCF8093D6016ACFD0
:100DC000CF3F8CE5D80709F44AC060F48091D60182
:100DD0008D7FCD3FFCE5DF0781F388F18091D6015F
:100DE0008360EBCFC130EDE5DE0709F45BC008F4AA
:100DF00046C0C230DD4509F04DCF80E054C080913F
:100E0000D50181608093D50145CF8091D501826065
:100E1000F9CF8091D5018460F5CF8091D6018260B1
:100E2000CCCF8091D5018064EDCF0E94D412809107
:100E3000D5018068E7CF8091D5018D7FE3CF809188
:100E4000D6018E7FBACF8091D5018F7DDBCF809187
:100E5000D5018F7BD7CF8091D501837FD3CF809170
:100E6000D6018C7FAACF8091D50182FB992790F97A
:100E700021E0922790FB82F990FB83F9C3CF809108
:100E8000D601982F909591708E7F892B90FB81F9D8
:100E900094CF0E94D4129091D501892F97FB87F9A6
:100EA0008058B0CF81E00E94D519F4CE0E947D1801
:100EB000F8019281992381F08A7A91E009F490E017
:100EC00090932601811106C089E20E9458180E9461
:100ED000C918EECE85E3F9CF80912601811104C0B7
:100EE00089E20E945F18F3CF85E3FBCF90E080E0BA
:100EF00008950895972F70E027E0929F600D711D6F
:100F00001124FB0198E3899FE00DF11D1124EE0FE0
:100F1000FF1FE455FF4F859194910895FC01EE0F5A
:100F2000FF1FE45EF74F859194910895CF93DF936F
:100F30000E947A070E944D09EC01811520E5920775
:100F400008F042C0811530E4930708F014C1883ED0
:100F5000910528F5803E910508F0A0C0883A9105DA
:100F600088F4853A910508F08FC08130910509F425
:100F700095C0009709F492C0049708F08FC0D0E0A4
:100F8000C0E08CC08F3B910508F48CC0805C910957
:100F9000C03CD105A0F30E948E07EC017FC08115F3
:100FA000904250F4C11581E0D80708F077C0C03FE7
:100FB000D10528F3D06572C0C11590E3D90708F0B8
:100FC000D0C0CE019F70E7CF811525E5920758F577
:100FD000811534E5930708F0FDC0811542E59407BB
:100FE00050F4C11581E5D80708F4C8C0DC2FCC2720
:100FF000C16FD06A53C0982F969596959E01237025
:101000003327C115D34508F0D6C0C1E0D0E002C0F7
:10101000CC0FDD1F2A95E2F720E2929FC001112438
:10102000C82BD92BC6C0C11589E5D807A8F4C115AE
:1010300098E5D90708F0D3C0C11526E5D20708F016
:101040009ECF8C2F0E94E409C82FD0E0DC2FCC2744
:10105000CC27DF71D06222C0C1153AE5D30708F46E
:10106000C3C0CE0190568115904208F088CF8D2FD5
:101070008F710E94E40990E0982F882788279F713C
:101080009C012C2BE901E6CF853A910509F4BAC001
:10109000863A910509F0B9C0C2E8D0E4CE01DF91EB
:1010A000CF910895883A910509F4B2C0893A910523
:1010B00009F4B1C08A3A910509F4B0C08B3A9105A0
:1010C00009F4AFC08C3A910509F4AEC08B3B910591
:1010D00009F4ADC08C3B910509F4ACC08D3A910583
:1010E00009F4ABC0803B910509F4AAC08E3A910582
:1010F00009F4A9C08F3A910509F4A8C0813B910574
:1011000009F4A7C0823B910509F4A6C0833B910571
:1011100009F4A5C0843B910509F4A4C0853B910561
:1011200009F4A3C0863B910509F4A2C0873B910551
:1011300009F4A1C0883B910509F4A0C0893B910541
:1011400009F49FC08D3B910509F49EC08E3B91052B
:1011500009F49DC08A3B910509F49CC0C0E0D4E429
:101160009DCFCE019927D3FF03C0EC01D86C96CF59
:10117000EC01D06C93CFDF70D06A90CFCE01E4E069
:1011800096958795EA95E1F783702C2F26952695FD
:10119000237090E2299F90011124382B8C2F8370AB
:1011A000C1E0D0E002C0CC0FDD1F8A95E2F7C22B70
:1011B000D32BDC6873CFC1E0D0E002C0CC0FDD1FC1
:1011C0002A95E2F730E2939FC0011124C82BD92B56
:1011D000DA6864CFD82FCC27C46FD06A5FCFDC2FFA
:1011E000CC27C06FD06A5ACF8C2F8F700E94E40931
:1011F00034E0D695C7953A95E1F7CF709C2FEC0176
:10120000D0694CCFC1E8D0E449CFC3E8D0E446CFA1
:10121000C2EED4E443CFC9EED4E440CFCAEED4E466
:101220003DCFC5EBD4E43ACFC6EBD4E437CFC3EB24
:10123000D4E434CFC4EBD4E431CFC7EBD4E42ECF25
:10124000CCECD4E42BCFCDECD4E428CFC3E8D5E468
:1012500025CFCAE8D5E422CFC2E9D5E41FCFC4E93F
:10126000D5E41CCFC1E2D6E419CFC3E2D6E416CF51
:10127000C4E2D6E413CFC5E2D6E410CFC6E2D6E48A
:101280000DCFC7E2D6E40ACFCFE6D4E407CFC0E75C
:10129000D4E404CFCAE2D6E401CF82389105B1F19B
:1012A000B0F48133910509F475C048F48932910591
:1012B00009F469C08A32910509F473C00895853331
:1012C000910509F459C08933910501F10895833ED0
:1012D0009105A9F138F4803E9105F9F0823E91051F
:1012E00049F10895863E9105A9F1873E9105C9F11E
:1012F000843E910519F52091D60121FF1FC08091F0
:10130000D50184FD14C087EE90E008952091D501A9
:101310002370A1F080EE90E008952091D50120FD8A
:1013200047C03091D60130FF09C024FF44C090E08F
:1013300080E004C02091D50122FDF7CF08952091CF
:10134000D50122FD3BC03091D60130FDE3CF24FF13
:10135000F5CFEDCF2091D50123FFF0CF24FDE7CFCE
:10136000D2CF2091D50123FD2CC03091D60131FF81
:10137000EECF84EE90E008952091D50125FFDECFD9
:1013800089E290E008952091D50125FFD7CF85E32C
:1013900090E008952091D50126FFD0CF8AE290E019
:1013A00008952091D50126FFC9CF81E390E00895EB
:1013B00089E390E0089583EE90E0089582EE90E056
:1013C000089586EE90E008959091D50192FF06C0B1
:1013D000282F28712830F9F4877F846093FF06C096
:1013E000282F28712831F1F4877E84612091D6015D
:1013F00020FF06C0382F38713830D9F4877F8160DC
:1014000021FF06C0282F28712831D1F4877E816101
:1014100094FD877E0895282F24712430F9F68B7F60
:101420008860DCCF282F2471243101F78B7E8861FE
:10143000DDCF382F3171313019F78E7F8860E0CFE2
:10144000282F2171213121F78E7E8861E1CF089507
:101450000C94270A08950C942A0A0895E82FF0E0C6
:10146000E45DFE4F808108950895CF93DF930E943D
:10147000A60B809100018091000194E0811190E021
:101480009093D00184E0891B8093CF01ADE1B1E05E
:1014900041E251E0C1E0D0E08D91E82FE295EF709C
:1014A000F0E061A18F709E0101C0220F8A95EAF7DA
:1014B000922F9095962391A382A1822B82A34A1703
:1014C0005B0751F7A6E1B1E061E070E08D91E82F94
:1014D000E295EF70F0E041A18F709B0101C0220FF7
:1014E0008A95EAF7922F9095942391A382A1822B5B
:1014F00082A381E0AD31B80749F710922C01109218
:101500002D0110922E0110922F0110923001109295
:101510003101109232011092330184E00E94510B8C
:10152000DF91CF910C94A8056F927F928F929F923A
:10153000AF92BF92CF92DF92EF92FF920F931F93E1
:10154000CF93DF9328E231E04DE1E42E41E0F42E29
:10155000712CCC24C394D12CE90179919E01DE0138
:101560001E92F70181917F01E82FE295EF70F0E084
:1015700091A18F70860101C0000F8A95EAF7892F2B
:10158000802B81A382A1602E6094862182A380EAB1
:101590008A95F1F796E1A92E91E0B92E50E040E04E
:1015A000E50169915E01862E82948FE08822912C5C
:1015B000E40188A190E06F7002C0959587956A95C7
:1015C000E2F7812C80FD06C04601042E01C0880C84
:1015D0000A94EAF78C91882A8C924F5F5F4F4730CC
:1015E0005105F1F681A1862181A382A1082B02A3D6
:1015F00081E09C91971301C080E0782AD1E02C32E1
:101600003D0709F0A9CF6091D00170E0645D7E4F85
:10161000272D44E088E291E00E94520B872DDF9154
:10162000CF911F910F91FF90EF90DF90CF90BF90DF
:10163000AF909F908F907F906F900895CF930E946E
:10164000940AC82F0E948A0B882309F18091CF0148
:1016500090E0845D9E4F0E94BD0B811115C080916A
:1016600027018F5F80932701863048F0E091CF01FA
:10167000F0E0E45DFE4F10821182128213820E941C
:10168000B0058C2FCF91089510922701F8CF80914B
:10169000D00190E0845D9E4F0E94D60B0E942D0ADF
:1016A000F0CF0895FF920F931F93CF93DF93F82EFF
:1016B000092F162FD72FC42F222349F081E08093C2
:1016C00036010E94A21A90933501809334018091D3
:1016D00036018823A1F080913401909135010E9458
:1016E000AE1A069760F0EF2DF02FA12FBD2FCE0F71
:1016F000DF2FD11DEC17FD0741F410923601DF9169
:10170000CF911F910F91FF90089581918D93F2CF0A
:101710000C94CB1980913701811111C08091D800B0
:1017200080618093D8008AE18A95F1F700C090919A
:10173000D900892F817090FF82E08093370181E08A
:1017400090913701913009F080E008950E94880B54
:10175000809300010E948A0B81110C94B10B0C94B0
:10176000B70B61E070E081E091E00C94F20C61E075
:1017700070E081E091E00C94F90CCF93DF93D82FC7
:10178000C92F0E94930D009779F4ED2FFC2FDC01F7
:10179000A75CBE4F2C912193019684309105B9F737
:1017A00081E0DF91CF91089580E0FBCF30E020E031
:1017B000FC014191CF01F901E75CFE4F40832F5FAF
:1017C0003F4F24303105A1F708950F931F93CF9316
:1017D000DF93C62FD42F022FFC0182818823C9F00A
:1017E00060933F010E94A21A90933E0180933D01B5
:1017F00080E28C0F883008F050C0C77081E001C0D3
:10180000880FCA95EAF7DF91CF911F910F910C9441
:10181000801010913F01161335C080913D019091C9
:101820003E010E94AE1A8837910560F5C0E2CD0FE7
:101830001D17B9F080E2810F883040F4177081E005
:1018400001C0880F1A95EAF70E948710C83048F443
:1018500081E09D2F977001C0880F9A95EAF70E944A
:101860008010802F0E946D10C830B8F4D77081E0CE
:1018700001C0880FDA95EAF7DF91CF911F910F91A0
:101880000C94871080E28C0F883038F4C77081E0A8
:1018900001C0880FCA95EAF7EFCFDF91CF911F9172
:1018A0000F9108959C01CB01233F4CE5340731F1A2
:1018B00090F4283DFCE53F07E9F0293D4CE534076D
:1018C00069F1273D3C4579F426E241EE61EE0E9444
:1018D000E50B80E00895253FFCE53F07B9F090F067
:1018E000263F3C45B9F0FC0182818823D1F010925B
:1018F0003F01089527E245EE65EEE9CF26E241EE8D
:1019000060EEE5CF27E245EE64EEE1CF26E241EE60
:1019100062EEDDCF27E245EE66EED9CF28E241E068
:10192000EBCF81E008958EE1489B02C08150E1F742
:10193000489BFECF0895589880E28A95F1F7589A0F
:101940000895FC013BE03A95F1F798E020E080E053
:1019500031E040E14A95F1F7880F489B02C0816071
:10196000232742E04A95F1F7000040E14A95F1F75C
:10197000915079F790E19A95F1F799B132E03A9563
:10198000F1F7000040E14A95F1F79170922720812C
:10199000920F90830895EF92FF920F931F93CF932E
:1019A000DF930F92CDB7DEB719828C017C01E60E72
:1019B000F11C0E151F0561F481E09981911180E001
:1019C0000F90DF91CF911F910F91FF90EF900895AD
:1019D0000E94930CCE0101960E94A10CF801819304
:1019E0008F01E7CF9093410180934001509A589A1C
:1019F000089590934101809340015098589AE89A35
:101A0000E9E6F0E080818C7F808308956150770B58
:101A100091E001C0990F6A95EAF720E031E0911159
:101A200008C0222391F0589A80E28A95F1F75898DD
:101A30000895492F482339F0589A232740E24A95C0
:101A4000F1F79695ECCF5898F9CF5898EDCFFF92D3
:101A50000F931F93CF93DF93EC018C01060F111DA1
:101A6000C017D10731F4DF91CF911F910F91FF90F3
:101A70000895F9900E949B0C68E08F2D0E94060D3E
:101A8000EFCF1F920F920FB60F9211242F933F9317
:101A90004F935F936F937F938F939F93AF93BF9376
:101AA000CF93DF93EF93FF935898509AC0914001E2
:101AB000D09141016D81662321F08E819F810E942A
:101AC000270D0E949B0C80E18A95F1F75898509859
:101AD000589A80E18A95F1F76A81662309F18B8132
:101AE0009C810E94CB0CE881F981882311F088E069
:101AF00001C082E080830E94930CFF91EF91DF91FF
:101B0000CF91BF91AF919F918F917F916F915F9195
:101B10004F913F912F910F900FBE0F901F901895EE
:101B2000E881F981E4CFCF93DF93C0914001D09158
:101B30004101F894509A589885E08A95F1F7000091
:101B40005098589A80E28A95F1F7489B0CC0509AB9
:101B5000589AE881F98181E08083789481E090E06F
:101B6000DF91CF9108956D81662381F08E819F81F1
:101B70000E94CB0C81110AC0509A589AE881F981D1
:101B800082E08083789482E090E0EACF0E94930C18
:101B900080E28A95F1F75898509A80E18A95F1F79A
:101BA0006A81662321F08B819C810E94270D0E940F
:101BB0009B0CE881F9811082789490E080E0D0CF8E
:101BC00090934701809346010895E0914601F0917A
:101BD0004701309721F00190F081E02D099480E0D9
:101BE0000895E0914601F0914701309721F002807D
:101BF000F381E02D0994089520914401309145012D
:101C00002817390771F09093450180934401E091C2
:101C10004601F0914701309721F00680F781E02DD1
:101C20000994089520914201309143012817390702
:101C300071F09093430180934201E0914601F0914D
:101C40004701309721F00084F185E02D0994089533
:101C500085B7806885BF85B7806885BF089508957A
:101C600008950C942F0E08950C94330E0E94280EA4
:101C70000E94300E0C94310E0E94991A0E94350A6F
:101C80000E940D1B0C94340EBF92CF92DF92EF9204
:101C9000FF920F931F93CF93DF93CDB7DEB72A97B1
:101CA0000FB6F894DEBF0FBECDBF0E941E0B0E9480
:101CB0008A0B882309F46FC089E4C82E81E0D82EEE
:101CC00010E000E0B02E802F0E942E0AE82EF601D0
:101CD000F1906F01F81609F458C08091C20181FD9E
:101CE0000E94340AFE2490E080E02F2D30E0482F3F
:101CF000B901082E02C0759567950A94E2F760FF56
:101D00003FC08E83BF8281E090E06C0102C0CC0CAA
:101D1000DD1C4A95E2F72E2D30E02C213D21232BAE
:101D200009F480E088870E94A21A8160782F9A8740
:101D300089874E815F8168858A850E94EC0EF80153
:101D4000E75BFE4F80818C2580830E94E50D90919A
:101D50004801891789F10E94E50D809348012A9670
:101D60000FB6F894DEBF0FBECDBFDF91CF911F91AC
:101D70000F91FF90EF90DF90CF90BF900C94B9053A
:101D800001968730910509F0B2CF0F5F1F4F0830E1
:101D9000110509F097CF8FEF89838A831B820E94F8
:101DA000A21A8160782F9D838C8349815A816B812F
:101DB0008D810E94EC0EC9CF2A960FB6F894DEBF33
:101DC0000FBECDBFDF91CF911F910F91FF90EF908C
:101DD000DF90CF90BF900895CF93DF93CDB7DEB75C
:101DE0002B970FB6F894DEBF0FBECDBF4F83588739
:101DF00069877A878B871E821D8285E0FE01379670
:101E0000DE01119601900D928A95E1F749815A8180
:101E10006B817C818D819E812B960FB6F894DEBFFD
:101E20000FBECDBFDF91CF910C947415FC01808162
:101E300091810C942A18882309F4FFC08238B9F4E0
:101E40000E94E50D81FDF9C089E30E9458180E94A7
:101E5000C9182FEF81EE94E0215080409040E1F7C7
:101E600000C0000089E30E945F180C94C9188338F1
:101E7000A1F40E94E50D80FDE0C083E50E945818A2
:101E80000E94C9182FEF81EE94E0215080409040CD
:101E9000E1F700C0000083E5E6CF8438A1F40E949A
:101EA000E50D82FDCAC087E40E9458180E94C91837
:101EB0002FEF81EE94E0215080409040E1F700C088
:101EC000000087E4D0CF9CEF980F913A18F40E945D
:101ED0005818CBCF90E2980F983050F4877091E06B
:101EE00001C0990F8A95EAF7892F0E948018BDCF0B
:101EF0009BE5980F933070F4853A31F0863A39F0CB
:101F000083E890E00C94FC0D81E890E0FBCF82E840
:101F100090E0F8CF98E5980F973108F08EC0883A96
:101F200009F446C0893A09F446C08A3A09F446C021
:101F30008B3A09F446C08C3A09F446C08B3B09F44D
:101F400046C08C3B09F446C08D3A09F446C0803B3C
:101F500009F446C08E3A09F446C08F3A09F446C0E7
:101F6000813B09F446C0823B09F446C0833B09F437
:101F700046C0843B09F446C0853B09F446C0863B15
:101F800009F446C0873B09F446C0883B09F446C0C3
:101F9000893B09F446C08D3B09F446C08E3B09F4E9
:101FA00046C08A3B09F446C090E080E00C94120ED3
:101FB00082EE90E0FBCF89EE90E0F8CF8AEE90E0E1
:101FC000F5CF85EB90E0F2CF86EB90E0EFCF83EB9F
:101FD00090E0ECCF84EB90E0E9CF87EB90E0E6CFA8
:101FE0008CEC90E0E3CF8DEC90E0E0CF83E891E0E3
:101FF000DDCF8AE891E0DACF82E991E0D7CF84E9BA
:1020000091E0D4CF81E292E0D1CF83E292E0CECFD3
:1020100084E292E0CBCF85E292E0C8CF86E292E004
:10202000C5CF87E292E0C2CF8FE690E0BFCF80E7D6
:1020300090E0BCCF8AE292E0B9CF0895882309F4FA
:102040004BC0823871F40E94E50D81FF45C089E3E1
:102050000E9458180E94C91889E30E945F180C94C6
:10206000C918833859F40E94E50D80FF35C083E517
:102070000E9458180E94C91883E5EFCF843859F49C
:102080000E94E50D82FF28C087E40E9458180E9434
:10209000C91887E4E2CF9CEF980F913AF0F290E2F2
:1020A000980F983050F4877091E001C0990F8A958D
:1020B000EAF7892F0E948618D2CF9BE5980F9330BC
:1020C00020F490E080E00C94FC0D885A873120F4D5
:1020D00090E080E00C94120E0895CF93C82F0E94D8
:1020E0001B0FC93349F42FEF87EE93E02150804056
:1020F0009040E1F700C000008C2FCF910C941E108F
:10210000882321F00E9480180C94C9180895882310
:1021100021F00E9486180C94C9180895BF92CF929E
:10212000DF92EF92FF920F931F93CF93DF936C0197
:10213000D62FC72FFC01058102950F701281111156
:102140000E949D180E947618E82E882371F01123B2
:10215000B1F080E28D0F883090F082E00E94141977
:102160000E94761891E0E82EE926BC2EB2949FE0FA
:10217000B922EB2DF0E0E95BFD4D0C94FD21E12C43
:10218000F4CF0C2F0F70C07F11F00295007F112348
:10219000A9F0002359F080E28D0F883010F0D111A2
:1021A00009C0802F0E9480180E94C9188D2F0E949C
:1021B0001B0F14C0802F0E949018F6CF8D2F0E9405
:1021C0001E10002359F080E28D0F883010F0D111DD
:1021D0002CC0802F0E9486180E94C9182B2D2850D1
:1021E000330B2430310520F40E94E50D0E94B9051F
:1021F000EE2009F493C10E94721880FD8FC1F60190
:1022000012820E946C180E94F816C6010E94981251
:102210000E946C18DF91CF911F910F91FF90EF906A
:10222000DF90CF90BF900C941917802F0E949618C2
:10223000D3CFFC2FFF70FF2EC07FC03219F0F29475
:1022400080EFF822DD2369F0D13049F1112391F1BB
:10225000002351F1F601858180FFA8CF8F7085831F
:1022600023C0112381F0011106C00E94B0188F29EC
:102270000E948010B3CF0130C1F70E94B0188F299F
:102280000E94B618ABCF011106C00E94BF188F2D57
:102290000E948710A3CF013009F4A0CFF6CF1123FD
:1022A00029F0063008F09ACF8F2DE2CF053008F0E4
:1022B00095CFEDCF002359F3D93349F4FFEF27EE43
:1022C00033E0F15020403040E1F700C000008D2F96
:1022D0000E941E1083CF8C2F86958695837069F09F
:1022E000813009F07BCF8D2F9C2F9370111102C08C
:1022F00090E080E00E94120E71CF8D2F9C2F937082
:10230000111102C090E080E00E94FC0D67CF8C2F7D
:10231000837009F041C0111161CF4D2F4295469550
:102320004770440F440F0D2F0F7010E030E020E095
:10233000042E04C0000F111F221F331F0A94D2F76E
:1023400060E070E0CB01D4FF0FC06FE070E080E090
:1023500090E004C0660F771F881F991F4A95D2F737
:102360006095709580959095C695C695C370602BC5
:10237000712B822B932BC23049F058F4C13019F0E5
:102380000E94AA162BCF0E94981628CF0E94BC1636
:1023900025CF0E94961622CF8695112311F08C2FFF
:1023A0008170882309F41ACF4D2F429546954770C6
:1023B000440F440F0D2F0F7010E030E020E0042E8A
:1023C00004C0000F111F221F331F0A94D2F760E0D0
:1023D00070E0CB01D4FF0FC06FE070E080E090E0D0
:1023E00004C0660F771F881F991F4A95D2F7609522
:1023F000709580959095C695C695C370602B712B8E
:10240000822B932BC23049F058F4C13019F00E944E
:102410006F17E4CE0E945D17E1CE0E948117DECED9
:102420000E94D216DBCECF70112329F08C2F0E9490
:10243000F8168D2F1DCF8D2F0E9487108C2F0E9494
:102440001917CCCED23F89F160F4D03FC9F0D13F0B
:1024500029F1112309F442C00111A8CE8C2F8F71EC
:1024600021C0D33F39F1D43FA1F7112369F1CF71D6
:102470008C2F0E94F81663E08C2F0E94FF18AECEBE
:10248000112341F0053008F0A9CE8C2F8F710E94E6
:102490003C17A4CE063008F0A1CEF7CF8C2F8F7159
:1024A000112369F20E94F81699CE8C2F8F71112397
:1024B000C9F3C5CF112329F08C2F8F710E94E31629
:1024C0008DCE0E94DE168ACE81E00E941419023061
:1024D00008F484CE82E00E94141980CE002359F0C3
:1024E000D93309F0F4CE8FEF97EEE3E081509040BE
:1024F000E040E1F7EACE8C2F8F71A1CF4C2F4F70C7
:102500006D2FC6010E9476070E940E1667CE4C2FD3
:102510004F706D2FC6010E94790760CEDF91CF9179
:102520001F910F91FF90EF90DF90CF90BF90089593
:102530000F931F93CF93DF93EC018B819C81892BA9
:1025400029F08881998189238F3F29F4DF91CF91E8
:102550001F910F910895CE010E94D7058823B1F3F2
:10256000688179818A810E9434188C010E949317B6
:102570000E949516B801CE01DF91CF911F910F9166
:102580000C948E100E949D180E94AD180E94C918CC
:1025900090E080E00E94FC0D90E080E00C94120E30
:1025A0000E9466180C94C2120E948D180C94D012CE
:1025B000E92FE295EF70E250EE3070F4F0E0E95A66
:1025C000FD4D0C94FD21803F19F020F4883E20F44D
:1025D00081E00895843FE1F380E00895883EC0F3F0
:1025E000813FD1F7F5CF93FB882780F908950E94AA
:1025F0002A180C94D812CF93DF9300D000D00F92FA
:10260000CDB7DEB70F900F900F900F900F90DF9126
:10261000CF910895CF93DF9300D000D000D0CDB7F5
:10262000DEB726960FB6F894DEBF0FBECDBFDF91A2
:10263000CF9108951F93CF93DF93C091520116E07D
:10264000809153018C1304C0DF91CF911F910895A5
:10265000D0E01C9FF0011D9FF00D1124EC5AFE4F9D
:102660004081518162817381848195810E940A1326
:102670002196C770E5CF409184015091850160910A
:1026800086017091870180918801909189010C9455
:102690000A131F93CF93DF9380918901807FC1F448
:1026A000809186018823A1F080915201C09153014D
:1026B000609184017091850140918701509188015A
:1026C000D62FD723DA01A095B09516E0C81304C021
:1026D000DF91CF911F91089590E04115510511F0C0
:1026E000DF3F31F401968770F1CF2A0F3B1F17C0EF
:1026F000189FF001199FF00D1124EC5AFE4F218113
:102700002713F0CF20812613EDCF22812111EACFAC
:10271000238134812417350740F3241B350B2837D8
:10272000310500F7209189012F70206120938901E4
:1027300026E0289FF001299FF00D1124E75AFE4F53
:1027400080818F708061808384E891E00E9498127C
:10275000DF91CF911F910C941A13BF92CF92DF9209
:10276000EF92FF920F931F93CF93DF93CDB7DEB716
:1027700061970FB6F894DEBF0FBECDBF8C0185E028
:10278000F801DE011D9601900D928A95E1F7D801BE
:102790004C9111965C9111971296EC901297809142
:1027A000870190918801009709F47FC120918401ED
:1027B00030918501622F63236F3F09F476C1139630
:1027C000CD90DC90B0908601BB2009F411C1C816F1
:1027D000D906D0F1F601E81BF90BCF01FF24F394E1
:1027E0008837910508F0F12C80918901982F907F0E
:1027F000FF2009F4B8C091117FC0FE2C351329C009
:10280000241327C0E11025C08F7080618093890157
:102810000E943B1384E891E00E9498128091890104
:10282000D80115968C938F2D61960FB6F894DEBF64
:102830000FBECDBFDF91CF911F910F91FF90EF9011
:10284000DF90CF90BF900895809590958C0D9D1D41
:10285000C5CFCD2829F0852F84238F3F09F041C1B2
:1028600080E0B82FB170DB2E80FF3CC08091520118
:102870002091530136E0821315C04D875E878D8508
:102880009E850E942A18292F22952F702230F0F061
:10289000243018F59F70F1F0F8019581907FD1F404
:1028A000D12C1EC090E0389FF001399FF00D11240B
:1028B000EC5AFE4F6181651306C06081641303C04A
:1028C0006281E6120FC001968770D5CF9F7011F01C
:1028D000882331F3805E883018F3C8010E94981273
:1028E000FD2CA1CFEE2009F49ECF8091890181605B
:1028F00080938901F12C97CF351306C0241304C0AF
:10290000D801EE2009F49AC04D875E878D859E859B
:102910000E94F712882319F1EE2009F180918901B4
:10292000803270F0209184013091850138872F83A7
:102930001986DB86CA868C87CE0107960E9498127C
:1029400086E0F801A4E8B1E001900D928A95E1F7E4
:102950000E9449130E943B13FF24F39464CFC801E3
:102960000E949812F9CF911113C07C2DD98AC88A80
:102970006E2D89890E94FB1284E891E00E949812D2
:1029800086E0E4E8F1E0DF011D928A95E9F763C093
:10299000351312C0241310C0E1100EC0F801858356
:1029A000C8010E949812E4E8F1E086E0DF011D9280
:1029B0008A95E9F7FB2C37CF4D875E878D859E85FD
:1029C0000E94F712882359F2EE2049F28091890182
:1029D000803208F4B5CF20918401309185013A838B
:1029E00029831B82DD82CC828E83CE010196A6CF05
:1029F000C816D90698F1F601E81BF90BCF01F12CA6
:102A00008837910508F049C0FE2CEE2009F4A7CFC5
:102A1000351332C0241330C08091890180FD23C05A
:102A2000982F907F01F1D80115968C931597903FC0
:102A300039F0982F907F905F8F70892B15968C932B
:102A4000C8010E94981286E0F801A4E8B1E0019064
:102A50000D928A95E1F70E943B13E5CE8095909503
:102A60008C0D9D1DCCCF86E0F801A4E8B1E001906B
:102A70000D928A95E1F7D7CE4D875E878D859E852D
:102A80000E94F71281115CCF80918901816080934F
:102A90008901C8010E949812C6CE7C2DD98AC88AA5
:102AA0006E2D89890E94FB126BCFEE2009F457CF5F
:102AB0004D875E878D859E850E94F712F82E8823AC
:102AC00009F44DCF86E0F801A4E8B1E001900D9241
:102AD0008A95E1F784E891E00E94160F0E9449135D
:102AE000BACF81E08E25BDCE1F93CF93DF93CDB7B4
:102AF000DEB72C970FB6F894DEBF0FBECDBF4F8365
:102B0000588769877A878B879C87CE0107960E94B2
:102B1000AD13882369F08A859B85892B39F04F8115
:102B20005885842F85238F3F09F071C016E05FC060
:102B300086E0FE013796DE01119601900D928A958E
:102B4000E1F78A859B85892B89F38F819885892375
:102B50008F3F61F32091530130E0C90101968770E6
:102B60009927409152014817190671F40E94D41216
:102B7000109253011092520186E0E4E8F1E0DF0187
:102B80001D928A95E9F7D2CF96E0929FD001939F4C
:102B9000B00D1124AC5ABE4FFE01319601900D923A
:102BA0009A95E1F7809353010E941A13BFCF819F3A
:102BB000C00111248C5A9E4F0E94AD138823E9F066
:102BC000E09152011E9FF0011124EC5AFE4F40810A
:102BD000518162817381848195810E940A13809161
:102BE000520190E00196877099278093520180915D
:102BF0005201909153018913DACF2C960FB6F894B5
:102C0000DEBF0FBECDBFDF91CF911F9108956985C3
:102C10007A858B859C850E940A1388CFEF92FF925C
:102C20000F931F93CF93DF938C01892B81F0F12CAD
:102C3000EE24E394E8012196F8018491843770F43E
:102C4000843008F05FC08130B1F08230A1F1DF91B3
:102C5000CF911F910F91FF90EF900895853709F460
:102C60004CC008F43DC09CE7980F903780F78F77F1
:102C70000E941E1049C00E5F1F4FFE01849190E21A
:102C8000980F983060F48770FE2D01C0FF0F8A9571
:102C9000EAF78F2F0E94A0180E94C91802C00E9454
:102CA0001B0F8F2D815030F2EFE9FFE03197F1F7E4
:102CB00000C00000F7CF0E5F1F4FFE01849190E22D
:102CC000980F983050F48770FE2D01C0FF0F8A9541
:102CD000EAF78F2F0E94A618DFCF0E941E10E1CFC7
:102CE0000E5F1F4FFE01C491C150D8F28FE99FE0E3
:102CF0000197F1F700C00000F7CF0E5F1F4FFE01F4
:102D0000F490CFCF0E941B0F8E01CBCF08950C946F
:102D100086160E9487166093B1017093B20180936A
:102D2000B3019093B4010C94C21208950C948916C7
:102D30000F931F930091B1011091B2012091B30143
:102D40003091B401602B712B822B932B1F910F912B
:102D50000C9489160F931F930091B1011091B20149
:102D60002091B3013091B401602371238223932316
:102D70001F910F910C9489160F931F930091B1012D
:102D80001091B2012091B3013091B40160277127F5
:102D9000822793271F910F910C9489160C94861605
:102DA0000C94CE160E94D0166093AD017093AE01C4
:102DB0008093AF019093B0010C94C21260E070E078
:102DC000CB010C94D2160F931F9341E050E060E0CA
:102DD00070E08A019B0104C0000F111F221F331FE6
:102DE0008A95D2F7C901B8011F910F910C94D216A0
:102DF0000F931F9341E050E060E070E004C0440F87
:102E0000551F661F771F8A95D2F78091AD0190916B
:102E1000AE01A091AF01B091B0018A019B01082BD6
:102E2000192B2A2B3B2BC901B8011F910F910C9430
:102E3000D2160F931F9341E050E060E070E004C0B1
:102E4000440F551F661F771F8A95D2F7CB01BA0131
:102E500060957095809590950091AD011091AE01AF
:102E60002091AF013091B00160237123822393231D
:102E70001F910F910C94D2160F931F9341E050E0D5
:102E800060E070E004C0440F551F661F771F8A95ED
:102E9000D2F78091AD019091AE01A091AF01B091B8
:102EA000B0018A019B01082719272A273B27C9015E
:102EB000B8011F910F910C94D2160F931F9300919C
:102EC000AD011091AE012091AF013091B001602BA6
:102ED000712B822B932B1F910F910C94D2160F9371
:102EE0001F930091AD011091AE012091AF0130917F
:102EF000B00160237123822393231F910F910C94BF
:102F0000D2160F931F930091AD011091AE01209145
:102F1000AF013091B00160277127822793271F915D
:102F20000F910C94D216089527E0929F800D1124E2
:102F3000982F977041E001C0440F9A95EAF7869563
:102F40008695869595E0899FF0011124E657FE4FFE
:102F500090E080E070E05191DF0111979B01082E15
:102F600002C0369527950A94E2F72170219525270E
:102F7000242325272C9301968530910561F7089528
:102F800027E0929F800D1124982F97708695869543
:102F9000869525E0829FF0011124E657FE4F50E010
:102FA00040E080E0219130E0092E02C0369527955F
:102FB0000A94E2F721703327042E01C0220F0A94ED
:102FC000EAF7822B4F5F5F4F4530510559F708955F
:102FD000BF92CF92DF92EF92FF920F931F93CF9306
:102FE000DF938C01C090AD01D090AE01E090AF01B5
:102FF000F090B0018091B1019091B201A091B30124
:10300000B091B401C82AD92AEA2AFB2ACFE1D0E03C
:10301000BC2ED701C6010C2E04C0B695A795979576
:1030200087950A94D2F780FD0EC0219788F7B12CBE
:103030008B2DDF91CF911F910F91FF90EF90DF903B
:10304000CF90BF900895B8018C2F0E9496070197EA
:1030500061F3EECFCF93DF93EC010E94E817BE013E
:10306000DF91CF910C9496071F93CF93DF93EB01E1
:1030700090915101992331F0CB01DF91CF911F91B4
:103080000C942A18882379F0CB010E94E817182F96
:10309000682FCE010E949417BE01812FDF91CF913E
:1030A0001F910C949607CB010E94C017182FF4CFE4
:1030B000682F8091090190910A010C94131A682FCE
:1030C0008091090190910A010C94151A80910901CF
:1030D00090910A010C94171A8091B50185958595F8
:1030E000859508958091B501877008959091B501F7
:1030F000977081E009F480E008958091C1010895FE
:103100009091C101892B8093C10108958095909180
:10311000C10198239093C10108951092C1010895AF
:103120009091C001892B8093C00108958095909162
:10313000C00198239093C00108951092C001089592
:103140009091BF01892B8093BF0108958095909144
:10315000BF0198239093BF0108951092BF01089575
:103160008091B601089508950C94B3189091B6011A
:10317000981721F08093B6010C94B41808958091AB
:10318000B601882329F01092B60180E00C94B4189F
:103190000895E0910901F0910A018091C1018083B5
:1031A000E0910901F0910A0180819091C001892B81
:1031B0008083E0910901F0910A0180819091BF0123
:1031C000892B80839091B601992381F0E0910901C8
:1031D000F0910A018081892B80838091090190916F
:1031E0000A010E94DA1981110E94BF188091090119
:1031F00090910A010C94F10D08950C94FC1898E03C
:10320000899F90011124622B6093B5010E94F816EA
:103210008091B5018595859585950C94FD18109242
:10322000B50180E00C94FD189091B501809589233B
:103230008093B501282F277071F4282F082E000CD9
:10324000330B9217130639F08595859585950E9465
:1032500019170C940F19089590E080E00E940B223A
:1032600021E08C3E9E4F09F020E0822F089582E0FD
:1032700090E00C94032283E090E00C940322CF931F
:1032800084E090E00E940322C82F81E290E00E9437
:103290000322982F8C2FCF910895CF93C92F682F99
:1032A00084E090E00E9411226C2F81E290E0CF91A7
:1032B0000C941122AB01BC018FE090E00C9423220E
:1032C000AB01BC0183E190E00C94232260E070E04C
:1032D000CB010C94601960E070E0CB010E945A1998
:1032E0000C9466196CEE7EEF90E080E00E942F2235
:1032F00060E082E090E00E94112260E083E090E0D4
:103300000E9411221092B1011092B2011092B301E9
:103310001092B40160E084E090E00E94112260E02D
:1033200081E290E00E94112260E085E090E00E943E
:10333000112260E086E090E00E9411226FEF87E0AA
:1033400090E00E94112240E050E0BA0188E090E055
:103350000E94232260E08DE090E00E94112240E074
:1033600050E0BA0188E190E00E94232260E087E10A
:1033700090E00E94112240E050E0BA018CE190E020
:103380000E94232260E080E290E00E9411220C94CF
:103390006B190C9472198EE090E00E94032291E068
:1033A000811101C090E0892F0895682F8EE090E090
:1033B0000C9411229C012E5F3F4FAC01485F5F4F80
:1033C00080E02417350709F40895F90191919F01D0
:1033D0009923B9F38F5FF5CF9C01FC0132969FEFE3
:1033E00080E04191461751F09F3F19F4411101C00F
:1033F000982F8F5F8630A9F79F3F09F40895290F12
:10340000311D97FD3A95F90162830895FC013296CA
:1034100008962191261303C0DF0111971C92E8172B
:10342000F907B9F708950C94EC190C94061A029652
:1034300026E0FC0111922A95E9F708950895089570
:103440000C941F1A0E94201A8091DB01843049F1EC
:103450001092C30188E190E020E40FB6F894A8959B
:10346000809360000FBE2093600080E00E94B90549
:103470000E94201A83B7817F846083BF83B78160F5
:1034800083BF7894889583B78E7F83BF0FB6F894F7
:10349000A895809160008861809360001092600020
:1034A0000FBE08950895CF930E941E1A0E941E0B0E
:1034B0000E94521AC0E08C2F0E942E0A811105C072
:1034C000CF5FC830C1F7CF91089581E0FCCF089558
:1034D0000C94671A0E94D4120E94E50D0E94B9054F
:1034E0000C94681A1F921FB61F9211248F939F93FA
:1034F000AF93BF938091C301811113C08091D1011B
:103500009091D201A091D301B091D4014196A11D17
:10351000B11D8093D1019093D201A093D301B093B8
:10352000D401BF91AF919F918F911F901FBE1F90AB
:10353000189582E084BD93E095BD9AEF97BD809386
:103540006E0008952FB7F8948091D1019091D20127
:10355000A091D301B091D4012FBF0895CF92DF92F3
:10356000EF92FF920F931F932FB7F8944091D101E0
:103570005091D2016091D3017091D4012FBF6A01A3
:103580007B01EE24FF248C0130E020E0C016D10640
:10359000E206F30650F0481B590BCA011F910F9128
:1035A000FF90EF90DF90CF90089541505109F3CFF5
:1035B00078941F921FB61F9211248F939F93AF93FD
:1035C000BF938091D1019091D201A091D301B0918C
:1035D000D4010196A11DB11D8093D1019093D20118
:1035E000A093D301B093D401BF91AF919F918F91DC
:1035F0001F901FBE1F90189587E797E790930108CB
:103600008093000888E19AE00FB6F894A89580931B
:1036100060000FBE90936000FFCF0E942C198111B3
:1036200002C00E94C9190E9437198093C2010E94EA
:103630003F199093D6018093D5010E943B19682FC2
:1036400070E090E080E00C9496168091CC01089593
:1036500008950F931F93CF93DF9300D00F92CDB7B0
:10366000DEB78C010E944F1D823011F0843021F5AD
:1036700084E089831B830A8382E08093E9008FEFD3
:103680009091E800815095FD06C095ED9A95F1F76F
:1036900000008111F5CF8091E80085FF0DC050E05A
:1036A00040E063E070E0CE0101960E946C1D8091C5
:1036B000E8008E778093E8000F900F900F90DF91D5
:1036C000CF911F910F910895CF93DF9300D00F9268
:1036D000CDB7DEB72091DB01243031F523E029831B
:1036E000805891099B838A8382E08093E9008FEF61
:1036F0009091E800815095FD06C095ED9A95F1F7FF
:1037000000008111F5CF8091E80085FF0DC050E0E9
:1037100040E063E070E0CE0101960E946C1D809154
:10372000E8008E778093E8000F900F900F90DF9164
:10373000CF910895CF93DF93EC010E944F1D82300B
:1037400011F0843039F581E08093E9008FEF90919A
:10375000E800815095FD06C095ED9A95F1F70000BF
:103760008111F5CF8091E80085FF14C050E040E062
:1037700068E070E0CE010E946C1D8091E8008E77B9
:103780008093E80088E0FE01A4ECB1E001900D9286
:103790008A95E1F7DF91CF9108958091DA01811147
:1037A00009C00E94FC1E0E94591F8091E2008460A3
:1037B0008093E20008951092DA0108950895089523
:1037C0000C946A1A42E061EC81E00E94781E42E2A9
:1037D00061EC82E00C94781E8091DD01833009F465
:1037E0005FC030F48130C1F1823009F49BC008958C
:1037F0008A3009F487C08B3009F46DC0893009F034
:103800004EC08091DC01813209F049C08091E00115
:103810009091E101029708F042C08091E800877F13
:103820008093E8008091E80082FF35C09091F3001A
:103830008091F200029729F48091F1008B7F813012
:1038400021F48091F1008093CC018091E8008B7786
:103850008093E8000C94AC1E8091DC01813AF9F46D
:103860008091E800877F8093E8008091E00190914B
:10387000E101892B61F468E084EC91E070E00E9442
:10388000BB1D8091E8008B778093E800089560E08D
:1038900090E080E0F3CF8091DB018111C3CF0895E8
:1038A0008091DC01813AD9F78091E0019091E101AA
:1038B000892BA9F78091E800877F8093E8008091A9
:1038C000E80080FFFCCF809115018093F10080918A
:1038D000E8008E77BDCF8091DC01813201F78091C5
:1038E000E0019091E101892BD1F68091E800877F7A
:1038F0008093E8000E94AC1E8091DE018093150148
:103900000C94D4128091DC01813249F68091E80058
:10391000877F8093E8000E94AC1E8091DF01809336
:10392000CD0108958091DC01813A09F0B8CF8091F2
:10393000E800877F8093E8008091E80080FFFCCF5B
:103940008091CD01C2CF84B7877F84BF0FB6F89432
:10395000A89580916000886180936000109260005B
:103960000FBE80E880936100109261000E94360EC5
:103970000E94FC1E0E94591F8091E2008460809387
:10398000E20078940E94E2210E943C0E8BE091E0DC
:103990000E94E00D8091DB01853019F00E94440EF9
:1039A000F9CF0E94221A8091D901882399F30E94AD
:1039B000531A882379F30E94561DECCF0C94E01C17
:1039C000292F33272330310519F168F421303105CF
:1039D00009F44AC02230310509F44BC090E080E080
:1039E00030E020E028C02132310579F12232310562
:1039F000A9F780E490E023ED38E061157105D9F076
:103A000086E390E02DE938E061307105A1F0E6CF62
:103A100099278130910599F0009741F08230910506
:103A200089F00397D9F6ECE1F8E002C0ECE4F8E0A5
:103A3000849190E09F01FA01318320830895EEE3A1
:103A4000F8E0F6CFE2E2F8E0F3CF89E090E022E69A
:103A500038E06115710579F389E090E02BE738E0F3
:103A60006130710541F3BACF82E190E02BE838E094
:103A7000E2CF8BE390E020E538E0DDCF0895CF93EF
:103A8000C82F0E943E1DC093CE01CF910895809112
:103A9000DB01843011F482E0089581E00895809183
:103AA000CE01811102C00C94471D089580E189BDAB
:103AB00082E189BD09B400FEFDCF8091D8008F7DE1
:103AC0008093D8008091E00082608093E000809134
:103AD000E00081FDFCCF0895AF92BF92CF92DF92BC
:103AE000FF920F931F93CF93DF936C01EB018A0139
:103AF0000E94CB1EF82E811123C00115110539F04B
:103B0000F80180819181C81BD90BC80ED91EB12C38
:103B1000A12C2097A9F08091E80085FD22C080911A
:103B2000E8008E778093E80001151105A1F0F801F7
:103B300080819181A80EB91EB182A08285E0F82E05
:103B40008F2DDF91CF911F910F91FF90DF90CF903C
:103B5000BF90AF9008950E94CB1E8823D1F2F82E1B
:103B6000EFCFF60181916F018093F1002197FFEF74
:103B7000AF1ABF0ACECFFC018091E2019091E30120
:103B800086179707A0F06115710529F49091E80058
:103B90009E779093E80090E06115710551F49111C2
:103BA00008C08091E80082FF34C080E00895BC0125
:103BB000F2CF8091DB018823C1F18530C1F1809182
:103BC000E80083FD30C08091E80082FDEACF80915B
:103BD000E80080FFE1CF8091F3002091F200382FC0
:103BE0006115710519F02830310558F091E0283041
:103BF000310509F090E02091E8002E772093E8004D
:103C0000CBCF81918093F100615071092F5F3F4FBD
:103C1000E7CF8091DB01882341F0853041F080912E
:103C2000E80083FFBECF81E0089582E0089583E03D
:103C30000895FC018091E2019091E30186179707B6
:103C4000A0F06115710529F48091E8008E778093CA
:103C5000E80090E06115710551F4911108C0809160
:103C6000E80082FF35C080E00895BC01F2CF80916A
:103C7000DB018823C9F18530C9F18091E80083FD1B
:103C800031C08091E80082FDEACF8091E80080FF9A
:103C9000E1CF8091F3002091F200382F611571057A
:103CA00019F02830310558F091E02830310509F03D
:103CB00090E08091E8008E778093E800CBCF8491EC
:103CC0008093F1003196615071092F5F3F4FE6CF2D
:103CD0008091DB01882341F0853041F08091E8003C
:103CE00083FFBDCF81E0089582E0089583E00895C9
:103CF000982F973028F08F708093E90081E0089525
:103D00009093E900242F762F50E0981731F07091AE
:103D1000EC002091ED005091F00021FD02C09F5F6A
:103D2000E8CF3091EB003E7F3093EB003091ED0017
:103D30003D7F3093ED003091EB0031603093EB002C
:103D40007093EC002093ED005093F0002091EE0072
:103D500027FDE5CF80E008958091DC0187FF13C047
:103D60008091E80082FF06C08091E8008B77809305
:103D7000E80004C08091DB018111F2CF08958091A9
:103D8000DB018823D9F38091E80080FFF8CF809190
:103D9000E8008E77ECCF2091E4003091E50095E6C5
:103DA000A9012091EC00822F817020FF06C0809134
:103DB000E80080FF06C080E008952091E80022FD21
:103DC0001AC08091DB01882389F0853089F08091C9
:103DD000EB0085FD0FC02091E4003091E500421713
:103DE0005307F9F29150E1F684E0089582E00895D6
:103DF00083E0089581E008950E946A1F0E94721F67
:103E0000E0EEF0E0808181608083E8EDF0E0808189
:103E10008F77808319BCA7EDB0E08C918E7F8C9357
:103E200080818F7E80831092DA0108950F931F9313
:103E3000CF93DF930E946A1F0E94721FC8EDD0E0EB
:103E400088818F77888388818068888388818F7D47
:103E5000888319BC1092DB011092D7011092D9010E
:103E60001092D80100EE10E0F80180818B7F8083F2
:103E700088818160888342E060E080E00E94781E53
:103E8000E1EEF0E080818E7F8083E2EEF0E08081E1
:103E900081608083808188608083F80180818E7F4B
:103EA0008083888180618883DF91CF911F910F91FA
:103EB0000895E8EDF0E080818F7E8083E7EDF0E00B
:103EC00080818160808384E082BF81E08093DA0119
:103ED0000C94161FE8EDF0E080818E7F80831092B5
:103EE000E20008951092DA001092E10008951F9206
:103EF0000F920FB60F9211242F933F934F935F931E
:103F00006F937F938F939F93AF93BF93EF93FF93A1
:103F10008091E10082FF0BC08091E20082FF07C028
:103F20008091E1008B7F8093E1000E94E1218091EC
:103F3000DA0080FF19C08091D80080FF15C0809101
:103F4000DA008E7F8093DA008091D90080FF96C0DE
:103F500080E189BD82E189BD09B400FEFDCF81E029
:103F60008093DB010E94CD1B8091E10080FF19C08E
:103F70008091E20080FF15C08091E2008E7F8093E7
:103F8000E2008091E20080618093E2008091D8009D
:103F900080628093D80019BC85E08093DB010E9489
:103FA000DF1B8091E10084FF2BC08091E20084FF41
:103FB00027C080E189BD82E189BD89B5982F9170C4
:103FC00080FFFBCF8091D8008F7D8093D8008091B7
:103FD000E1008F7E8093E1008091E2008F7E8093EC
:103FE000E2008091E20081608093E2008091D7013D
:103FF000882309F449C084E08093DB010E94E01B20
:104000008091E10083FF29C08091E20083FF25C0F9
:104010008091E100877F8093E10082E08093DB0163
:104020001092D7018091E1008E7F8093E100809112
:10403000E2008E7F8093E2008091E20080618093B5
:10404000E20042E060E080E00E94781E8091F00093
:1040500088608093F0000E94DE1BFF91EF91BF917A
:10406000AF919F918F917F916F915F914F913F9110
:104070002F910F900FBE0F901F90189519BC1092A2
:10408000DB010E94DB1B70CF8091E30087FD93E092
:104090009093DB01B3CF1F920F920FB60F921124B2
:1040A0002F933F934F935F936F937F938F939F9340
:1040B000AF93BF93CF93DF93EF93FF93D091E9003A
:1040C000DF708091EC00C82FC17080FDC0E81092B5
:1040D000E9008091F000877F8093F00078940E943F
:1040E0008F201092E9008091F00088608093F000AA
:1040F000CD2BCF70C093E900FF91EF91DF91CF916D
:10410000BF91AF919F918F917F916F915F914F91EF
:104110003F912F910F900FBE0F901F9018951F93F6
:10412000CF93DF93CDB7DEB7AA970FB6F894DEBF73
:104130000FBECDBF8CED91E02091F100FC012193E9
:10414000CF01F1E0843E9F07B9F70E94EC1B8091FC
:10415000E80083FF1EC18091DC019091DD019A305F
:1041600008F017C1E92FF0E0EB59FD4D0C94FD214B
:10417000803899F0823809F00CC18091E0018F708D
:10418000873008F006C18093E9008091EB0085FB41
:10419000882780F91092E90006C08091D80190919B
:1041A000D901911182609091E800977F9093E80087
:1041B0008093F1001092F1008091E8008E77E5C0C5
:1041C000882309F4D3C0823009F0E3C08091DE0176
:1041D0008111D6C08091E0018F702FEF280F26301B
:1041E00008F0D7C08093E9002091EB0020FFC8C001
:1041F000933031F48091EB0080628093EB00C0C07B
:104200009091EB0090619093EB0021E030E001C0D1
:10421000220F8A95EAF72093EA001092EA00809133
:10422000EB008860EACF8111B4C01091DE011F77E6
:104230008091E3008078812B8093E3008091E800F7
:10424000877F8093E8000E94AC1E8091E80080FF89
:10425000FCCF8091E30080688093E30082E011113D
:1042600083E08093DB0195C08058823008F091C0D4
:104270008091DE019091DF018C3D23E09207A1F552
:1042800083E08A838AE289834FB7F894DE0113962C
:1042900020E03EE051E2E32FF0E050935700E4913C
:1042A00020FF03C0E295EF703F5FEF708E2F90E02C
:1042B000EA30C0F0C7968D939D932F5F243159F754
:1042C0004FBF8091E800877F8093E8006AE270E04A
:1042D000CE0101960E94BB1D8091E8008B778093F0
:1042E000E80057C0C096E7CF6091E0017091E1010E
:1042F000AE014F5F5F4F0E94DE1CBC01892B09F4A9
:1043000048C09091E800977F9093E80089819A8156
:104310000E94191EE1CF8038E1F58091E800877F87
:104320008093E8008091D7018093F10045CF8111FF
:1043300030C09091DE01923060F58091E800877F77
:104340008093E8009093D7010E94AC1E8091D70122
:10435000882311F084E005C08091E30087FDFACF47
:1043600081E08093DB010E94E21B13C08091DE019B
:10437000813079F481E0933009F080E08093D901B5
:104380001092E9008091E800877F8093E8000E9406
:10439000AC1E8091E80083FF0AC08091E800877F0F
:1043A0008093E8008091EB0080628093EB00AA96F6
:1043B0000FB6F894DEBF0FBECDBFDF91CF911F9136
:1043C00008950895CF938091DB018823A1F0C091D7
:1043D000E900CF709091EC00892F817090FD80E80A
:1043E000C82B1092E9008091E80083FD0E948F2085
:1043F000CF70C093E900CF910895EE0FFF1F059095
:10440000F491E02D0994F999FECF92BD81BDF89AFF
:10441000992780B50895A8E1B0E042E050E00C94FF
:104420003722262FF999FECF92BD81BDF89A0197C8
:1044300000B4021639F01FBA20BD0FB6F894FA9AEC
:10444000F99A0FBE08950396272F0E9412220E9408
:104450001122252F0E941222242F0C941222019641
:10446000272F0E9412220C941122DC01CB01FC01A7
:10447000F999FECF06C0F2BDE1BDF89A319600B4BD
:104480000D9241505040B8F70895F894FFCFC110F5
:10449000C110191119116B11EE10EE10EE108711E9
:1044A0001312221222127E12EE10EE108712E31265
:1044B000E312EC12EC12EE12EC12EC12EC12E3121C
:1044C000E312F312EC12EC12F312B820E020C9212F
:0E44D000E020C92113213421C9218B2197211D
:1044DE00013801003901043901B701251B9A1B2847
:1044EE001B641B291B0136323331F7F6F597C634A0
:0644FE0035000000000083
:00000001FF
