:100000000C948A040C94AB0C0C94D1040C94D10481
:100010000C94D1040C94D1040C94D1040C94D1040C
:100020000C94D1040C94D1040C94E11E0C94B51FD3
:100030000C94DC190C94D1040C94D1040C94D104CC
:100040000C94D1040C94D1040C94D1040C94D104DC
:100050000C94D1040C94421A0C94D1040C94D10445
:100060000C94D1040C94D1040C94D1040C94D104BC
:100070000C94D1040C94D1040C94D1040C94D104AC
:100080000C94D1040C94D1040C94D1040C94D1049C
:100090000C94D1040C94D1040C94D1040C94D1048C
:1000A0000C94D1040C94D1040C94D10429001400B4
:1000B0001A0008001500170030002B00040016007D
:1000C000070009000A006414E1001D001B0006007F
:1000D000190005000000E000E000E300E2002C0051
:1000E000015100002A00130012000C0018001C002F
:1000F0002E00280033000F000E000D000B00310011
:10010000E500380037003600100011000000E40060
:10011000E4000000E6002C000251000000001E1266
:100120001F12201221122212000003511E001F0074
:100130002000210022002F000000230024002500C1
:100140002600270000000000000000000000000062
:10015000000000004C002712261225122412231240
:100160002D1200000000271426122512241434003A
:100170000000000064022614251464000000000042
:1001800000000000000000000000000000001E143D
:100190001F14201421142214000000003A003B0018
:1001A0003C003D003E00000000003F0040004100D8
:1001B0004200430000000000440045000000000031
:1001C0000000000000002714261425142414231412
:1001D0000000000000004F005200510050000000DD
:1001E000000000004D004B004E004A000000005C83
:1001F00000000000000000000000000000001E14CD
:100200001F14201421142214310000003A003B0076
:100210003C003D003E00000000003F004000410067
:1002200042004300000000004400450000000000C0
:1002300000000000000027142614520000002314C0
:10024000000000004F004F0051005000000000006F
:10025000000000004D004B004E004A000000005C12
:10026000000000000000000000000000000000008E
:10027000000000000000000000000000000000007E
:10028000000000000000000000000000000000006E
:10029000000000000000000000000000000000005E
:1007A0000000000000000000000000000100005CEC
:1007B000C25CC35CC65CC55C010001000100BF5C9B
:1007C000C15CBE5CBD5C01000100010001000100D4
:1007D0000100010001000100010001000100010011
:1007E0000100010001000100C95CCA5CC75CC85C73
:1007F00001000100010001000100010001000100F1
:1008000001000100010001000100010001000100E0
:10081000010001000100010001000100040330009B
:1008200000001A034500720067006F004400610079
:10083000730068006D0069006E00690000000C0321
:100840004F006D006B0062006400000004030904A7
:1008500009023B00020100A0FA09040000010301A3
:100860000100092111010001224000070581030850
:10087000000A090401000103000000092111010020
:10088000012236000705820320000A120110010030
:10089000000008EDFE60600001010203010501098E
:1008A00080A10185031A81002A8300160100260316
:1008B00000950175108100C0050C0901A101850496
:1008C0001A01002A9C02160100269C02950175104F
:1008D0008100C005010906A101050719E029E715F6
:1008E00000250195087501810295017508810105B2
:1008F00007190029FF150026FF00950675088100DD
:1009000005081901290595057501910295017503E1
:100910009101C00011241FBECFEFDAE0DEBFCDBFD2
:1009200004B603FE27C08091E4019091E501A091F7
:10093000E601B091E7018730904BA740B04BD1F46E
:100940001092E4011092E5011092E6011092E70185
:1009500014BE84B7877F84BF0FB6F894A8958091A2
:100960006000886180936000109260000FBEE0E03C
:10097000F8E3099511E0A0E0B1E0E2EBF3E402C096
:1009800005900D92A632B107D9F721E0A6E2B1E0B9
:1009900001C01D92A43EB207E1F70E940D1C0C9409
:1009A000AF210C94000081E0089581E008950C943B
:1009B000D5041F93CF93DF9300D000D00F92CDB713
:1009C000DEB749835A836B832091510189819A81D3
:1009D00021111BC06623A9F00E945217182F682FFF
:1009E00089819A810E94FE1669817A81812F0F90F8
:1009F0000F900F900F900F90DF91CF911F910C945B
:100A0000E4060E942A17182FEFCF0E94521769811F
:100A10007A81EDCFFC0140815181628173818481B3
:100A20000C94D9040E949618811102C00E943319B7
:100A30000C9492090C94950908950C941C0581E07E
:100A400008950C941F05CF93C82F0E941D058C2F6D
:100A5000CF910C94210508950E943E120E942B050F
:100A60002FEF84E39CE0215080409040E1F700C0EC
:100A7000000087E797E790930108809300080C94A3
:100A8000661A0F931F93CF93DF938C010E940A0580
:100A9000EC01B8010E94D704882309F473C0B8019F
:100AA000CE010E94BC0B882309F46CC0C6318CE5D2
:100AB000D80709F465C188F4C130FCE5DF0709F403
:100AC00067C028F5C115DC4509F457C0C801DF919E
:100AD000CF911F910F910C94D304CE3DFCE5DF071D
:100AE00009F463C078F4CC3DECE5DE0709F464C09A
:100AF000CD3DDC4559F7F8018281882309F442C0D5
:100B000082E05FC0CE018A5F9C450997F8F6F80144
:100B100082818823D9F20E949618811102C00E9416
:100B200033190E94A9189093D6018093D501C03142
:100B3000FCE5DF0709F4F1C008F080C0C830ECE53F
:100B4000DE0709F4D8C008F052C0C4308CE5D807DD
:100B500009F4C9C0C8F5C230FCE5DF0709F4B9C023
:100B6000C330DC4509F4BBC08091D5019091D6011A
:100B70000E94B7180E943E1205C0F80182818111BF
:100B80000E942C0580E0DF91CF911F910F91089575
:100B9000F80182818823B1F39091C201892F8E7F61
:100BA00090FF81608093C201EDCFF801828188239C
:100BB00049F30E943319E6CFF8018281882311F3AB
:100BC00080E00E94A91CDECF8091D5018061C630F3
:100BD000ECE5DE0709F480C08091D5018860C7305C
:100BE000DC4508F479C08091D501806275C0CC30B5
:100BF0008CE5D80709F489C070F48091D5018C6028
:100C0000CA30FCE5DF0709F467C008F478C08091BA
:100C1000D5018E7F61C08091D501877FCE30ECE514
:100C2000DE0709F459C08091D5018B7FCF30DC45B8
:100C300008F452C08091D5018F7E4EC0CB3F8CE529
:100C4000D80709F454C030F5C331FCE5DF0709F4D7
:100C50006CC078F4C131ECE5DE0709F462C0C23142
:100C6000DC4509F081CF0E943E128091D5018F773B
:100C700033C0C5318CE5D80709F45FC008F473C0F0
:100C80008091D6018160CA3FDC4509F06DCF809329
:100C9000D6016ACFCF3F8CE5D80709F44AC060F48B
:100CA0008091D6018D7FCD3FFCE5DF0781F388F190
:100CB0008091D6018360EBCFC130EDE5DE0709F40A
:100CC0005BC008F446C0C230DD4509F04DCF80E07E
:100CD00054C08091D50181608093D50145CF80912A
:100CE000D5018260F9CF8091D5018460F5CF8091E4
:100CF000D6018260CCCF8091D5018064EDCF0E9477
:100D00003E128091D5018068E7CF8091D5018D7F1B
:100D1000E3CF8091D6018E7FBACF8091D5018F7DB0
:100D2000DBCF8091D5018F7BD7CF8091D501837F99
:100D3000D3CF8091D6018C7FAACF8091D50182FB41
:100D4000992790F921E0922790FB82F990FB83F993
:100D5000C3CF8091D601982F909591708E7F892B6B
:100D600090FB81F994CF0E943E129091D501892F7A
:100D700097FB87F98058B0CF81E00E943F19F4CEED
:100D80000E94E717F8019281992381F08A7A91E015
:100D900009F490E090932601811106C089E20E9437
:100DA000C2170E943318EECE85E3F9CF8091260159
:100DB000811104C089E20E94C917F3CF85E3FBCFFC
:100DC00090E080E008950895972F70E027E0929FCB
:100DD000600D711D1124FB0198E3899FE00DF11D49
:100DE0001124EE0FFF1FE455FF4F85919491089554
:100DF000FC01EE0FFF1FE45EF74F8591949108957B
:100E0000CF93DF930E94E4060E94B708EC0181159E
:100E100020E5920708F042C0811530E4930708F0FE
:100E200014C1883E910528F5803E910508F0A0C0C8
:100E3000883A910588F4853A910508F08FC0813091
:100E4000910509F495C0009709F492C0049708F041
:100E50008FC0D0E0C0E08CC08F3B910508F48CC0FF
:100E6000805C9109C03CD105A0F30E94F806EC011A
:100E70007FC08115904250F4C11581E0D80708F079
:100E800077C0C03FD10528F3D06572C0C11590E38B
:100E9000D90708F0D0C0CE019F70E7CF811525E5B6
:100EA000920758F5811534E5930708F0FDC08115C8
:100EB00042E5940750F4C11581E5D80708F4C8C08D
:100EC000DC2FCC27C16FD06A53C0982F969596958A
:100ED0009E0123703327C115D34508F0D6C0C1E069
:100EE000D0E002C0CC0FDD1F2A95E2F720E2929FEE
:100EF000C0011124C82BD92BC6C0C11589E5D8075C
:100F0000A8F4C11598E5D90708F0D3C0C11526E5A6
:100F1000D20708F09ECF8C2F0E944E09C82FD0E038
:100F2000DC2FCC27CC27DF71D06222C0C1153AE577
:100F3000D30708F4C3C0CE0190568115904208F043
:100F400088CF8D2F8F710E944E0990E0982F8827AF
:100F500088279F719C012C2BE901E6CF853A9105EA
:100F600009F4BAC0863A910509F0B9C0C2E8D0E4E4
:100F7000CE01DF91CF910895883A910509F4B2C06E
:100F8000893A910509F4B1C08A3A910509F4B0C0D3
:100F90008B3A910509F4AFC08C3A910509F4AEC0C3
:100FA0008B3B910509F4ADC08C3B910509F4ACC0B5
:100FB0008D3A910509F4ABC0803B910509F4AAC0B4
:100FC0008E3A910509F4A9C08F3A910509F4A8C099
:100FD000813B910509F4A7C0823B910509F4A6C0A5
:100FE000833B910509F4A5C0843B910509F4A4C095
:100FF000853B910509F4A3C0863B910509F4A2C085
:10100000873B910509F4A1C0883B910509F4A0C074
:10101000893B910509F49FC08D3B910509F49EC061
:101020008E3B910509F49DC08A3B910509F49CC053
:10103000C0E0D4E49DCFCE019927D3FF03C0EC01DB
:10104000D86C96CFEC01D06C93CFDF70D06A90CF84
:10105000CE01E4E096958795EA95E1F783702C2F11
:1010600026952695237090E2299F90011124382B14
:101070008C2F8370C1E0D0E002C0CC0FDD1F8A95B9
:10108000E2F7C22BD32BDC6873CFC1E0D0E002C003
:10109000CC0FDD1F2A95E2F730E2939FC0011124A7
:1010A000C82BD92BDA6864CFD82FCC27C46FD06A6D
:1010B0005FCFDC2FCC27C06FD06A5ACF8C2F8F70B8
:1010C0000E944E0934E0D695C7953A95E1F7CF7066
:1010D0009C2FEC01D0694CCFC1E8D0E449CFC3E8E4
:1010E000D0E446CFC2EED4E443CFC9EED4E440CF3F
:1010F000CAEED4E43DCFC5EBD4E43ACFC6EBD4E49A
:1011000037CFC3EBD4E434CFC4EBD4E431CFC7EB57
:10111000D4E42ECFCCECD4E42BCFCDECD4E428CF48
:10112000C3E8D5E425CFCAE8D5E422CFC2E9D5E4A7
:101130001FCFC4E9D5E41CCFC1E2D6E419CFC3E286
:10114000D6E416CFC4E2D6E413CFC5E2D6E410CF7E
:10115000C6E2D6E40DCFC7E2D6E40ACFCFE6D4E4A8
:1011600007CFC0E7D4E404CFCAE2D6E401CF823887
:101170009105B1F1B0F48133910509F475C048F4DB
:101180008932910509F469C08A32910509F473C066
:1011900008958533910509F459C08933910501F10A
:1011A0000895833E9105A9F138F4803E9105F9F048
:1011B000823E910549F10895863E9105A9F1873E49
:1011C0009105C9F1843E910519F52091D60121FFC1
:1011D0001FC08091D50184FD14C087EE90E0089572
:1011E0002091D5012370A1F080EE90E00895209128
:1011F000D50120FD47C03091D60130FF09C024FF42
:1012000044C090E080E004C02091D50122FDF7CFDA
:1012100008952091D50122FD3BC03091D60130FDCB
:10122000E3CF24FFF5CFEDCF2091D50123FFF0CF01
:1012300024FDE7CFD2CF2091D50123FD2CC03091E2
:10124000D60131FFEECF84EE90E008952091D501D4
:1012500025FFDECF89E290E008952091D50125FF9A
:10126000D7CF85E390E008952091D50126FFD0CF18
:101270008AE290E008952091D50126FFC9CF81E34D
:1012800090E0089589E390E0089583EE90E008955A
:1012900082EE90E0089586EE90E008959091D50159
:1012A00092FF06C0282F28712830F9F4877F8460C8
:1012B00093FF06C0282F28712831F1F4877E8461BE
:1012C0002091D60120FF06C0382F38713830D9F46C
:1012D000877F816021FF06C0282F28712831D1F433
:1012E000877E816194FD877E0895282F24712430A4
:1012F000F9F68B7F8860DCCF282F2471243101F729
:101300008B7E8861DDCF382F3171313019F78E7FB8
:101310008860E0CF282F2171213121F78E7E8861EE
:10132000E1CF08950C94910908950C9494090895BF
:10133000E82FF0E0E45DFE4F808108950895CF939B
:10134000DF930E94100B809100018091000194E0D6
:10135000811190E09093D00184E0891B8093CF01AC
:10136000ADE1B1E041E251E0C1E0D0E08D91E82F84
:10137000E295EF70F0E061A18F709E0101C0220F35
:101380008A95EAF7922F9095962391A382A1822BBA
:1013900082A34A175B0751F7A6E1B1E061E070E074
:1013A0008D91E82FE295EF70F0E041A18F709B01E5
:1013B00001C0220F8A95EAF7922F9095942391A36A
:1013C00082A1822B82A381E0AD31B80749F7109248
:1013D0002C0110922D0110922E0110922F011092CB
:1013E000300110923101109232011092330184E0E9
:1013F0000E94BB0ADF91CF910C9412056F927F92ED
:101400008F929F92AF92BF92CF92DF92EF92FF9214
:101410000F931F93CF93DF9328E231E04DE1E42E49
:1014200041E0F42E712CCC24C394D12CE9017991A4
:101430009E01DE011E92F70181917F01E82FE29566
:10144000EF70F0E091A18F70860101C0000F8A95C6
:10145000EAF7892F802B81A382A1602E60948621D8
:1014600082A380EA8A95F1F796E1A92E91E0B92E40
:1014700050E040E0E50169915E01862E82948FE0A4
:101480008822912CE40188A190E06F7002C09595AC
:1014900087956A95E2F7812C80FD06C04601042EEF
:1014A00001C0880C0A94EAF78C91882A8C924F5FCD
:1014B0005F4F47305105F1F681A1862181A382A1BA
:1014C000082B02A381E09C91971301C080E0782A49
:1014D000D1E02C323D0709F0A9CF6091D00170E036
:1014E000645D7E4F272D44E088E291E00E94BC0AB3
:1014F000872DDF91CF911F910F91FF90EF90DF909B
:10150000CF90BF90AF909F908F907F906F900895F5
:10151000CF930E94FE09C82F0E94F40A882309F184
:101520008091CF0190E0845D9E4F0E94270B811136
:1015300015C0809127018F5F80932701863048F086
:10154000E091CF01F0E0E45DFE4F10821182128243
:1015500013820E941A058C2FCF91089510922701B3
:10156000F8CF8091D00190E0845D9E4F0E94400BA7
:101570000E949709F0CF0895FF920F931F93CF9386
:10158000DF93F82E092F162FD72FC42F222349F0CF
:1015900081E0809336010E940C1A9093350180936C
:1015A0003401809136018823A1F08091340190911B
:1015B00035010E94181A069760F0EF2DF02FA12F29
:1015C000BD2FCE0FDF2FD11DEC17FD0741F4109278
:1015D0003601DF91CF911F910F91FF900895819176
:1015E0008D93F2CF0C94351980913701811111C080
:1015F0008091D80080618093D8008AE18A95F1F7C4
:1016000000C09091D900892F817090FF82E0809373
:10161000370181E090913701913009F080E0089521
:101620000E94F20A809300010E94F40A81110C9436
:101630001B0B0C94210B61E070E081E091E00C94B5
:101640005C0C61E070E081E091E00C94630CCF935E
:10165000DF93D82FC92F0E94FD0C009779F4ED2F4E
:10166000FC2FDC01A75CBE4F2C91219301968430A6
:101670009105B9F781E0DF91CF91089580E0FBCF2C
:1016800030E020E0FC014191CF01F901E75CFE4F21
:1016900040832F5F3F4F24303105A1F708950F930A
:1016A0001F93CF93DF93C62FD42F022FFC0182818B
:1016B0008823C9F060933F010E940C1A90933E0169
:1016C00080933D0180E28C0F883008F050C0C770D5
:1016D00081E001C0880FCA95EAF7DF91CF911F9191
:1016E0000F910C94EA0F10913F01161335C08091B1
:1016F0003D0190913E010E94181A8837910560F5CE
:10170000C0E2CD0F1D17B9F080E2810F883040F4A0
:10171000177081E001C0880F1A95EAF70E94F10F57
:10172000C83048F481E09D2F977001C0880F9A95CA
:10173000EAF70E94EA0F802F0E94D70FC830B8F452
:10174000D77081E001C0880FDA95EAF7DF91CF9179
:101750001F910F910C94F10F80E28C0F883038F4B8
:10176000C77081E001C0880FCA95EAF7EFCFDF911B
:10177000CF911F910F9108959C01CB01233F4CE520
:10178000340731F190F4283DFCE53F07E9F0293DAD
:101790004CE5340769F1273D3C4579F426E241EEFA
:1017A00061EE0E944F0B80E00895253FFCE53F0766
:1017B000B9F090F0263F3C45B9F0FC0182818823C6
:1017C000D1F010923F01089527E245EE65EEE9CF92
:1017D00026E241EE60EEE5CF27E245EE64EEE1CF92
:1017E00026E241EE62EEDDCF27E245EE66EED9CF8E
:1017F00028E241E0EBCF81E008958EE1489B02C0F2
:101800008150E1F7489BFECF0895589880E28A9571
:10181000F1F7589A0895FC013BE03A95F1F798E00A
:1018200020E080E031E040E14A95F1F7880F489BE5
:1018300002C08160232742E04A95F1F7000040E1B1
:101840004A95F1F7915079F790E19A95F1F799B1AE
:1018500032E03A95F1F7000040E14A95F1F79170D6
:1018600092272081920F90830895EF92FF920F9319
:101870001F93CF93DF930F92CDB7DEB719828C0100
:101880007C01E60EF11C0E151F0561F481E09981C3
:10189000911180E00F90DF91CF911F910F91FF90F8
:1018A000EF9008950E94FD0BCE0101960E940B0C53
:1018B000F80181938F01E7CF90934101809340011C
:1018C000509A589A089590934101809340015098FE
:1018D000589AE89AE9E6F0E080818C7F8083089549
:1018E0006150770B91E001C0990F6A95EAF720E00B
:1018F00031E0911108C0222391F0589A80E28A9534
:10190000F1F758980895492F482339F0589A23271A
:1019100040E24A95F1F79695ECCF5898F9CF589850
:10192000EDCFFF920F931F93CF93DF93EC018C01C8
:10193000060F111DC017D10731F4DF91CF911F9110
:101940000F91FF900895F9900E94050C68E08F2D8B
:101950000E94700CEFCF1F920F920FB60F921124BE
:101960002F933F934F935F936F937F938F939F93A7
:10197000AF93BF93CF93DF93EF93FF935898509A11
:10198000C0914001D09141016D81662321F08E818B
:101990009F810E94910C0E94050C80E18A95F1F7CD
:1019A00058985098589A80E18A95F1F76A81662391
:1019B00009F18B819C810E94350CE881F981882393
:1019C00011F088E001C082E080830E94FD0BFF914E
:1019D000EF91DF91CF91BF91AF919F918F917F91C7
:1019E0006F915F914F913F912F910F900FBE0F908C
:1019F0001F901895E881F981E4CFCF93DF93C091D0
:101A00004001D0914101F894509A589885E08A9508
:101A1000F1F700005098589A80E28A95F1F7489BB8
:101A20000CC0509A589AE881F98181E080837894BB
:101A300081E090E0DF91CF9108956D81662381F080
:101A40008E819F810E94350C81110AC0509A589A4C
:101A5000E881F98182E08083789482E090E0EACFA7
:101A60000E94FD0B80E28A95F1F75898509A80E128
:101A70008A95F1F76A81662321F08B819C810E940F
:101A8000910C0E94050CE881F9811082789490E015
:101A900080E0D0CF90934701809346010895E09174
:101AA0004601F0914701309721F00190F081E02D3F
:101AB000099480E00895E0914601F0914701309744
:101AC00021F00280F381E02D0994089520914401D2
:101AD000309145012817390771F0909345018093A3
:101AE0004401E0914601F0914701309721F00680D2
:101AF000F781E02D0994089520914201309143012E
:101B00002817390771F09093430180934201E091C7
:101B10004601F0914701309721F00084F185E02DD6
:101B20000994089585B7806885BF85B7806885BFAB
:101B30000895089508950C94990D08950C949D0DA1
:101B40000E94920D0E949A0D0C949B0D0E94031A04
:101B50000E949F090E94771A0C949E0DBF92CF920B
:101B6000DF92EF92FF920F931F93CF93DF93CDB746
:101B7000DEB72A970FB6F894DEBF0FBECDBF0E9426
:101B8000880A0E94F40A882309F46FC089E4C82EE9
:101B900081E0D82E10E000E0B02E802F0E9498093E
:101BA000E82EF601F1906F01F81609F458C0809103
:101BB000C20181FD0E949E09FE2490E080E02F2D4D
:101BC00030E0482FB901082E02C0759567950A9438
:101BD000E2F760FF3FC08E83BF8281E090E06C013E
:101BE00002C0CC0CDD1C4A95E2F72E2D30E02C21F2
:101BF0003D21232B09F480E088870E940C1A816024
:101C0000782F9A8789874E815F8168858A850E94AF
:101C1000560EF801E75BFE4F80818C2580830E9481
:101C20004F0D90914801891789F10E944F0D8093C3
:101C300048012A960FB6F894DEBF0FBECDBFDF91E4
:101C4000CF911F910F91FF90EF90DF90CF90BF90B9
:101C50000C94230501968730910509F0B2CF0F5FF0
:101C60001F4F0830110509F097CF8FEF89838A83C2
:101C70001B820E940C1A8160782F9D838C8349817E
:101C80005A816B818D810E94560EC9CF2A960FB65C
:101C9000F894DEBF0FBECDBFDF91CF911F910F91A2
:101CA000FF90EF90DF90CF90BF900895CF93DF9398
:101CB000CDB7DEB72B970FB6F894DEBF0FBECDBF02
:101CC0004F83588769877A878B871E821D8285E0BC
:101CD000FE013796DE01119601900D928A95E1F78B
:101CE00049815A816B817C818D819E812B960FB6B3
:101CF000F894DEBF0FBECDBFDF91CF910C94DE1400
:101D0000FC01808191810C949417882309F4FFC011
:101D10008238B9F40E944F0D81FDF9C089E30E9419
:101D2000C2170E9433182FEF81EE94E021508040BB
:101D30009040E1F700C0000089E30E94C9170C94AD
:101D400033188338A1F40E944F0D80FDE0C083E575
:101D50000E94C2170E9433182FEF81EE94E02150A9
:101D600080409040E1F700C0000083E5E6CF843872
:101D7000A1F40E944F0D82FDCAC087E40E94C217E1
:101D80000E9433182FEF81EE94E021508040904064
:101D9000E1F700C0000087E4D0CF9CEF980F913AA4
:101DA00018F40E94C217CBCF90E2980F983050F4ED
:101DB000877091E001C0990F8A95EAF7892F0E94F8
:101DC000EA17BDCF9BE5980F933070F4853A31F058
:101DD000863A39F083E890E00C94660D81E890E053
:101DE000FBCF82E890E0F8CF98E5980F973108F0A4
:101DF0008EC0883A09F446C0893A09F446C08A3A46
:101E000009F446C08B3A09F446C08C3A09F446C03E
:101E10008B3B09F446C08C3B09F446C08D3A09F46B
:101E200046C0803B09F446C08E3A09F446C08F3A5A
:101E300009F446C0813B09F446C0823B09F446C020
:101E4000833B09F446C0843B09F446C0853B09F452
:101E500046C0863B09F446C0873B09F446C0883B30
:101E600009F446C0893B09F446C08D3B09F446C0DD
:101E70008E3B09F446C08A3B09F446C090E080E0FE
:101E80000C947C0D82EE90E0FBCF89EE90E0F8CFD1
:101E90008AEE90E0F5CF85EB90E0F2CF86EB90E014
:101EA000EFCF83EB90E0ECCF84EB90E0E9CF87EBD2
:101EB00090E0E6CF8CEC90E0E3CF8DEC90E0E0CFCB
:101EC00083E891E0DDCF8AE891E0DACF82E991E022
:101ED000D7CF84E991E0D4CF81E292E0D1CF83E201
:101EE00092E0CECF84E292E0CBCF85E292E0C8CF01
:101EF00086E292E0C5CF87E292E0C2CF8FE690E023
:101F0000BFCF80E790E0BCCF8AE292E0B9CF0895DE
:101F1000882309F44BC0823871F40E944F0D81FF71
:101F200045C089E30E94C2170E94331889E30E94CA
:101F3000C9170C943318833859F40E944F0D80FF51
:101F400035C083E50E94C2170E94331883E5EFCFA6
:101F5000843859F40E944F0D82FF28C087E40E9404
:101F6000C2170E94331887E4E2CF9CEF980F913A92
:101F7000F0F290E2980F983050F4877091E001C031
:101F8000990F8A95EAF7892F0E94F017D2CF9BE527
:101F9000980F933020F490E080E00C94660D885AFE
:101FA000873120F490E080E00C947C0D0895CF936D
:101FB000C82F0E94850EC93349F42FEF87EE93E0B6
:101FC000215080409040E1F700C000008C2FCF915D
:101FD0000C94880F882321F00E94EA170C94331880
:101FE0000895882321F00E94F0170C943318089567
:101FF000BF92CF92DF92EF92FF920F931F93CF93F6
:10200000DF936C01D62FC72FFC01058102950F705D
:10201000128111110E9407180E94E017E82E8823F0
:1020200071F01123B1F080E28D0F883090F082E0E2
:102030000E947E180E94E01791E0E82EE926BC2E4F
:10204000B2949FE0B922EB2DF0E0EF54FE4D0C94DA
:102050006721E12CF4CF0C2F0F70C07F11F0029597
:10206000007F1123A9F0002359F080E28D0F883002
:1020700010F0D11109C0802F0E94EA170E94331876
:102080008D2F0E94850E14C0802F0E94FA17F6CF64
:102090008D2F0E94880F002359F080E28D0F883029
:1020A00010F0D1112CC0802F0E94F0170E9433181D
:1020B0002B2D2850330B2430310520F40E944F0D76
:1020C0000E942305EE2009F493C10E94DC1780FDD5
:1020D0008FC1F60112820E94D6170E946216C601B5
:1020E0000E9402120E94D617DF91CF911F910F918B
:1020F000FF90EF90DF90CF90BF900C948316802FCD
:102100000E940018D3CFFC2FFF70FF2EC07FC0327B
:1021100019F0F29480EFF822DD2369F0D13049F113
:10212000112391F1002351F1F601858180FFA8CFA1
:102130008F70858323C0112381F0011106C00E9496
:102140001A188F290E94EA0FB3CF0130C1F70E94FD
:102150001A188F290E942018ABCF011106C00E94C7
:1021600029188F2D0E94F10FA3CF013009F4A0CFC1
:10217000F6CF112329F0063008F09ACF8F2DE2CF49
:10218000053008F095CFEDCF002359F3D93349F44A
:10219000FFEF27EE33E0F15020403040E1F700C080
:1021A00000008D2F0E94880F83CF8C2F86958695F7
:1021B000837069F0813009F07BCF8D2F9C2F937055
:1021C000111102C090E080E00E947C0D71CF8D2F34
:1021D0009C2F9370111102C090E080E00E94660D68
:1021E00067CF8C2F837009F041C0111161CF4D2F43
:1021F000429546954770440F440F0D2F0F7010E025
:1022000030E020E0042E04C0000F111F221F331FF6
:102210000A94D2F760E070E0CB01D4FF0FC06FE00A
:1022200070E080E090E004C0660F771F881F991F60
:102230004A95D2F76095709580959095C695C6950C
:10224000C370602B712B822B932BC23049F058F452
:10225000C13019F00E9414162BCF0E94021628CF0D
:102260000E94261625CF0E94001622CF86951123A4
:1022700011F08C2F8170882309F41ACF4D2F4295CD
:1022800046954770440F440F0D2F0F7010E030E05B
:1022900020E0042E04C0000F111F221F331F0A94D8
:1022A000D2F760E070E0CB01D4FF0FC06FE070E0C8
:1022B00080E090E004C0660F771F881F991F4A9541
:1022C000D2F76095709580959095C695C695C37028
:1022D000602B712B822B932BC23049F058F4C13004
:1022E00019F00E94D916E4CE0E94C716E1CE0E94D2
:1022F000EB16DECE0E943C16DBCECF70112329F008
:102300008C2F0E9462168D2F1DCF8D2F0E94F10FF2
:102310008C2F0E948316CCCED23F89F160F4D03F3F
:10232000C9F0D13F29F1112309F442C00111A8CE0F
:102330008C2F8F7121C0D33F39F1D43FA1F71123E6
:1023400069F1CF718C2F0E94621663E08C2F0E947E
:102350006918AECE112341F0053008F0A9CE8C2FBC
:102360008F710E94A616A4CE063008F0A1CEF7CF3A
:102370008C2F8F71112369F20E94621699CE8C2FD7
:102380008F711123C9F3C5CF112329F08C2F8F71C1
:102390000E944D168DCE0E9448168ACE81E00E9482
:1023A0007E18023008F484CE82E00E947E1880CE2F
:1023B000002359F0D93309F0F4CE8FEF97EEE3E024
:1023C00081509040E040E1F7EACE8C2F8F71A1CF91
:1023D0004C2F4F706D2FC6010E94E0060E947815A9
:1023E00067CE4C2F4F706D2FC6010E94E30660CE62
:1023F000DF91CF911F910F91FF90EF90DF90CF90E1
:10240000BF9008950F931F93CF93DF93EC018B81BF
:102410009C81892B29F08881998189238F3F29F418
:10242000DF91CF911F910F910895CE010E94410538
:102430008823B1F3688179818A810E949E178C017B
:102440000E94FD160E94FF15B801CE01DF91CF91C9
:102450001F910F910C94F80F0E9407180E941718F3
:102460000E94331890E080E00E94660D90E080E0CA
:102470000C947C0D0E94D0170C942C120E94F7171C
:102480000C943A12E92FE295EF70E250EE3070F4BE
:10249000F0E0EF53FE4D0C946721803F19F020F4DB
:1024A000883E20F481E00895843FE1F380E00895C0
:1024B000883EC0F3813FD1F7F5CF93FB882780F9A1
:1024C00008950E9494170C944212CF93DF9300D08A
:1024D00000D00F92CDB7DEB70F900F900F900F90F6
:1024E0000F90DF91CF910895CF93DF9300D000D06C
:1024F00000D0CDB7DEB726960FB6F894DEBF0FBE7C
:10250000CDBFDF91CF9108951F93CF93DF93C091FB
:10251000520116E0809153018C1304C0DF91CF91DA
:102520001F910895D0E01C9FF0011D9FF00D112414
:10253000EC5AFE4F40815181628173818481958183
:102540000E9474122196C770E5CF4091840150918A
:102550008501609186017091870180918801909139
:1025600089010C9474121F93CF93DF93809189019A
:10257000807FC1F4809186018823A1F0809152016F
:10258000C091530160918401709185014091870150
:1025900050918801D62FD723DA01A095B09516E087
:1025A000C81304C0DF91CF911F91089590E04115A9
:1025B000510511F0DF3F31F401968770F1CF2A0FFA
:1025C0003B1F17C0189FF001199FF00D1124EC5A02
:1025D000FE4F21812713F0CF20812613EDCF2281DA
:1025E0002111EACF238134812417350740F3241BBE
:1025F000350B2837310500F7209189012F702061B4
:102600002093890126E0289FF001299FF00D1124D5
:10261000E75AFE4F80818F708061808384E891E06B
:102620000E940212DF91CF911F910C948412BF92ED
:10263000CF92DF92EF92FF920F931F93CF93DF938E
:10264000CDB7DEB761970FB6F894DEBF0FBECDBF32
:102650008C0185E0F801DE011D9601900D928A95AE
:10266000E1F7D8014C9111965C9111971296EC907C
:1026700012978091870190918801009709F47FC19A
:102680002091840130918501622F63236F3F09F40B
:1026900076C11396CD90DC90B0908601BB2009F4F2
:1026A00011C1C816D906D0F1F601E81BF90BCF010C
:1026B000FF24F3948837910508F0F12C809189016B
:1026C000982F907FFF2009F4B8C091117FC0FE2C95
:1026D000351329C0241327C0E11025C08F708061F5
:1026E000809389010E94A51284E891E00E94021261
:1026F00080918901D80115968C938F2D61960FB624
:10270000F894DEBF0FBECDBFDF91CF911F910F9127
:10271000FF90EF90DF90CF90BF90089580959095B7
:102720008C0D9D1DC5CFCD2829F0852F84238F3F8B
:1027300009F041C180E0B82FB170DB2E80FF3CC0B2
:10274000809152012091530136E0821315C04D87CC
:102750005E878D859E850E949417292F22952F7064
:102760002230F0F0243018F59F70F1F0F8019581D7
:10277000907FD1F4D12C1EC090E0389FF001399F9A
:10278000F00D1124EC5AFE4F6181651306C0608183
:10279000641303C06281E6120FC001968770D5CF23
:1027A0009F7011F0882331F3805E883018F3C801E0
:1027B0000E940212FD2CA1CFEE2009F49ECF809141
:1027C0008901816080938901F12C97CF351306C070
:1027D000241304C0D801EE2009F49AC04D875E8707
:1027E0008D859E850E946112882319F1EE2009F1E2
:1027F00080918901803270F02091840130918501AF
:1028000038872F831986DB86CA868C87CE01079688
:102810000E94021286E0F801A4E8B1E001900D9256
:102820008A95E1F70E94B3120E94A512FF24F39447
:1028300064CFC8010E940212F9CF911113C07C2D00
:10284000D98AC88A6E2D89890E94651284E891E030
:102850000E94021286E0E4E8F1E0DF011D928A9511
:10286000E9F763C0351312C0241310C0E1100EC085
:10287000F8018583C8010E940212E4E8F1E086E0D5
:10288000DF011D928A95E9F7FB2C37CF4D875E87D4
:102890008D859E850E946112882359F2EE2049F2AF
:1028A00080918901803208F4B5CF20918401309164
:1028B00085013A8329831B82DD82CC828E83CE01FF
:1028C0000196A6CFC816D90698F1F601E81BF90BB8
:1028D000CF01F12C8837910508F049C0FE2CEE207D
:1028E00009F4A7CF351332C0241330C08091890179
:1028F00080FD23C0982F907F01F1D80115968C930D
:102900001597903F39F0982F907F905F8F70892BAB
:1029100015968C93C8010E94021286E0F801A4E883
:10292000B1E001900D928A95E1F70E94A512E5CEE3
:10293000809590958C0D9D1DCCCF86E0F801A4E884
:10294000B1E001900D928A95E1F7D7CE4D875E8771
:102950008D859E850E94611281115CCF80918901D5
:10296000816080938901C8010E940212C6CE7C2D2D
:10297000D98AC88A6E2D89890E9465126BCFEE2094
:1029800009F457CF4D875E878D859E850E94611221
:10299000F82E882309F44DCF86E0F801A4E8B1E0D1
:1029A00001900D928A95E1F784E891E00E94800EF3
:1029B0000E94B312BACF81E08E25BDCE1F93CF9374
:1029C000DF93CDB7DEB72C970FB6F894DEBF0FBEFE
:1029D000CDBF4F83588769877A878B879C87CE01C5
:1029E00007960E941713882369F08A859B85892B97
:1029F00039F04F815885842F85238F3F09F071C0AE
:102A000016E05FC086E0FE013796DE011196019068
:102A10000D928A95E1F78A859B85892B89F38F81B1
:102A2000988589238F3F61F32091530130E0C901DC
:102A3000019687709927409152014817190671F441
:102A40000E943E12109253011092520186E0E4E877
:102A5000F1E0DF011D928A95E9F7D2CF96E0929FCF
:102A6000D001939FB00D1124AC5ABE4FFE01319698
:102A700001900D929A95E1F7809353010E94841280
:102A8000BFCF819FC00111248C5A9E4F0E94171303
:102A90008823E9F0E09152011E9FF0011124EC5AC5
:102AA000FE4F4081518162817381848195810E94B2
:102AB00074128091520190E001968770992780935B
:102AC000520180915201909153018913DACF2C96D3
:102AD0000FB6F894DEBF0FBECDBFDF91CF911F912F
:102AE000089569857A858B859C850E94741288CFAC
:102AF000EF92FF920F931F93CF93DF938C01892B5B
:102B000081F0F12CEE24E394E8012196F801849100
:102B1000843770F4843008F05FC08130B1F08230C7
:102B2000A1F1DF91CF911F910F91FF90EF90089548
:102B3000853709F44CC008F43DC09CE7980F9037E6
:102B400080F78F770E94880F49C00E5F1F4FFE01EC
:102B5000849190E2980F983060F48770FE2D01C048
:102B6000FF0F8A95EAF78F2F0E940A180E943318E8
:102B700002C00E94850E8F2D815030F2EFE9FFE0F8
:102B80003197F1F700C00000F7CF0E5F1F4FFE0135
:102B9000849190E2980F983050F48770FE2D01C018
:102BA000FF0F8A95EAF78F2F0E941018DFCF0E943F
:102BB000880FE1CF0E5F1F4FFE01C491C150D8F2C4
:102BC0008FE99FE00197F1F700C00000F7CF0E5F9B
:102BD0001F4FFE01F490CFCF0E94850E8E01CBCF08
:102BE00008950C94F0150E94F1156093B101709353
:102BF000B2018093B3019093B4010C942C12089508
:102C00000C94F3150F931F930091B1011091B20131
:102C10002091B3013091B401602B712B822B932B47
:102C20001F910F910C94F3150F931F930091B10115
:102C30001091B2012091B3013091B401602371234E
:102C4000822393231F910F910C94F3150F931F93DD
:102C50000091B1011091B2012091B3013091B40102
:102C600060277127822793271F910F910C94F315EA
:102C70000C94F0150C9438160E943A166093AD012E
:102C80007093AE018093AF019093B0010C942C121D
:102C900060E070E0CB010C943C160F931F9341E071
:102CA00050E060E070E08A019B0104C0000F111F3A
:102CB000221F331F8A95D2F7C901B8011F910F91C6
:102CC0000C943C160F931F9341E050E060E070E0DD
:102CD00004C0440F551F661F771F8A95D2F7809155
:102CE000AD019091AE01A091AF01B091B0018A0108
:102CF0009B01082B192B2A2B3B2BC901B8011F91D3
:102D00000F910C943C160F931F9341E050E060E04C
:102D100070E004C0440F551F661F771F8A95D2F7D5
:102D2000CB01BA0160957095809590950091AD01A9
:102D30001091AE012091AF013091B0016023712359
:102D4000822393231F910F910C943C160F931F9392
:102D500041E050E060E070E004C0440F551F661F82
:102D6000771F8A95D2F78091AD019091AE01A09125
:102D7000AF01B091B0018A019B01082719272A27CA
:102D80003B27C901B8011F910F910C943C160F937A
:102D90001F930091AD011091AE012091AF013091D0
:102DA000B001602B712B822B932B1F910F910C94F0
:102DB0003C160F931F930091AD011091AE0120912D
:102DC000AF013091B00160237123822393231F91BF
:102DD0000F910C943C160F931F930091AD0110912D
:102DE000AE012091AF013091B00160277127822799
:102DF00093271F910F910C943C16089527E0929F02
:102E0000800D1124982F977041E001C0440F9A95CE
:102E1000EAF786958695869595E0899FF0011124BD
:102E2000E657FE4F90E080E070E05191DF0111978E
:102E30009B01082E02C0369527950A94E2F721706F
:102E400021952527242325272C930196853091054C
:102E500061F7089527E0929F800D1124982F9770B5
:102E600086958695869525E0829FF0011124E65788
:102E7000FE4F50E040E080E0219130E0092E02C09A
:102E8000369527950A94E2F721703327042E01C066
:102E9000220F0A94EAF7822B4F5F5F4F45305105AE
:102EA00059F70895BF92CF92DF92EF92FF920F935E
:102EB0001F93CF93DF938C01C090AD01D090AE01F2
:102EC000E090AF01F090B0018091B1019091B2011A
:102ED000A091B301B091B401C82AD92AEA2AFB2AE9
:102EE000CFE1D0E0BC2ED701C6010C2E04C0B695B0
:102EF000A795979587950A94D2F780FD0EC02197E4
:102F000088F7B12C8B2DDF91CF911F910F91FF90FE
:102F1000EF90DF90CF90BF900895B8018C2F0E9462
:102F20000007019761F3EECFCF93DF93EC010E948E
:102F30005217BE01DF91CF910C9400071F93CF93DE
:102F4000DF93EB0190915101992331F0CB01DF9197
:102F5000CF911F910C949417882379F0CB010E9494
:102F60005217182F682FCE010E94FE16BE01812F26
:102F7000DF91CF911F910C940007CB010E942A177B
:102F8000182FF4CF682F8091090190910A010C94B9
:102F90007D19682F8091090190910A010C947F1985
:102FA0008091090190910A010C9481198091B501D9
:102FB00085958595859508958091B50187700895CB
:102FC0009091B501977081E009F480E008958091B7
:102FD000C10108959091C101892B8093C101089589
:102FE00080959091C10198239093C101089510920A
:102FF000C10108959091C001892B8093C00108956B
:1030000080959091C00198239093C00108951092EB
:10301000C00108959091BF01892B8093BF0108954D
:1030200080959091BF0198239093BF0108951092CD
:10303000BF0108958091B601089508950C941D185C
:103040009091B601981721F08093B6010C941E1848
:1030500008958091B601882329F01092B60180E08E
:103060000C941E180895E0910901F0910A018091D5
:10307000C1018083E0910901F0910A018081909162
:10308000C001892B8083E0910901F0910A018081C0
:103090009091BF01892B80839091B601992381F093
:1030A000E0910901F0910A018081892B8083809150
:1030B000090190910A010E94441981110E94291866
:1030C0008091090190910A010C945B0D08950C9474
:1030D000661898E0899F90011124622B6093B501D6
:1030E0000E9462168091B5018595859585950C9411
:1030F00067181092B50180E00C9467189091B501A3
:10310000809589238093B501282F277071F4282F8B
:10311000082E000C330B9217130639F08595859510
:1031200085950E9483160C947918089590E080E0AC
:103130000E94752121E08C3E9E4F09F020E0822FF5
:10314000089582E090E00C946D2183E090E00C946F
:103150006D21CF9384E090E00E946D21C82F81E221
:1031600090E00E946D21982F8C2FCF910895CF93DE
:10317000C92F682F84E090E00E947B216C2F81E2B0
:1031800090E0CF910C947B21AB01BC018FE090E0EB
:103190000C948D21AB01BC0183E190E00C948D2156
:1031A00060E070E0CB010C94CA1860E070E0CB01E5
:1031B0000E94C4180C94D0186CEE7EEF90E080E072
:1031C0000E94992160E082E090E00E947B2160E013
:1031D00083E090E00E947B211092B1011092B20135
:1031E0001092B3011092B40160E084E090E00E947C
:1031F0007B2160E081E290E00E947B2160E085E03D
:1032000090E00E947B2160E086E090E00E947B21BC
:103210006FEF87E090E00E947B2140E050E0BA0130
:1032200088E090E00E948D2160E08DE090E00E94B7
:103230007B2140E050E0BA0188E190E00E948D21BE
:1032400060E087E190E00E947B2140E050E0BA011D
:103250008CE190E00E948D2160E080E290E00E948D
:103260007B210C94D5180C94DC188EE090E00E9421
:103270006D2191E0811101C090E0892F0895682FA0
:103280008EE090E00C947B219C012E5F3F4FAC01BF
:10329000485F5F4F80E02417350709F40895F9016E
:1032A00091919F019923B9F38F5FF5CF9C01FC01A8
:1032B00032969FEF80E04191461751F09F3F19F4FD
:1032C000411101C0982F8F5F8630A9F79F3F09F405
:1032D0000895290F311D97FD3A95F90162830895EC
:1032E000FC01329608962191261303C0DF01119745
:1032F0001C92E817F907B9F708950C9456190C9425
:103300007019029626E0FC0111922A95E9F70895BA
:10331000089508950C9489190E948A198091DB01FF
:10332000843049F11092C30188E190E020E40FB6A7
:10333000F894A895809360000FBE2093600080E011
:103340000E9423050E948A1983B7817F846083BF0E
:1033500083B7816083BF7894889583B78E7F83BF5E
:103360000FB6F894A8958091600088618093600002
:10337000109260000FBE08950895CF930E9488199F
:103380000E94880A0E94BC19C0E08C2F0E949809F4
:10339000811105C0CF5FC830C1F7CF91089581E09A
:1033A000FCCF08950C94D1190E943E120E944F0D3B
:1033B0000E9423050C94D2191F921FB61F9211244C
:1033C0008F939F93AF93BF938091C301811113C0DB
:1033D0008091D1019091D201A091D301B091D401FB
:1033E0004196A11DB11D8093D1019093D201A0936C
:1033F000D301B093D401BF91AF919F918F911F9052
:103400001FBE1F90189582E084BD93E095BD9AEF92
:1034100097BD80936E0008952FB7F8948091D101E5
:103420009091D201A091D301B091D4012FBF089502
:10343000CF92DF92EF92FF920F931F932FB7F894E2
:103440004091D1015091D2016091D3017091D4018A
:103450002FBF6A017B01EE24FF248C0130E020E0C5
:10346000C016D106E206F30650F0481B590BCA01FC
:103470001F910F91FF90EF90DF90CF9008954150F2
:103480005109F3CF78941F921FB61F9211248F9386
:103490009F93AF93BF938091D1019091D201A0915E
:1034A000D301B091D4010196A11DB11D8093D1012A
:1034B0009093D201A093D301B093D401BF91AF9167
:1034C0009F918F911F901FBE1F90189587E797E7D8
:1034D000909301088093000888E19AE00FB6F89471
:1034E000A895809360000FBE90936000FFCF0E946C
:1034F0009618811102C00E9433190E94A11880936E
:10350000C2010E94A9189093D6018093D5010E9410
:10351000A518682F70E090E080E00C940016809170
:10352000CC01089508950F931F93CF93DF9300D09C
:103530000F92CDB7DEB78C010E94B91C823011F01A
:10354000843021F584E089831B830A8382E08093A1
:10355000E9008FEF9091E800815095FD06C095ED50
:103560009A95F1F700008111F5CF8091E80085FF71
:103570000DC050E040E063E070E0CE0101960E9493
:10358000D61C8091E8008E778093E8000F900F9012
:103590000F90DF91CF911F910F910895CF93DF93FB
:1035A00000D00F92CDB7DEB72091DB01243031F58A
:1035B00023E02983805891099B838A8382E080934A
:1035C000E9008FEF9091E800815095FD06C095EDE0
:1035D0009A95F1F700008111F5CF8091E80085FF01
:1035E0000DC050E040E063E070E0CE0101960E9423
:1035F000D61C8091E8008E778093E8000F900F90A2
:103600000F90DF91CF910895CF93DF93EC010E944B
:10361000B91C823011F0843039F581E08093E900E3
:103620008FEF9091E800815095FD06C095ED9A9539
:10363000F1F700008111F5CF8091E80085FF14C0FB
:1036400050E040E068E070E0CE010E94D61C80911E
:10365000E8008E778093E80088E0FE01A4ECB1E0FA
:1036600001900D928A95E1F7DF91CF9108958091B5
:10367000DA01811109C00E94661E0E94C31E80915A
:10368000E20084608093E20008951092DA010895C8
:10369000089508950C94D41942E061EC81E00E94F1
:1036A000E21D42E261EC82E00C94E21D8091DD01BA
:1036B000833009F45FC030F48130C1F1823009F405
:1036C0009BC008958A3009F487C08B3009F46DC01F
:1036D000893009F04EC08091DC01813209F049C087
:1036E0008091E0019091E101029708F042C0809141
:1036F000E800877F8093E8008091E80082FF35C072
:103700009091F3008091F200029729F48091F100EA
:103710008B7F813021F48091F1008093CC018091E6
:10372000E8008B778093E8000C94161E8091DC01F2
:10373000813AF9F48091E800877F8093E8008091D6
:10374000E0019091E101892B61F468E084EC91E063
:1037500070E00E94251D8091E8008B778093E8003F
:10376000089560E090E080E0F3CF8091DB0181116B
:10377000C3CF08958091DC01813AD9F78091E001AF
:103780009091E101892BA9F78091E800877F8093D0
:10379000E8008091E80080FFFCCF809115018093C4
:1037A000F1008091E8008E77BDCF8091DC018132FD
:1037B00001F78091E0019091E101892BD1F6809190
:1037C000E800877F8093E8000E94161E8091DE014A
:1037D000809315010C943E128091DC01813249F6F0
:1037E0008091E800877F8093E8000E94161E8091F8
:1037F000DF018093CD0108958091DC01813A09F0C9
:10380000B8CF8091E800877F8093E8008091E8003E
:1038100080FFFCCF8091CD01C2CF84B7877F84BF6A
:103820000FB6F894A895809160008861809360003D
:10383000109260000FBE80E88093610010926100DA
:103840000E94A00D0E94661E0E94C31E8091E2008D
:1038500084608093E20078940E944C210E94A60D1F
:103860008BE091E00E944A0D8091DB01853019F0D8
:103870000E94AE0DF9CF0E948C198091D901882346
:1038800099F30E94BD19882379F30E94C01CECCFE4
:103890000C944A1C292F33272330310519F168F481
:1038A0002130310509F44AC02230310509F44BC0FA
:1038B00090E080E030E020E028C02132310579F14D
:1038C00022323105A9F780E490E023ED38E061155C
:1038D0007105D9F086E390E02DE938E0613071059B
:1038E000A1F0E6CF99278130910599F0009741F03A
:1038F0008230910589F00397D9F6ECE1F8E002C037
:10390000ECE4F8E0849190E09F01FA013183208398
:103910000895EEE3F8E0F6CFE2E2F8E0F3CF89E0D5
:1039200090E022E638E06115710579F389E090E0D6
:103930002BE738E06130710541F3BACF82E190E0C6
:103940002BE838E0E2CF8BE390E020E538E0DDCFF4
:103950000895CF93C82F0E94A81CC093CE01CF9189
:1039600008958091DB01843011F482E0089581E0B4
:1039700008958091CE01811102C00C94B11C08956C
:1039800080E189BD82E189BD09B400FEFDCF80914F
:10399000D8008F7D8093D8008091E0008260809372
:1039A000E0008091E00081FDFCCF0895AF92BF92CE
:1039B000CF92DF92FF920F931F93CF93DF936C010F
:1039C000EB018A010E94351EF82E811123C00115DA
:1039D000110539F0F80180819181C81BD90BC80EFF
:1039E000D91EB12CA12C2097A9F08091E80085FD6B
:1039F00022C08091E8008E778093E80001151105C0
:103A0000A1F0F80180819181A80EB91EB182A08237
:103A100085E0F82E8F2DDF91CF911F910F91FF90B0
:103A2000DF90CF90BF90AF9008950E94351E8823FD
:103A3000D1F2F82EEFCFF60181916F018093F10062
:103A40002197FFEFAF1ABF0ACECFFC018091E201B0
:103A50009091E30186179707A0F06115710529F48D
:103A60009091E8009E779093E80090E061157105D1
:103A700051F4911108C08091E80082FF34C080E0C9
:103A80000895BC01F2CF8091DB018823C1F185301C
:103A9000C1F18091E80083FD30C08091E80082FD93
:103AA000EACF8091E80080FFE1CF8091F300209180
:103AB000F200382F6115710519F02830310558F0E2
:103AC00091E02830310509F090E02091E8002E7750
:103AD0002093E800CBCF81918093F1006150710970
:103AE0002F5F3F4FE7CF8091DB01882341F0853086
:103AF00041F08091E80083FFBECF81E0089582E02D
:103B0000089583E00895FC018091E2019091E30122
:103B100086179707A0F06115710529F48091E800D8
:103B20008E778093E80090E06115710551F4911152
:103B300008C08091E80082FF35C080E00895BC0194
:103B4000F2CF8091DB018823C9F18530C9F18091E2
:103B5000E80083FD31C08091E80082FDEACF8091CA
:103B6000E80080FFE1CF8091F3002091F200382F30
:103B70006115710519F02830310558F091E02830B1
:103B8000310509F090E08091E8008E778093E8009D
:103B9000CBCF84918093F1003196615071092F5FF2
:103BA0003F4FE6CF8091DB01882341F0853041F023
:103BB0008091E80083FFBDCF81E0089582E0089501
:103BC00083E00895982F973028F08F708093E90054
:103BD00081E008959093E900242F762F50E0981704
:103BE00031F07091EC002091ED005091F00021FD3A
:103BF00002C09F5FE8CF3091EB003E7F3093EB0037
:103C00003091ED003D7F3093ED003091EB0031605D
:103C10003093EB007093EC002093ED005093F00094
:103C20002091EE0027FDE5CF80E008958091DC0132
:103C300087FF13C08091E80082FF06C08091E800F2
:103C40008B778093E80004C08091DB018111F2CF73
:103C500008958091DB018823D9F38091E80080FFEB
:103C6000F8CF8091E8008E77ECCF2091E40030917E
:103C7000E50095E6A9012091EC00822F817020FFDC
:103C800006C08091E80080FF06C080E00895209182
:103C9000E80022FD1AC08091DB01882389F085307D
:103CA00089F08091EB0085FD0FC02091E4003091F8
:103CB000E50042175307F9F29150E1F684E00895C8
:103CC00082E0089583E0089581E008950E94D41E63
:103CD0000E94DC1EE0EEF0E0808181608083E8EDF0
:103CE000F0E080818F77808319BCA7EDB0E08C91E4
:103CF0008E7F8C9380818F7E80831092DA0108956D
:103D00000F931F93CF93DF930E94D41E0E94DC1E5B
:103D1000C8EDD0E088818F77888388818068888328
:103D200088818F7D888319BC1092DB011092D701A6
:103D30001092D9011092D80100EE10E0F8018081B4
:103D40008B7F808388818160888342E060E080E0AF
:103D50000E94E21DE1EEF0E080818E7F8083E2EE42
:103D6000F0E0808181608083808188608083F801B9
:103D700080818E7F8083888180618883DF91CF916D
:103D80001F910F910895E8EDF0E080818F7E808390
:103D9000E7EDF0E080818160808384E082BF81E094
:103DA0008093DA010C94801EE8EDF0E080818E7F34
:103DB00080831092E20008951092DA001092E100E0
:103DC00008951F920F920FB60F9211242F933F93D5
:103DD0004F935F936F937F938F939F93AF93BF9313
:103DE000EF93FF938091E10082FF0BC08091E2008E
:103DF00082FF07C08091E1008B7F8093E1000E94E9
:103E00004B218091DA0080FF19C08091D80080FF9B
:103E100015C08091DA008E7F8093DA008091D900FE
:103E200080FF96C080E189BD82E189BD09B400FEB2
:103E3000FDCF81E08093DB010E94371B8091E10080
:103E400080FF19C08091E20080FF15C08091E200E0
:103E50008E7F8093E2008091E20080618093E20097
:103E60008091D80080628093D80019BC85E080934F
:103E7000DB010E94491B8091E10084FF2BC08091EF
:103E8000E20084FF27C080E189BD82E189BD89B558
:103E9000982F917080FFFBCF8091D8008F7D809309
:103EA000D8008091E1008F7E8093E1008091E20054
:103EB0008F7E8093E2008091E20081608093E20037
:103EC0008091D701882309F449C084E08093DB0105
:103ED0000E944A1B8091E10083FF29C08091E2008B
:103EE00083FF25C08091E100877F8093E10082E01D
:103EF0008093DB011092D7018091E1008E7F809347
:103F0000E1008091E2008E7F8093E2008091E200E8
:103F100080618093E20042E060E080E00E94E21D68
:103F20008091F00088608093F0000E94481BFF9110
:103F3000EF91BF91AF919F918F917F916F915F9121
:103F40004F913F912F910F900FBE0F901F9018959A
:103F500019BC1092DB010E94451B70CF8091E300D9
:103F600087FD93E09093DB01B3CF1F920F920FB6C2
:103F70000F9211242F933F934F935F936F937F93EF
:103F80008F939F93AF93BF93CF93DF93EF93FF9361
:103F9000D091E900DF708091EC00C82FC17080FDE6
:103FA000C0E81092E9008091F000877F8093F000D4
:103FB00078940E94F91F1092E9008091F0008860C7
:103FC0008093F000CD2BCF70C093E900FF91EF916B
:103FD000DF91CF91BF91AF919F918F917F916F9121
:103FE0005F914F913F912F910F900FBE0F901F90B7
:103FF00018951F93CF93DF93CDB7DEB7AA970FB66F
:10400000F894DEBF0FBECDBF8CED91E02091F100A2
:10401000FC012193CF01F1E0843E9F07B9F70E9494
:10402000561B8091E80083FF1EC18091DC019091B6
:10403000DD019A3008F017C1E92FF0E0E153FE4DA1
:104040000C946721803899F0823809F00CC1809176
:10405000E0018F70873008F006C18093E9008091FD
:10406000EB0085FB882780F91092E90006C080915B
:10407000D8019091D901911182609091E800977FC9
:104080009093E8008093F1001092F1008091E80095
:104090008E77E5C0882309F4D3C0823009F0E3C0ED
:1040A0008091DE018111D6C08091E0018F702FEFE9
:1040B000280F263008F0D7C08093E9002091EB004C
:1040C00020FFC8C0933031F48091EB008062809370
:1040D000EB00C0C09091EB0090619093EB0021E069
:1040E00030E001C0220F8A95EAF72093EA0010928F
:1040F000EA008091EB008860EACF8111B4C0109192
:10410000DE011F778091E3008078812B8093E300AC
:104110008091E800877F8093E8000E94161E8091BE
:10412000E80080FFFCCF8091E30080688093E3008B
:1041300082E0111183E08093DB0195C080588230CA
:1041400008F091C08091DE019091DF018C3D23E069
:104150009207A1F583E08A838AE289834FB7F894B6
:10416000DE01139620E03EE051E2E32FF0E05093B1
:104170005700E49120FF03C0E295EF703F5FEF70BE
:104180008E2F90E0EA30C0F0C7968D939D932F5FFD
:10419000243159F74FBF8091E800877F8093E80072
:1041A0006AE270E0CE0101960E94251D8091E80030
:1041B0008B778093E80057C0C096E7CF6091E0010D
:1041C0007091E101AE014F5F5F4F0E94481CBC013E
:1041D000892B09F448C09091E800977F9093E800FC
:1041E00089819A810E94831DE1CF8038E1F5809119
:1041F000E800877F8093E8008091D7018093F100E9
:1042000045CF811130C09091DE01923060F58091F0
:10421000E800877F8093E8009093D7010E94161EE4
:104220008091D701882311F084E005C08091E300DC
:1042300087FDFACF81E08093DB010E944C1B13C005
:104240008091DE01813079F481E0933009F080E0E3
:104250008093D9011092E9008091E800877F8093D4
:10426000E8000E94161E8091E80083FF0AC080913A
:10427000E800877F8093E8008091EB008062809364
:10428000EB00AA960FB6F894DEBF0FBECDBFDF914C
:10429000CF911F9108950895CF938091DB018823DA
:1042A000A1F0C091E900CF709091EC00892F81704E
:1042B00090FD80E8C82B1092E9008091E80083FD12
:1042C0000E94F91FCF70C093E900CF910895EE0FBF
:1042D000FF1F0590F491E02D0994F999FECF92BD4E
:1042E00081BDF89A992780B50895A8E1B0E042E031
:1042F00050E00C94A121262FF999FECF92BD81BDEB
:10430000F89A019700B4021639F01FBA20BD0FB613
:10431000F894FA9AF99A0FBE08950396272F0E94EF
:104320007C210E947B21252F0E947C21242F0C942C
:104330007C210196272F0E947C210C947B21DC019B
:10434000CB01FC01F999FECF06C0F2BDE1BDF89AA0
:10435000319600B40D9241505040B8F70895F8944A
:10436000FFCF2B102B1083108310D510581058102E
:104370005810F1107D118C118C11E8115810581043
:10438000F1114D124D125612561258125612561263
:1043900056124D124D125D12561256125D12222007
:1043A0004A2033214A2033217D209E203321F520CD
:0243B0000121E9
:1043B200013801003901043901B7018F1A041B9237
:1043C2001ACE1A931A0136323331F7F6F597C634FC
:0643D200350000000000B0
:00000001FF
