:100000000C94B2040C94F50C0C94F9040C94F904BF
:100010000C94F9040C94F9040C94F9040C94F9046C
:100020000C94F9040C94F9040C94AB1F0C947D20EF
:100030000C949A1A0C94F9040C94F9040C94F90495
:100040000C94F9040C94F9040C94F9040C94F9043C
:100050000C94F9040C94021B0C94F9040C94F9040C
:100060000C94F9040C94F9040C94F9040C94F9041C
:100070000C94F9040C94F9040C94F9040C94F9040C
:100080000C94F9040C94F9040C94F9040C94F904FC
:100090000C94F9040C94F9040C94F9040C94F904EC
:1000A0000C94F9040C94F9040C94F9049D109D101F
:1000B000CF10CF101C115012501250123A11CF1104
:1000C000E011E0114012501250124912D212D21215
:1000D000E412E412DB12E412E412E412D212D2129D
:1000E000E012E412E412E012EA20112109221121A7
:1000F00009225D2180210922D721E621290014004F
:100100001A0008001500170030002B00040016002C
:10011000070009000A006400E1001D001B00060042
:10012000190005000000E000E000E300E2002C0000
:10013000015100002A00130012000C0018001C00DE
:100140002E00280033000F000E000D000B003100C0
:10015000E500380037003600100011000000E40010
:10016000E4000000E6002C000251000000001E1216
:100170001F12201221122212000003511E001F0024
:1001800020002100220000000000230024002500A0
:100190002600270000000000000000000000000012
:1001A000000000004C0027122612251224122312F0
:1001B0002D1200000000271426122512241400001E
:1001C00000000000640226142514640000000000F2
:1001D00000000000000000000000000000001E14ED
:1001E0001F14201421142214310000003A003B0097
:1001F0003C003D003E00000000003F004000410088
:1002000042004300000000004400450000000000E0
:1002100000000000000027142614251424142314C1
:100220000000000000004F0052005100500000008C
:10023000000000004D004B004E004A000000005C32
:1002400000000000000000000000000000001E147C
:100250001F14201421142214310000003A003B0026
:100260003C003D003E00000000003F004000410017
:100270004200430000000000440045000000000070
:100280000000000000002714261452000000231470
:10029000000000004F004F0051005000000000001F
:1002A000000000004D004B004E004A000000005CC2
:1002B000000000000000000000000000000000003E
:1002C000000000000000000000000000000000002E
:1002D000000000000000000000000000000000001E
:1002E000000000000000000000000000000000000E
:1007F0000000000000000000000000000100005C9C
:10080000C25CC35CC65CC55C010001000100BF5C4A
:10081000C15CBE5CBD5C0100010001000100010083
:1008200001000100010001000100010001000100C0
:100830000100010001000100C95CCA5CC75CC85C22
:1008400001000100010001000100010001000100A0
:100850000100010001000100010001000100010090
:10086000010001000100010001000100040330004B
:1008700000001A034500720067006F004400610029
:10088000730068006D0069006E00690000000C03D1
:100890004F006D006B006200640000000403090457
:1008A00009023B00020100A0FA0904000001030153
:1008B0000100092111010001224000070581030800
:1008C000000A0904010001030000000921110100D0
:1008D000012236000705820320000A1201100100E0
:1008E000000008EDFE60600001010203010501093E
:1008F00080A10185031A81002A83001601002603C6
:1009000000950175108100C0050C0901A101850445
:100910001A01002A9C02160100269C0295017510FE
:100920008100C005010906A101050719E029E715A5
:100930000025019508750181029501750881010561
:1009400007190029FF150026FF009506750881008C
:100950000508190129059505750191029501750391
:100960009101C00011241FBECFEFDAE0DEBFCDBF82
:1009700004B603FE27C08091E4019091E501A091A7
:10098000E601B091E7018730904BA740B04BD1F41E
:100990001092E4011092E5011092E6011092E70135
:1009A00014BE84B7877F84BF0FB6F894A895809152
:1009B0006000886180936000109260000FBEE0E0EC
:1009C000F8E3099511E0A0E0B1E0EEE0F5E402C043
:1009D00005900D92A632B107D9F721E0A6E2B1E069
:1009E00001C01D92A43EB207E1F70E94D51C0C94F1
:1009F00085220C94000081E0089581E008950C9414
:100A0000FD041F93CF93DF9300D000D01F92CDB78A
:100A1000DEB749835A836B832091510189819A8182
:100A2000211112C0662349F00E942218182F682F46
:100A300089819A810E94CB1703C00E94F617182F54
:100A400069817A81812F04C00E94221869817A818C
:100A50000F900F900F900F900F90DF91CF911F91FB
:100A60000C942507FC01408151816281738184814E
:100A70000C9401050E945419811102C00E94F419BE
:100A80000C94D8090C94D40908950C94440581E081
:100A900008950C944705CF93C82F0E9445058C2FCD
:100AA0000E944905CF91089508950E94C0120E94A6
:100AB00054052FEF84E39CE0215080409040E1F703
:100AC00000C0000087E797E7909301088093000833
:100AD0000C94281B0F931F93CF93DF938C010E94DC
:100AE0003205EC01B8010E94FF04882309F4A3C178
:100AF000B801CE010E940B0C882309F49CC1C631B9
:100B0000FCE5DF0739F50E94A318982FF8018281D0
:100B10002091090130910A01882379F09A7A81E0C5
:100B200009F480E080932601911102C069E201C0BE
:100B300065E3C9010E94381A0AC08091260181111B
:100B400002C069E201C065E3C9010E943A1A0E942D
:100B5000F11871C1C7318CE5D80708F041C1C13027
:100B6000ECE5DE0771F4F8018281882309F463C1A2
:100B70008091C201982F909590FB80F98093C201DB
:100B80005AC1C230FCE5DF0708F419C1F8018281BF
:100B9000882309F417C10E945419811102C00E94D0
:100BA000F4190E9467199093D6018093D501C03142
:100BB000FCE5DF0709F4C3C008F041C0C830ECE52C
:100BC000DE0709F49AC0F0F4C4308CE5D80709F4C4
:100BD00087C068F4C230FCE5DF0709F477C0C33092
:100BE000DC4509F0E3C08091D501826076C0C63053
:100BF000ECE5DE0709F46EC008F07BC08091D501FA
:100C000088606BC0CC308CE5D80709F485C068F4E7
:100C1000CA30FCE5DF0709F474C008F079C00E940F
:100C2000C0128091D501806858C0CE30ECE5DE0757
:100C300009F476C008F07FC08091D5018BC0CB3F0E
:100C40008CE5D80709F44FC018F5C331FCE5DF0780
:100C500009F47DC078F4C131ECE5DE0709F473C016
:100C6000C231DC4509F0A2C00E94C0128091D501BA
:100C70008F7733C0C5318CE5D80709F472C008F40A
:100C800086C0CA3FDC4509F091C08091D6013EC0C4
:100C9000CF3F8CE5D80709F45FC058F4CD3FFCE5A1
:100CA000DF0709F444C008F43FC08091D601826098
:100CB0002DC0C130EDE5DE0709F475C008F45DC054
:100CC000C230DD4509F072C080E06EC08091D50170
:100CD000816003C08091D50180618093D50166C099
:100CE0008091D50111C08091D60182608093D60198
:100CF0005DC08091D5018062F0CF8091D501806484
:100D0000ECCF8091D50188608460E7CF8160EECF21
:100D10008091D5018E7FE1CF8091D5018D7FDDCF90
:100D20008091D501877FD9CF8091D60118C080915D
:100D3000D6018D7FDBCF8091D5018F7ECECF809184
:100D4000D5018F7DCACF8091D5018F7BC6CF809191
:100D5000D501877F8B7FC1CF8091D6018D7F8E7F1C
:100D6000C5CF8091D50182FB222720F991E09227FF
:100D700090FB82F990FB83F9B0CF8091D601982F38
:100D8000909591708E7F892B90FB81F9AFCF0E9457
:100D9000C0128091D50187FB222720F991E092278C
:100DA00090FB87F99ACF81E00E94001A8091D501CB
:100DB0009091D6010E9478190E94C0123CC0C115C2
:100DC000DC4539F0C801DF91CF911F910F910C9450
:100DD000FB04F8018281882371F10E9455052BC024
:100DE000CE3DECE5DE0739F4F8018281882319F164
:100DF0000E94F41920C0CF3DFCE5DF07A8F4CC3DEC
:100E00008CE5D80731F4F80182818823A1F080E0D5
:100E100008C0CD3DDC45B1F6F8018281882359F048
:100E200082E00E94721D07C0CE018A5F9C4509972F
:100E300008F4ACCEC7CF80E0DF91CF911F910F9126
:100E4000089580E090E00895089528E3829FC0010E
:100E50001124FC0127E0729FE00DF11D1124E60F23
:100E6000F11DEE0FFF1FE450FF4F859194910895FF
:100E7000880F991FFC01E459F74F859194910895CB
:100E8000CF93DF930E9425070E94FA08EC01811599
:100E9000904508F041C0C11580E4D80708F028C18A
:100EA000C83ED10510F5C03ED10508F09FC1C83A33
:100EB000D10578F4C53AD10508F0A2C0C130D105FA
:100EC00009F494C108F445C1C430D10508F08EC1BD
:100ED00040C1CF3BD10508F49EC0C03CD10508F409
:100EE00038C1CE01805C9109F5C0C11590E2D907E7
:100EF00058F4C11521E0D20708F078C1C03FD105F0
:100F000008F427C1D06572C1C11580E3D80708F085
:100F1000E5C0CE019F70DEC0C11595E5D90708F088
:100F200043C0C11524E5D20708F0F9C0C11582E518
:100F3000D80708F5C11591E5D90708F0DCC0CE0146
:100F400074E0969587957A95E1F783709C2F93705E
:100F500021E030E002C0220F331F9A95E2F73C688F
:100F6000382BCF70C695C69580E2C89FE00111244A
:100F7000C22BD32B3BC19E01237033278C2F869528
:100F80008695C115D34508F0BBC0C1E0D0E002C0D2
:100F9000CC0FDD1F2A95E2F720E2829FC0011124C9
:100FA000C82BD92BDC6822C1C11529E5D207A0F4D2
:100FB000C11588E5D80708F0B7C0C11596E5D9076F
:100FC00008F0C7C08C2F0E948E098F71C82FD0E007
:100FD000DC2FCC27D0620AC1C1152AE5D20708F45C
:100FE000A8C0CE0190568115904208F0B2C08D2F56
:100FF0008F710E948E09DD27D0628F71D82BF6C0C9
:10100000C53AD10509F4A8C0C63AD10509F0A7C070
:10101000C2E8D0E4EBC0C83AD10509F4A3C0C93A8C
:10102000D10509F4A2C0CA3AD10509F4A1C0CB3A4E
:10103000D10509F4A0C0CC3AD10509F49FC0CB3B3F
:10104000D10509F49EC0CC3BD10509F49DC0CD3A31
:10105000D10509F49CC0C03BD10509F49BC0CE3A30
:10106000D10509F49AC0CF3AD10509F499C0C13B22
:10107000D10509F498C0C23BD10509F497C0C33B20
:10108000D10509F496C0C43BD10509F495C0C53B10
:10109000D10509F494C0C63BD10509F493C0C73B00
:1010A000D10509F492C0C83BD10509F491C0C93BF0
:1010B000D10509F490C0CD3BD10509F48FC0CE3BDA
:1010C000D10509F48EC0CA3BD10509F48DC0C0E03A
:1010D000D4E48CC00E943807EC0188C0CE01992767
:1010E000D3FF03C0EC01D86C81C0EC01D06C7EC092
:1010F000DF70D06A7BC0DC2FCC27C16FD06A76C08E
:10110000C1E0D0E002C0CC0FDD1F2A95E2F720E25B
:10111000829FC0011124C82BD92BDA6867C0DC2F4D
:10112000CC27C46FD06A62C0DC2FCC27C06FD06AD6
:101130005DC08C2F8F700E948E0994E0D695C79564
:101140009A95E1F7CF70D0E0DC2FCC27D069C82B7F
:101150004DC0C0E0D0E04AC0C1E8D0E447C0C3E819
:10116000D0E444C0C2EED4E441C0C9EED4E43EC0F1
:10117000CAEED4E43BC0C5EBD4E438C0C6EBD4E43B
:1011800035C0C3EBD4E432C0C4EBD4E42FC0C7EB0A
:10119000D4E42CC0CCECD4E429C0CDECD4E426C0FB
:1011A000C3E8D5E423C0CAE8D5E420C0C2E9D5E449
:1011B0001DC0C4E9D5E41AC0C1E2D6E417C0C3E239
:1011C000D6E414C0C4E2D6E411C0C5E2D6E40EC031
:1011D000C6E2D6E40BC0C7E2D6E408C0CFE6D4E44A
:1011E00005C0C0E7D4E402C0CAE2D6E4CE01DF9174
:1011F000CF9108958238910569F1B0F4813391055A
:1012000009F46DC048F48932910509F463C08A324B
:10121000910509F469C008958533910509F455C015
:1012200089339105B9F00895833E910569F138F449
:10123000803E9105B1F0823E910509F10895863E08
:101240009105A9F1873E9105B9F1843E910509F018
:1012500064C023C02091D50120FD4FC021FD4DC0A9
:1012600008958091D50180FD44C08091D60180FF12
:1012700044C08091D50184FD42C083EE4DC0809171
:10128000D50182FF38C0F5CF8091D50182FD33C0F2
:101290008091D60180FD31C0ECCF8091D60181FFD5
:1012A00032C08091D50184FD2AC087EE35C080917F
:1012B000D50183FF26C0F5CF8091D50183FD21C0E4
:1012C0008091D60181FD1FC0ECCF8091D50185FDB5
:1012D0001CC01DC08091D50185FD19C016C080912C
:1012E000D50186FD16C017C08091D50186FD13C0BB
:1012F00010C089E311C082EE0FC080EE0DC080E007
:101300000BC086EE09C084EE07C089E205C085E304
:1013100003C08AE201C081E390E008959091D50175
:1013200092FF0DC0282F2871283019F4877F846020
:1013300006C0282F2471243011F48B7F886093FF1E
:101340000DC0282F2871283119F4877E846106C0CA
:10135000282F2471243111F48B7E88612091D601CD
:1013600020FF0DC0382F3871383019F4877F816025
:1013700006C0382F3171313011F48E7F886021FF23
:101380000DC0282F2871283119F4877E816106C08D
:10139000282F2171213111F48E7E886194FD877E82
:1013A000089508950C94D1090C94D2090C94D10994
:1013B0000C94D609E82FF0E0E45DFE4F808108959B
:1013C0000895CF93DF930E94560B80910001809186
:1013D0000001811102C094E001C090E09093D0011F
:1013E00084E0891B8093CF01ADE1B1E041E251E09F
:1013F00061E070E08D91E82FE295EF70F0E021A1BF
:101400008F70EB0102C0CC0FDD1F8A95E2F7CE0191
:101410009C2F9095922391A392A1892B82A34A1786
:101420005B0741F7A6E1B1E04DE151E061E070E01A
:101430008D91E82FE295EF70F0E021A18F70EB0124
:1014400002C0CC0FDD1F8A95E2F7CE019C2F90954C
:10145000922391A392A1892B82A34A175B0741F79C
:10146000ECE2F1E084E391E011928E179F07E1F73F
:1014700084E00E94000BDF91CF910C943A056F92AB
:101480007F928F929F92AF92BF92CF92DF92EF9214
:10149000FF920F931F93CF93DF936DE171E0A8E26A
:1014A000B1E02CE2A22E21E0B22E712C01E010E07E
:1014B0006D019C901C92EB018991BE01E82FE29591
:1014C000EF70F0E021A18F70A80102C0440F551FFA
:1014D0008A95E2F7CA01242B21A322A1642E6094ED
:1014E000262122A350EA5A95F1F796E1E92E91E0E0
:1014F000F92E40E050E0E70189907E01282D2295E9
:101500002F7030E0E90128A130E0D82DDF7002C053
:1015100035952795DA95E2F720FD07C09801042E4E
:1015200001C0220F0A94EAF702C020E030E03C91AB
:10153000232B2C934F5F5F4F47305105E1F691A16C
:10154000D62DD923D1A392A1892B82A3119681E014
:10155000F6019081991101C080E0782AAA16BB0695
:1015600009F0A6CF6091D00170E0645D7E4F272D19
:1015700044E088E291E00E94010B872DDF91CF913A
:101580001F910F91FF90EF90DF90CF90BF90AF90A1
:101590009F908F907F906F900895CF930E943F0A05
:1015A000C82F0E94390B8823F9F08091CF0190E079
:1015B000845D9E4F0E946D0B811111C080912701A7
:1015C0008F5F80932701863060F0E091CF01F0E0DB
:1015D000E45DFE4F108211821282138202C01092CB
:1015E00027010E94420509C08091D00190E0845DEE
:1015F0009E4F0E94880B0E94D1098C2FCF91089595
:101600000895FF920F931F93CF93DF938C01F62ED3
:10161000D72FC42F222349F081E0809336010E9406
:10162000CC1A909335018093340180913601882340
:10163000C1F080913401909135010E94D81A06972B
:1016400080F0EF2DFD2FD8014C2F50E0CD01801BF5
:10165000910B841795071CF48D918193F7CF10920D
:101660003601DF91CF911F910F91FF9008950C9457
:10167000F61980913701811112C08091D8008061E4
:101680008093D8008AE18A95F1F700C08091D90053
:1016900080FD02C082E001C081E08093370181E0DB
:1016A00090913701913009F080E008950E94370B46
:1016B000809300010E94390B81110C94610B0C94F2
:1016C000670B61E070E081E091E00C94A70C61E0B1
:1016D00070E081E091E00C94AE0CCF93DF93D82FB3
:1016E000C92F0E94460D892B79F4ED2FFC2F80E045
:1016F00090E0DC01A75CBE4F2C91219301968430D1
:101700009105B9F781E001C080E0DF91CF910895A4
:1017100020E030E0FC014191CF01F901E75CFE4F90
:1017200040832F5F3F4F24303105A1F708950F9379
:101730001F93CF93DF93C62FD42F122FFC018281EA
:101740008823C9F060933F010E94CC1A90933E0118
:1017500080933D0180E28C0F883008F057C0C7703D
:1017600081E001C0880FCA95EAF7DF91CF911F9100
:101770000F910C945D1080913F01681330C08091EF
:101780003D0190913E010E94D81A8837910538F5A5
:1017900000E20D0FCD17B9F080E28C0F883040F4D5
:1017A000C77081E001C0880FCA95EAF70E946410F3
:1017B000083028F581E09D2F977001C0880F9A9519
:1017C000EAF70E945D10812F0E944A100830F0F461
:1017D000D77081E001C0880FDA95EAF70AC080E28D
:1017E0008C0F883098F4C77081E001C0880FCA95CB
:1017F000EAF7DF91CF911F910F910C946410812F24
:10180000DF91CF911F910F910C944A10DF91CF91EE
:101810001F910F9108959C01CB01233F4CE53407A4
:10182000F9F078F4283DFCE53F07B9F0293D4CE597
:10183000340711F1273D3C4531F526E241EE61EEDA
:101840001EC0253FFCE53F0799F070F0263F3C4560
:10185000D1F427E245EE66EE12C027E245EE0EC057
:1018600026E241EE60EE0BC027E245EE64EE07C0D3
:1018700026E241EE62EE03C028E241E065EE0E94FE
:10188000970B80E00895FC018281882319F0109263
:101890003F01089581E008958EE1489B02C0815088
:1018A000E1F7489BFECF0895589880E28A95F1F7BA
:1018B000589A0895FC012AE02A95F1F728E090E073
:1018C00080E031E040E14A95F1F7880F489B02C083
:1018D0008160932700C0000040E14A95F1F7215054
:1018E00089F720E12A95F1F729B100C0000030E125
:1018F0003A95F1F7217092272081920F90830895F5
:10190000EF92FF920F931F93CF93DF931F92CDB768
:10191000DEB719828C017C01E60EF11C0E151F0545
:1019200051F00E944C0CCE0101960E945A0CF80115
:1019300081938F01F3CF81E09981911180E00F9025
:10194000DF91CF911F910F91FF90EF9008959093A9
:10195000410180934001509A589A08959093410113
:10196000809340015098589AE89AE9E6F0E0808127
:101970008C7F80830895615091E001C0990F6A9532
:10198000EAF720E031E0992361F0492F482319F06C
:10199000589A232701C0589840E24A95F1F7969546
:1019A000F2CF222311F0589A01C0589880E28A950C
:1019B000F1F758980895FF920F931F93CF93DF93F9
:1019C000EC018C01060F111DC017D10741F0F990F1
:1019D0000E94540C68E08F2D0E94BB0CF5CFDF9164
:1019E000CF911F910F91FF9008951F920F920FB604
:1019F0000F9211242F933F934F935F936F937F9395
:101A00008F939F93AF93BF93CF93DF93EF93FF9306
:101A10005898509AC0914001D09141016D81662340
:101A200021F08E819F810E94DB0C0E94540C80E18A
:101A30008A95F1F758985098589A80E18A95F1F76D
:101A40006A81662351F08B819C810E94800CE88121
:101A5000F981811104C082E003C0E881F98188E046
:101A600080830E944C0CFF91EF91DF91CF91BF9149
:101A7000AF919F918F917F916F915F914F913F9126
:101A80002F910F900FBE0F901F901895CF93DF935B
:101A9000C0914001D0914101F894509A589885E046
:101AA0008A95F1F700005098589A80E28A95F1F7EC
:101AB000489B0AC0509A589AE881F98181E0808356
:101AC000789481E090E02CC06D81662381F08E8156
:101AD0009F810E94800C81110AC0509A589AE88117
:101AE000F98182E08083789482E090E019C00E94BE
:101AF0004C0C80E28A95F1F75898509A80E18A95CB
:101B0000F1F76A81662321F08B819C810E94DB0CB6
:101B10000E94540CE881F9811082789480E090E072
:101B2000DF91CF91089590934701809346010895E6
:101B3000E0914601F0914701309721F00190F0814A
:101B4000E02D099480E00895E0914601F09147016D
:101B5000309721F00280F381E02D099408952091BF
:101B60004401309145012817390771F090934501E0
:101B700080934401E0914601F0914701309721F0B4
:101B80000680F781E02D099408952091420130915B
:101B900043012817390771F0909343018093420164
:101BA000E0914601F0914701309721F00084F185E2
:101BB000E02D0994089585B7806885BF85B7806852
:101BC00085BF089508950C94E20D0C94E30D0C94D8
:101BD000E20D0C94E20D0E94DB0D0E94E70D0C94C7
:101BE000E50D0E94C31A0E94E1090E94391B0C9462
:101BF000E90DBF92CF92DF92EF92FF920F931F9366
:101C0000CF93DF93CDB7DEB72A970FB6F894DEBF38
:101C10000FBECDBF0E94CD0A0E94390B811111C0A9
:101C20008FEF89838A831B820E94CC1A8160782F70
:101C30009D838C8349815A816B818D810E94A00E86
:101C400054C089E4C82E81E0D82E00E010E0B02E08
:101C5000802F0E94DA09E82EF60121916F01F82EFB
:101C6000F22631F40F5F1F4F0830110581F7D8CFEE
:101C70008091C20181FD0E94E00980E090E02F2D5B
:101C800030E0482FB901082E02C0759567950A9477
:101C9000E2F760FF25C08E83BF8281E090E06C0197
:101CA00002C0CC0CDD1C4A95E2F72E2D30E02C2131
:101CB0003D21232B09F480E088870E94CC1A8160A3
:101CC000782F9A8789874E815F8168858A850E94EF
:101CD000A00EF801E75BFE4F80818C25808305C054
:101CE00001968730910569F6BDCF0E94980D9091BD
:101CF00048018917A9F00E94980D809348012A96FF
:101D00000FB6F894DEBF0FBECDBFDF91CF911F910C
:101D10000F91FF90EF90DF90CF90BF900C944B0508
:101D20002A960FB6F894DEBF0FBECDBFDF91CF91DC
:101D30001F910F91FF90EF90DF90CF90BF9008958B
:101D4000CF93DF93CDB7DEB72B970FB6F894DEBFF6
:101D50000FBECDBF4F83588769877A878B87DE0197
:101D6000119686E0FD0111928A95E9F785E0FE0162
:101D7000379601900D928A95E1F749815A816B81DE
:101D80007C818D819E810E9490152B960FB6F894D0
:101D9000DEBF0FBECDBFDF91CF910895FC018081E2
:101DA00091810E9464180895882309F413C1682F53
:101DB0008238C1F40E94980D81FD0CC169E38091C5
:101DC000090190910A010E94381A0E94F1182FEF20
:101DD00081EE94E0215080409040E1F700C0000087
:101DE00069E319C08338F9F40E94980D80FDF2C0B0
:101DF00063E58091090190910A010E94381A0E94BE
:101E0000F1182FEF81EE94E0215080409040E1F7EF
:101E100000C0000063E58091090190910A010E94D1
:101E20003A1A0C94F1188438C1F40E94980D82FD7E
:101E3000D1C067E48091090190910A010E94381A8B
:101E40000E94F1182FEF81EE94E0215080409040E5
:101E5000E1F700C0000067E4DECF8CEF860F813A27
:101E600038F48091090190910A010E94381AD9CF63
:101E700080E2860F883048F4677081E001C0880FE7
:101E80006A95EAF70E94A618CCCF8BE5860F8330BF
:101E900070F4653A29F0663A31F083E890E005C0C5
:101EA00081E890E002C082E890E00C94AF0D88E5F4
:101EB000860F873108F08EC0683A09F445C0693A48
:101EC00009F445C06A3A09F445C06B3A09F445C0C3
:101ED0006C3A09F445C06B3B09F445C06C3B09F40E
:101EE00045C06D3A09F445C0603B09F445C06E3AFF
:101EF00009F445C06F3A09F445C0613B09F445C097
:101F0000623B09F445C0633B09F445C0643B09F4F6
:101F100045C0653B09F445C0663B09F445C0673BD5
:101F200009F445C0683B09F445C0693B09F445C064
:101F30006D3B09F445C06E3B09F445C06A3B09F4AA
:101F400045C080E090E044C082EE90E041C089EE60
:101F500090E03EC08AEE90E03BC085EB90E038C058
:101F600086EB90E035C083EB90E032C084EB90E0EC
:101F70002FC087EB90E02CC08CEC90E029C08DEC5A
:101F800090E026C083E891E023C08AE891E020C079
:101F900082E991E01DC084E991E01AC081E292E0FB
:101FA00017C083E292E014C084E292E011C085E29F
:101FB00092E00EC086E292E00BC087E292E008C099
:101FC0008FE690E005C080E790E002C08AE292E0F0
:101FD0000C94C50D0895882309F45BC0682F8238DE
:101FE00079F40E94980D81FF54C069E38091090142
:101FF00090910A010E94381A0E94F11869E310C0FA
:102000008338B1F40E94980D80FF43C063E580914E
:10201000090190910A010E94381A0E94F11863E5A3
:102020008091090190910A010E943A1A0C94F118CA
:10203000843879F40E94980D82FF2BC067E4809168
:10204000090190910A010E94381A0E94F11867E470
:10205000E7CF8CEF860F813A18F380E2860F883045
:1020600048F4677081E001C0880F6A95EAF70E9422
:10207000AC18DCCF8BE5860F833020F480E090E055
:102080000C94AF0D685A673120F480E090E00C9416
:10209000C50D0895CF93C82F0E94D40EC93349F4BB
:1020A0002FEF87EE93E0215080409040E1F700C091
:1020B00000008C2FCF910C94EB0F882321F00E940D
:1020C000A6180C94F1180895882321F00E94AC18EA
:1020D0000C94F1180895CF92DF92EF92FF920F9334
:1020E0001F93CF93DF937C01062FC72FFC0115812F
:1020F00012951F70D281D1110E94C3180E949C18A2
:10210000882379F0DD2369F080E2800F883048F081
:1021100082E00E943B190E949C1891E0D82ED9269B
:1021200001C0D12CCC2EC2948FE0C8228C2D90E01F
:10213000FC01EA5AFF4F0C943D228C2F807FCF7018
:10214000882311F0C295C07FDD2399F0CC2309F4D8
:1021500082C180E2800F883010F0011104C08C2F02
:102160000E94A61803C08C2F0E94B6180E94F11876
:1021700072C1802F0E94EB0FCC2309F491C180E241
:10218000800F883010F0011104C08C2F0E94AC1811
:1021900003C08C2F0E94BC180E94F11881C18C2FA3
:1021A000807FCF70803211F0C295C07F002319F07C
:1021B0000130C9F022C0DD2371F0112341F011304C
:1021C00031F40E94D6188C2B0E94DE1869C10E943F
:1021D000D6188C2B1DC0112319F0113009F460C1E1
:1021E0000E94E71825C0DD2321F0163008F058C101
:1021F0000EC0153008F054C11BC0DD2361F011235F
:1022000031F0F701858180FF26C18F7085838C2F87
:102210000E945D1045C1112359F0093309F02CC10A
:10222000FFEF27EE83E0F15020408040E1F722C12C
:102230008C2F0E94641034C18C2F869586958370F4
:1022400019F0813061F02CC1DD2321F0802F9C2F0B
:10225000937002C080E090E00E94AF0D29C1DD23A1
:1022600021F0802F9C2F937002C080E090E00E94AC
:10227000C50D1EC18C2F837009F045C0D11114C14A
:10228000402F429546954770440F440F602F6F7062
:10229000862F90E0A0E0B0E0042E04C0880F991FC4
:1022A000AA1FBB1F0A94D2F704FF10C00FE010E072
:1022B00020E030E004C0000F111F221F331F4A9599
:1022C000D2F7009510952095309503C000E010E0FE
:1022D0009801C695C695C370BC01CD01602B712BCA
:1022E000822B932BC23049F058F4C13019F00E9470
:1022F000E116DAC00E94CF16D7C00E94F316D4C0F0
:102300000E94CD16D1C0DD2319F08C2F817001C041
:102310008695882309F4C8C0402F4295469547709A
:10232000440F440F602F6F70862F90E0A0E0B0E064
:10233000042E04C0880F991FAA1FBB1F0A94D2F74E
:1023400004FF10C00FE010E020E030E004C0000FF8
:10235000111F221F331F4A95D2F700951095209523
:10236000309503C000E010E09801C695C695C37093
:10237000BC01CD01602B712B822B932BC23049F015
:1023800058F4C13019F00E94A6178EC00E9494170D
:102390008BC00E94B81788C00E94071785C0CF70F5
:1023A000DD2339F08C2F0E942D17802F0E945D10A5
:1023B0007BC0802F0E9464108C2F0E944E1774C027
:1023C000023F01F128F4003F41F0013FA1F03FC07E
:1023D000033FF9F0043F39F13AC0DD2341F01530F5
:1023E00008F05EC08C2F8F710E94731759C0163091
:1023F00008F056C0F7CFDD2339F08C2F8F710E9483
:102400002D174EC0DD23C9F38C2F8F710E944E17FC
:1024100047C0DD2329F08C2F8F710E94181740C010
:102420000E9413173DC0DD2349F0CF718C2F0E940D
:102430002D1763E08C2F0E94261932C081E00E9484
:102440003B19123068F182E00E943B1929C0DD235C
:1024500031F0112391F2802F0E94D40E21C011235C
:1024600099F2093349F49FEFE7EEF3E09150E04031
:10247000F040E1F700C00000802F0E94EB0F10C079
:102480004C2F4F70602FC7010E9421070E943E16FB
:102490000FC04C2F4F70602FC7010E94240708C047
:1024A00088EF8C0D843020F40E94980D0E944B051B
:1024B000DD20C9F00E94981880FD15C0F701128236
:1024C0000E9492180E942D17C7010E947C120E9440
:1024D0009218DF91CF911F910F91FF90EF90DF90B5
:1024E000CF900C944E17DF91CF911F910F91FF90D9
:1024F000EF90DF90CF9008950F931F93CF93DF93CA
:10250000EC01988189812B813C81232B31F08F3F15
:1025100031F481E09F3F19F403C081E001C080E005
:1025200080FD13C0CE010E946A05882371F0688186
:1025300079818A810E946F188C010E94CA170E94BB
:10254000BB16B801CE010E946B10DF91CF911F9195
:102550000F9108950E94C3180E94D3180E94F11889
:1025600080E090E00E94AF0D80E090E00C94C50DFB
:102570008091090190910A010E943C1A0C94AA12C0
:102580000E94B3180C94B812E92FE295EF704E2F09
:1025900050E0FA013297EE30F105B0F4EA59FF4FFE
:1025A0000C943D22803F91F018F4883E68F40EC0F0
:1025B000843F51F40BC0883E48F0813F29F406C0A7
:1025C00093FB882780F9089580E0089581E00895BD
:1025D0000E9464180E94C4120895CF93DF9300D024
:1025E00000D01F92CDB7DEB70F900F900F900F90D5
:1025F0000F90DF91CF910895CF93DF9300D000D05B
:1026000000D0CDB7DEB726960FB6F894DEBF0FBE6A
:10261000CDBFDF91CF9108951F93CF93DF93C091EA
:10262000520116E080915301C81799F0D0E01C9F29
:10263000F0011D9FF00D1124EC5AFE4F4081518195
:1026400062817381848195810E94FC122196C770FA
:10265000E9CFDF91CF911F9108954091840150916E
:102660008501609186017091870180918801909128
:1026700089010C94FC12CF938091890182958F700F
:1026800009F05FC080918601882309F45AC08091C7
:102690005201B091530170918401A0918501409144
:1026A00087015091880191E07F3F09F090E0692F08
:1026B000C6E08B1709F445C04115510521F0AF3F25
:1026C00021F020E003C021E001C0262F90E020FD92
:1026D00035C0C89FF001C99FF00D1124EC5AFE4F80
:1026E00021812A132BC02081271328C02281211188
:1026F00025C0238134812417350710F42150310976
:10270000241B350B28373105C8F4209189012F701F
:1027100020612093890126E0289FF001299FF00D78
:102720001124E75AFE4F80818F708061808384E896
:1027300091E00E947C12CF910C940C13019687704B
:10274000B8CFCF910895AF92BF92CF92DF92EF9220
:10275000FF920F931F93CF93DF93CDB7DEB76197AF
:102760000FB6F894DEBF0FBECDBF8C0185E0F80137
:10277000DE011D9601900D928A95E1F7D8014C91EA
:1027800011965C9111971296EC90309184016091B2
:1027900085018091870190918801009731F06F3F0A
:1027A00031F421E03F3F19F403C021E001C020E0F3
:1027B000B22FB170BB2E20FD60C1F801C380D48060
:1027C000A0908601AA2009F4EEC020918901C816C4
:1027D000D90628F0D601A81BB90BCD0104C08095FD
:1027E00090958C0D9D1DFF24F3948837910580F002
:1027F000F12C207F09F09CC07C2DD98AC88A6E2DCF
:1028000089890E94ED1284E891E00E947C122DC11A
:10281000822F807F09F054C0561314C0431312C096
:10282000FE2CE1100FC02F702061209389010E94BF
:102830002D1384E891E00E947C1280918901F801B7
:1028400085835CC1CD2831F05F3F31F481E04F3F9B
:1028500019F403C081E001C080E080FD03C081E085
:102860008E2502C080E090E0F82FF170FF2E80FFEF
:102870001CC0809152012091530136E0821709F467
:102880001AC190E0389FF001399FF00D1124EC5AE5
:10289000FE4F6181561306C06081461303C06281FA
:1028A000E61203C001968770E9CFFE2CEE2009F4F2
:1028B00025C180918901816080938901F12C1EC11D
:1028C000561309C0431307C0E11005C08091890168
:1028D000F8018583A4C04D875E878D859E850E9403
:1028E000E812882379F1EE2069F120918901822F85
:1028F00082958F7090E0029774F08091840190919E
:10290000850198878F831986DB86CA862C87CE013E
:1029100007960E947C1286E0F801A4E8B1E00190DD
:102920000D928A95E1F70E943B130E942D130DC072
:10293000561771F04D875E878D859E850E94E8123F
:1029400081111AC0C8010E947C12FF24F394D6C0E2
:102950004313F0CFE110EECF80918901F801858318
:10296000C8010E947C1286E0E4E8F1E0DF011D92DC
:102970008A95E9F7FA2CC2C0EE2021F32091890153
:10298000822F82958F7090E002972CF280918401C3
:10299000909185019A8389831B82DD82CC822E836C
:1029A000CE010196B6CFC816D90628F0F601E81B6D
:1029B000F90BCF0104C0809590958C0D9D1D883733
:1029C000910548F0F12C7C2DD98AC88A6E2D898911
:1029D0000E94ED124AC0FE2CEE2009F4B3CF56132C
:1029E00033C0431331C02091890120FD24C0822FC0
:1029F00082958F70482F50E041155105E1F0D801C4
:102A000015962C9315974F30510549F08F5F982FED
:102A10009295907F822F8F70892B15968C93C80189
:102A20000E947C1286E0F801A4E8B1E001900D92CA
:102A30008A95E1F73DC086E0F801A4E8B1E0019095
:102A40000D928A95E1F75AC04D875E878D859E85E8
:102A50000E94E81281115FCF80918901816080938B
:102A60008901C8010E947C1249C0E4E8F1E086E0D7
:102A7000DF011D928A95E9F71BC0EE2009F462CFB1
:102A80004D875E878D859E850E94E812F82E8823EB
:102A900009F458CF86E0F801A4E8B1E001900D9266
:102AA0008A95E1F784E891E00E94CE0E0E943B13E4
:102AB0000E942D1323C04D875E878D859E850E94C1
:102AC0006418292F22952F70223028F49F7039F036
:102AD000811105C00BC0243028F49F7049F4805E3A
:102AE000883020F0C8010E947C12BF2CFB2C06C04D
:102AF000D80115969C91907F91F7F8CF8F2D619614
:102B00000FB6F894DEBF0FBECDBFDF91CF911F91FE
:102B10000F91FF90EF90DF90CF90BF90AF9008950E
:102B20001F93CF93DF93CDB7DEB72C970FB6F894F2
:102B3000DEBF0FBECDBF4F83588769877A878B87EB
:102B40009C87CE0107960E94A3138823D1F09F8112
:102B500088852A853B85232B31F08F3F31F481E036
:102B60009F3F19F403C081E001C080E080FD47C0B1
:102B70004F81588569857A858B859C850E94FC12DA
:102B80003EC086E0FE013796DE01119601900D925F
:102B90008A95E1F7FF81E8856A857B856115710576
:102BA00031F0EF3F31F481E0FF3F19F403C081E0E1
:102BB00001C080E080FD23C02091530130E0C901B5
:102BC0000196877099274091520150E0841795072C
:102BD000F1F1F983EA837D836C8396E0929FD001C3
:102BE000939FB00D1124AC5ABE4FFE013196019057
:102BF0000D929A95E1F7809353010E940C1316E011
:102C00008091520190915301891771F1189FC00171
:102C100011248C5A9E4F0E94A313882329F1E0911E
:102C200052011E9FF0011124EC5AFE4F4081518148
:102C300062817381848195810E94FC12809152018E
:102C400090E001968770992780935201D9CF0E9416
:102C5000C0121092530110925201E4E8F1E086E0B4
:102C6000DF011D928A95E9F72C960FB6F894DEBF26
:102C70000FBECDBFDF91CF911F910895EF92FF92CC
:102C80000F931F93CF93DF938C01892B09F46CC0B2
:102C9000F12CEE24E394E8012196F8018491843725
:102CA00040F4843008F051C0813081F0823019F155
:102CB0005BC0853709F444C0A8F19CE7980F9037B2
:102CC00008F052C08F770E94EB0F41C00E5F1F4F7C
:102CD000FE01849190E2980F983050F48770FE2D99
:102CE00001C0FF0F8A95EAF78F2F0E94C61814C003
:102CF0000E94D40E2DC00E5F1F4FFE01849190E202
:102D0000980F983060F48770FE2D01C0FF0F8A95F0
:102D1000EAF78F2F0E94CC180E94F11819C00E9468
:102D2000EB0F16C00E5F1F4FFE01C491CC2381F044
:102D30008FE99FE00197F1F700C00000C150F6CF86
:102D40000E5F1F4FFE01F49003C00E94D40E8E014F
:102D50008F2D882309F49FCFEFE9FFE03197F1F73A
:102D600000C000008150F5CFDF91CF911F910F91EE
:102D7000FF90EF900895089508950C94BC160C945C
:102D8000BD160E94BF166093B1017093B20180938B
:102D9000B3019093B4010C94AA120C94C1160F9332
:102DA0001F930091B1011091B2012091B3013091B4
:102DB000B401602B712B822B932B1F910F910C94DC
:102DC000C1160F931F930091B1011091B201209190
:102DD000B3013091B40160237123822393231F91A7
:102DE0000F910C94C1160F931F930091B101109194
:102DF000B2012091B3013091B4016027712782277D
:102E000093271F910F910C94C1160C94BC160E942D
:102E100005176093AD017093AE018093AF0190935D
:102E2000B0010C94AA1260E070E0CB010C9407177B
:102E30000F931F9341E050E060E070E08A019B0136
:102E400004C0000F111F221F331F8A95D2F7C9013A
:102E5000B8011F910F910C9407170F931F9341E036
:102E600050E060E070E004C0440F551F661F771FFC
:102E70008A95D2F78091AD019091AE01A091AF01FA
:102E8000B091B0018A019B01082B192B2A2B3B2BF7
:102E9000C901B8011F910F910C9407170F931F934D
:102EA00041E050E060E070E004C0440F551F661F31
:102EB000771F8A95D2F740955095609570958091CF
:102EC000AD019091AE01A091AF01B091B0018A0126
:102ED0009B01082319232A233B23C901B8011F9111
:102EE0000F910C9407170F931F9341E050E060E09F
:102EF00070E004C0440F551F661F771F8A95D2F7F4
:102F00008091AD019091AE01A091AF01B091B0015F
:102F10008A019B01082719272A273B27C901B801E5
:102F20001F910F910C9407170F931F930091AD0100
:102F30001091AE012091AF013091B001602B712B47
:102F4000822B932B1F910F910C9407170F931F93B4
:102F50000091AD011091AE012091AF013091B0010F
:102F600060237123822393231F910F910C940717E1
:102F70000F931F930091AD011091AE012091AF010D
:102F80003091B00160277127822793271F910F91FD
:102F90000C940717089527E0929F800D1124E82FC5
:102FA000E695E695E695877051E001C0550F8A9544
:102FB000EAF785E0E89FF0011124E657FE4F20E094
:102FC00030E070E04081CB01022E02C096958795DB
:102FD0000A94E2F781708195842785238427819361
:102FE0002F5F3F4F2530310569F7089527E0929F05
:102FF000800D1124682F669566956695982F9770B9
:1030000085E0689FB001112440E050E080E0FB01C2
:10301000E40FF51FE657FE4F208130E0092E02C075
:10302000369527950A94E2F721703327042E01C0C4
:10303000220F0A94EAF7822B4F5F5F4F453051050C
:1030400031F70895BF92CF92DF92EF92FF920F93E4
:103050001F93CF93DF938C01C090AD01D090AE0150
:10306000E090AF01F090B0018091B1019091B20178
:10307000A091B301B091B401C82AD92AEA2AFB2A47
:10308000CFE1D0E0D701C6010C2E04C0B695A795BC
:10309000979587950A94D2F780FD04C0219790F701
:1030A000B12C07C0BC2EB8018C2F0E94400701979D
:1030B000A9F38B2DDF91CF911F910F91FF90EF908E
:1030C000DF90CF90BF900895CF93DF93EC010E94E3
:1030D0002218BE010E944007DF91CF9108951F93EF
:1030E000CF93DF93EB0190915101992321F0CB0114
:1030F0000E94641813C0882349F0CB010E94221853
:10310000182F682FCE010E94CB1704C0CB010E945C
:10311000F617182FBE01812F0E944007DF91CF9133
:103120001F9108958091B5018595859585950895A0
:103130008091B501877008959091B501977081E0F5
:1031400009F480E008958091C10108959091C10132
:10315000892B8093C101089580959091C1018923A5
:103160008093C10108951092C10108959091C0010A
:10317000892B8093C001089580959091C001892387
:103180008093C00108951092C00108959091BF01ED
:10319000892B8093BF01089580959091BF01892369
:1031A0008093BF0108951092BF0108958091B601E8
:1031B000089508950C94D9180C94DA189091B601DA
:1031C000981721F08093B6010C94DC180895809133
:1031D000B601882329F01092B60180E00C94DC1827
:1031E0000895E0910901F0910A018091C101808365
:1031F000E0910901F0910A0190818091C001892B31
:103200008083E0910901F0910A0190818091BF01D2
:10321000892B80838091B601882381F0E091090198
:10322000F0910A019081892B80838091090190910E
:103230000A010E94051A81110E94E7188091090174
:1032400090910A010C94A40D0C94D91898E0899FD0
:1032500090011124262B2093B5010E942D178091F7
:10326000B5018595859585950C9424191092B50125
:1032700080E00C9424192091B501809582238093DD
:10328000B501982F977079F430E0482F082E000C84
:10329000550B2417350739F08595859585950E943E
:1032A0004E170C943619089580E090E00E944B224E
:1032B00021E08C3E9E4F09F020E0822F089582E0AD
:1032C00090E00C94432283E090E00C944322CF934F
:1032D00084E090E00E944322C82F81E290E00E94A7
:1032E00043222C2F30E0A901582BCA01CF91089519
:1032F000CF93C92F682F84E090E00E9451226C2F59
:1033000081E290E0CF910C945122AB01BC018FE09F
:1033100090E00C946322AB01BC0183E190E00C943B
:10332000632260E070E0CB010C948B1960E070E0E8
:10333000CB010E9485190C9491196CEE7EEF80E010
:1033400090E00E946F2260E082E090E00E945122B3
:1033500060E083E090E00E9451221092B10110924F
:10336000B2011092B3011092B40160E084E090E0E9
:103370000E94512260E081E290E00E94512260E0D0
:1033800085E090E00E94512260E086E090E00E949B
:1033900051226FEF87E090E00E94512240E050E020
:1033A000BA0188E090E00E94632260E08DE090E046
:1033B0000E94512240E050E0BA0188E190E00E9472
:1033C000632260E087E190E00E94512240E050E0FB
:1033D000BA018CE190E00E94632260E080E290E01C
:1033E0000E9451220C9496190C949D198EE090E045
:1033F0000E94432291E0811101C090E0892F08953D
:10340000682F8EE090E00C945122FC01329697E0F8
:1034100080E0915029F021912223D9F38F5FF9CFD9
:1034200008959C01FC0132969FEF80E04191461780
:1034300089F09F3F19F4411101C0982F8F5F8630AA
:10344000A9F79F3F39F0F901E90FF11D97FDFA95B2
:103450006283089508959C012A5F3F4FFC014281D9
:10346000461301C01282019682179307B9F7089597
:103470000C94111A0C942B1A029626E0FC0111925E
:103480002A95E9F7089508950C94431A0C94431A69
:10349000CF930E94461A0E94CD0A0E94441AC0E0AF
:1034A0008C2F0E94DA09811104C0CF5FC830C1F7A8
:1034B00001C081E0CF9108950C94431A0C945C1ADA
:1034C0000E945E1A8091DB01843049F11092C301A1
:1034D00020E488E190E00FB6F894A895809360000E
:1034E0000FBE2093600080E00E944B050E945E1A90
:1034F00083B7817F846083BF83B7816083BF789403
:10350000889583B78E7F83BF0FB6F894A895809176
:103510006000886180936000109260000FBE089583
:103520000C94431A0E94C0120E94980D0E944B05F1
:103530000C94901A1F920F920FB60F9211248F9332
:103540009F93AF93BF938091C301811113C080916A
:10355000D1019091D201A091D301B091D4014196B3
:10356000A11DB11D8093D1019093D201A093D301ED
:10357000B093D401BF91AF919F918F910F900FBEE7
:103580000F901F90189582E084BD93E095BD9AEF4F
:1035900097BD80936E0008952FB7F8948091D10164
:1035A0009091D201A091D301B091D4012FBF089581
:1035B000CF92DF92EF92FF920F931F932FB7F89461
:1035C0004091D1015091D2016091D3017091D40109
:1035D0002FBF6A017B01EE24FF248C0120E030E044
:1035E000C016D106E206F30610F4415051099A01C3
:1035F000281B390BC9011F910F91FF90EF90DF90AD
:10360000CF90089578941F920F920FB60F921124C5
:103610008F939F93AF93BF938091D1019091D201EB
:10362000A091D301B091D4010196A11DB11D809349
:10363000D1019093D201A093D301B093D401BF9153
:10364000AF919F918F910F900FBE0F901F90189583
:1036500087E797E790930108809300089AE088E154
:103660000FB6F894A895809360000FBE9093600009
:10367000FFCF0E945419811102C00E94F4190E94C8
:103680005F198093C2010E9467199093D6018093BD
:10369000D5010E946319682F70E080E090E00C94DF
:1036A000CD168091CC01089508950F931F93CF9369
:1036B000DF9300D01F92CDB7DEB78C010E94821D30
:1036C000823011F0843021F584E089831B830A83E2
:1036D00082E08093E9008FEF9091E800815095FDA2
:1036E00006C095ED9A95F1F700008111F5CF809114
:1036F000E80085FF0DC040E050E063E070E0CE01DF
:1037000001960E949F1D8091E8008E778093E800CB
:103710000F900F900F90DF91CF911F910F9108950F
:10372000CF93DF9300D01F92CDB7DEB72091DB019E
:10373000243031F523E02983805891099B838A83C3
:1037400082E08093E9008FEF9091E800815095FD31
:1037500006C095ED9A95F1F700008111F5CF8091A3
:10376000E80085FF0DC040E050E063E070E0CE016E
:1037700001960E949F1D8091E8008E778093E8005B
:103780000F900F900F90DF91CF910895CF93DF931B
:10379000EC010E94821D823011F0843039F581E005
:1037A0008093E9008FEF9091E800815095FD06C06D
:1037B00095ED9A95F1F700008111F5CF8091E80021
:1037C00085FF14C040E050E068E070E0CE010E9448
:1037D0009F1D8091E8008E778093E80088E0FE01CD
:1037E000A4ECB1E001900D928A95E1F7DF91CF91C1
:1037F00008958091DA01811109C00E94301F0E9452
:103800008D1F8091E20084608093E2000895109201
:10381000DA010895089508950C94921A42E061EC3B
:1038200081E00E94A91E42E261EC82E00C94A91E94
:103830008091DD01833009F460C030F4813071F093
:10384000823009F499C008958A3009F485C08B301C
:1038500009F46BC0893009F0A7C020C08091DC0159
:10386000813A09F0A1C08091E800877F8093E80049
:103870008091E0019091E101892B21F468E084ECD2
:1038800091E003C060E080E090E070E00E94EA1DFB
:103890008091E8008B778093E80008958091DC01A7
:1038A000813209F081C08091E0019091E10102979D
:1038B00008F07AC08091E800877F8093E8008091CB
:1038C000E80082FD05C08091DB018111F8CF6CC05A
:1038D0002091F3008091F20090E0922B029729F45E
:1038E0008091F1008B7F813021F48091F1008093F1
:1038F000CC018091E8008B7753C08091DC01813A44
:1039000009F052C08091E0019091E101892B09F00A
:103910004BC08091E800877F8093E8008091E800A9
:1039200080FFFCCF8091150136C08091DC0181328F
:10393000D9F58091E0019091E101892BA9F5809161
:10394000E800877F8093E8000E94DE1E8091DE0100
:10395000809315010C94C0128091DC01813221F515
:103960008091E800877F8093E8000E94DE1E8091AE
:10397000DF018093CD0108958091DC01813AA1F4AB
:103980008091E800877F8093E8008091E80080FFC5
:10399000FCCF8091CD018093F1008091E8008E777B
:1039A0008093E8000C94DE1E089584B7877F84BF5F
:1039B0000FB6F894A89580916000886180936000AC
:1039C000109260000FBE80E8809361001092610049
:1039D0000E94EB0D0E94301F0E948D1F8091E2001B
:1039E00084608093E20078940E9422220E94F10D6C
:1039F0008BE091E00E94930D8091DB01853069F4AA
:103A00000E94601A8091D9018823B1F30E94481A5C
:103A1000882391F30E94891DEFCF0E94F90DECCF0E
:103A20000C94121D292F332723303105C9F060F47F
:103A30002130310581F02230310509F04AC08BE395
:103A400090E020EA38E049C02132310511F12232FC
:103A5000310579F13EC082E190E02BED38E03DC0C8
:103A600099278130910561F040F08230910559F03D
:103A7000039779F5ECE6F8E008C0ECE9F8E005C05A
:103A8000EEE8F8E002C0E2E7F8E0849190E09F0100
:103A900024C06115710541F061307105D1F489E0F0
:103AA00090E02BEC38E019C089E090E022EB38E0A0
:103AB00014C06115710541F06130710551F486E360
:103AC00090E02DEE38E009C080E490E023E239E098
:103AD00004C080E090E020E030E0FA0131832083F0
:103AE00008950895CF93C82F0E94711DC093CE01F1
:103AF000CF9108958091DB01843011F081E0089529
:103B000082E008958091CE01811102C00C947A1D4B
:103B1000089580E189BD82E189BD09B400FEFDCF31
:103B20008091D8008F7D8093D8008091E0008260E2
:103B30008093E0008091E00081FDFCCF0895CF925A
:103B4000DF92EF92FF920F931F93CF93DF93EC01DD
:103B50008B017A010E94FD1E811133C0E114F10432
:103B600039F0F70180819181081B190BC80FD91F0B
:103B7000C12CD12C0115110519F18091E80085FDAA
:103B800016C08091E8008E778093E800E114F1047C
:103B900049F0F70180819181C80ED91ED182C0827F
:103BA00085E00FC00E94FD1E882321F30AC0899181
:103BB0008093F10001501109FFEFCF1ADF0ADACF2D
:103BC00080E0DF91CF911F910F91FF90EF90DF90F8
:103BD000CF9008952091E2013091E3012617370735
:103BE00048F06115710539F42091E8002E77209393
:103BF000E80001C0B901FC0120E06115710579F10F
:103C00008091DB018823F1F18530F1F18091E800AA
:103C100083FD3CC08091E80082FD2EC08091E800C9
:103C200080FFEBCF2091F3008091F20090E0922B87
:103C30006115710551F08830910538F42191209378
:103C4000F100615071090196F3CF21E0089709F066
:103C500020E08091E8008E778093E800CECF21119C
:103C6000CFCF0AC08091DB01882361F0853061F0FD
:103C70008091E80083FD0AC08091E80082FFF2CFC6
:103C800080E0089582E0089583E0089581E008953A
:103C90002091E2013091E3012617370748F06115C2
:103CA000710539F42091E8002E772093E80001C0D7
:103CB000B901FC0120E06115710591F18091DB01F2
:103CC000882309F440C0853009F43FC08091E800A2
:103CD00083FD3DC08091E80082FD2FC08091E80007
:103CE00080FFE9CF2091F3008091F20090E0922BC9
:103CF0006115710559F08830910540F424912093A5
:103D0000F1003196615071090196F2CF21E00897D8
:103D100009F020E08091E8008E778093E800CBCF17
:103D20002111CCCF0AC08091DB01882361F085305E
:103D300061F08091E80083FD0AC08091E80082FF75
:103D4000F2CF80E0089582E0089583E0089581E055
:103D50000895982F973068F59093E900981739F0F7
:103D60007091EC002091ED005091F00003C0242FE1
:103D7000762F50E021FD02C09F5FECCF3091EB0029
:103D80003E7F3093EB003091ED003D7F3093ED00AE
:103D90003091EB0031603093EB007093EC00209396
:103DA000ED005093F0002091EE0027FDE5CF80E07C
:103DB00008958F708093E90081E008958091DC017F
:103DC00087FF11C08091E80082FD05C08091DB0172
:103DD0008111F8CF11C08091E8008B770BC08091E2
:103DE000DB01882349F08091E80080FFF8CF8091C3
:103DF000E8008E778093E80008952091E4003091E8
:103E0000E50095E64091EC00842F817040FF23C0CF
:103E10008091E80080FD1DC08091DB01882399F02E
:103E2000853099F08091EB0085FD11C04091E40050
:103E30005091E5002417350729F3915011F09A01AC
:103E4000E1CF84E0089582E0089583E0089581E061
:103E5000089580E008954091E80042FFDDCF089585
:103E60000E949E1F0E94A61FE0EEF0E0808181600C
:103E70008083E8EDF0E080818F77808319BCA7ED27
:103E8000B0E08C918E7F8C9380818F7E80831092A6
:103E9000DA0108950F931F93CF93DF930E949E1F23
:103EA0000E94A61FC8EDD0E088818F778883888123
:103EB0008068888388818F7D888319BC1092DB019C
:103EC0001092D7011092D9011092D80100EE10E0A3
:103ED000F80180818B7F808388818160888342E0C4
:103EE00060E080E00E94A91EE1EEF0E080818E7F1C
:103EF0008083E2EEF0E08081816080838081886051
:103F00008083F80180818E7F8083888180618883AF
:103F1000DF91CF911F910F910895E8EDF0E080813E
:103F20008F7E8083E7EDF0E080818160808384E094
:103F300082BF81E08093DA010C944A1FE8EDF0E043
:103F400080818E7F80831092E20008951092DA00C3
:103F50001092E10008951F920F920FB60F92112454
:103F60002F933F934F935F936F937F938F939F9381
:103F7000AF93BF93EF93FF938091E10082FF0BC05B
:103F80008091E20082FF07C08091E1008B7F8093E7
:103F9000E1000E9421228091DA0080FF1FC0809101
:103FA000D80080FF1BC08091DA008E7F8093DA00FA
:103FB0008091D90080FF0DC080E189BD82E189BD7B
:103FC00009B400FEFDCF81E08093DB010E94F91B64
:103FD00005C019BC1092DB010E94071C8091E10012
:103FE00080FF19C08091E20080FF15C08091E2003F
:103FF0008E7F8093E2008091E20080618093E200F6
:104000008091D80080628093D80019BC85E08093AD
:10401000DB010E940B1C8091E10084FF30C0809185
:10402000E20084FF2CC080E189BD82E189BD09B432
:1040300000FEFDCF8091D8008F7D8093D8008091C5
:10404000E1008F7E8093E1008091E2008F7E80937B
:10405000E2008091E20081608093E2008091D701CC
:10406000882311F084E007C08091E30087FD02C03F
:1040700081E001C083E08093DB010E940C1C8091F1
:10408000E10083FF29C08091E20083FF25C0809179
:10409000E100877F8093E10082E08093DB01109252
:1040A000D7018091E1008E7F8093E1008091E20052
:1040B0008E7F8093E2008091E20080618093E20035
:1040C00042E060E080E00E94A91E8091F0008860DC
:1040D0008093F0000E940A1CFF91EF91BF91AF9175
:1040E0009F918F917F916F915F914F913F912F9110
:1040F0000F900FBE0F901F9018951F920F920FB642
:104100000F9211242F933F934F935F936F937F935D
:104110008F939F93AF93BF93CF93DF93EF93FF93CF
:10412000C091E900CF708091EC00D82FD17080FD54
:10413000D0E81092E9008091F000877F8093F00032
:1041400078940E94C1201092E9008091F00088606C
:104150008093F000CD2BCF70C093E900FF91EF91D9
:10416000DF91CF91BF91AF919F918F917F916F918F
:104170005F914F913F912F910F900FBE0F901F9025
:1041800018951F93CF93DF93CDB7DEB7AA970FB6DD
:10419000F894DEBF0FBECDBFECEDF1E08091F100F1
:1041A000819321E0E43EF207C9F70E94181C809138
:1041B000E80083FF2EC18091DC019091DD01492F41
:1041C00050E04A30510508F024C1FA01EC58FF4F85
:1041D0000C943D22803821F0823809F01AC108C0C1
:1041E0008091D8019091D901992389F082600FC004
:1041F0008091E0018F70873008F00BC18093E90057
:104200008091EB0085FB882780F91092E90090915E
:10421000E800977F9093E8008093F1001092F100FE
:10422000D1C0282F2D7F09F0F4C0882319F08230E7
:1042300061F0EFC08091DE01813009F0EAC0933077
:1042400009F080E08093D9012EC08091DE018111B8
:104250002AC08091E0018F702FEF280F263008F0E0
:10426000D8C08093E9002091EB0020FF1CC0933060
:1042700021F48091EB00806214C09091EB0090617A
:104280009093EB0021E030E0A90102C0440F551FDC
:104290008A95E2F74093EA001092EA008091EB00E1
:1042A00088608093EB001092E9008091E800877F9E
:1042B0008093E8000E94DE1EACC08111AAC010915C
:1042C000DE011F778091E3008078812B8093E300EB
:1042D0008091E800877F8093E8000E94DE1E809135
:1042E000E80080FFFCCF8091E30080688093E300CA
:1042F000111102C082E001C083E08093DB0189C01C
:104300008058823008F085C08091DE019091DF01F5
:104310008C3D53E0950779F583E08A838AE28983AF
:104320004FB7F894DE01139620E03EE051E2E32F10
:10433000F0E050935700E49120FF03C0E295EF7046
:104340003F5FEF708E2F90E0EA3010F0C79601C00B
:10435000C0968D939D932F5F243149F74FBF809175
:10436000E800877F8093E8006AE270E0CE01019662
:104370000E94EA1D16C06091E0017091E101AE015A
:104380004F5F5F4F0E94101DBC01892B09F441C093
:104390009091E800977F9093E80089819A810E942C
:1043A000481E8091E8008B778093E80032C0803807
:1043B00081F58091E800877F8093E8008091D701A4
:1043C0008093F1008091E8008E7772CF811121C037
:1043D0008091DE019091DF0199270297D4F48091BA
:1043E000E800877F8093E8008091DE018093D70109
:1043F0000E94DE1E8091D701811106C08091E300EA
:1044000087FD02C081E001C084E08093DB010E944F
:104410000E1C8091E80083FF0AC08091E800877F2E
:104420008093E8008091EB0080628093EB00AA9675
:104430000FB6F894DEBF0FBECDBFDF91CF911F91B5
:1044400008950895CF938091DB018823A1F0C09156
:10445000E900CF709091EC00892F817090FD80E889
:10446000C82B1092E9008091E80083FD0E94C120D2
:10447000CF70C093E900CF910895EE0FFF1F059014
:10448000F491E02D0994F999FECF92BD81BDF89A7F
:10449000992780B50895A8E1B0E042E050E00C947F
:1044A0007722262FF999FECF92BD81BDF89A019708
:1044B00000B4021639F01FBA20BD0FB6F894FA9A6C
:1044C000F99A0FBE08950396272F0E9452220E9448
:1044D0005122252F0E945222242F0C945222019601
:1044E000272F0E9452220C945122DC01CB01FC01A7
:1044F000F999FECF06C0F2BDE1BDF89A319600B43D
:0E4500000D9241505040B8F70895F894FFCF47
:10450E00013801003901043901B701511BC61B5492
:10451E001B901B551B0136323331F7F6F597C63417
:06452E0035000000000052
:00000001FF
