:100000000C9429090C9470090C9470090C947009D3
:100010000C9470090C9470090C9470090C9470097C
:100020000C9470090C9470090C9470090C944B2D6D
:100030000C94FA2D0C947E1F0C9470090C9470098A
:100040000C9470090C9470090C9470090C94F21FB4
:100050000C9470090C9470090C9470090C9470093C
:100060000C9470090C9470090C9470090C9470092C
:100070000C947009FE14FE14301530157D159B1577
:10008000F316F316DD15721683168316E316F316B0
:10009000F316EC16791779178B178B1782178B17B6
:1000A0008B178B177917791787178B178B1787176C
:1000B000672E8E2E862F8E2E862FDA2EFD2E862FE1
:1000C000542F632F290014001A0008001500170090
:1000D0001C0018000C00120013002F002A00000062
:1000E0002B0004001600070009000A000B000D0099
:1000F0000E000F00330028000000E1001D001B006F
:100100000600190005001100100036003700380005
:10011000E50000000000E0000000E300E200095DEF
:100120002C000A5DE60027000B5D000000000000C7
:1001300000000000000000000000000000000000BF
:1001400000000000000000000000000000000000AF
:10015000000000000000000000000000000000009F
:10016000000000000000000000000000000000008F
:10017000000000000000000000000000000000007F
:10018000000000000000000000000000000000006F
:10019000000000000000000000000000000000005F
:1001A000000000000000000000000000000000004F
:1001B000000000000000000000000000000000003F
:1001C000000000000000000000000000000000002F
:1001D000000000000000000000000000000000001F
:1001E000000000000000000000000000000000000F
:1001F00000000000000000000000000035001E00AC
:100200001F002000210022002300240025002600DA
:1002100027002D004C000000010001000100271202
:100220006402010024142512261227140100310053
:100230000000010001000100010001000100640054
:100240002514261464020100E500000000000100EE
:10025000010001000100010001000100E6000100B1
:100260000100000035021E021F02200221022202AC
:100270002302240225022602270201004C0000006E
:1002800001000100010001000100010050005100C7
:1002900052004F0001003102000001000100010086
:1002A0000100010001004A004E004B004D0001001A
:1002B0000100000000000100010001000100010038
:1002C0000100010001000100010000000000000029
:1002D000000000000000000000000000000000001E
:1002E000000000000000000000000000000000000E
:1002F00000000000000000000000000000000000FE
:1003000000000000000000000000000000000000ED
:10074000000000000100AC00AE00AB0001000100A1
:10075000010001000100010001000100005C000037
:100760000100A800AA00A900010001000100010089
:100770000100010001000100000001000100010072
:100780000100010001000100010001000100010061
:100790000100000000000100010001000100010053
:1007A0000100010001000100010000004445425524
:1007B000473A2064697361626C65642E0A0044459F
:1007C0004255473A20656E61626C65642E0A000AE4
:1007D000002530313662003A200025303258000AB8
:1007E000722F632030313233343536373839414255
:1007F000434445460A000A002530325820006B6504
:1008000079626F6172645F7265706F72743A200012
:100810000A0025303258006B6579626F6172645F3F
:100820007365745F6C65643A2000290A00257500C1
:100830002F002575005D2800256400200025640038
:10084000200025640020002564007C0025303258FB
:10085000006D6F7573656B6579205B62746E7C7873
:100860002079207620685D287265702F61636C297D
:100870003A205B006D6B5F776865656C5F74696DCE
:10088000655F746F5F6D6178203D2025640A006D9F
:100890006B5F776865656C5F6D61785F73706565C8
:1008A00064203D2025640A006D6B5F74696D655F8F
:1008B000746F5F6D6178203D2025640A006D6B5F69
:1008C0006D61785F7370656564203D2025640A0062
:1008D0006D6B5F696E74657276616C203D20256476
:1008E0000A006D6B5F64656C6179203D2025640AA8
:1008F000006D6B5F776865656C5F74696D655F74CB
:100900006F5F6D6178203D2025640A006D6B5F7715
:100910006865656C5F6D61785F7370656564203DC7
:100920002025640A006D6B5F74696D655F746F5F8D
:100930006D6178203D2025640A006D6B5F6D6178E4
:100940005F7370656564203D2025640A006D6B5FF0
:10095000696E74657276616C203D2025640A006DB5
:100960006B5F64656C6179203D2025640A000A0094
:10097000257500363A20776865656C5F74696D652A
:100980005F746F5F6D61783A20000A00257500354D
:100990003A20776865656C5F6D61785F7370656537
:1009A000643A20000A00257500343A2074696D65A8
:1009B0005F746F5F6D61783A20000A00257500331F
:1009C0003A206D61785F73706565643A20000A00B3
:1009D000257500323A20696E74657276616C286DF7
:1009E00073293A20000A00257500313A2064656CAD
:1009F0006179282A31306D73293A20000A092D20A7
:100A000056616C756573202D0A004D3E004D2564BE
:100A10003E20003F007365742064656661756C74E8
:100A20000A00433E200077686572652064656C7437
:100A3000613A20637572736F723D25642C2077686C
:100A400065656C3D25640A53656520687474703A69
:100A50002F2F656E2E77696B6970656469612E6FE3
:100A600072672F77696B692F4D6F7573655F6B6563
:100A700079730A000A092D204D6F7573656B6579CE
:100A8000202D0A4553432F713A09717569740A3153
:100A90003A0964656C6179282A31306D73290A320C
:100AA0003A09696E74657276616C286D73290A3330
:100AB0003A096D61785F73706565640A343A097448
:100AC000696D655F746F5F6D61780A353A097768A3
:100AD00065656C5F6D61785F73706565640A363A51
:100AE00009776865656C5F74696D655F746F5F6DCC
:100AF00061780A0A703A097072696E742076616CC6
:100B00007565730A643A0973657420646566617576
:100B10006C74730A75703A092B310A646F776E3AF8
:100B2000092D310A706775703A092B31300A7067E8
:100B3000646F776E3A092D31300A0A737065656407
:100B4000203D2064656C7461202A206D61785F739C
:100B500070656564202A2028726570656174202F95
:100B60002074696D655F746F5F6D6178290A003F5D
:100B7000004D3E2000433E20004C25640A0074696D
:100B80006D65725F72656164333228293A202530C1
:100B9000346C580A006B6579626F6172645F6964D6
:100BA0006C653A2025580A006B6579626F61726442
:100BB0005F70726F746F636F6C3A2025580A00681B
:100BC0006F73745F6B6579626F6172645F6C65648B
:100BD0007328293A2025580A000A092D20537461E8
:100BE000747573202D0A004743433A20352E342E66
:100BF00030204156522D4C4942433A20322E302E5D
:100C000030204156525F415243483A206176723358
:100C1000350A004F5054494F4E533A204C554641E7
:100C2000204D4F5553454B45592045585452414B43
:100C3000455920434F4E534F4C4520434F4D4D4156
:100C40004E4420343039360A004255494C443A204B
:100C5000223266313064302D646972747922202822
:100C600031373A33343A3530204A756E20203920F6
:100C700032303230290A005649443A20307846450D
:100C8000454428526F62696E29205049443A203009
:100C90007830303030286D696E696D2920564552A4
:100CA0003A203078303030310A00444553433A20FE
:100CB0004120637573746F6D206B6579626F61722B
:100CC000640A000A092D2056657273696F6E202D23
:100CD0000A000A092D20436F6E736F6C65202D0A80
:100CE0004553432F713A09717569740A6D3A096D5C
:100CF0006F7573656B65790A000A092D204D616770
:100D00006963202D0A443A094465627567204D6580
:100D1000737361676520546F67676C650A583A0999
:100D20004D6174726978204465627567204D6F6407
:100D30006520546F67676C65202D2053686F77209E
:100D40006B65797072657373657320696E206D6170
:100D50007472697820677269640A4B3A094B657945
:100D6000626F61726420446562756720546F6767C3
:100D70006C65202D2053686F77206B6579707265E4
:100D80007373207265706F72740A4D3A094465621C
:100D90007567204D6F75736520546F67676C650AC2
:100DA000563A0956657273696F6E0A533A0953745D
:100DB000617475730A433A094163746976617465B5
:100DC00020436F6E736F6C65204D6F64650A46310A
:100DD0002D4631303A0953776974636820746F2067
:100DE0004C6179657220302D392028463130203D04
:100DF000204C30290A302D393A09537769746368D9
:100E000020746F204C6179657220302D390A475269
:100E10004156453A0953776974636820746F204CD2
:100E20006179657220302028616C7465726E61741E
:100E300065290A423A094A756D7020746F20426F25
:100E40006F746C6F616465720A4553433A094A7561
:100E50006D7020746F20426F6F746C6F6164657287
:100E60002028616C7465726E617465290A453A09BF
:100E70005072696E7420454550524F4D2053657431
:100E800074696E67730A4253504143453A09436C93
:100E900065617220454550524F4D0A000A00257584
:100EA000002E6E6B726F3A20000A002575002E73BB
:100EB0007761705F6261636B736C6173685F6261BD
:100EC000636B73706163653A20000A002575002E1C
:100ED000737761705F67726176655F6573633A20EF
:100EE000000A002575002E6E6F5F6775693A200055
:100EF0000A002575002E737761705F72616C745FF4
:100F0000726775693A20000A002575002E737761B3
:100F1000705F6C616C745F6C6775693A20000A00E1
:100F20002575002E737761705F7263746C5F7267F2
:100F300075693A20000A002575002E737761705F8D
:100F40006C63746C5F6C6775693A20000A002575E4
:100F5000002E636170736C6F636B5F746F5F636FA0
:100F60006E74726F6C3A20000A002575002E73773C
:100F700061705F636F6E74726F6C5F636170736CCE
:100F80006F636B3A20000A0025303258006B657998
:100F90006D61705F636F6E6669672E7261773A206C
:100FA000000A002575002E6D6F7573653A20000AE2
:100FB000002575002E6B6579626F6172643A2000BE
:100FC0000A002575002E6D61747269783A20000A56
:100FD000002575002E656E61626C653A20000A007E
:100FE000253032580064656275675F636F6E6669AD
:100FF000672E7261773A20000A00257500646566E5
:1010000061756C745F6C617965723A20003F000A0B
:101010006D6F7573653A206F66660A000A6D6F75AD
:1010200073653A206F6E0A000A6B6579626F6172B0
:10103000643A206F66660A000A6B6579626F6172B6
:10104000643A206F6E0A000A6D61747269783A2002
:101050006F66660A000A6D61747269783A206F6E75
:101060000A000A64656275673A206F66660A000ABC
:1010700064656275673A206F6E0A000A0A4A756DE8
:1010800070696E6720746F20626F6F746C6F61643B
:1010900065722E2E2E2000433E2000436C65617247
:1010A000696E6720454550524F4D0A006565636F74
:1010B0006E6669673A0A005B735D004B6579626F23
:1010C0006172642073746172742E0A005B575D0054
:1010D0005B535D005B525D000403300000000C03B5
:1010E0006D0069006E0069006D0000000C03520085
:1010F0006F00620069006E00000004030904090229
:101100005B00030100A0FA090400000103010100D3
:101110000921110100012240000705810308000A8E
:10112000090401000103000000092111010001224E
:1011300085000705820320000A090402000203005B
:10114000000009211101000122220007058303206C
:101150000001070503032000011201100100000037
:1011600008EDFE00000100010203010631FF0974D1
:10117000A1010975150026FF009520750881020957
:1011800076150026FF00952075089102C00501091B
:1011900002A10185020901A100050919012905150E
:1011A00000250195057501810295017503810105F1
:1011B00001093009311581257F95027508810609DD
:1011C000381581257F950175088106050C0A3802BE
:1011D0001581257F950175088106C0C0050109802C
:1011E000A10185031A81002A83001601002603004D
:1011F000950175108100C0050C0901A10185041A33
:1012000001002A9C02160100269C0295017510819E
:1012100000C005010906A101050719E029E715002D
:101220002501950875018102950175088101050761
:10123000190029FF150026FF009506750881000595
:10124000081901290595057501910295017503910C
:1012500001C011241FBECFEFD4E0DEBFCDBF04B666
:1012600003FE27C08091080290910902A0910A0212
:10127000B0910B028730904BA740B04BD1F4109245
:1012800008021092090210920A0210920B0214BE78
:1012900084B7877F84BF0FB6F894A89580916000CB
:1012A000886180936000109260000FBEE0E0F8E378
:1012B000099511E0A0E0B1E0E2EAF0E602C0059095
:1012C0000D92AE33B107D9F722E0AEE3B1E001C031
:1012D0001D92A830B207E1F70E948A2A0C944F3081
:1012E0000C940000FF93EF93E0913E01F0913F01D9
:1012F000309709F00995EF91FF910895FC018591D0
:10130000803011F0EFDFFBCF0895FF27E0E230E2FD
:1013100047FF0CC0419597FF09C0EDE260957095BD
:1013200080959095611D711D811D911D27FF02C043
:10133000219530E350E2AA27660F771F881F991F77
:10134000AA1FA41710F0A41B63955A95A9F7AA30F9
:1013500008F0A95FA05DAF93F39561157105810554
:10136000910541F7ED3211F4EF93F395F21718F46C
:101370003F93F395FBCF8F91B5DFFA95E1F7089591
:10138000E991F9918591803021F0853219F0AADF39
:10139000F9CF089520E0E89455915532C1F35033C8
:1013A00011F4689455915A3348F4505390F3220F36
:1013B000022E220F220F200D250FF4CF0EF42195BF
:1013C00089919991533619F3533729F1533559F1CE
:1013D000BC0188279927E8945C3621F4899199917A
:1013E00068945591543639F446EF7EF077FF0DC07E
:1013F0008FEF9FEF0AC055374AE039F0583540E18A
:1014000021F0523642E009F00895FF93EF937DDF1B
:10141000EF91FF91B7CFFF93EF93FC018191803063
:10142000B9F360DFFBCFFF93EF9368DFF1CFDF937A
:10143000CF93CDB7DEB72596A3DFCF91DF91089587
:1014400008950895089581E0089581E008950C9429
:10145000250A1F93CF93DF9300D000D01F92CDB702
:10146000DEB749835A836B832091660189819A8113
:10147000211112C0662349F00E94E51C182F682F25
:1014800089819A810E94851C03C00E94B61C182F76
:1014900069817A81812F04C00E94E51C69817A816B
:1014A0000F900F900F900F900F90DF91CF911F91A1
:1014B0000C94530CFC0140815181628173818481C1
:1014C0000C94290A0E94411E811102C00E94E11E53
:1014D0000C940E0F0C94100F0C94220A81E00895C6
:1014E0000C946E0ACF93C82F0E946C0A8C2F0E9416
:1014F000700ACF91089508950E9467170E947B0A91
:101500002FEF84E39CE0215080409040E1F700C041
:1015100000000C9418200F931F93CF93DF938C013E
:101520000E945A0AEC01B8010E94270A882309F494
:10153000AFC1B801CE010E941411882309F4A8C1DB
:10154000C631FCE5DF0739F50E94661D982FF801CA
:1015500082812091000130910101882379F09A7AEB
:1015600081E009F480E080934001911102C069E2BA
:1015700001C065E3C9010E941B1F0AC080914001A0
:10158000811102C069E201C065E3C9010E941D1F0B
:101590000E94B41D7DC1C7318CE5D80708F04DC14C
:1015A000C130ECE5DE07D1F4F8018281882309F42B
:1015B0006FC18091D701C82FC095C170C0FB80F961
:1015C0008093D701CC2329F08EEB97E00E947E090F
:1015D0005FC18CEA97E00E947E095BC1C230FCE5E6
:1015E000DF0708F419C1F8018281882309F417C1C3
:1015F0000E94411E811102C00E94E11E0E94541EE1
:101600009093FA018093F901C031FCE5DF0709F4FA
:10161000C3C008F041C0C830ECE5DE0709F49AC049
:10162000F0F4C4308CE5D80709F487C068F4C23000
:10163000FCE5DF0709F477C0C330DC4509F0E3C0FF
:101640008091F901826076C0C630ECE5DE0709F4CE
:101650006EC008F07BC08091F90188606BC0CC300F
:101660008CE5D80709F485C068F4CA30FCE5DF07CB
:1016700009F474C008F079C00E9467178091F901DD
:10168000806858C0CE30ECE5DE0709F476C008F07B
:101690007FC08091F9018BC0CB3F8CE5D80709F45E
:1016A0004FC018F5C331FCE5DF0709F47DC078F4BD
:1016B000C131ECE5DE0709F473C0C231DC4509F045
:1016C000A2C00E9467178091F9018F7733C0C5319E
:1016D0008CE5D80709F472C008F486C0CA3FDC451F
:1016E00009F091C08091FA013EC0CF3F8CE5D80748
:1016F00009F45FC058F4CD3FFCE5DF0709F444C0AE
:1017000008F43FC08091FA0182602DC0C130EDE540
:10171000DE0709F475C008F45DC0C230DD4509F08C
:1017200072C080E06EC08091F901816003C0809139
:10173000F90180618093F90166C08091F90111C0BF
:101740008091FA0182608093FA015DC08091F90175
:101750008062F0CF8091F9018064ECCF8091F90133
:1017600088608460E7CF8160EECF8091F9018E7F41
:10177000E1CF8091F9018D7FDDCF8091F901877FE5
:10178000D9CF8091FA0118C08091FA018D7FDBCF0B
:101790008091F9018F7ECECF8091F9018F7DCACFE4
:1017A0008091F9018F7BC6CF8091F901877F8B7F74
:1017B000C1CF8091FA018D7F8E7FC5CF8091F901D5
:1017C00082FB222720F991E0922790FB82F990FB7F
:1017D00083F9B0CF8091FA01982F909591708E7F08
:1017E000892B90FB81F9AFCF0E9467178091F90197
:1017F00087FB222720F991E0922790FB87F99ACF67
:1018000081E00E94E31E8091F9019091FA010E940B
:10181000651E0E9467173CC0C115DC4539F0C80140
:10182000DF91CF911F910F910C94230AF8018281CF
:10183000882371F10E947C0A2BC0CE3DECE5DE07C7
:1018400039F4F8018281882319F10E94E11E20C039
:10185000CF3DFCE5DF07A8F4CC3D8CE5D80731F49B
:10186000F80182818823A1F080E008C0CD3DDC45ED
:10187000B1F6F8018281882359F082E00E94302B72
:1018800007C0CE018A5F9C45099708F4ACCEC7CF4C
:10189000C0E08C2FDF91CF911F910F91089580E0D0
:1018A00090E008950895382F262F872F90E06DE05F
:1018B00070E00E94C22FFC01832F90E064E370E08F
:1018C0000E94C22F8E0F9F1FFC01E20FF11DEE0F31
:1018D000FF1FEC53FF4F859194910895880F991F36
:1018E000FC01E153F84F859194910895CF93DF93D4
:1018F0000E94530C0E94370EEC018115904508F0B0
:1019000041C0C11580E4D80708F02DC1C83ED105FB
:1019100010F5C03ED10508F0A6C1C83AD10578F44B
:10192000C53AD10508F0A7C0C130D10509F49BC163
:1019300008F44CC1C430D10508F095C147C1CF3B74
:10194000D10508F4A3C0C03CD10508F43FC1CE01C5
:10195000805C9109FAC0C11590E2D90758F4C1150D
:1019600021E0D20708F07FC1C03FD10508F42EC1A5
:10197000D06579C1C11580E3D80708F0EAC0CE016F
:101980009F70E3C0C11595E5D90708F048C0C1159F
:1019900024E5D20708F000C1C11582E5D80720F57B
:1019A000C11591E5D90708F0E1C0CE01F4E09695A4
:1019B0008795FA95E1F7282F23703C2F337081E04B
:1019C00090E002C0880F991F3A95E2F79C68922B2D
:1019D000CF70C695C695D0E0A5E0CC0FDD1FAA95C7
:1019E000E1F7C82BD92B3FC19E01237033278C2FE1
:1019F00086958695C115D34508F0BDC0C1E0D0E0FD
:101A000002C0CC0FDD1F2A95E2F790E075E0880F49
:101A1000991F7A95E1F7C82BD92BDC6824C1C11531
:101A200029E5D207A0F4C11588E5D80708F0B9C0A8
:101A3000C11596E5D90708F0C9C08C2F0E94CB0EBE
:101A40008F71C82FD0E0DC2FCC27D0620CC1C1151C
:101A50002AE5D20708F4AAC0CE019056811590421B
:101A600008F0B4C08D2F8F710E94CB0EDD27D0629D
:101A70008F71D82BF8C0C53AD10509F4AAC0C63A6F
:101A8000D10509F0A9C0C2E8D0E4EDC0C83AD1053B
:101A900009F4A5C0C93AD10509F4A4C0CA3AD105D0
:101AA00009F4A3C0CB3AD10509F4A2C0CC3AD105C0
:101AB00009F4A1C0CB3BD10509F4A0C0CC3BD105B2
:101AC00009F49FC0CD3AD10509F49EC0C03BD105B1
:101AD00009F49DC0CE3AD10509F49CC0CF3AD10596
:101AE00009F49BC0C13BD10509F49AC0C23BD105A2
:101AF00009F499C0C33BD10509F498C0C43BD10592
:101B000009F497C0C53BD10509F496C0C63BD10581
:101B100009F495C0C73BD10509F494C0C83BD10571
:101B200009F493C0C93BD10509F492C0CD3BD1055E
:101B300009F491C0CE3BD10509F490C0CA3BD10550
:101B400009F48FC0C0E0D4E48EC00E946E0CEC019A
:101B50008AC0CE019927D3FF03C0EC01D86C83C0A3
:101B6000EC01D06C80C0DF70D06A7DC0DC2FCC2748
:101B7000C16FD06A78C0C1E0D0E002C0CC0FDD1FD9
:101B80002A95E2F790E065E0880F991F6A95E1F7E2
:101B9000C82BD92BDA6867C0DC2FCC27C46FD06A7A
:101BA00062C0DC2FCC27C06FD06A5DC08C2F8F70D5
:101BB0000E94CB0E94E0D695C7959A95E1F7CF7029
:101BC000D0E0DC2FCC27D069C82B4DC0C0E0D0E0DE
:101BD0004AC0C1E8D0E447C0C3E8D0E444C0C2EE84
:101BE000D4E441C0C9EED4E43EC0CAEED4E43BC064
:101BF000C5EBD4E438C0C6EBD4E435C0C3EBD4E4C1
:101C000032C0C4EBD4E42FC0C7EBD4E42CC0CCEC7E
:101C1000D4E429C0CDECD4E426C0C3E8D5E423C085
:101C2000CAE8D5E420C0C2E9D5E41DC0C4E9D5E4C2
:101C30001AC0C1E2D6E417C0C3E2D6E414C0C4E2BD
:101C4000D6E411C0C5E2D6E40EC0C6E2D6E40BC0AD
:101C5000C7E2D6E408C0CFE6D4E405C0C0E7D4E4C8
:101C600002C0CAE2D6E4CE01DF91CF910895823856
:101C7000910569F1B0F48133910509F46DC048F420
:101C80008932910509F463C08A32910509F469C06B
:101C900008958533910509F455C089339105B9F04C
:101CA0000895833E910569F138F4803E9105B1F0C5
:101CB000823E910509F10895863E9105A9F1873E7E
:101CC0009105B9F1843E910509F064C023C02091CB
:101CD000F90120FD4FC021FD4DC008958091F9010B
:101CE00080FD44C08091FA0180FF44C08091F901D9
:101CF00084FD42C083EE4DC08091F90182FF38C05F
:101D0000F5CF8091F90182FD33C08091FA0180FD09
:101D100031C0ECCF8091FA0181FF32C08091F9018E
:101D200084FD2AC087EE35C08091F90183FF26C06B
:101D3000F5CF8091F90183FD21C08091FA0181FDE9
:101D40001FC0ECCF8091F90185FD1CC01DC08091A2
:101D5000F90185FD19C016C08091F90186FD16C0F4
:101D600017C08091F90186FD13C010C089E311C02E
:101D700082EE0FC080EE0DC080E00BC086EE09C081
:101D800084EE07C089E205C085E303C08AE201C092
:101D900081E390E008959091F90192FF0DC0282F02
:101DA0002871283019F4877F846006C0282F247199
:101DB000243011F48B7F886093FF0DC0282F287189
:101DC000283119F4877E846106C0282F24712431BC
:101DD00011F48B7E88612091FA0120FF0DC0382F0D
:101DE0003871383019F4877F816006C0382F31711F
:101DF000313011F48E7F886021FF0DC0282F2871AB
:101E0000283119F4877E816106C0282F2171213184
:101E100011F48E7E886194FD877E08950C94200ACB
:101E20000C94210AE82FF0E0EE0FFF1FEF5BFE4F4E
:101E3000808191810895CF92DF92EF92FF920F936C
:101E40001F93CF93DF938FED97E00E947E0981E48B
:101E5000E82E81E0F82EC0E0D0E09AEDC92E97E0A0
:101E6000D92E01ED17E0DF93CF93DF92CF920E943E
:101E7000170A87ED97E00E947E09F7018191919101
:101E80007F010E942E1E9F938F931F930F930E949A
:101E9000170A8FEC97E00E947E0921968DB79EB7B6
:101EA00008960FB6F8949EBF0FBE8DBFC430D10503
:101EB000D1F6DF91CF911F910F91FF90EF90DF90BE
:101EC000CF900895CF93DF93A0E2B1E044E251E0D8
:101ED00061E070E08D91E82FE295EF70F0E021A1D4
:101EE0008F70EB0102C0CC0FDD1F8A95E2F7CE01A7
:101EF0009C2F9095922391A392A1892B82A34A179C
:101F00005B0741F7A3E1B1E041E050E08D91E82F9C
:101F1000E295EF70F0E021A18F70BA0102C0660F68
:101F2000771F8A95E2F7CB01962F9095922391A384
:101F300092A1892B82A371E0A032B70739F71092E2
:101F40004A011092490110924201109241011092EF
:101F50004C0110924B0110924401109243011092D7
:101F60004E0110924D0110924601109245011092BF
:101F7000500110924F01109248011092470184E0E5
:101F80000E946510DF91CF910C94620A3F924F92AC
:101F90005F926F927F928F929F92AF92BF92CF92F9
:101FA000DF92EF92FF920F931F93CF93DF9360E244
:101FB00071E0A9E4B1E021E5622E21E0722E412C0E
:101FC00001E010E05D018D909C90119711961C929C
:101FD0001E92EB018991BE01E82FE295EF70F0E0CF
:101FE00021A18F70A80102C0440F551F8A95E2F706
:101FF000CA01242B21A322A1342E3094232122A311
:1020000050EA5A95F1F793E1E92E91E0F92E40E07C
:1020100050E0E70159907E01252D22952F7030E088
:10202000E90128A1CD90DC90119730E0D52DDF702B
:1020300002C035952795DA95E2F720FD08C0980192
:10204000042E02C0220F331F0A94E2F702C020E0E0
:1020500030E0C22AD32A1196DC92CE924F5F5F4FB6
:102060004D305105B1F691A1D32DD923D1A392A121
:10207000892B82A3129681E0F501208131812815F8
:10208000390509F480E0482A6A167B0609F09ACFE0
:10209000242D44E061E471E089E491E00E9466103F
:1020A0000E946A0A842DDF91CF911F910F91FF90BA
:1020B000EF90DF90CF90BF90AF909F908F907F90E8
:1020C0006F905F904F903F9008950895FF920F9307
:1020D0001F93CF93DF93F82E092F162FD72FC42FDE
:1020E000222349F081E0809353010E94B01F909316
:1020F000520180935101809153018823D9F080913E
:102100005101909152010E94C81F069798F0EF2D3F
:10211000F02FA12FBD2F80E090E04C2F50E08417CE
:10212000950734F4219131912D933D930196F7CF8A
:1021300010925301DF91CF911F910F91FF9008955D
:102140000F931F93CF93DF93C62FD42F122FFC0131
:1021500082818823C9F0609356010E94B01F90933A
:1021600055018093540180E28C0F883008F057C0ED
:10217000C77081E001C0880FCA95EAF7DF91CF915F
:102180001F910F910C94BE1480915601681330C0BA
:1021900080915401909155010E94C81F883C91057F
:1021A00038F500E20D0FCD17B9F080E28C0F8830C2
:1021B00040F4C77081E001C0880FCA95EAF70E9419
:1021C000C514083028F581E09D2F977001C0880F55
:1021D0009A95EAF70E94BE14812F0E94AB14083032
:1021E000F0F4D77081E001C0880FDA95EAF70AC0F1
:1021F00080E28C0F883098F4C77081E001C0880FAE
:10220000CA95EAF7DF91CF911F910F910C94C514F5
:10221000812FDF91CF911F910F910C94AB14DF911F
:10222000CF911F910F9108959C01CB01233F4CE565
:102230003407F9F078F4283DFCE53F07B9F0293D73
:102240004CE5340711F1273D3C4531F526E241EEDE
:1022500061EE1EC0253FFCE53F0799F070F0263F78
:102260003C45D1F427E245EE66EE12C027E245EE8A
:102270000EC026E241EE60EE0BC027E245EE64EEB2
:1022800007C026E241EE62EE03C028E241E065EEBF
:102290000E94A01080E00895FC018281882319F03B
:1022A00010925601089581E0089590935C01809307
:1022B0005B010895E0915B01F0915C01309721F0A2
:1022C0000190F081E02D099480E00895EF92FF9253
:1022D0000F931F93CF93DF93E0915B01F0915C012B
:1022E0003097B1F18C010280F381E02D0995809146
:1022F000D70182FF2DC080FF04C08EEF97E00E94BF
:102300007E09E80118E088EFE82E87E0F82E80913A
:10231000D70180FF0BC088811F928F93FF92EF92AD
:102320000E94170A0F900F900F900F901150219656
:102330001111EDCF8091D70180FF0AC086EF97E0A1
:10234000DF91CF911F910F91FF90EF900C947E0938
:10235000DF91CF911F910F91FF90EF900895E09141
:102360005B01F0915C01309739F022E0DC012C93A5
:102370000480F581E02D0994089520915901309150
:102380005A012817390771F090935A018093590127
:10239000E0915B01F0915C01309721F00680F781BC
:1023A000E02D099408952091570130915801281784
:1023B000390771F09093580180935701E0915B01C8
:1023C000F0915C01309721F00084F185E02D0994B3
:1023D000089508950C94E9110C94EA110C94E911F4
:1023E0000C94E9110E94EE110C94EC1181E0089517
:1023F0000E94A71F0E94620F0E943C200C94F011C3
:10240000CF93C82F8091D70182FF1EC080FF04C0E8
:1024100087E198E00E947E098091D70180FF0CC07F
:102420001F92CF9382E198E09F938F930E94170AA7
:102430000F900F900F900F908091D70180FF04C0F4
:1024400080E198E00E947E098C2FCF910C94720A53
:102450005F926F927F928F929F92AF92BF92CF9234
:10246000DF92EF92FF920F931F93CF93DF93CDB73D
:10247000DEB72A970FB6F894DEBF0FBECDBF0E941D
:10248000C60F0E94F611811111C08FEF89838A83D4
:102490001B820E94B01F8160782F9D838C834981AD
:1024A0005A816B818D810E94E51256C09EE5692E8E
:1024B00091E0792E00E010E088248394912C502E36
:1024C000802F0E94120F6C01F301A190B1903F0187
:1024D000A826B926A114B10431F40F5F1F4F0430B0
:1024E000110569F7D2CF8091D70181FD0E941B0FA2
:1024F00080E090E07401082E02C0EE0CFF1C0A94EC
:10250000E2F795012E213F21232B09F18E835F8273
:10251000CE20DF2081E0CD2809F480E088870E946A
:10252000B01F8160782F9A8789874E815F81688587
:102530008A850E94E512000F111FF801E25AFE4F32
:1025400080819181E826F926F182E08205C001961A
:102550008D30910579F6C1CF0E9454220E945A1104
:1025600090915D018917D9F00E945A1180935D0105
:102570002A960FB6F894DEBF0FBECDBFDF91CF9184
:102580001F910F91FF90EF90DF90CF90BF90AF9091
:102590009F908F907F906F905F900C9400122A967E
:1025A0000FB6F894DEBF0FBECDBFDF91CF911F9164
:1025B0000F91FF90EF90DF90CF90BF90AF909F90E2
:1025C0008F907F906F905F900895CF93DF93CDB7FA
:1025D000DEB72B970FB6F894DEBF0FBECDBF4F838B
:1025E000588769877A878B87DE01119686E0FD011F
:1025F00011928A95E9F785E0FE01379601900D92D8
:102600008A95E1F749815A816B817C818D819E8118
:102610000E94451A2B960FB6F894DEBF0FBECDBFB1
:10262000DF91CF910895FC01808191810E94271D47
:102630000895CF93882309F424C1C82F8238C1F4A8
:102640000E945A1181FD1DC169E3809100019091A2
:1026500001010E941B1F0E94B41D2FEF81EE94E028
:10266000215080409040E1F700C0000069E319C0AC
:10267000833801F50E945A1180FD03C163E5809102
:102680000001909101010E941B1F0E94B41D2FEFB9
:1026900081EE94E0215080409040E1F700C00000BE
:1026A00063E580910001909101010E941D1FCF916F
:1026B0000C94B41D8438C1F40E945A1182FDE1C00B
:1026C00067E480910001909101010E941B1F0E940C
:1026D000B41D2FEF81EE94E0215080409040E1F74F
:1026E00000C0000067E4DDCF8CEF8C0F813A68F406
:1026F0008C2F0E94F2268111C4C06C2F80910001A2
:10270000909101010E941B1FD2CF80E28C0F883074
:1027100048F4C77081E001C0880FCA95EAF70E94AB
:10272000691DC5CF8BE58C0F833078F4C53A29F04D
:10273000C63A31F083E890E005C081E890E002C03D
:1027400082E890E0CF910C94BD1188E58C0F873121
:1027500008F08FC0C83A09F445C0C93A09F445C029
:10276000CA3A09F445C0CB3A09F445C0CC3A09F459
:1027700045C0CB3B09F445C0CC3B09F445C0CD3A3C
:1027800009F445C0C03B09F445C0CE3A09F445C040
:10279000CF3A09F445C0C13B09F445C0C23B09F436
:1027A00045C0C33B09F445C0C43B09F445C0C53B23
:1027B00009F445C0C63B09F445C0C73B09F445C010
:1027C000C83B09F445C0C93B09F445C0CD3B09F4F9
:1027D00045C0CE3B09F445C0CA3B09F445C080E082
:1027E00090E044C082EE90E041C089EE90E03EC0AF
:1027F0008AEE90E03BC085EB90E038C086EB90E03D
:1028000035C083EB90E032C084EB90E02FC087EBC3
:1028100090E02CC08CEC90E029C08DEC90E026C0BC
:1028200083E891E023C08AE891E020C082E991E04A
:102830001DC084E991E01AC081E292E017C083E2F2
:1028400092E014C084E292E011C085E292E00EC0F2
:1028500086E292E00BC087E292E008C08FE690E04B
:1028600005C080E790E002C08AE292E0CF910C942C
:10287000D311C03F30F08C2F0E94DA20CF910C94FE
:10288000C721CF910895882309F464C0823879F470
:102890000E945A1181FF5EC069E38091000190910E
:1028A00001010E941B1F0E94B41D69E310C0833800
:1028B000B1F40E945A1180FF4DC063E58091000180
:1028C000909101010E941B1F0E94B41D63E580913D
:1028D0000001909101010E941D1F0C94B41D8438C9
:1028E00079F40E945A1182FF35C067E4809100019B
:1028F000909101010E941B1F0E94B41D67E4E7CF65
:102900009CEF980F913A10F4682FE1CF90E2980F66
:10291000983050F4877091E001C0990F8A95EAF7DA
:10292000892F0E946F1DD9CF9BE5980F933020F41B
:1029300080E090E00C94BD1198E5980F973120F459
:1029400080E090E00C94D311803F20F00E9442215F
:102950000C94C7210895CF93C82F0E941913C9332F
:1029600049F42FEF87EE93E0215080409040E1F74B
:1029700000C000008C2FCF910C944314882321F0C9
:102980000E94691D0C94B41D0895882321F00E94B3
:102990006F1D0C94B41D0895CF92DF92EF92FF92B9
:1029A0000F931F93CF93DF937C01062FC72FFC015A
:1029B000158112951F70D281D1110E94861D0E942F
:1029C0005F1D882379F0DD2369F080E2800F883075
:1029D00048F082E00E94FE1D0E945F1D91E0D82E0B
:1029E000D92601C0D12CCC2EC2948FE0C8228C2DC8
:1029F00090E0FC01E65CFF4F0C94F32F8C2F807F5E
:102A0000CF70882311F0C295C07FDD2399F0CC23CD
:102A100009F4C4C180E2800F883010F0011104C0B5
:102A20008C2F0E94691D03C08C2F0E94791D0E946B
:102A3000B41DB4C1802F0E944314CC2309F4D3C128
:102A400080E2800F883010F0011104C08C2F0E94AA
:102A50006F1D03C08C2F0E947F1D0E94B41DC3C137
:102A60008C2F807FCF70803211F0C295C07F002301
:102A700019F00130C9F022C0DD2371F0112341F0BB
:102A8000113031F40E94991D8C2B0E94A11DABC105
:102A90000E94991D8C2B1DC0112319F0113009F4CF
:102AA000A2C10E94AA1D25C0DD2321F0163008F026
:102AB0009AC10EC0153008F096C11BC0DD2361F02D
:102AC000112331F0F701858180FF68C18F70858304
:102AD0008C2F0E94BE1487C1112359F0093309F0CD
:102AE0006EC1FFEF27EE83E0F15020408040E1F718
:102AF00064C18C2F0E94C51476C18C2F8695869553
:102B0000837019F0813061F06EC1DD2321F0802FD8
:102B10009C2F937002C080E090E00E94BD116BC1B9
:102B2000DD2321F0802F9C2F937002C080E090E085
:102B30000E94D31160C1DD23F9F0053F51F0063F3B
:102B400071F0043FA9F48091F3019091F401816048
:102B50000BC08091F3019091F401826005C08091D7
:102B6000F3019091F40184609093F4018093F30158
:102B7000802F0E94DA201EC0053F51F0063F71F001
:102B8000043FA9F48091F3019091F4018E7F0BC072
:102B90008091F3019091F4018D7F05C08091F30144
:102BA0009091F4018B7F9093F4018093F301802F37
:102BB0000E9442210E94C7211EC18C2F837009F000
:102BC00045C0D11114C1402F429546954770440F1E
:102BD000440F602F6F70862F90E0A0E0B0E0042ECD
:102BE00004C0880F991FAA1FBB1F0A94D2F704FFC5
:102BF00010C00FE010E020E030E004C0000F111F13
:102C0000221F331F4A95D2F70095109520953095D5
:102C100003C000E010E09801C695C695C370BC01E2
:102C2000CD01602B712B822B932BC23049F058F4CD
:102C3000C13019F00E949B1BDAC00E94891BD7C0CB
:102C40000E94AD1BD4C00E94871BD1C0DD2319F0A8
:102C50008C2F817001C08695882309F4C8C0402F4D
:102C6000429546954770440F440F602F6F70862F32
:102C700090E0A0E0B0E0042E04C0880F991FAA1FC6
:102C8000BB1F0A94D2F704FF10C00FE010E020E051
:102C900030E004C0000F111F221F331F4A95D2F7E6
:102CA000009510952095309503C000E010E0980144
:102CB000C695C695C370BC01CD01602B712B822BCC
:102CC000932BC23049F058F4C13019F00E94601CB7
:102CD0008EC00E944E1C8BC00E94721C88C00E9435
:102CE000C11B85C0CF70DD2339F08C2F0E94E71BFC
:102CF000802F0E94BE147BC0802F0E94C5148C2F91
:102D00000E94081C74C0023F01F128F4003F41F00A
:102D1000013FA1F03FC0033FF9F0043F39F13AC051
:102D2000DD2341F0153008F05EC08C2F8F710E94BA
:102D30002D1C59C0163008F056C0F7CFDD2339F0EE
:102D40008C2F8F710E94E71B4EC0DD23C9F38C2F9F
:102D50008F710E94081C47C0DD2329F08C2F8F71D2
:102D60000E94D21B40C00E94CD1B3DC0DD2349F014
:102D7000CF718C2F0E94E71B63E08C2F0E94E91D0E
:102D800032C081E00E94FE1D123068F182E00E9494
:102D9000FE1D29C0DD2331F0112391F2802F0E9406
:102DA000191321C0112399F2093349F49FEFE7EE7B
:102DB000F3E09150E040F040E1F700C00000802FC8
:102DC0000E94431410C04C2F4F70602FC7010E9407
:102DD0004F0C0E94F81A0FC04C2F4F70602FC70184
:102DE0000E94520C08C088EF8C0D843020F40E94A1
:102DF0005A110E94720ADD20C9F00E945B1D80FDFD
:102E000015C0F70112820E94551D0E94E71BC701E1
:102E10000E941F170E94551DDF91CF911F910F91A6
:102E2000FF90EF90DF90CF900C94081CDF91CF9132
:102E30001F910F91FF90EF90DF90CF9008950F9327
:102E40001F93CF93DF93EC01988189812B813C8183
:102E5000232B31F08F3F31F481E09F3F19F403C001
:102E600081E001C080E080FD13C0CE010E948B0A8A
:102E7000882371F0688179818A810E94321D8C01DA
:102E80000E94841C0E94751BB801CE010E94CC14C4
:102E9000DF91CF911F910F9108950E94861D0E948E
:102EA000961D0E94B41D0E94F6220E94C72180E058
:102EB00090E00E94BD1180E090E00C94D3118091CD
:102EC0000001909101010E941F1F0C944D170E9458
:102ED000761D0C945F17E92FE295EF704E2F50E0AE
:102EE000FA013297EE30F105B0F4E65BFF4F0C9437
:102EF000F32F803F91F018F4883E68F40EC0843FB1
:102F000051F40BC0883E48F0813F29F406C093FB82
:102F1000882780F9089580E0089581E008950E944F
:102F2000271D0E946B170895CF93DF9300D000D028
:102F30001F92CDB7DEB70F900F900F900F900F90AC
:102F4000DF91CF910895CF93DF9300D000D000D0D0
:102F5000CDB7DEB726960FB6F894DEBF0FBECDBF55
:102F6000DF91CF910895CF93DF93C0916701809156
:102F70006801C817A1F0D0E0CE0166E070E00E94C1
:102F8000C22FFC01E759FE4F40815181628173815C
:102F9000848195810E94A3172196C770E8CFDF91A5
:102FA000CF9108954091990150919A0160919B01B0
:102FB00070919C0180919D0190919E010C94A317AA
:102FC0001F93CF93DF9380919E0182958F7009F0BC
:102FD00066C080919B01882309F461C0209167013C
:102FE00010916801C0919901D0919A01E0919C01E2
:102FF000F0919D0181E0CF3F09F080E0482F21173B
:1030000009F44DC0309721F0DF3F21F080E003C08C
:1030100081E001C0842F30E080FD3DC0C90166E041
:1030200070E00E94C22FDC01A759BE4F11968C910F
:1030300011978D1330C08C918C132DC012968C91EA
:103040001297811128C013968D919C9114978E1719
:103050009F0708F401978E1B9F0B883C9105D8F4BD
:1030600080919E018F70806180939E01C90166E00E
:1030700070E00E94C22FFC01E259FE4F90819F70C8
:103080009061908389E991E00E941F17DF91CF91B1
:103090001F910C94B3172F5F3F4F2770B0CFDF9174
:1030A000CF911F910895AF92BF92CF92DF92EF928E
:1030B000FF920F931F93CF93DF93CDB7DEB7619746
:1030C0000FB6F894DEBF0FBECDBF8C0185E0F801CE
:1030D000DE011D9601900D928A95E1F7D8014C9181
:1030E00011962C9111971296EC9050919901609144
:1030F0009A0180919C0190919D01009731F06F3F62
:1031000031F431E05F3F19F403C031E001C030E039
:10311000B32FB170BB2E30FD65C1F801C380D480E0
:10312000A0909B01AA2009F4F2C030919E01C8161C
:10313000D90628F0D601A81BB90BCD0104C0809593
:1031400090958C0D9D1DFF24F394883C910588F08B
:10315000F12C307F09F0A0C07C2DD98AC88A522F6B
:103160006E2D89890E94941789E991E00E941F17AA
:1031700031C1832F807F09F057C0261314C0451337
:1031800012C0FE2CE1100FC03F70306130939E01E1
:103190000E94D21789E991E00E941F1780919E0139
:1031A000F801858360C1CD2831F02F3F31F481E0F3
:1031B0004F3F19F403C081E001C080E080FD03C0EF
:1031C00081E08E2502C080E090E0F82FF170FF2EA4
:1031D00080FF1FC0E091670130916801E31709F497
:1031E0001FC1F0E0CF0166E070E00E94C22FDC0159
:1031F000A759BE4F11968C911197281307C08C9137
:10320000481304C012968C91E81203C03196E770FF
:10321000E5CFFE2CEE2009F426C180919E0181604D
:1032200080939E01F12C1FC1261309C0451307C0CE
:10323000E11005C080919E01F8018583A5C04D87EE
:103240002E878D859E850E948F17882379F1EE2029
:1032500069F120919E01822F82958F7090E00297F4
:1032600074F08091990190919A0198878F831986C3
:10327000DB86CA862C87CE0107960E941F1786E040
:10328000F801A9E9B1E001900D928A95E1F70E9459
:10329000E0170E94D2170DC0261771F04D872E87B8
:1032A0008D859E850E948F1781111AC0C8010E94CA
:1032B0001F17FF24F394D7C04513F0CFE110EECFD2
:1032C00080919E01F8018583C8010E941F1786E046
:1032D000E9E9F1E0DF011D928A95E9F7FA2CC3C014
:1032E000EE2021F320919E01822F82958F7090E035
:1032F00002972CF28091990190919A019A83898387
:103300001B82DD82CC822E83CE010196B6CFC816F9
:10331000D90628F0F601E81BF90BCF0104C080950F
:1033200090958C0D9D1D883C910550F0F12C7C2DC5
:10333000D98AC88A522F6E2D89890E9494174AC053
:10334000FE2CEE2009F4B2CF261333C0451331C052
:1033500020919E0120FD24C0822F82958F70482FDE
:1033600050E041155105E1F0D80115962C931597C1
:103370004F30510549F08F5F982F9295907F822FA3
:103380008F70892B15968C93C8010E941F1786E0B9
:10339000F801A9E9B1E001900D928A95E1F73DC0ED
:1033A00086E0F801A9E9B1E001900D928A95E1F774
:1033B0005AC04D872E878D859E850E948F1781115B
:1033C0005ECF80919E01816080939E01C8010E9422
:1033D0001F1749C0E9E9F1E086E0DF011D928A95F7
:1033E000E9F71BC0EE2009F461CF4D872E878D854C
:1033F0009E850E948F17F82E882309F457CF86E008
:10340000F801A9E9B1E001900D928A95E1F789E907
:1034100091E00E9413130E94E0170E94D21723C06C
:103420004D872E878D859E850E94271D292F2295E9
:103430002F70223028F49F7039F0811105C00BC025
:10344000243028F49F7049F4805E883020F0C80151
:103450000E941F17BF2CFB2C06C0D80115969C910B
:10346000907F91F7F8CF8F2D61960FB6F894DEBF5D
:103470000FBECDBFDF91CF911F910F91FF90EF90C5
:10348000DF90CF90BF90AF900895CF93DF93CDB7EB
:10349000DEB72C970FB6F894DEBF0FBECDBF4F83BB
:1034A000588769877A878B879C87CE0107960E9409
:1034B00053188823D1F09F8188852A853B85232B4B
:1034C00031F08F3F31F481E09F3F19F403C081E078
:1034D00001C080E080FD6FC04F81588569857A8585
:1034E0008B859C850E94A31766C086E0FE013796F7
:1034F000DE01119601900D928A95E1F7FF81E88532
:103500006A857B856115710531F0EF3F31F481E00B
:10351000FF3F19F403C081E001C080E080FD4BC093
:103520008091680190E09C012F5F3F4F2770332707
:103530004091670150E02417350709F443C0F9832F
:10354000EA837D836C8366E070E00E94C22FDC0119
:10355000A759BE4F96E0FE01319601900D929A95C3
:10356000E1F7209368010E94B31725C090E066E060
:1035700070E00E94C22F87599E4F0E9453188823E3
:1035800071F18091670190E066E070E00E94C22FC7
:10359000FC01E759FE4F4081518162817381848132
:1035A00095810E94A3178091670190E00196877032
:1035B0009927809367018091670190916801891331
:1035C000D5CF0DC00E946717109268011092670155
:1035D000E9E9F1E086E0DF011D928A95E9F72C9692
:1035E0000FB6F894DEBF0FBECDBFDF91CF91089527
:1035F000EF92FF920F931F93CF93DF938C01892B50
:1036000009F46CC0F12CEE24E394E8012196F80152
:103610008491843740F4843008F051C0813081F0C7
:10362000823019F15BC0853709F444C0A8F19CE7EA
:10363000980F903708F052C08F770E94431441C012
:103640000E5F1F4FFE01849190E2980F983050F466
:103650008770FE2D01C0FF0F8A95EAF78F2F0E9419
:10366000891D14C00E9419132DC00E5F1F4FFE014B
:10367000849190E2980F983060F48770FE2D01C01D
:10368000FF0F8A95EAF78F2F0E948F1D0E94B41DAD
:1036900019C00E94431416C00E5F1F4FFE01C49153
:1036A000CC2381F08FE99FE00197F1F700C0000083
:1036B000C150F6CF0E5F1F4FFE01F49003C00E9471
:1036C00019138E018F2D882309F49FCFEFE9FFE0B6
:1036D0003197F1F700C000008150F5CFDF91CF9115
:1036E0001F910F91FF90EF900895089508950C9405
:1036F000761B0C94771B0E94791B6093C601709314
:10370000C7018093C8019093C9010C944D170C9484
:103710007B1B0F931F930091C6011091C70120914D
:10372000C8013091C901602B712B822B932B1F9103
:103730000F910C947B1B0F931F930091C601109166
:10374000C7012091C8013091C901602371238223F0
:1037500093231F910F910C947B1B0F931F93009148
:10376000C6011091C7012091C8013091C90160279D
:103770007127822793271F910F910C947B1B0C9428
:10378000761B0E94BF1B6093C2017093C30180939C
:10379000C4019093C5010C944D1760E070E0CB011B
:1037A0000C94C11B0F931F9341E050E060E070E068
:1037B0008A019B0104C0000F111F221F331F8A952D
:1037C000D2F7C901B8011F910F910C94C11B0F933F
:1037D0001F9341E050E060E070E004C0440F551FCB
:1037E000661F771F8A95D2F78091C2019091C3011D
:1037F000A091C401B091C5018A019B01082B192B2E
:103800002A2B3B2BC901B8011F910F910C94C11BAE
:103810000F931F9341E050E060E070E004C0440F5C
:10382000551F661F771F8A95D2F740955095609572
:1038300070958091C2019091C301A091C401B09193
:10384000C5018A019B01082319232A233B23C901AF
:10385000B8011F910F910C94C11B0F931F9341E06E
:1038600050E060E070E004C0440F551F661F771FF2
:103870008A95D2F78091C2019091C301A091C401B1
:10388000B091C5018A019B01082719272A273B27E8
:10389000C901B8011F910F910C94C11B0F931F9385
:1038A0000091C2011091C3012091C4013091C50162
:1038B000602B712B822B932B1F910F910C94C11BAA
:1038C0000F931F930091C2011091C3012091C40175
:1038D0003091C50160237123822393231F910F919F
:1038E0000C94C11B0F931F930091C2011091C3014F
:1038F0002091C4013091C501602771278227932749
:103900001F910F910C94C11B0895282F362F892FDA
:103910006DE00E94B92F820F982F9770A1E001C02F
:10392000AA0F9A95EAF786958695869590E065E0C8
:1039300070E00E94C22FFC01E156FE4F40E050E0D3
:10394000632F70E090819B01042E02C0369527956D
:103950000A94E2F72170219529272A232927219308
:103960004F5F5F4F4530510569F70895282F892F24
:103970006DE00E94B92F820FA82FA77086958695BB
:10398000869590E065E070E00E94C22FBC0140E0A7
:1039900050E080E0FB01E40FF51FE156FE4F20816F
:1039A00030E00A2E02C0369527950A94E2F721707E
:1039B0003327042E01C0220F0A94EAF7822B4F5FAF
:1039C0005F4F4530510531F70895BF92CF92DF9296
:1039D000EF92FF920F931F93CF93DF938C01C090D0
:1039E000C201D090C301E090C401F090C501809164
:1039F000C6019091C701A091C801B091C901C82A20
:103A0000D92AEA2AFB2ACFE1D0E0D701C6010C2E41
:103A100004C0B695A795979587950A94D2F780FD2F
:103A200004C0219790F7B12C07C0BC2EB8018C2F91
:103A30000E94760C0197A9F38B2DDF91CF911F91F6
:103A40000F91FF90EF90DF90CF90BF900895CF93AC
:103A5000DF93EC010E94E51CBE010E94760CDF9111
:103A6000CF9108951F93CF93DF93EB01909166015F
:103A7000992321F0CB010E94271D13C0882349F010
:103A8000CB010E94E51C182F682FCE010E94851CD7
:103A900004C0CB010E94B61C182FBE01812F0E94CA
:103AA000760CDF91CF911F9108958091CA01859581
:103AB0008595859508958091CA01877008959091A4
:103AC000CA01977081E009F480E008958091D601E1
:103AD00008959091D601892B8093D6010895809501
:103AE0009091D60189238093D60108951092D60132
:103AF00008959091D501892B8093D50108958095E3
:103B00009091D50189238093D50108951092D50114
:103B100008959091D401892B8093D40108958095C4
:103B20009091D40189238093D40108951092D401F7
:103B300008958091CB01089508950C949C1D0C94D8
:103B40009D1D9091CB01981721F08093CB010C948F
:103B50009F1D08958091CB01882329F01092CB01FD
:103B600080E00C949F1D0895E0910001F091010107
:103B70008091D6018083E0910001F0910101908154
:103B80008091D501892B8083E0910001F0910101A2
:103B900090818091D401892B80838091CB018823EF
:103BA00081F0E0910001F09101019081892B8083E7
:103BB00080910001909101010E94E81E81110E94F4
:103BC000AA1D80910001909101010C9466110C9442
:103BD0009C1D982F990F990F990F692B6093CA011B
:103BE0000E94E71B8091CA018595859585950C9467
:103BF000E71D1092CA0180E00C94E71D2091CA01D4
:103C0000809582238093CA01982F977079F430E0D1
:103C1000482F082E000C550B2417350739F08595D1
:103C2000859585950E94081C0C94F91D0895909324
:103C30003F0180933E0108958295982F9373292F19
:103C4000220F220F982F9C7C96959695922B892F68
:103C50008575880F9A7A9695892B0895CF93DF936F
:103C6000D92F0E941C1EC82F8D2F0E941C1E2C2F86
:103C700030E0322F2227A901482BCA01DF91CF91D2
:103C8000089580E090E00E94153021E08C3E9E4F28
:103C900009F020E0822F089582E090E00C940D302E
:103CA00083E090E00C940D30CF9384E090E00E948C
:103CB0000D30C82F81E290E00E940D302C2F30E0B3
:103CC000A901582BCA01CF910895CF93C92F682F0E
:103CD00084E090E00E941B306C2F81E290E0CF9155
:103CE0000C941B30AB01BC018FE090E00C942D30A4
:103CF000AB01BC0183E190E00C942D3060E070E0FA
:103D0000CB010C94781E60E070E0CB010E94721E23
:103D10000C947E1E6CEE7EEF80E090E00E943930C5
:103D200060E082E090E00E941B3060E083E090E081
:103D30000E941B301092C6011092C7011092C80158
:103D40001092C90160E084E090E00E941B3060E0C6
:103D500081E290E00E941B3060E085E090E00E94EC
:103D60001B3060E086E090E00E941B306FEF87E040
:103D700090E00E941B3040E050E0BA0188E090E003
:103D80000E942D3060E08DE090E00E941B3040E00A
:103D900050E0BA0188E190E00E942D3060E087E1B8
:103DA00090E00E941B3040E050E0BA018CE190E0CE
:103DB0000E942D3060E080E290E00E941B300C9465
:103DC000831E0C948A1E682F8EE090E00C941B30AA
:103DD000FC01329697E080E0915029F02191222356
:103DE000D9F38F5FF9CF08959C01FC0132969FEFC4
:103DF00080E04191461789F09F3F19F4411101C0BD
:103E0000982F8F5F8630A9F79F3F39F0F901E90FAE
:103E1000F11D97FDFA956283089508959C012A5F2C
:103E20003F4FFC014281461301C012820196821766
:103E30009307B9F708950C94F41E0C940E1F029684
:103E400026E0FC0111922A95E9F7089508950C9453
:103E5000261F0C94261FCF930E94291F0E94C60F75
:103E60000E94271FC0E08C2F0E94120F892B29F47B
:103E7000CF5FC430C1F780E001C081E0CF910895E9
:103E80000C94261F0C94401F0E94421F8091FF013A
:103E9000843049F11092D80120E488E190E00FB617
:103EA000F894A895809360000FBE2093600080E096
:103EB0000E94720A0E94421F83B7817F846083BF81
:103EC00083B7816083BF7894889583B78E7F83BFE3
:103ED0000FB6F894A8958091600088618093600087
:103EE000109260000FBE08950C94261F0E94671761
:103EF0000E945A110E94720A0C94741F1F920F9212
:103F00000FB60F9211248F939F93AF93BF9380911D
:103F1000D801811113C08091F5019091F601A09113
:103F2000F701B091F8014196A11DB11D8093F501F3
:103F30009093F601A093F701B093F801BF91AF9170
:103F40009F918F910F900FBE0F901F90189582E058
:103F500084BD93E095BD9AEF97BD80936E00089560
:103F60002FB7F8948091F5019091F601A091F70197
:103F7000B091F8012FBF08952FB7F8946091F50123
:103F80007091F6018091F7019091F8012FBF08958B
:103F9000CF92DF92EF92FF920F931F932FB7F89477
:103FA0004091F5015091F6016091F7017091F8018F
:103FB0002FBF6A017B01EE24FF248C0120E030E05A
:103FC000C016D106E206F30610F4415051099A01D9
:103FD000281B390BC9011F910F91FF90EF90DF90C3
:103FE000CF90089578941F920F920FB60F921124DC
:103FF0008F939F93AF93BF938091F5019091F601BA
:10400000A091F701B091F8010196A11DB11D809317
:10401000F5019093F601A093F701B093F801BF91D9
:10402000AF919F918F910F900FBE0F901F90189599
:1040300081E08093E00080E28093D8001092C90074
:104040008FE19EE40197F1F700C0000087E090EB5C
:10405000DC018093080290930902A0930A02B093B6
:104060000B029CE088E10FB6F894A895809360005D
:104070000FBE90936000FFCF0E94411E811102C0CD
:104080000E94E11E0E944C1E8093D7010E94541E84
:104090009093FA018093F9010E94501E682F70E0FE
:1040A00080E090E00C94871B8091DC0180FF0CC0C5
:1040B0008091050190E065E070E00E94C22F959527
:1040C0008795959587952EC081FF0AC0809105013F
:1040D00090E065E070E00E94C22F9595879522C020
:1040E00082FF08C08091050190E065E070E00E94C9
:1040F000C22F18C02091DB012223D9F03091040196
:10410000231780F78091050190E065E070E00E9440
:10411000C22F622F70E00E94C22F632F70E00E94B6
:10412000DF2FCB018038910538F4009739F481E016
:1041300005C085E090E008958FE708950895809187
:10414000DC0180FF08C06091030170E07595679500
:104150007595679523C081FF06C06091030170E0EB
:10416000759567951BC082FF04C06091030170E0E4
:1041700012C06091DB016623A9F020910201621751
:10418000A0F78091030170E090E00E94C22F622F9F
:1041900070E00E94DF2F6038710540F461157105F1
:1041A00019F406C061E070E0862F08958FE7089546
:1041B00081E00895803F21F40E945420819504C03D
:1041C000813F29F40E9454208093E0010895823FAA
:1041D00021F40E945420819504C0833F29F40E9459
:1041E00054208093DF010895893F19F40E949F2095
:1041F00005C08A3F31F40E949F2081958093E101A0
:1042000008958B3F21F40E949F20819504C08C3F2C
:1042100029F40E949F208093E2010895843F21F4B5
:104220008091DE01816017C0853F21F48091DE011D
:10423000826011C0863F21F48091DE0184600BC052
:10424000873F21F48091DE01886005C0883F31F40A
:104250008091DE0180618093DE0108958D3F21F41D
:104260008091DC0181600BC08E3F21F48091DC01E4
:10427000826005C08F3F29F48091DC0184608093C7
:10428000DC010895803F39F48091E00187FF6CC024
:104290001092E00169C0813F29F48091E001181675
:1042A000BCF362C09091DF01823F29F497FF5CC0AC
:1042B0001092DF0159C0833F19F41916CCF354C092
:1042C000893F41F48091E10118160CF04DC0109225
:1042D000E1014AC08A3F29F48091E10187FF44C08F
:1042E000F6CF8B3F39F48091E20187FF3DC01092F9
:1042F000E2013AC08C3F29F48091E2011816BCF328
:1043000033C0843F21F48091DE018E7F17C0853F4A
:1043100021F48091DE018D7F11C0863F21F48091D0
:10432000DE018B7F0BC0873F21F48091DE01877F08
:1043300005C0883F31F48091DE018F7E8093DE01DD
:1043400013C08D3F21F48091DC018E7F0BC08E3F26
:1043500021F48091DC018D7F05C08F3F29F480918D
:10436000DC018B7F8093DC018091DF0181110EC025
:104370008091E00181110AC08091E101811106C0A4
:104380008091E201811102C01092DB0108958091B9
:10439000D70183FF7EC081E598E00E947E0980916D
:1043A000DE011F928F938CE498E09F938F930E947D
:1043B000170A8AE498E00E947E098091DF01282F85
:1043C000082E000C330B3F938F9387E498E09F9364
:1043D0008F930E94170A85E498E00E947E098091DD
:1043E000E001282F082E000C330B3F938F9382E4BB
:1043F00098E09F938F930E94170A80E498E00E94B0
:104400007E098091E101282F082E000C330B3F9389
:104410008F938DE398E09F938F930E94170A8BE30D
:1044200098E00E947E098091E201282F082E000C5E
:10443000330B3F938F9388E398E09F938F930E9471
:10444000170A85E398E00E947E098091DB011F92A4
:104450008F9382E398E09F938F930E94170A80E3E3
:1044600098E00E947E098091DC011F928F938DE27B
:1044700098E09F938F930E94170A8AE298E00E9427
:104480007E098DB79EB74C960FB6F8949EBF0FBEAF
:104490008DBF8DED91E00E94AF110E94B01F9093EF
:1044A000DA018093D90108951F93CF93DF93809110
:1044B000D9019091DA010E94C81FFC012091DB0113
:1044C000222321F08091060190E007C0809107012E
:1044D00090E06AE070E00E94C22FE817F90708F444
:1044E00081C08091DF01C091E001D091E101109184
:1044F000E201811107C0C11171C0D1116FC011114A
:104500006DC070C02F3F19F02F5F2093DB0118168C
:1045100024F40E9454208093DF018091DF0187FF03
:1045200005C00E94542081958093DF011C1624F45D
:104530000E9454208093E0018091E00187FF05C034
:104540000E94542081958093E0018091DF018823AF
:1045500011F12091E0012223F1F0082E000C990BBB
:1045600065EB70E00E94C22F992319F09093DF0150
:1045700003C081E08093DF01822F220F990B65EB4E
:1045800070E00E94C22F992319F09093E00103C0BC
:1045900081E08093E0011D1624F40E949F20809307
:1045A000E1018091E10187FF05C00E949F20819574
:1045B0008093E101111624F40E949F208093E20170
:1045C0008091E20187FF05C00E949F208195809322
:1045D000E201DF91CF911F910C94C7212F3F09F089
:1045E00093CFA4CFDF91CF911F910895EDEDF1E02E
:1045F00086E0DF011D928A95E9F71092DB011092A7
:10460000DC01089584E79AE00E947E091F9281E010
:104610008F931F9285E08F9386E29AE09F938F930A
:104620000E94170A0F900F900F900F900F900F900D
:1046300008958330E9F128F4813061F0823009F186
:104640000895853009F462C008F449C0863009F441
:1046500074C0089580910701262F30E0280F311D86
:104660002F3F310524F4680F6093070103C08FEFDB
:1046700080930701809107011F928F938FE599E046
:1046800072C080910601262F30E0280F311D2F3F88
:10469000310524F4680F6093060103C08FEF809307
:1046A0000601809106011F928F938DE499E05BC013
:1046B00080910501262F30E0280F311D2F3F310555
:1046C00024F4680F6093050103C08FEF8093050108
:1046D000809105011F928F938AE399E044C08091F5
:1046E0000401262F30E0280F311D2F3F310524F41F
:1046F000680F6093040103C08FEF809304018091E1
:1047000004011F928F9385E299E02DC080910301EF
:10471000262F30E0280F311D2F3F310524F4680F7C
:104720006093030103C08FEF809303018091030125
:104730001F928F938CE099E016C080910201262F82
:1047400030E0280F311D2F3F310524F4680F6093AE
:10475000020103C08FEF80930201809102011F923A
:104760008F9381EF98E09F938F930E94170A0F9089
:104770000F900F900F900895833081F128F48130CD
:1047800059F08230D1F00895853009F449C0B8F16C
:10479000863009F456C0089580910701681720F407
:1047A000861B8093070102C01092070180910701C8
:1047B0001F928F9382EE98E054C080910601681793
:1047C00020F4861B8093060102C01092060180919E
:1047D00006011F928F9380ED98E043C08091050100
:1047E000681720F4861B8093050102C01092050112
:1047F000809105011F928F938DEB98E032C08091DC
:104800000401681720F4861B8093040102C01092F3
:104810000401809104011F928F9388EA98E021C0DF
:1048200080910301681720F4861B8093030102C066
:1048300010920301809103011F928F938FE898E0FB
:1048400010C080910201681720F4861B809302013A
:1048500002C010920201809102011F928F9384E79F
:1048600098E09F938F930E94170A0F900F900F90DC
:104870000F900895CF93C82F1F928F9389E79BE0E5
:104880009F938F930E94170A81E090E0A0E0B0E030
:10489000BC01CD0104C0660F771F881F991FCA9500
:1048A000D2F70E94871B0F900F900F900F90CF911F
:1048B0000C946717CF93DF938B3109F4F9C108F09B
:1048C0008FC18B3009F4B2C108F065C1863009F49C
:1048D000B0C120F4853009F4BEC16CC2873009F440
:1048E000CCC1883009F066C28CEA90E10E947E0952
:1048F0008DEF9FE00E947E090E94501E1F928F93B1
:104900008AEF9FE09F938F930E94170A88EF9FE0A2
:104910000E947E090E944C1EC82F85EE9FE00E94D7
:104920007E091F92CF9380EE9FE09F938F930E940A
:10493000170A8EED9FE00E947E0984ED9FE00E94A1
:104940007E098C2F81701F928F9381ED9FE09F9342
:104950008F930E94170A8FEC9FE00E947E0985ECDE
:104960009FE00E947E09C1FB882780F91F928F93E8
:1049700082EC9FE09F938F930E94170A80EC9FE048
:104980000E947E0984EB9FE00E947E09C2FB88277B
:1049900080F91F928F9381EB9FE09F938F930E94EA
:1049A000170A8FEA9FE00E947E0986EA9FE00E9434
:1049B0007E09C3FBCC27C0F91F92CF9383EA9FE007
:1049C0009F938F930E94170A81EA9FE00E947E09BD
:1049D0000E94541EEC018DE89FE00E947E09DF9347
:1049E000CF9388E89FE09F938F930E94170A86E8F1
:1049F0009FE00E947E098DE69FE00E947E098C2F39
:104A000081701F928F938AE69FE09F938F930E94FD
:104A1000170A8DB79EB780960FB6F8949EBF0FBE4B
:104A20008DBF88E69FE00E947E0981E59FE00E949D
:104A30007E09C1FB882780F91F928F938EE49FE047
:104A40009F938F930E94170A8CE49FE00E947E0937
:104A50008AE39FE00E947E098D2F81701F928F93C1
:104A600087E39FE09F938F930E94170A85E39FE05F
:104A70000E947E0983E29FE00E947E09D695D17054
:104A80001F92DF9380E29FE09F938F930E94170A0B
:104A90008EE19FE00E947E098CE09FE00E947E09EB
:104AA000C2FB882780F91F928F9389E09FE09F9334
:104AB0008F930E94170A87E09FE00E947E0985EF8E
:104AC0009EE00E947E09C3FB882780F91F928F9386
:104AD00082EF9EE09F938F930E94170A80EF9EE0E3
:104AE0000E947E0986EE9EE00E947E09C4FB882714
:104AF00080F91F928F9383EE9EE09F938F930E9485
:104B0000170A81EE9EE00E947E098FEC9EE00E94D3
:104B10007E09C5FB882780F91F928F938CEC9EE05D
:104B20009F938F930E94170A8AEC9EE00E947E0951
:104B30008EEA9EE00E947E09C6FB882780F91F92BC
:104B40008F938BEA9EE09F938F930E94170A8DB7F5
:104B50009EB780960FB6F8949EBF0FBE8DBF89EAB0
:104B60009EE00E947E0981EA9EE00E947E09C7FBCA
:104B7000CC27C0F91F92CF938EE99EE09F938F932D
:104B80000E94170A8CE99EE00E947E090F900F9008
:104B90000F900F9049C0803109F4B4C020F48E30DA
:104BA00009F49AC007C1863109F4C7C0893109F0F8
:104BB00001C183EC9CE00E947E098AEA9CE00E948D
:104BC0007E0987E79CE00E947E0989E49CE00E94C0
:104BD0007E0983E19CE00E947E0987EE9BE08FC006
:104BE0008A32E1F060F4873209F4E0C028F48E31B3
:104BF00008F4E0C08D51DBC0893269F1DBC0833439
:104C000048F48A3308F0D0C0853309F4CFC0883324
:104C100069F0D0C0833409F4C9C0CCC08BE990E1FD
:104C20000E947E090E94E11EC1E0C9C089EF9CE09C
:104C300066C08091D701817F8E7F8093D70182EDFE
:104C40009CE00E947E0987E990E10E947E0981E054
:104C50008093E401E9CF0E9467178BE790E10E94FF
:104C60007E099FEF23ED80E3915020408040E1F7E3
:104C700000C000000E941820D7CF8091D701C82F14
:104C8000C095C170C0FB80F98093D701CC2329F077
:104C90008FE690E10E947E0992C082E690E10E9438
:104CA0007E098091D701897F877F8093D701BCCF10
:104CB0009091D70191FBCC27C0F981E0C827892FBB
:104CC000C0FB81F98093D701CC2319F085E590E1F1
:104CD00029C087E490E113C09091D70192FBCC27C3
:104CE000C0F981E0C827892FC0FB82F98093D701E2
:104CF000CC2319F088E390E115C088E290E10E948E
:104D00007E0992CF9091D70193FBCC27C0F981E027
:104D1000C827892FC0FB83F98093D701CC2351F09A
:104D20008CE190E10E947E098091D701816080939F
:104D3000D70145C08FE090E1E2CF89ED9BE00E9472
:104D40007E090E945A111F928F938FEB9BE09F93D5
:104D50008F930E94170A809112011F928F9388EA05
:104D60009BE09F938F930E94170A8091F1011F92FD
:104D70008F9385E99BE09F938F930E94170A0E946F
:104D8000BC1F9F938F937F936F938EE79BE09F93BE
:104D90008F930E94170A8DB79EB742960FB6F8946C
:104DA0009EBF0FBE8DBF40CF895301C080E00E94DF
:104DB0003A243ACF8DE090E10E947E09C0E08C2F2A
:104DC000DF91CF91089580E008950C94E3268E51F1
:104DD0008A3030F4E82FF0E0EC5DFE4F80810895DA
:104DE00080E00895CF93C82F8091E401813059F07D
:104DF00020F0823009F445C039C10E94661D82321C
:104E000009F036C104C00E94661D823261F48C2F05
:104E10000E94E526811104C08C2F0E945A242FC0C5
:104E200081E090E02CC08C2F0E94E326811126C0E7
:104E3000C431E1F070F4CB3081F0C031D1F40E9484
:104E4000022381E79BE00E947E0982E08093E401D7
:104E500015C0C93259F0C83361F482ED9CE00E945C
:104E60007E0985E79BE00E947E0908C01092E4015C
:104E700001C18FE69BE00E947E09FCC081E0817049
:104E8000FBC0C43228F5CE3108F0C1C0CB30A1F14F
:104E9000D0F4C73009F0D0C08EE18093070182E3DF
:104EA000809306018AE08093050184E180930401E8
:104EB00088E08093030188E28093020185E19AE013
:104EC0000E947E09BCC0C33149F1C431C1F0B4C0F5
:104ED000CB3409F4A6C028F4C93289F0C83361F094
:104EE000ABC0C13509F49BC0C23509F496C0CE34BD
:104EF00009F0A2C06AE09BC00E940223A0C080917A
:104F0000E301882319F01092E30199C082E29AE04C
:104F10000E947E0981E08093E401AEC08CEF99E0AD
:104F20000E947E098AEE99E00E947E098091070125
:104F30001F928F9387EE99E09F938F930E94170A99
:104F400085EE99E00E947E0983ED99E00E947E093A
:104F5000809106011F928F9380ED99E09F938F932C
:104F60000E94170A8EEC99E00E947E098FEB99E06F
:104F70000E947E09809105011F928F938CEB99E02E
:104F80009F938F930E94170A8AEB99E00E947E09F3
:104F900089EA99E00E947E09809104011F928F9313
:104FA00086EA99E09F938F930E94170A84EA99E01A
:104FB0000E947E098FE899E00E947E09809103019A
:104FC0001F928F938CE899E09F938F930E94170A0A
:104FD0008AE899E00E947E0983E799E00E947E09B1
:104FE000809102011F928F9380E799E09F938F93A6
:104FF0000E94170A8EE699E00E947E098DB79EB73F
:1050000048960FB6F8949EBF0FBE8DBF18C08C2F68
:105010000E94E7268093E30112C061E003C061E0D3
:1050200006C06AE08091E3010E94192308C08091C4
:10503000E3010E94BC2303C083E19AE013C0809186
:10504000E301882369F01F928F938DE09AE09F938C
:105050008F930E94170A0F900F900F900F9004C02B
:105060008AE09AE00E947E0981E006C01092E40185
:1050700080E002C080E003CFCF9108958091F001DD
:1050800008959FB7F8941092E7019FBF9091FF0198
:10509000943009F057C09091E9009F703091EC0076
:1050A000232F217030FD20E8922B23E02093E9008C
:1050B0002091EB0020FF43C02091EE0027FF3FC06E
:1050C0002091E501222321F02091E80025FF37C03F
:1050D0001092E50126E03091E80035FD15C03091D1
:1050E000FF01343061F53091EB0035FD28C02150CF
:1050F00021F481E08093E50122C0EFE9FFE03197E0
:10510000F1F700C00000E7CF8093F1008091E80044
:1051100085FD0AC08091E80080FFFCCF8091E80007
:105120008E778093E80006C08FB7F89421E0209333
:10513000E7018FBF9F709093E90080E008959F7012
:105140009093E9008FEF08950F931F93CF93DF9310
:1051500000D01F92CDB7DEB78C010E94402B823069
:1051600011F0843021F584E089831B830A8382E077
:105170008093E9008FEF9091E800815095FD06C083
:1051800095ED9A95F1F700008111F5CF8091E80037
:1051900085FF0DC040E050E063E070E0CE01019675
:1051A0000E945D2B8091E8008E778093E8000F903D
:1051B0000F900F90DF91CF911F910F910895CF9392
:1051C000DF9300D01F92CDB7DEB72091FF012430CE
:1051D00031F523E02983805891099B838A8382E0FB
:1051E0008093E9008FEF9091E800815095FD06C013
:1051F00095ED9A95F1F700008111F5CF8091E800C7
:1052000085FF0DC040E050E063E070E0CE01019604
:105210000E945D2B8091E8008E778093E8000F90CC
:105220000F900F90DF91CF910895CF93DF93EC0112
:105230000E94402B823011F08430F9F482E0809398
:10524000E9008FEF9091E800815095FD06C095ED43
:105250009A95F1F700008111F5CF8091E80085FF64
:105260000CC040E050E066E070E0CE010E945D2B93
:105270008091E8008E778093E800DF91CF910895C8
:10528000CF93DF93EC010E94402B823011F08430E9
:1052900039F581E08093E9008FEF9091E80081502B
:1052A00095FD06C095ED9A95F1F700008111F5CFB7
:1052B0008091E80085FF14C040E050E068E070E0B5
:1052C000CE010E945D2B8091E8008E778093E800EC
:1052D00088E0FE01A8EEB1E001900D928A95E1F719
:1052E000DF91CF91089584ED90E10C947E0980EDDB
:1052F00090E10C947E098CEC90E10E947E090C9464
:10530000761F2091E6012F5F822F62E30E94D32F48
:10531000992319F02093E60108951092E6018091F7
:10532000E701882371F18091FF01843041F580917C
:10533000E9008F702091EC00922F917020FD90E891
:10534000892B93E09093E9009091EB0090FF14C0BB
:105350009091EE0097FF10C09091E80095FF03C078
:105360001092F100F9CF9091E80090FF05C0909164
:10537000E8009E779093E8008F708093E900109288
:10538000E701089542E061EC81E00E94612C42E275
:1053900061EC82E00E94612C42E261EC83E00C94BB
:1053A000612C80910102833009F45CC030F48130BB
:1053B00071F0823009F495C008958A3009F481C0F3
:1053C0008B3009F467C0893009F0A3C020C08091F8
:1053D0000002813A09F09DC08091E800877F8093A8
:1053E000E8008091040290910502892B21F468E085
:1053F00088EE91E003C060E080E090E070E00E9401
:10540000A82B8091E8008B778093E8000895809125
:105410000002813209F07DC0809104029091050262
:10542000029708F076C08091E800877F8093E800BB
:105430008091E80082FD05C08091FF018111F8CFC5
:1054400068C08091F200823029F48091F1008B7F56
:10545000813021F48091F1008093F0018091E80087
:105460008B7753C080910002813A09F052C080913D
:10547000040290910502892B09F04BC08091E8004D
:10548000877F8093E8008091E80080FFFCCF8091C7
:10549000120136C0809100028132D9F58091040258
:1054A00090910502892BA9F58091E800877F809370
:1054B000E8000E94962C80910202809312010C94C5
:1054C000671780910002813221F58091E800877F83
:1054D0008093E8000E94962C809103028093F10152
:1054E000089580910002813AA1F48091E800877FBD
:1054F0008093E8008091E80080FFFCCF8091F1016B
:105500008093F1008091E8008E778093E8000C94FE
:10551000962C089584B7877F84BF0FB6F894A8951A
:1055200080916000886180936000109260000FBEDF
:1055300080E880936100109261000E94F2110E9445
:10554000E82C0E943B2D8091E20084608093E20071
:1055500081E498E20E94171E78940E949E2F0E9478
:10556000F81188E091E00E9455118BEB90E10E94C8
:105570007E098091FF01853089F487EB90E10E94DC
:105580007E090E94441F8091FD01882391F30E94AF
:105590002B1F882371F30E94472BEBCF0E94281208
:1055A000E8CF0C94D32A292F332723303105C9F0B3
:1055B00060F42130310581F02230310509F047C017
:1055C0008BE590E02EEF30E146C02132310511F13C
:1055D0002232310561F13BC082E190E029E531E101
:1055E0003AC099278130910561F040F082309105F1
:1055F00059F0039761F5E8EDF0E108C0EAEFF0E15A
:1056000005C0ECEEF0E102C0EEEDF0E1849190E037
:105610009F0121C063307105D0F4660F771FFB0135
:10562000E95CFE4F2081318189E090E014C0633055
:10563000710568F4FB01EE0FFF1FEF5CFE4F208148
:105640003181FB01E25DFE4F808190E004C080E08B
:1056500090E020E030E0FA0131832083089508953E
:10566000CF93C82F0E942F2BC093F201CF910895A2
:105670008091FF01843011F081E0089582E0089567
:105680008091F201811102C00C94382B089584E0BE
:1056900089BD86E089BD09B400FEFDCF8091D800A8
:1056A0008F7D8093D8008091E00082608093E0003D
:1056B0008091E00081FDFCCF0895CF92DF92EF92C0
:1056C000FF920F931F93CF93DF93EC018B017A012D
:1056D0000E94B52C811133C0E114F10439F0F701B7
:1056E00080819181081B190BC80FD91FC12CD12CA7
:1056F0000115110519F18091E80085FD16C0809112
:10570000E8008E778093E800E114F10449F0F70196
:1057100080819181C80ED91ED182C08285E00FC0E0
:105720000E94B52C882321F30AC089918093F1004F
:1057300001501109FFEFCF1ADF0ADACF80E0DF91C5
:10574000CF911F910F91FF90EF90DF90CF90089530
:1057500020910602309107022617370748F061159D
:10576000710539F42091E8002E772093E80001C0FC
:10577000B901FC0120E06115710561F18091FF0123
:105780008823D9F18530D9F18091E80083FD39C0B3
:105790008091E80082FD2BC08091E80080FFEBCF74
:1057A0008091F20090E06115710551F0883091050B
:1057B00038F421912093F100615071090196F3CFE3
:1057C00021E0089709F020E08091E8008E7780932F
:1057D000E800D1CF2111D2CF0AC08091FF018823E8
:1057E00061F0853061F08091E80083FD0AC080910E
:1057F000E80082FFF2CF80E0089582E0089583E020
:10580000089581E00895209106023091070226173D
:10581000370748F06115710539F42091E8002E77BB
:105820002093E80001C0B901FC0120E06115710579
:1058300079F18091FF01882309F43DC0853009F496
:105840003CC08091E80083FD3AC08091E80082FD71
:105850002CC08091E80080FFE9CF8091F20090E0B9
:105860006115710559F08830910540F42491209319
:10587000F1003196615071090196F2CF21E008974D
:1058800009F020E08091E8008E778093E800CECF89
:105890002111CFCF0AC08091FF01882361F08530AC
:1058A00061F08091E80083FD0AC08091E80082FFEA
:1058B000F2CF80E0089582E0089583E0089581E0CA
:1058C0000895982F953068F59093E900981739F06E
:1058D0007091EC002091ED005091F00003C0242F56
:1058E000762F50E021FD02C09F5FECCF3091EB009E
:1058F0003E7F3093EB003091ED003D7F3093ED0023
:105900003091EB0031603093EB007093EC0020930A
:10591000ED005093F0002091EE0027FDE5CF80E0F0
:1059200008958F708093E90081E0089580910002CE
:1059300087FF11C08091E80082FD05C08091FF01C2
:105940008111F8CF11C08091E8008B770BC0809156
:10595000FF01882349F08091E80080FFF8CF809113
:10596000E8008E778093E80008952091E40030915C
:10597000E50095E64091EC00842F817040FF23C044
:105980008091E80080FD1DC08091FF01882399F07F
:10599000853099F08091EB0085FD11C04091E400C5
:1059A0005091E5002417350729F3915011F09A0121
:1059B000E1CF84E0089582E0089583E0089581E0D6
:1059C000089580E008954091E80042FFDDCF0895FA
:1059D0000E94452D0E94482DE0EEF0E0808181601C
:1059E0008083E8EDF0E080818F77808319BCE3E667
:1059F000F0E08081816080831092FE0108950E9412
:105A0000452D0E94482D8091D8008F778093D80033
:105A10008091D80080688093D8008091D8008F7DD5
:105A20008093D80084E089BD86E089BD09B400FE7A
:105A3000FDCF1092FF011092FB011092FD01109218
:105A4000FC0142E060E080E00E94612C8091E10076
:105A50008E7F8093E1008091E20081608093E2007C
:105A60008091E20088608093E2008091E0008E7F68
:105A70008093E0000895E3E6F0E080818E7F8083EC
:105A800081E08093FE010C94FF2C1092E2000895B7
:105A90001092E10008951F920F920FB60F921124F9
:105AA0002F933F934F935F936F937F938F939F9326
:105AB000AF93BF93EF93FF938091E10082FF0BC000
:105AC0008091E20082FF07C08091E1008B7F80938C
:105AD000E1000E9481298091E10080FF19C080913E
:105AE000E20080FF15C08091E2008E7F8093E2008B
:105AF0008091E20080618093E2008091D800806212
:105B00008093D80019BC85E08093FF010E9477291B
:105B10008091E10084FF30C08091E20084FF2CC0BE
:105B200084E089BD86E089BD09B400FEFDCF809187
:105B3000D8008F7D8093D8008091E1008F7E809384
:105B4000E1008091E2008F7E8093E2008091E2008C
:105B500081608093E2008091FB01882311F084E052
:105B600007C08091E30087FD02C081E001C083E0AF
:105B70008093FF010E947B298091E10083FF29C06F
:105B80008091E20083FF25C08091E100877F8093B0
:105B9000E10082E08093FF011092FB018091E1001F
:105BA0008E7F8093E1008091E2008E7F8093E200FF
:105BB0008091E20080618093E20042E060E080E05A
:105BC0000E94612C8091F00088608093F0000E9418
:105BD0007329FF91EF91BF91AF919F918F917F9129
:105BE0006F915F914F913F912F910F900FBE0F904A
:105BF0001F9018951F920F920FB60F9211242F939A
:105C00003F934F935F936F937F938F939F93AF9344
:105C1000BF93CF93DF93EF93FF93C091E900CF70D1
:105C20008091EC00D82FD17080FDD0E81092E9006F
:105C30008091F000877F8093F00078940E943E2E40
:105C40001092E9008091F00088608093F000CD2BE5
:105C5000CF70C093E900FF91EF91DF91CF91BF9199
:105C6000AF919F918F917F916F915F914F913F91F4
:105C70002F910F900FBE0F901F9018951F93CF93E9
:105C8000DF93CDB7DEB7AA970FB6F894DEBF0FBE8D
:105C9000CDBFE0E0F2E08091F100819322E0E830B6
:105CA000F207C9F70E94D1298091E80083FF2EC135
:105CB0008091000290910102492F50E04A30510535
:105CC00008F024C1FA01E85AFF4F0C94F32F8038F2
:105CD00021F0823809F01AC108C08091FC0190912E
:105CE000FD01992389F082600FC0809104028F70BA
:105CF000853008F00BC18093E9008091EB0085FBB3
:105D0000882780F91092E9009091E800977F90939E
:105D1000E8008093F1001092F100D1C0282F2D7F70
:105D200009F0F4C0882319F0823061F0EFC080914F
:105D30000202813009F0EAC0933009F080E08093DC
:105D4000FD012EC08091020281112AC080910402BF
:105D50008F702FEF280F243008F0D8C08093E9000F
:105D60002091EB0020FF1CC0933021F48091EB00C8
:105D7000806214C09091EB0090619093EB0021E061
:105D800030E0A90102C0440F551F8A95E2F7409305
:105D9000EA001092EA008091EB0088608093EB00AB
:105DA0001092E9008091E800877F8093E8000E94CC
:105DB000962CACC08111AAC0109102021F7780916D
:105DC000E3008078812B8093E3008091E800877F57
:105DD0008093E8000E94962C8091E80080FFFCCF21
:105DE0008091E30080688093E300111102C082E09B
:105DF00001C083E08093FF0189C08058823008F0A1
:105E000085C080910202909103028C3D53E095077A
:105E100079F583E08A838AE289834FB7F894DE01BB
:105E2000139620E03EE051E2E32FF0E0509357005C
:105E3000E49120FF03C0E295EF703F5FEF708E2F7B
:105E400090E0EA3010F0C79601C0C0968D939D9304
:105E50002F5F243149F74FBF8091E800877F8093FF
:105E6000E8006AE270E0CE0101960E94A82B16C0FD
:105E70006091040270910502AE014F5F5F4F0E9476
:105E8000D12ABC01892B09F441C09091E800977F89
:105E90009093E80089819A810E94032C8091E80008
:105EA0008B778093E80032C0803881F58091E800DC
:105EB000877F8093E8008091FB018093F1008091BF
:105EC000E8008E7772CF811121C0809102029091FB
:105ED000030299270297D4F48091E800877F80938A
:105EE000E800809102028093FB010E94962C809131
:105EF000FB01811106C08091E30087FD02C081E0B3
:105F000001C084E08093FF010E94C2298091E800D3
