:100000000C94E10D0C94280E0C94280E0C94280EE0
:100010000C94280E0C94280E0C94280E0C94280E88
:100020000C94280E0C94280E0C94280E0C94A031DD
:100030000C9451320C9406240C94280E0C94280E27
:100040000C94280E0C94280E0C94280E0C947824F2
:100050000C94280E0C94280E0C94280E0C94280E48
:100060000C94280E0C94280E0C94280E0C94280E38
:100070000C94280E290014001A000800150017001F
:100080001C0018000C00120013002F002A000000B2
:100090002B0004001600070009000A000B000D00E9
:1000A0000E000F00330028000000E1001D001B00BF
:1000B0000600190005001100100036003700380056
:1000C000E50000000000E0000C5DE300E200095DD7
:1000D0002C000A5DE60027000B5D00000000000018
:1000E0000000000000000000000000000000000010
:1000F0000000000000000000000000000000000000
:1001000000000000000000000000000000000000EF
:1001100000000000000000000000000000000000DF
:1001200000000000000000000000000000000000CF
:1001300000000000000000000000000000000000BF
:1001400000000000000000000000000000000000AF
:10015000000000000000000000000000000000009F
:10016000000000000000000000000000000000008F
:10017000000000000000000000000000000000007F
:10018000000000000000000000000000000000006F
:10019000000000000000000000000000000000005F
:1001A0000000000000000000000000003500010019
:1001B000010001000100010001000100271264029A
:1001C0000100010001000000010001000100010028
:1001D0000100010024142512261227140100010039
:1001E00000000100010001000100010001006400A5
:1001F0002514261464020100010000000000010023
:1002000001000100010001000100010001000100E6
:100210000100000035021E021F02200221022202FC
:100220002302240225022602270201004C000000BE
:100230000100010001000100010001005000510017
:1002400052004F00010031020000010001000100D6
:100250000100010001004A004E004B004D0001006A
:100260000100000000000100010001000100010088
:100270000100010001000100010000000000000079
:10028000000000000000000000000000000000006E
:10029000000000000000000000000000000000005E
:1002A000000000000000000000000000000000004E
:1002B000000000000000000000000000000000003E
:1006F000000000000100AC00AE00AB0001000100F2
:10070000010001000100010001000100005C000087
:100710000100A800AA00A9000100010001000100D9
:1007200001000100010001000000010001000100C2
:1007300001000100010001000100010001000100B1
:1007400001000000000001000100010001000100A3
:100750000100010001000100010000000000000094
:100760000000000000000000000000000000000089
:100770000000000000000000000000000000000079
:100780000000000000000000000000000000000069
:100790000000000000000000000000000000000059
:1010B0000000000027000100010001000100010004
:1010C0000100010001000100010001000100000019
:1010D0000100010001000100010001000100010008
:1010E00001000100010001000000010001000100F9
:1010F00001000100010001000100010001000100E8
:1011000001000000000001000100010001000100D9
:1011100001000100010001000100000044454255AA
:10112000473A2064697361626C65642E0A00444525
:101130004255473A20656E61626C65642E0A000A6A
:10114000002530313662003A200025303258000A3E
:10115000722F6320303132333435363738394142DB
:10116000434445460A000A002530325820006B658A
:1011700079626F6172645F7265706F72743A200099
:101180000A0025303258006B6579626F6172645FC6
:101190007365745F6C65643A2000290A0025750048
:1011A0002F002575005D28002564002000256400BF
:1011B000200025640020002564007C002530325882
:1011C000006D6F7573656B6579205B62746E7C78FA
:1011D0002079207620685D287265702F61636C2904
:1011E0003A205B006D6B5F776865656C5F74696D55
:1011F000655F746F5F6D6178203D2025640A006D26
:101200006B5F776865656C5F6D61785F737065654E
:1012100064203D2025640A006D6B5F74696D655F15
:10122000746F5F6D6178203D2025640A006D6B5FEF
:101230006D61785F7370656564203D2025640A00E8
:101240006D6B5F696E74657276616C203D202564FC
:101250000A006D6B5F64656C6179203D2025640A2E
:10126000006D6B5F776865656C5F74696D655F7451
:101270006F5F6D6178203D2025640A006D6B5F779C
:101280006865656C5F6D61785F7370656564203D4E
:101290002025640A006D6B5F74696D655F746F5F14
:1012A0006D6178203D2025640A006D6B5F6D61786B
:1012B0005F7370656564203D2025640A006D6B5F77
:1012C000696E74657276616C203D2025640A006D3C
:1012D0006B5F64656C6179203D2025640A000A001B
:1012E000257500363A20776865656C5F74696D65B1
:1012F0005F746F5F6D61783A20000A0025750035D4
:101300003A20776865656C5F6D61785F73706565BD
:10131000643A20000A00257500343A2074696D652E
:101320005F746F5F6D61783A20000A0025750033A5
:101330003A206D61785F73706565643A20000A0039
:10134000257500323A20696E74657276616C286D7D
:1013500073293A20000A00257500313A2064656C33
:101360006179282A31306D73293A20000A092D202D
:1013700056616C756573202D0A004D3E004D256445
:101380003E20003F007365742064656661756C746F
:101390000A00433E200077686572652064656C74BE
:1013A000613A20637572736F723D25642C207768F3
:1013B00065656C3D25640A53656520687474703AF0
:1013C0002F2F656E2E77696B6970656469612E6F6A
:1013D00072672F77696B692F4D6F7573655F6B65EA
:1013E00079730A000A092D204D6F7573656B657955
:1013F000202D0A4553432F713A09717569740A31DA
:101400003A0964656C6179282A31306D73290A3292
:101410003A09696E74657276616C286D73290A33B6
:101420003A096D61785F73706565640A343A0974CE
:10143000696D655F746F5F6D61780A353A09776829
:1014400065656C5F6D61785F73706565640A363AD7
:1014500009776865656C5F74696D655F746F5F6D52
:1014600061780A0A703A097072696E742076616C4C
:101470007565730A643A09736574206465666175FD
:101480006C74730A75703A092B310A646F776E3A7F
:10149000092D310A706775703A092B31300A70676F
:1014A000646F776E3A092D31300A0A73706565648E
:1014B000203D2064656C7461202A206D61785F7323
:1014C00070656564202A2028726570656174202F1C
:1014D0002074696D655F746F5F6D6178290A003FE4
:1014E000004D3E2000433E20004C25640A007469F4
:1014F0006D65725F72656164333228293A20253048
:10150000346C580A006B6579626F6172645F69645C
:101510006C653A2025580A006B6579626F617264C8
:101520005F70726F746F636F6C3A2025580A0068A1
:101530006F73745F6B6579626F6172645F6C656411
:101540007328293A2025580A000A092D205374616E
:10155000747573202D0A004743433A20382E342EE9
:1015600030204156522D4C4942433A20322E302EE3
:1015700030204156525F415243483A2061767233DF
:10158000350A004F5054494F4E533A204C5546416E
:10159000204D4F5553454B45592045585452414BCA
:1015A000455920434F4E534F4C4520434F4D4D41DD
:1015B0004E4420343039360A004255494C443A20D2
:1015C000223837306538322D6469727479222028C8
:1015D00032333A31323A3238204A756E2020382080
:1015E00032303230290A005649443A203078464594
:1015F000454428526F62696E29205049443A203090
:101600007830303030286D696E696D29205645522A
:101610003A203078303030310A00444553433A2084
:101620004120637573746F6D206B6579626F6172B1
:10163000640A000A092D2056657273696F6E202DA9
:101640000A000A092D20436F6E736F6C65202D0A06
:101650004553432F713A09717569740A6D3A096DE2
:101660006F7573656B65790A000A092D204D6167F6
:101670006963202D0A443A094465627567204D6507
:10168000737361676520546F67676C650A583A0920
:101690004D6174726978204465627567204D6F648E
:1016A0006520546F67676C65202D2053686F772025
:1016B0006B65797072657373657320696E206D61F7
:1016C0007472697820677269640A4B3A094B6579CC
:1016D000626F61726420446562756720546F67674A
:1016E0006C65202D2053686F77206B65797072656B
:1016F0007373207265706F72740A4D3A09446562A3
:101700007567204D6F75736520546F67676C650A48
:10171000563A0956657273696F6E0A533A095374E3
:10172000617475730A433A0941637469766174653B
:1017300020436F6E736F6C65204D6F64650A463190
:101740002D4631303A0953776974636820746F20ED
:101750004C6179657220302D392028463130203D8A
:10176000204C30290A302D393A095377697463685F
:1017700020746F204C6179657220302D390A4752F0
:101780004156453A0953776974636820746F204C59
:101790006179657220302028616C7465726E6174A5
:1017A00065290A423A094A756D7020746F20426FAC
:1017B0006F746C6F616465720A4553433A094A75E8
:1017C0006D7020746F20426F6F746C6F616465720E
:1017D0002028616C7465726E617465290A453A0946
:1017E0005072696E7420454550524F4D20536574B8
:1017F00074696E67730A4253504143453A09436C1A
:1018000065617220454550524F4D0A000A0025750A
:10181000002E6E6B726F3A20000A002575002E7341
:101820007761705F6261636B736C6173685F626143
:10183000636B73706163653A20000A002575002EA2
:10184000737761705F67726176655F6573633A2075
:10185000000A002575002E6E6F5F6775693A2000DB
:101860000A002575002E737761705F72616C745F7A
:10187000726775693A20000A002575002E7377613A
:10188000705F6C616C745F6C6775693A20000A0068
:101890002575002E737761705F7263746C5F726779
:1018A00075693A20000A002575002E737761705F14
:1018B0006C63746C5F6C6775693A20000A0025756B
:1018C000002E636170736C6F636B5F746F5F636F27
:1018D0006E74726F6C3A20000A002575002E7377C3
:1018E00061705F636F6E74726F6C5F636170736C55
:1018F0006F636B3A20000A0025303258006B65791F
:101900006D61705F636F6E6669672E7261773A20F2
:10191000000A002575002E6D6F7573653A20000A68
:10192000002575002E6B6579626F6172643A200044
:101930000A002575002E6D61747269783A20000ADC
:10194000002575002E656E61626C653A20000A0004
:10195000253032580064656275675F636F6E666933
:10196000672E7261773A20000A002575006465666B
:1019700061756C745F6C617965723A20003F000A92
:101980006D6F7573653A206F66660A000A6D6F7534
:1019900073653A206F6E0A000A6B6579626F617237
:1019A000643A206F66660A000A6B6579626F61723D
:1019B000643A206F6E0A000A6D61747269783A2089
:1019C0006F66660A000A6D61747269783A206F6EFC
:1019D0000A000A64656275673A206F66660A000A43
:1019E00064656275673A206F6E0A000A0A4A756D6F
:1019F00070696E6720746F20626F6F746C6F6164C2
:101A000065722E2E2E2000433E2000436C656172CD
:101A1000696E6720454550524F4D0A006565636FFA
:101A20006E6669673A0A005B735D004B6579626FA9
:101A30006172642073746172742E0A005B575D00DA
:101A40005B535D005B525D000403300000000C033B
:101A50006D0069006E0069006D0000000C0352000B
:101A60006F00620069006E000000040309040902AF
:101A70005B00030100A0FA0904000001030101005A
:101A80000921110100012240000705810308000A15
:101A900009040100010300000009211101000122D5
:101AA00085000705820320000A09040200020300E2
:101AB00000000921110100012222000705830320F3
:101AC00000010705030320000112011001000000BE
:101AD00008EDFE00000100010203010631FF097458
:101AE000A1010975150026FF0095207508810209DE
:101AF00076150026FF00952075089102C0050109A2
:101B000002A10185020901A1000509190129051594
:101B10000025019505750181029501750381010577
:101B200001093009311581257F9502750881060963
:101B3000381581257F950175088106050C0A380244
:101B40001581257F950175088106C0C005010980B2
:101B5000A10185031A81002A8300160100260300D3
:101B6000950175108100C0050C0901A10185041AB9
:101B700001002A9C02160100269C02950175108125
:101B800000C005010906A101050719E029E71500B4
:101B900025019508750181029501750881010507E8
:101BA000190029FF150026FF00950675088100051C
:101BB0000819012905950575019102950175039193
:101BC00001C011241FBECFEFD4E0DEBFCDBF04B6ED
:101BD00003FE27C08091080290910902A0910A0299
:101BE000B0910B028730904BA740B04BD1F41092CC
:101BF00008021092090210920A0210920B0214BEFF
:101C000084B7877F84BF0FB6F894A8958091600051
:101C1000886180936000109260000FBEE0E0F8E3FE
:101C2000099511E0A0E0B1E0E4E8F9E602C0059012
:101C30000D92AE33B107D9F722E0AEE3B1E001C0B7
:101C40001D92A830B207E1F70E94DD2E0C94983463
:101C50000C940000FF93EF93E0913E01F0913F015F
:101C6000309709F00995EF91FF910895FC01859156
:101C7000803011F0EFDFFBCF0895FF27E0E230E284
:101C800047FF0CC0419597FF09C0EDE26095709544
:101C900080959095611D711D811D911D27FF02C0CA
:101CA000219530E350E2AA27660F771F881F991FFE
:101CB000AA1FA41710F0A41B63955A95A9F7AA3080
:101CC00008F0A95FA05DAF93F395611571058105DB
:101CD000910541F7ED3211F4EF93F395F21718F4F3
:101CE0003F93F395FBCF8F91B5DFFA95E1F7089518
:101CF000E991F9918591803021F0853219F0AADFC0
:101D0000F9CF089520E0E89455915532C1F350334E
:101D100011F4689455915A3348F4505390F3220FBC
:101D2000022E220F220F200D250FF4CF0EF4219545
:101D300089919991533619F3533729F1533559F154
:101D4000BC0188279927E8945C3621F48991999100
:101D500068945591543639F446EF7EF077FF0DC004
:101D60008FEF9FEF0AC055374AE039F0583540E110
:101D700021F0523642E009F00895FF93EF937DDFA2
:101D8000EF91FF91B7CFFF93EF93FC0181918030EA
:101D9000B9F360DFFBCFFF93EF9368DFF1CFDF9301
:101DA000CF93CDB7DEB72596A3DFCF91DF9108950E
:101DB000CF93FB018A302DE59207F9F038F4893092
:101DC0009D4571F0C1E08C2FCF9108958B302DE5AA
:101DD0009207F1F08C309D45A9F7C28188E21AC0C4
:101DE000C28183E0CC2361F00E945C2040E164E08A
:101DF00083E00E94A60FC0E0E6CFC28184E0F2CF6C
:101E00000E947D2040E164E083E00E94A60FDBCFCA
:101E1000C28180E1CC2319F00E945C20ECCF0E94AB
:101E20007D20D1CF08950895089581E008950C9400
:101E3000D80E1F93CF93DF9300D000D00F92CDB771
:101E4000DEB749835A836B832091660189819A8129
:101E500021111BC06623A9F00E945B21182F682F57
:101E600089819A810E94F82069817A81812F0F905F
:101E70000F900F900F900F90DF91CF911F910C94C6
:101E80008D110E942F21182FEFCF0E945B216981B5
:101E90007A81EDCFFC01408151816281738184811F
:101EA0000C94190F8F929F92AF92BF92CF92DF92B4
:101EB000EF92FF920F931F936B017C0181E090E002
:101EC000A0E0B0E04C015D0104C0880C991CAA1C84
:101ED000BB1C4A95D2F7B501A4014C015D0104C0B9
:101EE000880C991CAA1CBB1C2A95D2F74829592991
:101EF0006A297B2904C0880F991FAA1FBB1F0A9556
:101F0000D2F78A019B010C211D212E213F210417AC
:101F100015072607370789F48C299D29AE29BF2983
:101F2000BC01CD011F910F91FF90EF90DF90CF90FA
:101F3000BF90AF909F908F90089580959095A095B9
:101F4000B0958C219D21AE21BF21EACF0F93382F70
:101F5000262F6091C2017091C3018091C4019091BC
:101F6000C501042F432F0E94520F0F910C9436206D
:101F70000E94C922811102C00E9466230C9447145A
:101F80000C9449140C94140F81E008950C94C40F20
:101F9000CF93C82F0E94C20F8C2FCF910C94C60FE5
:101FA00008950E94271C0E94D00F2FEF84E39CE02D
:101FB000215080409040E1F700C000000C949C2428
:101FC0000F931F93CF93DF938C010E944A0FEC0174
:101FD000B8010E94170F882309F474C0B801CE011C
:101FE0000E943916882309F46DC0C6318CE5D807E4
:101FF00009F46FC188F4C130FCE5DF0709F468C05B
:1020000028F5C115DC4509F458C0C801DF91CF910E
:102010001F910F910C94150FCE3DFCE5DF0709F4DD
:102020006DC078F4CC3DECE5DE0709F46EC0CD3D23
:10203000DC4559F7F8018281882309F443C082E026
:1020400069C0CE018A5F9C450997F8F6F801828144
:102050008823D9F20E94C922811102C00E946623FE
:102060000E94DC229093FA018093F901C031FCE5D3
:10207000DF0709F4FBC008F08AC0C830ECE5DE07D2
:1020800009F4E2C008F05CC0C4308CE5D80709F45C
:10209000D3C008F042C0C230FCE5DF0709F4C2C07B
:1020A000C330DC4509F4C4C08091F9019091FA0174
:1020B0000E94EA220E94271C05C0F801828181113A
:1020C0000E94D10F80E0DF91CF911F910F91089571
:1020D000F80182818823B1F39091D701892F8E7FF7
:1020E00090FF81608093D70180FF05C08EE291E16F
:1020F0000E94360EE7CF8CE191E1FACFF8018281A0
:10210000882301F30E946623DDCFF80182818823B2
:10211000C9F280E00E94842FD5CF8091F9018061BF
:10212000C630ECE5DE0709F480C08091F9018860D3
:10213000C730DC4508F479C08091F901806275C030
:10214000CC308CE5D80709F489C070F48091F9018E
:102150008C60CA30FCE5DF0709F467C008F478C07A
:102160008091F9018E7F61C08091F901877FCE3027
:10217000ECE5DE0709F459C08091F9018B7FCF307F
:10218000DC4508F452C08091F9018F7E4EC0CB3FF0
:102190008CE5D80709F454C030F5C331FCE5DF07FE
:1021A00009F46CC078F4C131ECE5DE0709F462C0D3
:1021B000C231DC4509F078CF0E94271C8091F901DB
:1021C0008F7733C0C5318CE5D80709F45FC008F4B8
:1021D00073C08091FA018160CA3FDC4509F064CF89
:1021E0008093FA0161CFCF3F8CE5D80709F44AC04C
:1021F00060F48091FA018D7FCD3FFCE5DF0781F32C
:1022000088F18091FA018360EBCFC130EDE5DE0704
:1022100009F45BC008F446C0C230DD4509F044CF84
:1022200080E054C08091F90181608093F9013CCF36
:102230008091F9018260F9CF8091F9018460F5CF36
:102240008091FA018260CCCF8091F9018064EDCF5A
:102250000E94271C8091F9018068E7CF8091F901E5
:102260008D7FE3CF8091FA018E7FBACF8091F90103
:102270008F7DDBCF8091F9018F7BD7CF8091F901E2
:10228000837FD3CF8091FA018C7FAACF8091F9010F
:1022900082FB992790F921E0922790FB82F990FB2D
:1022A00083F9C3CF8091FA01982F909591708E7F1A
:1022B000892B90FB81F994CF0E94271C9091F90102
:1022C000892F97FB87F98058B0CF81E00E9468235F
:1022D000EBCE0E94F021F8019281992381F08A7A55
:1022E00091E009F490E090934001811106C089E2E9
:1022F0000E94CB210E943C22E5CE85E3F9CF80915C
:102300004001811104C089E20E94D221F3CF85E30C
:10231000FBCF90E080E008950895282FE62F872FC7
:1023200090E06DE070E00E940B34E80FF92FF11D92
:10233000822F90E064E370E00E940B34E80FF91FF5
:10234000EE0FFF1FEC58FF4F859194910895FC010B
:10235000EE0FFF1FE15CFE4E859194910895CF939F
:10236000DF930E948D110E946D13EC01811520E511
:10237000920708F042C0811530E4930708F016C1B7
:10238000883E910528F5803E910508F0A3C0883A63
:10239000910588F4853A910508F092C08130910545
:1023A00009F498C0009709F495C0049708F092C00A
:1023B000D0E0C0E08FC08F3B910508F48FC0805CF7
:1023C0009109C03CD105A0F30E94A711EC0182C085
:1023D000811540E2940750F4C11581E0D80708F058
:1023E00079C0C03FD10520F3D06574C0811520E3CA
:1023F000920708F0D2C09F70E7CF811535E59307AB
:1024000070F5811544E5940708F004C1C11582E513
:10241000D80750F4C11521E5D20708F4CAC0DC2F53
:10242000CC27C16FD06A56C09C2F969596959E0179
:1024300023703327C115D34508F0DAC0C1E0D0E0DE
:1024400002C0CC0FDD1F2A95E2F7892F90E0E5E06E
:10245000880F991FEA95E1F7C82BD92BC7C0C11582
:1024600089E5D807A8F4C11528E5D20708F0D7C038
:10247000C11536E5D30708F09BCF8C2F0E940414BA
:10248000C82FD0E0DC2FCC27CC27DF71D06222C050
:10249000C1154AE5D40708F4C7C0CE01905681158E
:1024A000904208F085CF8D2F8F710E94041490E028
:1024B000982F882788279F719C012C2BE901E6CF54
:1024C000853A910509F4BEC0863A910509F0BDC070
:1024D000C2E8D0E4CE01DF91CF910895883A91050A
:1024E00009F4B6C0893A910509F4B5C08A3A910554
:1024F00009F4B4C08B3A910509F4B3C08C3A910544
:1025000009F4B2C08B3B910509F4B1C08C3B910535
:1025100009F4B0C08D3A910509F4AFC0803B910534
:1025200009F4AEC08E3A910509F4ADC08F3A910519
:1025300009F4ACC0813B910509F4ABC0823B910525
:1025400009F4AAC0833B910509F4A9C0843B910515
:1025500009F4A8C0853B910509F4A7C0863B910505
:1025600009F4A6C0873B910509F4A5C0883B9105F5
:1025700009F4A4C0893B910509F4A3C08D3B9105E2
:1025800009F4A2C08E3B910509F4A1C08A3B9105D4
:1025900009F4A0C0C0E0D4E49DCF9927D3FF03C0C5
:1025A000EC01D86C97CFEC01D06C94CFDF70D06A7F
:1025B00091CFCE01A4E096958795AA95E1F7837017
:1025C0002C2F26952695237030E0B5E0220F331F7F
:1025D000BA95E1F7382B8C2F8370C1E0D0E002C0B0
:1025E000CC0FDD1F8A95E2F7C22BD32BDC6872CFAC
:1025F000C1E0D0E002C0CC0FDD1F2A95E2F7892FA1
:1026000090E075E0880F991F7A95E1F7C82BD92BD8
:10261000DA6860CFD82FCC27C46FD06A5BCFDC2FAD
:10262000CC27C06FD06A56CF8C2F8F700E940414B5
:1026300034E0D695C7953A95E1F7CF709C2FEC0121
:10264000D06948CFC1E8D0E445CFC3E8D0E442CF59
:10265000C2EED4E43FCFC9EED4E43CCFCAEED4E41A
:1026600039CFC5EBD4E436CFC6EBD4E433CFC3EBDC
:10267000D4E430CFC4EBD4E42DCFC7EBD4E42ACFDD
:10268000CCECD4E427CFCDECD4E424CFC3E8D5E41C
:1026900021CFCAE8D5E41ECFC2E9D5E41BCFC4E9F7
:1026A000D5E418CFC1E2D6E415CFC3E2D6E412CF09
:1026B000C4E2D6E40FCFC5E2D6E40CCFC6E2D6E43E
:1026C00009CFC7E2D6E406CFCFE6D4E403CFC0E714
:1026D000D4E400CFCAE2D6E4FDCE82389105B1F150
:1026E000B0F48133910509F475C048F4893291053D
:1026F00009F469C08A32910509F473C008958533DD
:10270000910509F459C08933910501F10895833E7B
:102710009105A9F138F4803E9105F9F0823E9105CA
:1027200049F10895863E9105A9F1873E9105C9F1C9
:10273000843E910519F52091FA0121FF1FC0809177
:10274000F90184FD14C087EE90E008952091F9010D
:102750002370A1F080EE90E008952091F90120FD12
:1027600047C03091FA0130FF09C024FF44C090E017
:1027700080E004C02091F90122FDF7CF0895209157
:10278000F90122FD3BC03091FA0130FDE3CF24FF77
:10279000F5CFEDCF2091F90123FFF0CF24FDE7CF56
:1027A000D2CF2091F90123FD2CC03091FA0131FFE5
:1027B000EECF84EE90E008952091F90125FFDECF61
:1027C00089E290E008952091F90125FFD7CF85E3B4
:1027D00090E008952091F90126FFD0CF8AE290E0A1
:1027E00008952091F90126FFC9CF81E390E0089573
:1027F00089E390E0089583EE90E0089582EE90E002
:10280000089586EE90E008959091F90192FF06C038
:10281000282F28712830F9F4877F846093FF06C041
:10282000282F28712831F1F4877E84612091FA01E4
:1028300020FF06C0382F38713830D9F4877F816087
:1028400021FF06C0282F28712831D1F4877E8161AD
:1028500094FD877E0895282F24712430F9F68B7F0C
:102860008860DCCF282F2471243101F78B7E8861AA
:10287000DDCF382F3171313019F78E7F8860E0CF8E
:10288000282F2171213121F78E7E8861E1CF0C94B0
:10289000120F0C94130FE82FF0E0EE0FFF1FEF5B09
:1028A000FE4F808191810895CF92DF92EF92FF9247
:1028B0000F931F93CF93DF938FE491E10E94360E25
:1028C00081E4E82E81E0F82ED0E0C0E09AE4C92E41
:1028D00091E1D92E01E411E1DF93CF93DF92CF9202
:1028E0000E94CF0E87E491E10E94360EF70181919C
:1028F00091917F010E94BC229F938F931F930F930E
:102900000E94CF0E8FE391E10E94360E21968DB783
:102910009EB708960FB6F8949EBF0FBE8DBFC43009
:10292000D105D1F6DF91CF911F910F91FF90EF90DC
:10293000DF90CF900895CF93DF93A0E2B1E044E21F
:1029400051E0C1E0D0E08D91E82FE295EF70F0E02A
:1029500061A18F709E0101C0220F8A95EAF7922F24
:102960009095962391A382A1822B82A34A175B079D
:1029700051F7A3E1B1E040E251E0C1E0D0E08D9138
:10298000E82FE295EF70F0E061A18F709E0101C029
:10299000220F8A95EAF7922F9095962391A382A110
:1029A000822B82A34A175B0751F710924A011092BB
:1029B0004901109242011092410110924C01109273
:1029C0004B01109244011092430110924E0110925B
:1029D0004D01109246011092450110925001109243
:1029E0004F01109248011092470184E00E94921515
:1029F000DF91CF910C94B80F5F926F927F928F927C
:102A00009F92AF92BF92CF92DF92EF92FF920F937D
:102A10001F93CF93DF9329E431E000E211E0512CC2
:102A2000EE24E394F12CE901899099909E01DE0156
:102A30001E921E92F80181918F01E82FE295EF70AE
:102A4000F0E091A18F70B70101C0660F8A95EAF797
:102A5000892F862B81A382A1662E6094862182A372
:102A600080EA8A95F1F783E1C82E81E0D82E50E004
:102A700040E0E60179906E01872D82958F7090E09D
:102A8000EC0188A1AD90BC90119790E0D72DDF703C
:102A900002C095958795DA95E2F780FD40C0C701A1
:102AA000042E02C0880F991F0A94E2F78A299B29F5
:102AB00011969C938E934F5F5F4F4D305105C9F631
:102AC00081A1D62DD823D1A382A1682B62A381E056
:102AD0004D915C914815590509F480E0582AE1E0D0
:102AE00021353E0709F09FCF252D44E061E471E0D8
:102AF00089E491E00E9493150E94C00F852DDF911B
:102B0000CF911F910F91FF90EF90DF90CF90BF90EA
:102B1000AF909F908F907F906F905F90089590E01E
:102B200080E0C4CF0895FF920F931F93CF93DF935C
:102B3000F82E092F162FD72FC42F222349F081E01A
:102B4000809353010E943624909352018093510147
:102B5000809153018823A1F08091510190915201FD
:102B60000E944E24069760F0EF2DF02FA12FBD2F6D
:102B700090E080E0D0E08C179D0744F01092530164
:102B8000DF91CF911F910F91FF9008952191319185
:102B90002D933D930196EFCF0F931F93CF93DF9328
:102BA000C62FD42F022FFC0182818823C9F06093A5
:102BB00056010E943624909355018093540180E27F
:102BC0008C0F883008F050C0C77081E001C0880FBA
:102BD000CA95EAF7DF91CF911F910F910C948D194F
:102BE00010915601161335C08091540190915501F2
:102BF0000E944E24883C910560F5C0E2CD0F1D1760
:102C0000B9F080E2810F883040F4177081E001C094
:102C1000880F1A95EAF70E949419C83048F481E0A9
:102C20009D2F977001C0880F9A95EAF70E948D1921
:102C3000802F0E947A19C830B8F4D77081E001C0A3
:102C4000880FDA95EAF7DF91CF911F910F910C94DD
:102C5000941980E28C0F883038F4C77081E001C08D
:102C6000880FCA95EAF7EFCFDF91CF911F910F91AF
:102C700008959C01CB01233F4CE5340731F190F4DA
:102C8000283DFCE53F07E9F0293D4CE5340769F1B3
:102C9000273D3C4579F426E241EE61EE0E94CC15D9
:102CA00080E00895253FFCE53F07B9F090F0263F0E
:102CB0003C45B9F0FC0182818823D1F01092560185
:102CC000089527E245EE65EEE9CF26E241EE60EE9B
:102CD000E5CF27E245EE64EEE1CF26E241EE62EE7B
:102CE000DDCF27E245EE66EED9CF28E241E0EBCF1B
:102CF00081E0089590935C0180935B010895E091D9
:102D00005B01F0915C01309721F00190F081E02DA2
:102D1000099480E00895EF92FF920F931F93CF9351
:102D2000DF938C01E0915B01F0915C013097C1F180
:102D30000280F381E02D09958091D70182FF30C098
:102D400080FF04C08EE691E10E94360ED0E0C0E024
:102D500088E6E82E81E1F82E8091D70180FF0EC031
:102D6000F801EC0FFD1F80811F928F93FF92EF926D
:102D70000E94CF0E0F900F900F900F902196C830A9
:102D8000D10551F78091D70180FF0AC086E691E115
:102D9000DF91CF911F910F91FF90EF900C94360E21
:102DA000DF91CF911F910F91FF90EF900895E091E7
:102DB0005B01F0915C01309739F022E0DC012C934B
:102DC0000480F581E02D09940895209159013091F6
:102DD0005A012817390771F090935A0180935901CD
:102DE000E0915B01F0915C01309721F00680F78162
:102DF000E02D09940895209157013091580128172A
:102E0000390771F09093580180935701E0915B016D
:102E1000F0915C01309721F00084F185E02D099458
:102E20000895089508950C94111708950C9415179A
:102E30000E9412170C94131781E008950E942D240C
:102E40000E949B140E94C0240C941617CF93C82F85
:102E50008091D70182FF1EC080FF1CC087E891E1EE
:102E60000E94360E8091D70180FF14C01F92CF932D
:102E700082E891E19F938F930E94CF0E8091D701BA
:102E80000F900F900F900F9080FF04C080E891E1A9
:102E90000E94360E8C2FCF910C94C80F7F928F9288
:102EA0009F92AF92BF92CF92DF92EF92FF920F93D9
:102EB0001F93CF93DF93CDB7DEB72A970FB6F89461
:102EC000DEBF0FBECDBF0E94FC140E941C178823DA
:102ED00009F479C09EE5A92E91E0B92E10E000E03A
:102EE00088248394912C702E802F0E944B147C0197
:102EF000F501C190D1905F01C816D90609F45DC0F3
:102F00008091D70181FD0E94541496012E253F2502
:102F100090E080E06401082E02C0CC0CDD1C0A9415
:102F2000E2F7A60142235323452B09F441C08E83C7
:102F30007F82EC20FD2081E0EF2809F480E0888783
:102F40000E9436248160782F9A8789874E815F811D
:102F500068858A850E940818000F111FF801E25A3F
:102F6000FE4F80819181C826D926D182C0820E94DD
:102F7000D3260E947F1690915D018917A9F10E94C6
:102F80007F1680935D012A960FB6F894DEBF0FBEC0
:102F9000CDBFDF91CF911F910F91FF90EF90DF9008
:102FA000CF90BF90AF909F908F907F900C942617FA
:102FB00001968D30910509F0ADCF0F5F1F4F0430A2
:102FC000110509F090CF8FEF89838A831B820E94BD
:102FD00036248160782F9D838C8349815A816B814F
:102FE0008D810E940818C3CF2A960FB6F894DEBFD1
:102FF0000FBECDBFDF91CF911F910F91FF90EF904A
:10300000DF90CF90BF90AF909F908F907F9008956A
:10301000CF93DF93CDB7DEB72B970FB6F894DEBF13
:103020000FBECDBF4F83588769877A878B871E82F3
:103030001D8285E0FE013796DE01119601900D920A
:103040008A95E1F749815A816B817C818D819E81CE
:103050002B960FB6F894DEBF0FBECDBFDF91CF9198
:103060000C94D41EFC01808191810C949D21CF93FE
:10307000C82F882309F4E6C08238C1F40E947F1665
:1030800081FDE0C089E30E94CB210E943C222FEF0A
:1030900081EE94E0215080409040E1F700C00000B4
:1030A00089E30E94D221CF910C943C228338A1F471
:1030B0000E947F1680FDC6C083E50E94CB210E943E
:1030C0003C222FEF81EE94E0215080409040E1F7C8
:1030D00000C0000083E5E5CF8438A1F40E947F168C
:1030E00082FDB0C087E40E94CB210E943C222FEFDA
:1030F00081EE94E0215080409040E1F700C0000054
:1031000087E4CFCF8CEF8C0F813A48F48C2F0E944C
:10311000532B811197C08C2F0E94CB21C4CF80E20A
:103120008C0F883048F4C77081E001C0880FCA95C1
:10313000EAF70E94F321B7CF8BE58C0F833068F458
:1031400081E890E0C53A31F083E890E0C63A11F4A6
:1031500082E890E0CF910C94E51688E58C0F8731DA
:1031600008F068C082EE90E0C83A09F460C089EEC9
:1031700090E0C93A09F45BC08AEE90E0CA3A09F4DB
:1031800056C085EB90E0CB3A09F451C086EB90E055
:10319000CC3A09F44CC083EB90E0CB3B09F447C038
:1031A00084EB90E0CC3B09F442C087EB90E0CD3A51
:1031B000F1F18CEC90E0C03BD1F18DEC90E0CE3A97
:1031C000B1F183E891E0CF3A91F18AE891E0C13B17
:1031D00071F182E991E0C23B51F184E991E0C33B96
:1031E00031F181E292E0C43B11F183E292E0C53B10
:1031F000F1F084E292E0C63BD1F085E292E0C73B79
:10320000B1F086E292E0C83B91F087E292E0C93BE0
:1032100071F08FE690E0CD3B51F080E790E0CE3B3F
:1032200031F090E080E0CA3B11F48AE292E0CF9165
:103230000C94FB16C03F30F08C2F0E945F25CF917D
:103240000C944626CF910895882309F452C0823801
:1032500071F40E947F1681FF4CC089E30E94CB214C
:103260000E943C2289E30E94D2210C943C228338A4
:1032700059F40E947F1680FF3CC083E50E94CB2159
:103280000E943C2283E5EFCF843859F40E947F16D8
:1032900082FF2FC087E40E94CB210E943C2287E45A
:1032A000E2CF9CEF980F913AF0F290E2980F9830AD
:1032B00050F4877091E001C0990F8A95EAF7892F41
:1032C0000E94F921D2CF9BE5980F933020F490E033
:1032D00080E00C94E51698E5980F973120F490E083
:1032E00080E00C94FB16803F20F00E94C7250C94D0
:1032F00046260895CF93C82F0E943718C93349F442
:103300002FEF87EE93E0215080409040E1F700C01E
:1033100000008C2FCF910C942419882321F00E9457
:10332000F3210C943C220895882321F00E94F92176
:103330000C943C220895BF92CF92DF92EF92FF92BD
:103340000F931F93CF93DF936C01D62FC72FFC01F0
:10335000058102950F70128111110E9410220E94A6
:10336000E921E82E882371F01123B1F080E28D0F5E
:10337000883090F082E00E9487220E94E92191E04B
:10338000E82EE926BC2EB2949FE0B922EB2DF0E0A6
:10339000E656FB4C0C943C34E12CF4CF0C2F0F7010
:1033A000C07F11F00295007F1123A9F0002359F08E
:1033B00080E28D0F883010F0D11109C0802F0E945B
:1033C000F3210E943C228D2F0E94371814C0802FB9
:1033D0000E940322F6CF8D2F0E942419002359F05A
:1033E00080E28D0F883010F0D1112CC0802F0E9408
:1033F000F9210E943C222B2D2850330B243031051B
:1034000020F40E947F160E94C80FEE2009F4D5C157
:103410000E94E52180FDD1C1F60112820E94DF21C8
:103420000E945C20C6010E94E71B0E94DF21DF9101
:10343000CF911F910F91FF90EF90DF90CF90BF90B1
:103440000C947D20802F0E940922D3CFFC2FFF7087
:10345000FF2EC07FC03219F0F29480EFF822DD23F6
:1034600069F0D13049F1112391F1002351F1F601B6
:10347000858180FFA8CF8F70858323C0112381F0C1
:10348000011106C00E9423228F290E948D19B3CFFB
:103490000130C1F70E9423228F290E942922ABCF3D
:1034A000011106C00E9432228F2D0E949419A3CFD1
:1034B000013009F4A0CFF6CF112329F0063008F02F
:1034C0009ACF8F2DE2CF053008F095CFEDCF0023B6
:1034D00059F3D93349F4FFEF27EE33E0F1502040A0
:1034E0003040E1F700C000008D2F0E94241983CFE7
:1034F0008C2F86958695837069F0813009F07BCF9B
:103500008D2F9C2F9370111102C090E080E00E94DB
:10351000FB1671CF8D2F9C2F9370111102C090E07C
:1035200080E00E94E51667CF112309F1D53F99F09D
:10353000D63FB9F0D43F49F48091F3019091F40162
:1035400081609093F4018093F3018D2F0E945F2599
:103550000E94462650CF8091F3019091F401826041
:10356000F0CF8091F3019091F4018460EACFD53FD0
:1035700089F0D63FA9F0D43F49F48091F3019091AE
:10358000F4018E7F9093F4018093F3018D2F0E94BC
:10359000C725DECF8091F3019091F4018D7FF2CFAA
:1035A0008091F3019091F4018B7FECCF8C2F83708D
:1035B00009F041C011111FCF4D2F4295469547701C
:1035C000440F440F0D2F0F7010E030E020E0042E68
:1035D00004C0000F111F221F331F0A94D2F760E0AE
:1035E00070E0CB01D4FF0FC06FE070E080E090E0AE
:1035F00004C0660F771F881F991F4A95D2F7609500
:10360000709580959095C695C695C370602B712B6B
:10361000822B932BC23049F058F4C13019F00E942C
:103620000E20E9CE0E94FC1FE6CE0E942020E3CEB1
:103630000E94FA1FE0CE8695112311F08C2F817025
:10364000882309F4D8CE4D2F429546954770440FF4
:10365000440F0D2F0F7010E030E020E0042E04C066
:10366000000F111F221F331F0A94D2F760E070E091
:10367000CB01D4FF0FC06FE070E080E090E004C0A9
:10368000660F771F881F991F4A95D2F7609570952E
:1036900080959095C695C695C370602B712B822B33
:1036A000932BC23049F058F4C13019F00E94D32056
:1036B000A2CE0E94C1209FCE0E94E5209CCE0E94F7
:1036C000362099CECF70112329F08C2F0E945C20D8
:1036D0008D2FDBCE8D2F0E9494198C2F0E947D2080
:1036E0008ACED23F89F160F4D03FC9F0D13F29F1B1
:1036F000112309F442C0011166CE8C2F8F7121C0B5
:10370000D33F39F1D43FA1F7112369F1CF718C2F49
:103710000E945C2063E08C2F0E9472226CCE1123E9
:1037200041F0053008F067CE8C2F8F710E94A020E9
:1037300062CE063008F05FCEF7CF8C2F8F71112349
:1037400069F20E945C2057CE8C2F8F711123C9F330
:10375000C5CF112329F08C2F8F710E9447204BCEAB
:103760000E94422048CE81E00E948722023008F465
:1037700042CE82E00E9487223ECE002359F0D93308
:1037800009F0B2CE8FEF97EEE3E081509040E04039
:10379000E1F7A8CE8C2F8F71A1CF4C2F4F706D2FDA
:1037A000C6010E9489110E94721F25CE4C2F4F70B6
:1037B0006D2FC6010E948C111ECEDF91CF911F91FB
:1037C0000F91FF90EF90DF90CF90BF9008950F93EF
:1037D0001F93CF93DF93EC018B819C81892B29F080
:1037E0008881998189238F3F29F4DF91CF911F919F
:1037F0000F910895CE010E94E00F8823B1F36881F4
:1038000079818A810E94A7218C010E94F7200E9461
:10381000F91FB801CE01DF91CF911F910F910C9448
:103820009B190E9410220E9420220E943C220E948A
:1038300071270E94462690E080E00E94E51690E005
:1038400080E00C94FB160E94D9210C94111C0E945C
:1038500000220C94231CE92FE295EF70E250EE3029
:1038600070F4F0E0E655FB4C0C943C34803F19F0CA
:1038700020F4883E20F481E00895843FE1F380E065
:103880000895883EC0F3813FD1F7F5CF93FB882799
:1038900080F908950E949D210C942B1CCF93DF93F7
:1038A00000D000D00F92CDB7DEB70F900F900F90E1
:1038B0000F900F90DF91CF910895CF93DF9300D0B9
:1038C00000D000D0CDB7DEB726960FB6F894DEBF95
:1038D0000FBECDBFDF91CF910895CF93DF93C091FD
:1038E0006701809168018C1303C0DF91CF91089527
:1038F000D0E0CE0166E070E00E940B34FC01E75995
:10390000FE4F4081518162817381848195810E9443
:103910005D1C2196C770E5CF4091990150919A01A5
:1039200060919B0170919C0180919D0190919E01FD
:103930000C945D1CFF920F931F93CF93DF938091A4
:103940009E01807FB9F480919B01882399F020919A
:103950006701009168014091990110919A01E091ED
:103960009C01F0919D01F42EF122EF01C095D095BC
:10397000021306C0DF91CF911F910F91FF90089520
:1039800030E0309719F08FEFF81207C02F5F3F4FEC
:103990002770EECF8C0F9D1F1DC0C90166E070E03F
:1039A0000E940B34DC01A759BE4F11968C911197E0
:1039B0008113ECCF8C918413E9CF12968C911297DE
:1039C0008111E4CF13968D919C918E179F0710F370
:1039D0008E1B9F0B883C9105C8F680919E018F70CD
:1039E000806180939E01C90166E070E00E940B3403
:1039F000FC01E259FE4F90819F709061908389E9AC
:103A000091E00E94E71BDF91CF911F910F91FF90F2
:103A10000C946D1CBF92CF92DF92EF92FF920F93A6
:103A20001F93CF93DF93CDB7DEB761970FB6F894AE
:103A3000DEBF0FBECDBF8C0185E0F801DE011D9613
:103A400001900D928A95E1F7D8014C9111962C9135
:103A500011971296EC90129780919C0190919D0184
:103A6000009709F482C13091990150919A01632F16
:103A700065236F3F09F479C11396CD90DC90B09027
:103A80009B01BB2009F413C1C816D906D0F1F60179
:103A9000E81BF90BCF01FF24F394883C910508F053
:103AA000F12C80919E01982F907FFF2009F4B9C0DE
:103AB000911180C0FE2C521329C0341327C0E1108D
:103AC00025C08F70806180939E010E948C1C89E9C3
:103AD00091E00E94E71B80919E01D80115968C937E
:103AE0008F2D61960FB6F894DEBF0FBECDBFDF916C
:103AF000CF911F910F91FF90EF90DF90CF90BF90EB
:103B00000895809590958C0D9D1DC5CFCD2829F0E9
:103B1000822F84238F3F09F044C180E0B82FB17019
:103B2000DB2EE09167013091680180FD20C0EE201E
:103B3000B9F280919E01816080939E01F12CD0CFDB
:103B4000F0E0CF0166E070E00E940B34DC01A75981
:103B5000BE4F11968C911197821307C08C918413DC
:103B600004C012968C91E812E2CF3196E770E3130D
:103B7000E7CF4D872E878D859E850E949D21292F19
:103B800022952F70223050F0243078F49F7051F03D
:103B9000F8019581907F31F4D12C0AC09F7011F00B
:103BA0008823D1F3805E8830B8F3C8010E94E71BF8
:103BB000FD2C96CF521306C0341304C0D801EE205A
:103BC00009F49BC04D872E878D859E850E944A1CD7
:103BD000882319F1EE2009F180919E01803270F066
:103BE0002091990130919A0138872F831986DB86BD
:103BF000CA868C87CE0107960E94E71B86E0F801F3
:103C0000A9E9B1E001900D928A95E1F70E949A1C12
:103C10000E948C1CFF24F39463CFC8010E94E71B11
:103C2000F9CF911114C07C2DD98AC88A522F6E2DDC
:103C300089890E944E1C89E991E00E94E71B86E079
:103C4000E9E9F1E0DF011D928A95E9F763C05213BB
:103C500012C0341310C0E1100EC0F8018583C801F2
:103C60000E94E71BE9E9F1E086E0DF011D928A95F9
:103C7000E9F7FB2C35CF4D872E878D859E850E94D9
:103C80004A1C882351F2EE2041F280919E0180323D
:103C900008F4B4CF2091990130919A013A83298395
:103CA0001B82DD82CC828E83CE010196A5CFC81601
:103CB000D90698F1F601E81BF90BCF01F12C883CED
:103CC000910508F049C0FE2CEE2009F4A6CF52134E
:103CD00032C0341330C080919E0180FD23C0982FE4
:103CE000907F01F1D80115968C931597903F39F08C
:103CF000982F907F905F8F70892B15968C93C801B9
:103D00000E94E71B86E0F801A9E9B1E001900D925D
:103D10008A95E1F70E948C1CE3CE809590958C0DDE
:103D20009D1DCCCF86E0F801A9E9B1E001900D928C
:103D30008A95E1F7D5CE4D872E878D859E850E9489
:103D40004A1C81115BCF80919E01816080939E010E
:103D5000C8010E94E71BC4CE7C2DD98AC88A522F85
:103D60006E2D89890E944E1C6ACFEE2009F455CF32
:103D70004D872E878D859E850E944A1CF82E8823AC
:103D800009F44BCF86E0F801A9E9B1E001900D926A
:103D90008A95E1F789E991E00E9432180E949A1C05
:103DA000B9CF81E08E25BACECF93DF93CDB7DEB702
:103DB0002C970FB6F894DEBF0FBECDBF4F83588748
:103DC00069877A878B879C87CE0107960E940A1D98
:103DD0008823D1F08A859B85892B39F04F815885BE
:103DE000842F85238F3F09F076C0809167019091E1
:103DF0006801891349C02C960FB6F894DEBF0FBE38
:103E0000CDBFDF91CF91089586E0FE013796DE01A8
:103E1000119601900D928A95E1F78A859B85892BF1
:103E200021F38F81988589238F3FF9F28091680172
:103E300090E09C012F5F3F4F27703327409167012F
:103E40004217130671F40E94271C10926801109209
:103E5000670186E0E9E9F1E0DF011D928A95E9F763
:103E6000C4CF66E070E00E940B34DC01A759BE4F5E
:103E700096E0FE01319601900D929A95E1F720931C
:103E800068010E946D1CB1CF90E066E070E00E9476
:103E90000B3487599E4F0E940A1D882309F4ABCF2B
:103EA0008091670190E066E070E00E940B34FC01B5
:103EB000E759FE4F408151816281738184819581F0
:103EC0000E945D1C8091670190E0019687709927A0
:103ED000809367018ACF69857A858B859C850E944E
:103EE0005D1C83CFEF92FF920F931F93CF93DF93CD
:103EF0008C01892B81F0F12CEE24E394E8012196CA
:103F0000F8018491843770F4843008F05FC0813008
:103F1000B1F08230A1F1DF91CF911F910F91FF900D
:103F2000EF900895853709F44CC008F43DC09CE734
:103F3000980F903780F78F770E94241949C00E5F41
:103F40001F4FFE01849190E2980F983060F48770C3
:103F5000FE2D01C0FF0F8A95EAF78F2F0E941322D2
:103F60000E943C2202C00E9437188F2D815030F2EF
:103F7000EFE9FFE03197F1F700C00000F7CF0E5FE7
:103F80001F4FFE01849190E2980F983050F4877093
:103F9000FE2D01C0FF0F8A95EAF78F2F0E9419228C
:103FA000DFCF0E942419E1CF0E5F1F4FFE01C491A5
:103FB000C150D8F28FE99FE00197F1F700C00000EF
:103FC000F7CF0E5F1F4FFE01F490CFCF0E9437183E
:103FD0008E01CBCF08950C94EA1F0E94EB1F6093D3
:103FE000C6017093C7018093C8019093C9010C94D6
:103FF000111C08950C94ED1F0F931F930091C6019F
:104000001091C7012091C8013091C901602B712B1B
:10401000822B932B1F910F910C94ED1F0F931F93E5
:104020000091C6011091C7012091C8013091C901CA
:1040300060237123822393231F910F910C94ED1F12
:104040000F931F930091C6011091C7012091C801E1
:104050003091C90160277127822793271F910F9103
:104060000C94ED1F0C94EA1F0C9432200E94342013
:104070006093C2017093C3018093C4019093C50102
:104080000C94111C60E070E0CB010C9436200F936F
:104090001F9341E050E060E070E08A019B0104C0A2
:1040A000000F111F221F331F8A95D2F7C901B801D3
:1040B0001F910F910C9436200F931F9341E050E015
:1040C00060E070E004C0440F551F661F771F8A959B
:1040D000D2F78091C2019091C301A091C401B09127
:1040E000C5018A019B01082B192B2A2B3B2BC901E7
:1040F000B8011F910F910C9436200F931F9341E04C
:1041000050E060E070E004C0440F551F661F771F49
:104110008A95D2F7CB01BA016095709580959095FC
:104120000091C2011091C3012091C4013091C501D9
:1041300060237123822393231F910F910C943620C7
:104140000F931F9341E050E060E070E004C0440F23
:10415000551F661F771F8A95D2F78091C2019091F3
:10416000C301A091C401B091C5018A019B01082738
:1041700019272A273B27C901B8011F910F910C94D9
:1041800036200F931F930091C2011091C30120911B
:10419000C4013091C501602B712B822B932B1F9191
:1041A0000F910C9436200F931F930091C201109130
:1041B000C3012091C4013091C50160237123822382
:1041C00093231F910F910C9436200F931F9300910E
:1041D000C2011091C3012091C4013091C501602733
:1041E0007127822793271F910F910C9436200895F1
:1041F000CF93DF93282F362F892F6DE00E94023452
:10420000820F982F9770E1E001C0EE0F9A95EAF7C0
:1042100086958695869590E065E070E00E940B3467
:10422000DC01A156BE4F50E040E0632F70E08D915D
:10423000ED0121979B01042E02C0369527950A9423
:10424000E2F72170219528272E23282728834F5F06
:104250005F4F4530510559F7DF91CF910895282FD1
:10426000892F6DE00E940234820FA82FA7708695D7
:104270008695869590E065E070E00E940B34FC0125
:10428000E156FE4F50E040E080E0219130E00A2E00
:1042900002C0369527950A94E2F721703327042E41
:1042A00001C0220F0A94EAF7822B4F5F5F4F45301F
:1042B000510559F70895BF92CF92DF92EF92FF9286
:1042C0000F931F93CF93DF938C01C090C201D090C6
:1042D000C301E090C401F090C5018091C6019091A6
:1042E000C701A091C801B091C901C82AD92AEA2AF8
:1042F000FB2ACFE1D0E0BC2ED701C6010C2E04C0B2
:10430000B695A795979587950A94D2F780FD0EC02C
:10431000219788F7B12C8B2DDF91CF911F910F91B1
:10432000FF90EF90DF90CF90BF900895B8018C2F51
:104330000E94AF11019761F3EECFCF93DF93EC01B1
:104340000E945B21BE01DF91CF910C94AF111F93AE
:10435000CF93DF93EB0190916601992331F0CB016C
:10436000DF91CF911F910C949D21882379F0CB018F
:104370000E945B21182F682FCE010E94F820BE01F9
:10438000812FDF91CF911F910C94AF11CB010E942F
:104390002F21182FF4CF682F8091000190910101F7
:1043A0000C94A623682F80910001909101010C9438
:1043B000A82380910001909101010C94AA2380917F
:1043C000CA0185958595859508958091CA01877064
:1043D00008959091CA01977081E009F480E00895F2
:1043E0008091D60108959091D601892B8093D601B2
:1043F000089580959091D60198239093D6010895C1
:104400001092D60108959091D501892B8093D50102
:10441000089580959091D50198239093D5010895A2
:104420001092D50108959091D401892B8093D401E5
:10443000089580959091D40198239093D401089584
:104440001092D40108958091CB01089508950C94A1
:1044500026229091CB01981721F08093CB010C94E8
:10446000272208958091CB01882329F01092CB0157
:1044700080E00C9427220895E0910001F091010161
:104480008091D6018083E0910001F091010180814B
:104490009091D501892B8083E0910001F091010179
:1044A00080819091D401892B80839091CB019923B5
:1044B00081F0E0910001F09101018081892B8083DE
:1044C00080910001909101010E946D2381110E9451
:1044D000322280910001909101010C948B16089575
:1044E0000C946F22982F990F990F990F962B9093F8
:1044F000CA010E945C208091CA01859585958595A9
:104500000C9470221092CA0180E00C947022909159
:10451000CA01809589238093CA01282F277071F4DE
:10452000282F082E000C330B9217130639F08595AF
:10453000859585950E947D200C9482220895909304
:104540003F0180933E010895829590E09C01220FE7
:10455000331F220F331F2C7C959587959595879552
:104560008373282B30E0C901880F991F8A7A35950B
:1045700027952575822B0895CF93DF93D92F0E941D
:10458000A422C82F8D2F0E94A4229C2FDF91CF91AF
:10459000089590E080E00E945E3421E08C3E9E4FC2
:1045A00009F020E0822F089582E090E00C945634C8
:1045B00083E090E00C945634CF9384E090E00E9426
:1045C0005634C82F81E290E00E945634982F8C2FE9
:1045D000CF910895CF93C92F682F84E090E00E9477
:1045E00064346C2F81E290E0CF910C946434AB0181
:1045F000BC018FE090E00C947634AB01BC0183E108
:1046000090E00C94763460E070E0CB010C94FD22D5
:1046100060E070E0CB010E94F7220C9403236CEE63
:104620007EEF90E080E00E94823460E082E090E0E3
:104630000E94643460E083E090E00E946434109251
:10464000C6011092C7011092C8011092C90160E022
:1046500084E090E00E94643460E081E290E00E9497
:10466000643460E085E090E00E94643460E086E0BD
:1046700090E00E9464346FEF87E090E00E94643421
:1046800040E050E0BA0188E090E00E94763460E0BB
:104690008DE090E00E94643440E050E0BA0188E18F
:1046A00090E00E94763460E087E190E00E946434FC
:1046B00040E050E0BA018CE190E00E94763460E086
:1046C00080E290E00E9464340C9408230C940F2341
:1046D000682F8EE090E00C9464349C012E5F3F4F75
:1046E000AC01485F5F4F80E02417350709F4089557
:1046F000F90191919F019923B9F38F5FF5CF9C0147
:10470000FC0132969FEF80E04191461751F09F3FA8
:1047100019F4411101C0982F8F5F8630A9F79F3F90
:1047200009F40895290F311D97FD3A95F901628327
:104730000895FC01329608962191261303C0DF01EB
:1047400011971C92E817F907B9F708950C947F2385
:104750000C949923029626E0FC0111922A95E9F720
:104760000895089508950C94B2230E94B323809174
:10477000FF01843049F11092D80188E190E020E4F3
:104780000FB6F894A895809360000FBE2093600048
:1047900080E00E94C80F0E94B32383B7817F8460AA
:1047A00083BF83B7816083BF7894889583B78E7FFA
:1047B00083BF0FB6F894A8958091600088618093BC
:1047C0006000109260000FBE08950895CF930E947C
:1047D000B1230E94FC140E94E523C0E08C2F0E94AC
:1047E0004B14892B31F4CF5FC430C1F780E0CF91F7
:1047F000089581E0FCCF08950C94FB230E94271CB0
:104800000E947F160E94C80F0C94FC231F921FB6B3
:104810001F9211248F939F93AF93BF938091D801E0
:10482000811113C08091F5019091F601A091F701DB
:10483000B091F8014196A11DB11D8093F5019093AF
:10484000F601A093F701B093F801BF91AF919F914A
:104850008F911F901FBE1F90189582E084BD93E03A
:1048600095BD9AEF97BD80936E0008952FB7F89489
:104870008091F5019091F601A091F701B091F801B6
:104880002FBF08952FB7F8946091F5017091F6014C
:104890008091F7019091F8012FBF0895CF92DF9298
:1048A000EF92FF920F931F932FB7F8944091F50169
:1048B0005091F6016091F7017091F8012FBF6A01E4
:1048C0007B01EE24FF248C0130E020E0C016D106ED
:1048D000E206F30650F0481B590BCA011F910F91D5
:1048E000FF90EF90DF90CF90089541505109F3CFA2
:1048F00078941F921FB61F9211248F939F93AF93AA
:10490000BF938091F5019091F601A091F701B091CC
:10491000F8010196A11DB11D8093F5019093F60158
:10492000A093F701B093F801BF91AF919F918F9140
:104930001F901FBE1F90189581E08093E00080E2D9
:104940008093D8001092C9008FE19EE40197F1F79F
:1049500000C0000087E090EBDC0180930802909398
:104960000902A0930A02B0930B0288E19CE00FB603
:10497000F894A895809360000FBE90936000FFCFDD
:104980000E94C922811102C00E9466230E94D42283
:104990008093D7010E94DC229093FA018093F90161
:1049A0000E94D822682F70E090E080E00C94FA1FFB
:1049B0008091DC0180FF11C08091050190E065E0ED
:1049C00070E00E940B349595879595958795803872
:1049D0009105B0F50097B1F1089581FF0AC080916B
:1049E000050190E065E070E00E940B349595879595
:1049F000EECF82FF08C08091050190E065E070E095
:104A00000E940B34E4CF8091DB018823B1F0209128
:104A100004016091050170E0821710F0CB01EECF28
:104A200090E00E940B3465E070E00E940B34622F2E
:104A300070E00E942834CB01CACF85E090E0089551
:104A40008FE7089581E008958091DC0180FF0CC01C
:104A50006091030170E0759567957595679561158F
:104A6000710559F1862F089581FF06C060910301F9
:104A700070E075956795F3CF6091030170E082FD5A
:104A80000CC06091DB016623A9F0209102018091A6
:104A9000030190E0621730F0BC0160387105F8F254
:104AA0008FE7089570E00E940B34622F70E00E943F
:104AB0002834F3CF61E070E0D5CF81E00895803FE6
:104AC00031F40E94D82481958093E0010895813FBC
:104AD00019F40E94D824F8CF823F31F40E94D824E0
:104AE00081958093DF010895833F19F40E94D824B3
:104AF000F8CF893F29F40E9424258093E10108958D
:104B00008A3F21F40E9424258195F7CF8B3F31F411
:104B10000E94242581958093E20108958C3F19F429
:104B20000E942425F8CF843F31F48091DE0181601A
:104B30008093DE010895853F21F48091DE0182603B
:104B4000F7CF863F21F48091DE018460F1CF873F6B
:104B500021F48091DE018860EBCF883F21F48091C1
:104B6000DE018061E5CF8D3F31F48091DC01816011
:104B70008093DC0108958E3F21F48091DC018260F6
:104B8000F7CF8F3FB9F78091DC018460F1CF90912E
:104B9000DF01803F41F48091E00187FD1092E00148
:104BA000992371F00895813F29F48091E00118164E
:104BB000ACF3F6CF823F81F497FFF2CF1092DF0182
:104BC0008091E0019091E101892B9091E201892B84
:104BD00049F71092DB010895833F19F4191674F315
:104BE000DFCF893F39F48091E1011816CCF610929D
:104BF000E101D6CF8A3F29F48091E10187FFD0CF30
:104C0000F6CF8B3F39F48091E20187FFC9CF109234
:104C1000E201C6CF8C3F29F48091E2011816BCF363
:104C2000BFCF843F31F48091DE018E7F8093DE011F
:104C3000B7CF853F21F48091DE018D7FF7CF863F8E
:104C400021F48091DE018B7FF1CF873F21F48091A9
:104C5000DE01877FEBCF883F21F48091DE018F7EDC
:104C6000E5CF8D3F31F48091DC018E7F8093DC01B4
:104C700097CF8E3F21F48091DC018D7FF7CF8F3F5E
:104C800009F08ECF8091DC018B7FF0CF8091D7012E
:104C900083FF7EC081EC91E10E94360E8091DE019F
:104CA0001F928F938CEB91E19F938F930E94CF0E75
:104CB0008AEB91E10E94360E8091DF01282F082EA9
:104CC000000C330B3F938F9387EB91E19F938F936E
:104CD0000E94CF0E85EB91E10E94360E8091E0019B
:104CE000282F082E000C330B3F938F9382EB91E11A
:104CF0009F938F930E94CF0E80EB91E10E94360E1E
:104D00008091E101282F082E000C330B3F938F93E5
:104D10008DEA91E19F938F930E94CF0E8BEA91E1F0
:104D20000E94360E8091E201282F082E000C330BD2
:104D30003F938F9388EA91E19F938F930E94CF0EC8
:104D400085EA91E10E94360E8091DB011F928F93DC
:104D500082EA91E19F938F930E94CF0E80EA91E1C6
:104D60000E94360E8091DC011F928F938DE991E1B4
:104D70009F938F930E94CF0E8AE991E10E94360E95
:104D80008DB79EB74C960FB6F8949EBF0FBE8DBFE1
:104D90008DED91E00E94D7160E9436249093DA019F
:104DA0008093D90108951F93CF93DF938091D90108
:104DB0009091DA010E944E24FC012091DB01809148
:104DC000060190E0211107C08091070190E06AE0A0
:104DD00070E00E940B34E817F90778F09091DF013A
:104DE000C091E001D091E1011091E201911109C05F
:104DF0008C2F8D2B812B09F070C0DF91CF911F91EB
:104E000008952F3F19F02F5F2093DB01191624F42A
:104E10000E94D8248093DF018091DF0187FF05C0C5
:104E20000E94D82481958093DF011C1624F40E94EF
:104E3000D8248093E0018091E00187FF05C00E94A3
:104E4000D82481958093E0018091DF018823D1F0FF
:104E50002091E0012223B1F0082E000C990B65EBA4
:104E600070E00E940B34992381F19093DF01822F2F
:104E7000220F990B65EB70E00E940B34992349F1E6
:104E80009093E0011D1624F40E9424258093E101F3
:104E90008091E10187FF05C00E94242581958093C0
:104EA000E101111624F40E9424258093E2018091EF
:104EB000E20187FF05C00E94242581958093E201CD
:104EC000DF91CF911F910C94462681E08093DF0102
:104ED000CECF81E08093E001D5CF2F3F09F093CF73
:104EE000A4CF86E0EDEDF1E0DF011D928A95E9F7B0
:104EF0001092DB011092DC01089584EE93E10E9490
:104F0000360E1F9281E08F931F9285E08F9386E982
:104F100093E19F938F930E94CF0E0F900F900F906D
:104F20000F900F900F900895833009F445C028F436
:104F3000813061F0823049F10895853009F46AC00A
:104F400008F451C0863009F47CC0089580910701AF
:104F5000482F460F5527551F4F3F510594F4680FB2
:104F600060930701809107011F928F938FEC92E16C
:104F70009F938F930E94CF0E0F900F900F900F90E2
:104F800008958FEF80930701EDCF80910601482FA0
:104F9000460F5527551F4F3F510554F4680F609336
:104FA0000601809106011F928F938DEB92E1E0CF75
:104FB0008FEF80930601F5CF80910501482F460FB2
:104FC0005527551F4F3F510554F4680F6093050155
:104FD000809105011F928F938AEA92E1C9CF8FEFEA
:104FE00080930501F5CF80910401482F460F552786
:104FF000551F4F3F510554F4680F60930401809191
:1050000004011F928F9385E992E1B2CF8FEF8093D5
:105010000401F5CF80910301482F460F5527551FF6
:105020004F3F510554F4680F6093030180910301D1
:105030001F928F938CE792E19BCF8FEF80930301B8
:10504000F5CF80910201482F460F5527551F4F3F3E
:10505000510554F4680F60930201809102011F9280
:105060008F9381E692E184CF8FEF80930201F5CF99
:105070008330C9F128F4813061F0823019F108954C
:10508000853009F452C008F43FC0863009F45EC090
:10509000089580910701681790F4861B809307019B
:1050A000809107011F928F9382E592E19F938F93E6
:1050B0000E94CF0E0F900F900F900F9008951092B6
:1050C0000701EECF80910601681750F4861B80938C
:1050D0000601809106011F928F9380E492E1E6CF52
:1050E00010920601F6CF80910501681750F4861BD7
:1050F00080930501809105011F928F938DE292E1CB
:10510000D5CF10920501F6CF80910401681750F4B5
:10511000861B80930401809104011F928F9388E184
:1051200092E1C4CF10920401F6CF80910301681779
:1051300050F4861B80930301809103011F928F938B
:105140008FEF91E1B3CF10920301F6CF809102016E
:10515000681750F4861B80930201809102011F9210
:105160008F9384EE91E1A2CF10920201F6CFCF93FC
:10517000C82F1F928F9389EE94E19F938F930E9483
:10518000CF0E61E070E080E090E004C0660F771F12
:10519000881F991FCA95D2F70E94FA1F0F900F908F
:1051A0000F900F90CF910C94271CCF93DF938B31EE
:1051B00009F409C208F0A0C18B3009F4C7C108F096
:1051C0006AC1863009F4D5C148F4853009F4A2C11A
:1051D0008DE799E10E94360E80E0DBC1873009F44B
:1051E000DBC18830A9F78CE19AE10E94360E8DE68A
:1051F00099E10E94360E0E94D8221F928F938AE670
:1052000099E19F938F930E94CF0E88E699E10E94C7
:10521000360E0E94D422C82F85E599E10E94360EF1
:105220001F92CF9380E599E19F938F930E94CF0EB9
:105230008EE499E10E94360E84E499E10E94360ED4
:105240008C2F81701F928F9381E499E19F938F93AC
:105250000E94CF0E8FE399E10E94360E85E399E11B
:105260000E94360EC1FB882780F91F928F9382E33C
:1052700099E19F938F930E94CF0E80E399E10E9462
:10528000360E84E299E10E94360EC2FB882780F92F
:105290001F928F9381E299E19F938F930E94CF0E8B
:1052A0008FE199E10E94360E86E199E10E94360E67
:1052B000C3FBCC27C0F91F92CF9383E199E19F9361
:1052C0008F930E94CF0E81E199E10E94360E0E94D9
:1052D000DC22EC018DEF98E10E94360EDF93CF9334
:1052E00088EF98E19F938F930E94CF0E86EF98E10D
:1052F0000E94360E8DED98E10E94360E8C2F817043
:105300001F928F938AED98E19F938F930E94CF0E07
:105310008DB79EB780960FB6F8949EBF0FBE8DBF17
:1053200088ED98E10E94360E81EC98E10E94360EDD
:10533000C1FB882780F91F928F938EEB98E19F9392
:105340008F930E94CF0E8CEB98E10E94360E8AEA72
:1053500098E10E94360E8D2F81701F928F9387EAFD
:1053600098E19F938F930E94CF0E85EA98E10E9467
:10537000360E83E998E10E94360ED695D1701F92C1
:10538000DF9380E998E19F938F930E94CF0E8EE880
:1053900098E10E94360E8CE798E10E94360EC2FB1F
:1053A000882780F91F928F9389E798E19F938F93C5
:1053B0000E94CF0E87E798E10E94360E85E698E1BD
:1053C0000E94360EC3FB882780F91F928F9382E6D6
:1053D00098E19F938F930E94CF0E80E698E10E9400
:1053E000360E86E598E10E94360EC4FB882780F9C8
:1053F0001F928F9383E598E19F938F930E94CF0E26
:1054000081E598E10E94360E8FE398E10E94360E06
:10541000C5FB882780F91F928F938CE398E19F93B7
:105420008F930E94CF0E8AE398E10E94360E8EE1A0
:1054300098E10E94360EC6FB882780F91F928F9351
:105440008BE198E19F938F930E94CF0E8DB79EB70B
:1054500080960FB6F8949EBF0FBE8DBF89E198E18C
:105460000E94360E81E198E10E94360EC7FBCC27E0
:10547000C0F91F92CF938EE098E19F938F930E9483
:10548000CF0E8CE098E10E94360E0F900F900F9097
:105490000F9081E07EC0803109F4ADC080F48E3081
:1054A00009F096CE9091D701892F8B7F92FF84606F
:1054B0008093D70182FF9CC088EA99E190C0863131
:1054C00009F4A9C0893109F083CE83E396E10E94F3
:1054D000360E8AE196E10E94360E87EE95E10E9433
:1054E000360E89EB95E10E94360E83E895E10E9425
:1054F000360E87E595E12CC08A32A1F1E8F48732B7
:1055000069F128F48E3108F463CE8D5128C08932B8
:1055100009F05ECE0E94271C8BEE99E10E94360EA8
:105520009FEF23ED80E3915020408040E1F700C0E1
:1055300000000E949C24ADCF833468F48A3308F0C5
:10554000A1C0853359F0883309F042CE89E696E14F
:105550000E94360E9ECF833409F03ACE80E00E943E
:10556000B72897CF8BE09AE10E94360E0E946623FF
:1055700090CF8091D701807F8093D70182E496E11C
:105580000E94360E87E09AE10E94360E81E08093F9
:10559000E401DF91CF9108959091D701892F8E7FFB
:1055A00090FF81608093D70180FF03C08FED99E168
:1055B000CFCF82ED99E10E94360E8091D701817F95
:1055C0008093D70166CF9091D701892F8D7F91FF6E
:1055D00082608093D70181FF08C085EC99E10E9429
:1055E000360E8091D7018160EBCF87EB99E1B0CF88
:1055F00088E999E1ADCF9091D701892F877F93FFFB
:1056000088608093D70183FF03C08CE899E1E7CFDE
:105610008FE799E19DCF89E495E10E94360E0E94C3
:105620007F161F928F938FE295E19F938F930E9435
:10563000CF0E809112011F928F9388E195E19F9385
:105640008F930E94CF0E8091F1011F928F9385E07E
:1056500095E19F938F930E94CF0E0E9442249F93C7
:105660008F937F936F938EEE94E19F938F930E941D
:10567000CF0E8DB79EB742960FB6F8949EBF0FBE61
:105680008DBF07CF89536BCF80E008950C94442BD6
:105690008E518A3030F4E82FF0E0EC5DFE4F8081CF
:1056A000089580E00895CF93C82F8091E401813060
:1056B000C1F0882339F0823009F447C01092E40128
:1056C00080E00DC00E94F0218232D1F78C2F0E9421
:1056D000442B81111BC08C2F0E94D5288170CF9143
:1056E00008950E94F021823289F38C2F0E94462B6C
:1056F00081111BC0C431D9F060F4CB3071F0C031DE
:10570000D1F08FED94E10E94360E13C081E090E05D
:10571000E5CFC93261F0C833A1F782E496E10E9477
:10572000360E85EE94E10E94360E81E0D7CF1092BE
:10573000E40180E0D3CF0E947D2781EE94E10E94B6
:10574000360E82E08093E401F0CFC432C8F4CE314B
:1057500008F0BEC0CB30E1F040F4C73009F4CCC053
:1057600083E893E10E94360E26C0C331C1F1C431F3
:10577000B9F78091E301882351F11092E3010AC047
:10578000CB3409F4B7C0C8F4C93299F3C83341F730
:105790000E947D278091E301882309F4C4C01F92F1
:1057A0008F938DE793E19F938F930E94CF0E0F907D
:1057B0000F900F900F9081E092CFC13509F494C003
:1057C000C23509F48BC0CE3459F66AE08EC082E946
:1057D00093E10E94360E81E08093E40180CF8CE655
:1057E00093E10E94360E8AE593E10E94360E809185
:1057F00007011F928F9387E593E19F938F930E94F8
:10580000CF0E85E593E10E94360E83E493E10E947A
:10581000360E809106011F928F9380E493E19F934F
:105820008F930E94CF0E8EE393E10E94360E8FE29B
:1058300093E10E94360E809105011F928F938CE2B6
:1058400093E19F938F930E94CF0E8AE293E10E948F
:10585000360E89E193E10E94360E809104011F9279
:105860008F9386E193E19F938F930E94CF0E84E103
:1058700093E10E94360E8FEF92E10E94360E8091E6
:1058800003011F928F938CEF92E19F938F930E945D
:10589000CF0E8AEF92E10E94360E83EE92E10E94D3
:1058A000360E809102011F928F9380EE92E19F93BA
:1058B0008F930E94CF0E8EED92E10E94360E8DB72F
:1058C0009EB748960FB6F8949EBF0FBE8DBF62CFAD
:1058D0008C2F0E94482B8093E3015CCF61E0809184
:1058E000E3010E94942756CF61E08091E3010E947A
:1058F000382850CF6AE0F3CF8EE18093070182E32E
:10590000809306018AE08093050184E1809304017D
:1059100088E08093030188E28093020185E893E1A7
:105920000E94360E37CF8AE793E11CCF8091F001B9
:1059300008959FB7F8941092E7019FBF9091FF01DF
:10594000943009F048C02091E9002F703091EC00AC
:10595000932F917030FD90E8922B23E02093E90083
:105960002091EB0020FF34C02091EE0027FF30C0D3
:105970002091E501222321F02091E80025FF28C095
:105980001092E50126E03091E80035FF14C08093C5
:10599000F1008091E80085FD27C08091E80080FF3C
:1059A000FCCF8091E8008E778093E8009F70909301
:1059B000E90080E008953091FF01343049F43091DE
:1059C000EB0035FD05C0215041F481E08093E501F5
:1059D0009F709093E9008FEF0895EFE9FFE0319712
:1059E000F1F700C00000CFCF8FB7F89421E02093EB
:1059F000E7018FBFDBCF0F931F93CF93DF9300D0CF
:105A00000F92CDB7DEB78C010E94942F823011F037
:105A1000843021F584E089831B830A8382E08093AC
:105A2000E9008FEF9091E800815095FD06C095ED5B
:105A30009A95F1F700008111F5CF8091E80085FF7C
:105A40000DC050E040E063E070E0CE0101960E949E
:105A5000B12F8091E8008E778093E8000F900F902F
:105A60000F90DF91CF911F910F910895CF93DF9306
:105A700000D00F92CDB7DEB72091FF01243031F571
:105A800023E02983805891099B838A8382E0809355
:105A9000E9008FEF9091E800815095FD06C095EDEB
:105AA0009A95F1F700008111F5CF8091E80085FF0C
:105AB0000DC050E040E063E070E0CE0101960E942E
:105AC000B12F8091E8008E778093E8000F900F90BF
:105AD0000F90DF91CF910895CF93DF93EC010E9457
:105AE000942F823011F08430F9F482E08093E90041
:105AF0008FEF9091E800815095FD06C095ED9A9545
:105B0000F1F700008111F5CF8091E80085FF0CC00E
:105B100050E040E066E070E0CE010E94B12F80913D
:105B2000E8008E778093E800DF91CF910895CF93BE
:105B3000DF93EC010E94942F823011F0843039F50C
:105B400081E08093E9008FEF9091E800815095FD0E
:105B500006C095ED9A95F1F700008111F5CF80917F
:105B6000E80085FF14C050E040E068E070E0CE013E
:105B70000E94B12F8091E8008E778093E80088E042
:105B8000FE01A8EEB1E001900D928A95E1F7DF9158
:105B9000CF91089584E49AE10C94360E80E49AE162
:105BA0000C94360E8CE39AE10E94360E0C94FE2380
:105BB0002091E6012F5F822F62E30E941C3499231B
:105BC00019F02093E60108951092E6018091E70113
:105BD0008823F1F08091FF018430C1F49091E900B5
:105BE0009F702091EC00822F817020FD80E8892B2E
:105BF00093E09093E9009091EB0090FF04C09091A6
:105C0000EE0097FD08C08F708093E9001092E701C5
:105C100008951092F1009091E80095FDFACF9091CF
:105C2000E80090FFF0CF9091E8009E779093E80015
:105C3000EACF42E061EC81E00E94B93042E261ECDF
:105C400082E00E94B93042E261EC83E00C94B9300A
:105C500080910102833009F45DC030F48130B1F1EC
:105C6000823009F499C008958A3009F485C08B30D8
:105C700009F46BC0893009F04CC080910002813278
:105C800009F047C08091040290910502029708F044
:105C900040C08091E800877F8093E8008091E80011
:105CA00082FF33C08091F200823029F48091F100AC
:105CB0008B7F813021F48091F1008093F0018091FD
:105CC000E8008B778093E8000C94ED30809100021F
:105CD000813AF9F48091E800877F8093E800809111
:105CE000040290910502892B61F468E088EE91E04E
:105CF00070E00E9400308091E8008B778093E8008C
:105D0000089560E090E080E0F3CF8091FF01811181
:105D1000C5CF089580910002813AD9F7809104029D
:105D200090910502892BA9F78091E800877F8093E5
:105D3000E8008091E80080FFFCCF80911201809301
:105D4000F1008091E8008E77BDCF80910002813212
:105D500001F78091040290910502892BD1F6809180
:105D6000E800877F8093E8000E94ED308091020276
:105D7000809312010C94271C80910002813249F615
:105D80008091E800877F8093E8000E94ED30809149
:105D900003028093F101089580910002813A09F095
:105DA000B8CF8091E800877F8093E8008091E80079
:105DB00080FFFCCF8091F101C2CF84B7877F84BF81
:105DC0000FB6F894A8958091600088618093600078
:105DD000109260000FBE80E8809361001092610015
:105DE0000E9418170E943D310E9490318091E2007C
:105DF00084608093E20089E99CE20E949F2278946B
:105E00000E94E7330E941E1788E091E00E947A16F4
:105E10008BE29AE10E94360E8091FF01853019F0E5
:105E20000E944E17F9CF87E29AE10E94360E0E9437
:105E3000B5238091FD01882379F30E94E62388230E
:105E400059F30E949B2FE8CF0C94262F292F33273C
:105E50002330310521F168F42130310509F449C0BE
:105E60002230310509F44AC090E080E030E020E0C3
:105E700029C02132310581F122323105A9F7633081
:105E8000710590F7FB01EE0FFF1FEF5CFE4F2081C5
:105E90003181625D7E4FFB01808190E013C09927C4
:105EA0008130910599F0009741F08230910589F099
:105EB0000397D1F6E8E4FAE102C0EAE6FAE1849158
:105EC00090E09F01FA01318320830895ECE5FAE127
:105ED000F6CFEEE4FAE1F3CF6330710528F6660FF2
:105EE000771FFB01E95CFE4F2081318189E090E062
:105EF000E9CF82E190E029EC3AE1E4CF8BE590E054
:105F00002EE63AE1DFCF0895CF93C82F0E94832F6A
:105F1000C093F201CF9108958091FF01843011F474
:105F200082E0089581E008958091F201811102C01C
:105F30000C948C2F089584E089BD86E089BD09B456
:105F400000FEFDCF8091D8008F7D8093D800809196
:105F5000E00082608093E0008091E00081FDFCCF52
:105F60000895AF92BF92CF92DF92FF920F931F934B
:105F7000CF93DF936C01EB018A010E940C31F82E64
:105F8000811123C00115110539F0F801808191813B
:105F9000C81BD90BC80ED91EB12CA12C2097A9F073
:105FA0008091E80085FD22C08091E8008E77809383
:105FB000E80001151105A1F0F80180819181A80E7A
:105FC000B91EB182A08285E0F82E8F2DDF91CF918E
:105FD0001F910F91FF90DF90CF90BF90AF900895E9
:105FE0000E940C318823D1F2F82EEFCFF601819177
:105FF0006F018093F1002197FFEFAF1ABF0ACECF58
:10600000FC01809106029091070286179707A0F085
:106010006115710529F49091E8009E779093E8004E
:1060200090E06115710551F4911108C08091E8006C
:1060300082FF32C080E00895BC01F2CF8091FF0161
:106040008823B1F18530B1F18091E80083FD2EC045
:106050008091E80082FDEACF8091E80080FFE1CFE7
:106060002091F20030E06115710519F028303105FA
:1060700058F091E02830310509F090E02091E800D7
:106080002E772093E800CDCF81918093F10061506D
:1060900071092F5F3F4FE7CF8091FF01882341F0C7
:1060A000853041F08091E80083FFC0CF81E0089502
:1060B00082E0089583E00895FC01809106029091AA
:1060C000070286179707A0F06115710529F48091E2
:1060D000E8008E778093E80090E06115710551F437
:1060E000911108C08091E80082FF33C080E00895DC
:1060F000BC01F2CF8091FF018823B9F18530B9F15D
:106100008091E80083FD2FC08091E80082FDEACFF6
:106110008091E80080FFE1CF2091F20030E061152E
:10612000710519F02830310558F091E0283031051B
:1061300009F090E08091E8008E778093E800CDCF61
:1061400084918093F1003196615071092F5F3F4F28
:10615000E6CF8091FF01882341F0853041F08091A6
:10616000E80083FFBFCF81E0089582E0089583E0D7
:106170000895982F953028F08F708093E90081E082
:1061800008959093E900242F762F50E0981731F06E
:106190007091EC002091ED005091F00021FD02C0C3
:1061A0009F5FE8CF3091EB003E7F3093EB00309162
:1061B000ED003D7F3093ED003091EB003160309386
:1061C000EB007093EC002093ED005093F0002091D1
:1061D000EE0027FDE5CF80E008958091000287FF63
:1061E00013C08091E80082FF06C08091E8008B77A1
:1061F0008093E80004C08091FF018111F2CF0895DF
:106200008091FF018823D9F38091E80080FFF8CFC7
:106210008091E8008E77ECCF2091E4003091E5008A
:1062200095E6A9012091EC00822F817020FF06C025
:106230008091E80080FF06C080E008952091E8008A
:1062400022FD1AC08091FF01882389F0853089F0F2
:106250008091EB0085FD0FC02091E4003091E500B6
:1062600042175307F9F29150E1F684E0089582E075
:10627000089583E0089581E008950E949A310E9474
:106280009D31E0EEF0E0808181608083E8EDF0E018
:1062900080818F77808319BCE3E6F0E080818160A4
:1062A00080831092FE0108950E949A310E949D31D0
:1062B0008091D8008F778093D8008091D800806833
:1062C0008093D8008091D8008F7D8093D80084E09F
:1062D00089BD86E089BD09B400FEFDCF1092FF01A3
:1062E0001092FB011092FD011092FC0142E060E06F
:1062F00080E00E94B9308091E1008E7F8093E100C0
:106300008091E20081608093E2008091E2008860E9
:106310008093E2008091E0008E7F8093E0000895FA
:10632000E3E6F0E080818E7F808381E08093FE0150
:106330000C9454311092E20008951092E1000895F7
:106340001F920F920FB60F9211242F933F934F93EA
:106350005F936F937F938F939F93AF93BF93EF93CD
:10636000FF938091E10082FF0BC08091E20082FFE9
:1063700007C08091E1008B7F8093E1000E94D82DBF
:106380008091E10080FF19C08091E20080FF15C07C
:106390008091E2008E7F8093E2008091E200806134
:1063A0008093E2008091D80080628093D80019BC6D
:1063B00085E08093FF010E94CE2D8091E10084FF53
:1063C0002BC08091E20084FF27C084E089BD86E075
:1063D00089BD89B5982F917080FFFBCF8091D8003F
:1063E0008F7D8093D8008091E1008F7E8093E100C3
:1063F0008091E2008F7E8093E2008091E2008160D4
:106400008093E2008091FB01882309F443C084E07B
:106410008093FF010E94D22D8091E10083FF29C06B
:106420008091E20083FF25C08091E100877F809307
:10643000E10082E08093FF011092FB018091E10076
:106440008E7F8093E1008091E2008E7F8093E20056
:106450008091E20080618093E20042E060E080E0B1
:106460000E94B9308091F00088608093F0000E9413
:10647000CA2DFF91EF91BF91AF919F918F917F9125
:106480006F915F914F913F912F910F900FBE0F90A1
:106490001F9018958091E30087FD93E09093FF0192
:1064A000B9CF1F920F920FB60F9211242F933F93E3
:1064B0004F935F936F937F938F939F93AF93BF930C
:1064C000CF93DF93EF93FF93D091E900DF7080913A
:1064D000EC00C82FC17080FDC0E81092E9008091E7
:1064E000F000877F8093F00078940E94953210929C
:1064F000E9008091F00088608093F000CD2BCF7090
:10650000C093E900FF91EF91DF91CF91BF91AF91DF
:106510009F918F917F916F915F914F913F912F91BB
:106520000F900FBE0F901F9018951F93CF93DF937E
:10653000CDB7DEB7AA970FB6F894DEBF0FBECDBFBA
:1065400080E092E02091F100FC012193CF01F2E084
:1065500088309F07B9F70E94282E8091E80083FFBA
:106560001EC180910002909101029A3008F017C17B
:10657000E92FF0E0E854FB4C0C943C34803899F05F
:10658000823809F00CC1809104028F70853008F0C8
:1065900006C18093E9008091EB0085FB882780F994
:1065A0001092E90006C08091FC019091FD019111CB
:1065B00082609091E800977F9093E8008093F100CB
:1065C0001092F1008091E8008E77E5C0882309F4ED
:1065D000D3C0823009F0E3C0809102028111D6C09D
:1065E000809104028F702FEF280F243008F0D7C05D
:1065F0008093E9002091EB0020FFC8C0933031F474
:106600008091EB0080628093EB00C0C09091EB0022
:1066100090619093EB0021E030E001C0220F8A9559
:10662000EAF72093EA001092EA008091EB0088607C
:10663000EACF8111B4C0109102021F778091E3006C
:106640008078812B8093E3008091E800877F80939E
:10665000E8000E94ED308091E80080FFFCCF80913F
:10666000E30080688093E30082E0111183E080936F
:10667000FF0195C08058823008F091C080910202DD
:10668000909103028C3D23E09207A1F583E08A8379
:106690008AE289834FB7F894DE01139620E03EE04A
:1066A00051E2E32FF0E050935700E49120FF03C044
:1066B000E295EF703F5FEF708E2F90E0EA30C0F010
:1066C000C7968D939D932F5F243159F74FBF8091CB
:1066D000E800877F8093E8006AE270E0CE010196CF
:1066E0000E9400308091E8008B778093E80057C0CB
:1066F000C096E7CF6091040270910502AE014F5F32
:106700005F4F0E94242FBC01892B09F448C090914F
:10671000E800977F9093E80089819A810E945C301D
:10672000E1CF8038E1F58091E800877F8093E80031
:106730008091FB018093F10045CF811130C0909191
:106740000202923060F58091E800877F8093E80034
:106750009093FB010E94ED308091FB01882311F0A2
:1067600084E005C08091E30087FDFACF81E080934B
:10677000FF010E94192E13C080910202813079F42A
:1067800081E0933009F080E08093FD011092E900F0
:106790008091E800877F8093E8000E94ED3080912F
:1067A000E80083FF0AC08091E800877F8093E800BB
:1067B0008091EB0080628093EB00AA960FB6F8946C
:1067C000DEBF0FBECDBFDF91CF911F910895CF9354
:1067D0008091FF018823A1F0C091E900CF709091D2
:1067E000EC00892F817090FD80E8C82B1092E900A1
:1067F0008091E80083FD0E949532CF70C093E9003C
:10680000CF910895002480FD060E660F11F0869545
:10681000D1F7802D08950024552704C0080E591F74
